:0200000280007C
:10000000D0B10720B52C0800B12C0800B12C080095
:10001000B12C0800B12C0800B12C08000000000031
:10002000000000000000000000000000C5100800F3
:10003000B12C080000000000411108007D110800EB
:10004000B12C0800B12C0800B12C0800B12C08001C
:10005000B12C0800B12C0800B12C0800B12C08000C
:10006000B12C0800B12C080000000000212B080072
:10007000352B0800492B08005D2B0800000000000C
:1000800000000000B12C0800B12C0800B12C0800C1
:10009000B12C0800B12C0800B12C0800B12C0800CC
:1000A000B12C080000000000B12C0800B12C0800A1
:1000B000B12C0800B12C0800B12C0800B12C0800AC
:1000C000B12C0800B12C0800B12C0800B12C08009C
:1000D000B12C0800B12C0800B12C0800B12C08008C
:1000E000B12C0800B12C0800B12C0800B12C08007C
:1000F000B12C080008B50548054B1B1A062B00D883
:1001000008BD044B002BFBD09847F9E75461080069
:10011000576108000000000008B50748074B1B1A8C
:100120009B1003EBD373591000D108BD044A002A79
:10013000FBD09047F9E700BF546108005461080004
:100140000000000010B5064C237843B9FFF7D2FF3A
:10015000044B13B10448AFF300800123237010BD9A
:10016000900D0720000000005461080008B5084BFE
:100170001BB108480849AFF300800848036813B171
:10018000074B03B19847BDE80840FFF7C5BF00BF64
:100190000000000054610800940D0720546108001D
:1001A0000000000030B4012404600024446040F2E8
:1001B0000225C0F82051C0F80441C0F81441456838
:1001C0001B0403F470231D435200B1FBF2F14A1EDD
:1001D000120292B215434560204630BC704700BF02
:1001E0004368090101F010010B434360704700BFF1
:1001F00010B444682243090601F0706422431B07CF
:1002000003F040531A4342605DF8044B704700BF4F
:1002100002230360704700BF012303FA01F101616B
:10022000704700BF006B704730B41F4B1C681F4AFB
:100230004FF4C87303FB04F3642505FB0133D518A1
:10024000D258821A002AB8BF52426B68C31A002BD8
:10025000B8BF5B429A4217DA12E003EB830021E059
:100260001A4651F8045F531C451B002DB8BF6D4260
:100270004C68041B002CB8BF6442A5420FDA00E0B2
:10028000002202EB82000DE04FF4C87303FB04F47C
:10029000642303FB0141054B19440122E1E7182BBC
:1002A000DED1DAE730BC7047B80D07200C0007201C
:1002B00070B4114A8D006C18A4001319DE681E6119
:1002C0009E68DE605E689E6016595E60105129442B
:1002D00002EB810100231A46C85802440433142B50
:1002E000FAD1064880FB0230D217C2EB6000044B03
:1002F000186070BC704700BF34910720676666665F
:100300003091072038B52520104B9847104C2046D7
:100310001049114A0823114DA847204600214FF4E7
:10032000401201230E4DA847204600210D4B98474F
:10033000204603210C4DA84720460421A84720460B
:100340000521A84720460621A84738BD592C08009A
:1003500000000C40007A030A00BD0105A501080059
:10036000F1010800E1010800190208002DE9F0413F
:100370000C46904660B9002A0EDD8F18094E0A4DD2
:10038000306821462B6898470134BC42F8D106E01A
:100390004FF0FF30BDE8F0810020BDE8F08140461D
:1003A000BDE8F0818C910720849107202DE9F04170
:1003B0000E461546013802280FD892B10024DFF806
:1003C0003C800D4FD8F80000315D3B68984700280D
:1003D0000ADB0134A542F5D10AE04FF0FF30BDE859
:1003E000F0810020BDE8F0814FF0FF30BDE8F081E2
:1003F0002046BDE8F08100BF889107208C9107203E
:1004000010B4AC2303600A684B68B2FBF3F31B091A
:100410005C1E4FF6FE7294420AD803628B684360FA
:1004200040F20223C0F8203150230360002000E096
:1004300001205DF8044B7047436913F0020F02D0AE
:10044000C161002070470120704700BF436913F06D
:10045000010F03D083690B700020704701207047A3
:10046000436913F0020F04D0C1F30801C1610020F9
:1004700070470120704700BF436913F0010F05D09A
:100480008369C3F308030B600020704701207047A5
:1004900010B50446012908D100F59670074B98471E
:1004A00040F23A20064B984710BD4FF49670034B2C
:1004B000984704F23A20024B984710BD850E080079
:1004C000590E080000000000F8B50E4602212E4D1E
:1004D000A8472E4C206030460321A8472C4E3060A0
:1004E000206802212B4DA8472B4C20603068032147
:1004F000A8472A4B18602368181A294B1860294FFF
:10050000B847294E1CA3D3E90023B04704460D4643
:10051000264B1868B8471AA3D3E90023B047024610
:100520000B4620462946224CA04702460B46002097
:100530000021204CA047204B9847204B18600028F2
:10054000BDBF40421860002201221D4B1A60144BAF
:100550001A68164B1A60194B1C682046114B9847B5
:10056000184BC3E900012046154B1968164B9847F4
:10057000F8BD00BFAFF30080765DD7755DD733401F
:10058000310CC3300CC32DC0B10208009491072078
:10059000A4910720290208009C9107209891072028
:1005A00090910720FD310800C9320800C00D0720D6
:1005B000652F0800612F0800ED360800A89107207C
:1005C000A0910720B091072091040800AFF30080AC
:1005D0002DE9F04182B0184B9847ADF80600174C52
:1005E000174D2046174B98472046A84710F0807FAC
:1005F000FAD0A76E666EDFF86080D8F800000021A0
:100600004FF6FF720B46DFF854C0E0470E4B1F60F9
:100610000E4B1E60D8F8000000210A460B46DFF89A
:1006200040C0E04738463146094B98470DF1060077
:100630003221084B9847D4E7791B080000000C4092
:100640002502080011020800B40D0720B00D072094
:10065000C9040800D11D0800D00D0720E9160800C4
:100660003515080010B50446012908D100F23A20DA
:10067000074B98474FF49670064B984710BD40F2D1
:100680003A20034B984704F59670024B984710BDEB
:100690002D0E0800010E08002DE9F8430E4600213A
:1006A0002F4DA8472F4C206030460121A8472E4EE1
:1006B0003060206800212D4DA8472D4C20602D4B27
:1006C000186030680121A8472B4B18602B4B18602D
:1006D0002668361A2A4B1E60DFF8C0903046C8479D
:1006E000DFF8C4801AA3D3E90023C04704460D46AF
:1006F000244F3868C84718A3D3E90023C0470246EF
:100700000B4620462946204CA04702460B460020B7
:1007100000211E4CA0471E4B98471E4B18603E60A0
:100720000028BDBF40421860002201221A4B1A70F7
:10073000184B1C682046194B9847194BC3E9000118
:100740002046154B93F90010164B9847BDE8F883E7
:10075000765DD7755DD73340310CC3300CC32DC0E7
:10076000B1020800B8910720C491072029020800AF
:10077000BC910720C40D0720C0910720C80D072099
:1007800090910720CC0D0720652F0800612F0800ED
:10079000ED360800A8910720A0910720FD31080040
:1007A000B091072065060800C9320800AFF3008049
:1007B0002DE9F04182B0184B9847ADF80600174C70
:1007C000174D2046174B98472046A84710F0807FCA
:1007D000FAD0E76D266EDFF86080D8F800000021BF
:1007E0004FF6FF720B46DFF854C0E0470E4B1F6018
:1007F0000E4B1E60D8F8000000210A460B46DFF8B9
:1008000040C0E04738463146094B98470DF1060095
:100810003221084B9847D4E7791B080000000C40B0
:100820002502080011020800BC0D0720AC0D0720AE
:1008300099060800D11D0800D00D0720E916080010
:1008400035150800F0B583B004460D461F4B98429D
:1008500007D11F461E4E38462946B0470028FAD118
:1008600019E01C4B984209D11F461B4E384601A97E
:10087000B0470028FAD1019B2B7019E0174B984222
:1008800009D11E46144C304601A9A0470028FAD1D0
:10089000019B2B7018E0124B9C4209D11E460E4C56
:1008A000304601A9A0470028FAD1019B2B700BE02C
:1008B0000C4B9C4208D11E46074C304601A9A0476C
:1008C0000028FAD1019B2B7003B0F0BD00080E4048
:1008D0004D040800008009407904080000C0094068
:1008E00000000A4000400A4070B50C46214B984277
:1008F00007D11E46204D30462146A8470028FAD190
:100900002BE01E4B984207D11E461D4D3046214616
:10091000A8470028FAD122E01A4B984207D11E4678
:10092000174D30462146A8470028FAD119E0164B4A
:10093000984207D11E46124D30462146A84700284E
:10094000FAD110E0114B98420FD11E460C4D3046A3
:100950002146A8470028FAD109E0012070BD0120F6
:1009600070BD012070BD012070BD002070BD012050
:1009700070BD00BF00080E40390408000080094027
:100980006104080000C0094000000A4000400A401D
:1009900008B504282ED8DFE800F0030C2D151A0046
:1009A00040F2E730144B984740F2E730134B98473A
:1009B00008BD40F2E730124B984740F2E730114B48
:1009C000984708BD40F2E7300F4B984708BD40F20A
:1009D0003A20094B984740F23A20084B98474FF489
:1009E0009670074B98474FF49670064B9847074808
:1009F000074B984708BD00BF2D0E0800590E080090
:100A0000850E0800010E0800DD0E080080C3C90134
:100A10000100072008B50B4B98474FF461700A4B53
:100A200098470020094B98470020094B9847002021
:100A3000084B98470020084B98470020074B9847E1
:100A400008BD00BF3D0C0800B10E0800DD0E080017
:100A5000010E08002D0E0800590E0800850E080032
:100A600010B584B0022300930023019302930393F3
:100A7000184819494FF40062184CA047012802D0C9
:100A80001748184B984702230093002301930293C1
:100A90000393154815494FF40062104CA0470128F4
:100AA00002D013480F4B9847012300930023019372
:100AB000029303930F4810494FF40062074CA0477C
:100AC000012802D00D48074B98470D4B984704B0BA
:100AD00010BD00BFB1070800405F0800F51808000E
:100AE000545F0800C1370800D10508007C5F08008A
:100AF0008C5F0800090F0800B45F0800C45F08009D
:100B0000FD1A080010B50120002103220B4B984765
:100B10000B4B186020B100210A460B46094CA04738
:100B2000012000210322054B9847074B186020B194
:100B300000210A460B46034CA04710BDDD140800F7
:100B4000D40D072035150800D00D072030B585B02D
:100B5000274B9847274B98470B20274CA0470C2042
:100B6000A0470D20A0470E20A0470820A047234DF6
:100B7000234B1D60234A244B1A60244A244B1A60DD
:100B8000244B00934FF4E13301934FF4006302933D
:100B90000820A047284669461F4B98471F4D2B68E1
:100BA000986800211E4CA0472B6858680021A04778
:100BB0001C4B4FF480725A665A655A62C3F8802003
:100BC0001A6F22F480721A672B6898680021A04778
:100BD000154B9847154B9847154B98470420154CD3
:100BE000A0470020A047144B9847002005B030BD17
:100BF000CD27080031280800592C080000080E40B5
:100C00008C910720E9080800889107204508080012
:100C10008491072000BD010501040800D0040720CD
:100C200023380800000E0E4005030800150A0800CE
:100C3000050B080091090800610A08002DE9F04F32
:100C400085B024205D4DA8475D4C204600215D4EB7
:100C5000B04720460121B04720460221B047204638
:100C60000321B04720460421B04720460521B04764
:100C70002420A847544B019300250295534B03931E
:100C8000204601A9524B984720462946514FB84764
:100C900020460121B84720460221B84720460321BB
:100CA000B84720460421B84720460521B8474A499D
:100CB0000D818D724FF00B0AC1F804A040F2E739A4
:100CC000C1F81090CD600D602046DFF82C81C04740
:100CD00042484FF080514FF48032414FB847204690
:100CE0002946B0473F490D818D72C1F804A0C1F873
:100CF0001090CD6001230B602046C047DFF8FCB0A8
:100D000058464FF080511022B84720460121B04785
:100D100035490D818D72C1F804A0C1F81090CD60E5
:100D200002230B602046C04758464FF080514022B6
:100D3000B84720460221B0472C490D818D72C1F879
:100D400004A0C1F81090CD6003230B602046C0477B
:100D500058464FF080514FF48072B8472046032127
:100D6000B04723490D818D72C1F804A0C1F81090DD
:100D7000CD6004230B602046C04758464FF0805199
:100D80004FF40012B84720460421B04719490D819D
:100D90008D72C1F804A0C1F81090CD6005250D60DA
:100DA0002046C04758464FF080514FF48002B84764
:100DB00020462946B04705B0BDE8F08F592C080001
:100DC00000400940B5270800583E0F00007A030A8A
:100DD0004D260800C1270800300E072000100E40E5
:100DE000B1280800840E0720B00E07205C0E0720F3
:100DF000040E0720DC0D07208D26080000120E408F
:100E000008B540F2E732904238BF0246034B1A6001
:100E100003480449044B984708BD00BF580E0720FB
:100E200000400940300E07209127080008B540F225
:100E3000E732904238BF0246034B1A600348044928
:100E4000044B984708BD00BFDC0E07200040094056
:100E5000840E07209127080008B540F2E73290423F
:100E600038BF0246034B1A6003480449044B9847B5
:100E700008BD00BFD80D072000400940B00E072074
:100E80009127080008B540F2E732904238BF024689
:100E9000034B1A6003480449044B984708BD00BF40
:100EA000D80E0720004009405C0E0720912708005B
:100EB00008B540F2E732904238BF0246034B1A6051
:100EC00003480449044B984708BD00BFAC0E0720F7
:100ED00000400940040E07209127080008B540F2A1
:100EE000E732904238BF0246034B1A600348044978
:100EF000044B984708BD00BF2C0E07200040094056
:100F0000DC0D0720912708002DE9F04F8DB0274B0D
:100F10009847ADF82E00DFF8D090254ED9F80000A4
:100F200000214FF6FF720B46B047224BD3F800A0CA
:100F3000214BD3F80080214B1F68214BD3F800B020
:100F4000D9F8000000210A460B461E4CA0471E4D52
:100F5000286800214FF6FF720B46B0471B4B1B68F9
:100F600006931B4B1B6807931A4B1B6808931A4B7D
:100F70001B680993286800210A460B46A047CDF854
:100F800000B0069B0193079B0293089B0393099B68
:100F900004931248514642463B46114CA0470DF17E
:100FA0002E004FF47A710F4B9847B7E7791B080072
:100FB000E9160800DC0E0720D80D0720D80E072000
:100FC000AC0E072035150800D00D0720B40D072002
:100FD000B00D0720BC0D0720AC0D07206C60080089
:100FE000C1370800D11D0800D40D072000F1080307
:100FF00043604FF6FF720281C36003610023036008
:10100000704700BF00230361704700BF43685A6800
:101010004A6042688A605A6891605960416008611C
:10102000036801330360704710B40C884FF6FF73F8
:101030009C4201D103690CE000F10803C2681288E8
:1010400092B2944205D35B685A68128892B2944275
:10105000F9D25A684A6091608B60596008610368F0
:10106000013303605DF8044B704700BF436882683A
:101070009A60836842685A6003695A68824204BF72
:1010800082685A60002202611A68013A1A60186880
:10109000704700BF03480068006880F3088862B6A4
:1010A00000DF00BF08ED00E04FF0807340F8043C23
:1010B00040F8081C002340F80C3C40F8202C403835
:1010C000704700BF064B19680868B0E8F00F80F35E
:1010D00009884FF0000080F311884EF00D0E704724
:1010E000089007204FF08052014B1A60704700BFF4
:1010F00004ED00E0EFF311804FF0A00181F31188BF
:101100007047002008B5034B9847034B1A6801321B
:101110001A6008BDF5100800BC04072080F3118890
:10112000704700BF08B5044A1368013B136013B948
:101130000020024B984708BDBC0407201D11080081
:10114000EFF309800C4B1A6820E9F00F10602DE9CD
:1011500008404FF0A00080F3118800F0C7FE4FF068
:10116000000080F31188BDE8084019680868B0E8FD
:10117000F00F80F3098870470890072008B54FF0FA
:101180008052054B1A60054B9847054B9847002045
:10119000044B984708BD00BF04ED00E0F5100800BF
:1011A000991B08001D110800034A044B1A6007220E
:1011B000043B1A60704700BF1F48010014E000E0C4
:1011C00010B5094B1A6842F470021A601A6842F0AE
:1011D00070421A60054B98470024054B1C60054B74
:1011E0009847204610BD00BF20ED00E0A91108007F
:1011F000BC0407209510080030B4134A13688342DA
:1012000001D21A46FAE7114654681519854203D1EE
:10121000686804445460104642688418A3420CD1A4
:101220000A4C24689C4206D05B681A4442600B68F2
:101230001B68036002E0036000E00360814218BFA6
:10124000086030BC704700BFE48E0720E08E0720A6
:1012500038B50446284B9847284B1B689BB9284A49
:10126000284B13600021516047F6F0729818234D07
:10127000286047F6F475595199505A601860224B0E
:101280001A68103A1A60002C2DD004F1100212F0E6
:10129000070F1CBF22F007020832511E47F6FE73EB
:1012A000994222D816490C6863689A4204D9236887
:1012B00013B121461C46F7E7104B1B689C4216D021
:1012C0000D68103523680B6063689B1A202B04D9C6
:1012D000A018436062600D4B98470B4B1A68616819
:1012E000521A1A6004E0002502E0002500E0002503
:1012F000074B9847284638BD691B0800E08E072039
:10130000E48E0720E00E0720C0040720F911080032
:10131000C91C080010B5044668B1074B9847074B35
:10132000196854F80C2C0A441A60A4F11000044BFC
:101330009847044B984710BD691B0800C00407205C
:10134000F9110800C91C080010B50446036C3BB92C
:1013500003681BBB4068134B9847002363601DE084
:101360006AB980681A46104B9847A268236C1344E8
:10137000A3606268934211D32368A3600EE0C06843
:101380001A46094B9847226C5242E3681344E360C3
:1013900021688B4202D263681A44E260A36B013376
:1013A000A36310BD192208000138080038B50346B0
:1013B00005685DB1026CC4681444C460406884422E
:1013C00028BFDD600846D968014B984738BD00BF8B
:1013D00001380800F8B504461D4B9847A36C002B54
:1013E00012DD636A83B104F124061A4D1A4F01E03D
:1013F000636A4BB13046A84700B1B847A36C013BC4
:10140000A364A36C002BF3DC4FF0FF33A364134BF6
:1014100098470F4B9847636C002B12DD236983B10B
:1014200004F110060B4D0C4F01E023694BB130461F
:10143000A84700B1B847636C013B6364636C002B41
:10144000F3DC4FF0FF336364044B9847F8BD00BFF3
:101450000511080029200800652108002511080051
:1014600038B50D46044618B9164B984700BFFDE73E
:10147000154B98472368226CE06B00FB02F01918AB
:1014800061600021A163A360821A1344E3604FF0FE
:10149000FF336364A36455B923697BB104F1100081
:1014A0000A4B9847012809D1094B984706E004F1F7
:1014B0001000084DA84704F12400A847064B9847A0
:1014C000012038BDF510080005110800292008008A
:1014D000E5100800ED0F080025110800F8B50D46CD
:1014E0001746064688B150200E4B9847044660B117
:1014F00005FB06F001300B4B9847206040B92046B1
:10150000094B984701E000BFFDE7084B9847FAE711
:10151000E663256420460121054B984784F84D7009
:101520002046F8BD5112080015130800F5100800F8
:10153000611408002DE9F04F85B08A469B46ADF84E
:101540000620044618B9384B984700BFFDE709B993
:10155000036C1BB90027354E354D03E0324B9847DD
:1015600000BFFDE7B047A26BE36B9A4212D2204660
:1015700051465A462F4B9847636A3BB104F1240009
:101580002D4B9847012801D12C4B9847284B984761
:10159000012046E0BDF806301BB9254B98470020D6
:1015A0003FE01FB902A8264B98470127A847254BC3
:1015B0009847B047636CB3F1FF3F04BF00236364F7
:1015C000A36CB3F1FF3F04BF0023A364A84702A8A4
:1015D0000DF106011C4B9847E8B9B047D4F8389094
:1015E000D4F83C80A847C1450FD104F11000BDF8E4
:1015F0000610164B98472046154B9847154B9847B1
:101600000028AFD10D4B9847ACE72046104B9847C8
:10161000104B9847A6E720460D4B98470D4B98472F
:10162000002005B0BDE8F08FF51008000511080096
:10163000251108004913080029200800E5100800BA
:10164000AD200800691B0800D52008007D1F080098
:10165000D5130800C91C08002DE9F0410E461546B7
:101660009846044618B91C4B984700BFFDE729B9B6
:10167000036C1BB1184B984700BFFDE7164B98470A
:101680000746A26BE36B9A4218D220463146424687
:10169000124B9847A36CB3F1FF3F0AD1636A7BB149
:1016A00004F124000E4B984760B16DB101242C6009
:1016B0000BE0A36C0133A364012406E0002404E0E2
:1016C000012402E0012400E001243846054B98473C
:1016D0002046BDE8F08100BFF5100800491308005E
:1016E000292008001D1108002DE9F04F85B089461A
:1016F0009A46ADF80620044618B9464B984700BFF5
:10170000FDE709B9036C2BB90027434EDFF838B168
:10171000424D03E03F4B984700BFFDE7B047A36B46
:10172000002B28D0E568204649463D4B9847BAF142
:10173000000F12D1A36B013BA363236813B9394B8C
:1017400098476060236993B104F11000364B9847C5
:1017500001280CD1354B984709E0E560636A33B145
:1017600004F12400304B984708B1304B98472B4B7D
:10177000984701204BE0BDF806301BB9274B98472E
:10178000002044E017B902A8D8470127A847284BF2
:101790009847B047636CB3F1FF3F04BF0023636415
:1017A000A36CB3F1FF3F04BF0023A364A84702A8C2
:1017B0000DF106011F4B984718BBB047D4F838808D
:1017C000A847B8F1000F16D1236823B9B047606865
:1017D000194B9847A84704F12400BDF80610174B91
:1017E00098472046164B9847164B9847002895D1A6
:1017F0000E4B984792E72046114B9847114B98475C
:101800008CE720460E4B98470E4B9847002005B0BA
:10181000BDE8F08FF510080005110800251108003B
:10182000AD1308007121080029200800E510080008
:10183000691B0800D52008009D2108007D1F0800B5
:10184000D5130800C91C0800AD20080038B50446AF
:101850000D460D4B9847636CB3F1FF3F04BF002367
:101860006364A36CB3F1FF3F04BF0023A364074B81
:101870009847A36B23B904F124002946044B9847E9
:101880002046044B984738BD051108002511080073
:10189000E11F0800D513080010B504460F4B1B6864
:1018A00098800F4B1B889BB2984207D20D4B18684B
:1018B0000A4B196804310C4B984710BD0B4B186844
:1018C000064B19680431084B9847094B1B889BB29B
:1018D0009C423CBF064B1C8010BD00BF08900720F7
:1018E000249007202890072029100800048F072043
:1018F000C40407202DE9F84F0E4617469A460A9D64
:10190000DDF83080814618B9624B984700BFFDE78B
:10191000092D03D95F4B984700BFFDE750205E4B70
:1019200098470446002800F0B180B8F1000F40F05D
:10193000A980B800584B9847206318B92046574BE8
:101940009847A3E0A521BA00554B984707F1804777
:10195000013F236B03EB870323F0070B04F13400F3
:10196000314610224F4B9847002384F84330092D0D
:1019700034BF2E460926E662E664271D3846DFF8A6
:101980007081C04704F11800C0472461C6F10A06FF
:1019900026836462584649465246434B9847206026
:1019A00010F0070F03D03B4B984700BFFDE70B9BA0
:1019B00003B11C603D4B98473D4B1A6801321A60D9
:1019C0003C4B1B682BBB3B4B1C60394B1B68012BF2
:1019D00029D1394E06F1C809DFF8E0803046C0470A
:1019E00014364E45FAD1DFF80C914846334EB047D5
:1019F000DFF804814046B0473148B0473148B0472E
:101A00003148B047314BC3F80090314BC3F80080E8
:101A100009E0304B1B6833B9264B1B68DB6A9D42DB
:101A200024BF244B1C60E36A2B4A1268934284BF94
:101A3000294A1360294A1168616401311160284AFA
:101A40001268934284BF264A136003EB83031A484B
:101A500000EB83003946234B9847234B98471D4B97
:101A60001B684BB1134B1B68DB6A9D4207D91F4BA8
:101A700098470120BDE8F88F0120BDE8F88F0120CC
:101A8000BDE8F88FC0F8308040465BE74FF0FF308C
:101A9000BDE8F88FF5100800511208001513080072
:101AA000133808002D390800A91008000511080096
:101AB00048900720089007203C8F0720ED0F080072
:101AC0000C900720108F0720F08E0720048F07202E
:101AD00028900720088F07204C9007202C90072083
:101AE000388F07200D10080025110800E5100800A8
:101AF0000510080030900720248F072010B584B00F
:101B0000002300930193029303930F480F494FF46E
:101B100080720F4CA04701280ED10E4B9847012828
:101B20000AD10D4B984701220C4B1A6000220C4B36
:101B30001A800C4B984704E018B9074B984700BF30
:101B4000FDE704B010BD00BF691E080098600800E2
:101B5000F518080015230800F5100800088F072065
:101B600024900720C1110800024B1A6801321A6044
:101B7000704700BF2090072010B5044B9847044BD6
:101B80001C88A4B2034B9847204610BD05110800DD
:101B900024900720251108002DE9F0413E4B1B68D9
:101BA000002B72D13D4B1A8892B2013292B21A8048
:101BB0001B889BB203BB3A4B1B681B681BB1394B9C
:101BC000984700BFFDE7364B1968374A1068186020
:101BD0001160364A1168013111601B681B6823B916
:101BE0004FF6FF72324B1A8006E02D4B1B68DB6804
:101BF000DB689A882E4B1A80284B1A8892B22C4B9D
:101C00001B889BB29A4244D3254B1B681B6853B177
:101C1000234B1B68DB68DC68A388204A128892B2D9
:101C2000934214D90FE04FF6FF72214B1A80BDE8A2
:101C3000F0811B4B1B68DB68DC68A388174A12889D
:101C400092B2934207D91A4A1380BDE8F081194E27
:101C5000194FDFF87080251D2846B047A36A13B1DD
:101C600004F11800B047E36A3A68934288BF3B60CA
:101C700003EB830008EB80002946104B9847084B84
:101C80001B681B68002BD4D1CDE70D4B1A680132BD
:101C90001A60BDE8F08100BF209007202490072043
:101CA000048F0720F51008002890072004900720D3
:101CB000C40407206D100800388F07200D1008009D
:101CC000EC8E07203C8F07202DE9F843314B1B6831
:101CD0001BB9314B984700BFFDE7304B98472D4B60
:101CE0001A68013A1A601B68002B48D12C4B1B68FC
:101CF000002B46D00025DFF8D4802A4F2A4E1DE065
:101D0000D8F80C30DC6804F11800B84704F1040975
:101D10004846B847E36A3268934288BF336003EBB2
:101D20008303224800EB83004946214B9847214B0F
:101D30001B68E26ADB6A9A4228BF0125D8F80030A6
:101D4000002BDDD11C4B1B6863B11B4B1B687BB1A7
:101D50001A4D194CA8472368013B23602368002BC8
:101D6000F8D105E0012D03D0154B1B68012B0AD1DA
:101D70000022134B1A60134B9847012404E00024FF
:101D800002E0002400E000240F4B98472046BDE805
:101D9000F88300BF20900720F51008000511080007
:101DA000489007206D100800388F07203C8F0720CF
:101DB0000D10080008900720EC8E0720991B0800E2
:101DC00044900720E5100800251108000C9007201A
:101DD00038B50C46054618B91B4B984700BFFDE7C0
:101DE00019B9194B984700BFFDE7184B98472B8846
:101DF0001C44A4B2164A128892B2934208D9A34254
:101E00001ED9134B1B889BB22C809C4210D907E033
:101E1000A34213D80E4B1B889BB29C420ED80FE0F6
:101E20000C4B186804300C4B984720460B4B9847D6
:101E30000B4B984730B90B4B984738BD2C80EFE7D8
:101E40002C80F5E738BD00BFF5100800691B0800BD
:101E500024900720089007206D10080099180800AA
:101E6000C91C0800E510080080B5154D154EDFF8B7
:101E700078801CE0144B9847144B1C68144B98470F
:101E8000ACB1144B9847114BDB68DC68201D124B3A
:101E90009847124B1A68013A1A602B68013B2B6075
:101EA0000F4B9847206B0F4FB8472046B8472B6819
:101EB000002BDFD13368012BF9D9C047F7E700BF0A
:101EC0000C8F07203C8F0720691B0800108F07200C
:101ED000C91C0800051108006D1008004890072073
:101EE0002511080015130800E510080008B51D4B62
:101EF0001B685BB91C4B1B6803EB83039B001B4AED
:101F0000D358CBB9184B1B6853B905E00122184BC5
:101F10001A6008BD1A682AB9164B984700BFFDE73A
:101F2000114B12491A68013A1A601A6802EB8202D0
:101F300051F82220002AEDD00B4B1B6803EB8303E2
:101F40000A4A02EB83035A6852685A6003F1080197
:101F50008A4204BF52685A605B68DA68064B1A60AE
:101F600008BD00BF20900720388F07203C8F072036
:101F700044900720F51008000890072038B50C465B
:101F800018B90F4B984700BFFDE70E4D296818316F
:101F90000D4B9847286804300C4B98474FF6FF7359
:101FA0009C4205D129680A4804310A4B984738BD3C
:101FB000094B188880B2204480B2084B984738BD3E
:101FC000F510080008900720291008006D1008007F
:101FD000F08E07200D1008002490072099180800A3
:101FE00038B50D4618B90A4B984700BFFDE7094CB4
:101FF00021681831084B984720680430074B9847F0
:10200000074B188880B2284480B2064B984738BDE9
:10201000F5100800089007200D1008006D1008004A
:10202000249007209918080038B5C368DC681CB9EB
:10203000164B984700BFFDE704F118052846144BDE
:102040009847144B1B689BB9251D2846104B984791
:10205000E36A114A1268934284BF0F4A136003EB8C
:1020600083030E4800EB830029460D4B984703E09D
:102070000C4829460A4B98470B4B1B68E06ADB6A01
:10208000984234BF0020012038BD00BFF510080081
:102090006D10080020900720388F07203C8F072004
:1020A0000D1008000C9007200890072008B518B9FB
:1020B000054B984700BFFDE7044A12680260044AD6
:1020C0001288828008BD00BFF51008000490072028
:1020D0002490072038B50D46044618B91B4B984785
:1020E00000BFFDE719B9194B984700BFFDE7184B32
:1020F00098472B884FF6FF7293421DD0154A1168FE
:1021000022688A4205D0144A128892B2A18891426C
:1021100014D9114A118889B2A288891A89B28B42CE
:102120000ED90D49098889B2521A13442B802046D2
:102130000A4B9847002404E0002402E0012400E058
:102140000124074B9847204638BD00BFF510080012
:10215000051108000490072024900720AD200800F6
:10216000251108000122014B1A6070474490072096
:10217000014B1868704700BF08900720054B1B688B
:1021800033B1054B1B68002B14BF022001207047A0
:1021900000207047088F07202090072038B504469C
:1021A00000282ED0C36A174A1268D26A934228D2F6
:1021B000144A1268D26AC2F10A02028303EB830353
:1021C000114A02EB830342699A4216D1051D284643
:1021D0000E4B98470B4B1B68DB6AE3620C4A126894
:1021E000934284BF0A4A136003EB8303064800EB63
:1021F00083002946074B984738BD024B1B68DB6AB2
:10220000C36238BD089007203C8F07206D1008007E
:10221000388F07200D10080038B50446D0B1C26AC7
:10222000C36C9A4216D0051D28460B4B9847E36CA9
:10223000E362C3F10A022283084A1268934284BF10
:10224000064A136003EB8303054800EB830029462D
:10225000044B984738BD00BF6D100800388F072029
:102260003C8F07200D10080010B5044681802061C6
:1022700091420BD8D31A018B9BB2994211D90B4BC7
:102280001868211D0A4B9847002010BD9A4201D2C0
:10229000994208D2074B1868211D054B984700202A
:1022A00010BD012010BD012010BD00BF849007208B
:1022B000291008005090072070B50D4B98470D4B22
:1022C0001B688BB90C4D28460C4EB0470C4C204671
:1022D000B0470C4B1D600C4B1C6005200C210022EC
:1022E0000A4B9847034B1860094B984770BD00BFD5
:1022F000051108008090072054900720ED0F08007A
:10230000689007205090072084900720DD14080073
:102310002511080010B584B00B4B98470B4B1B6878
:1023200063B10923009300230193029303930848A8
:1023300008494FF40072084CA04718B9074B98475A
:1023400000BFFDE704B010BDB9220800809007204F
:1023500075240800A4600800F5180800F5100800AE
:1023600010B584B0104C2468D4B10191ADF80820A8
:10237000039073B90D4B984701280B4B186801A9BE
:1023800007BFBDF81820002300221346084CA047C1
:1023900007E0204601A91A460023064CA04700E0AA
:1023A000002004B010BD00BF809007207D210800F0
:1023B00035150800591608002DE9F04782B081460E
:1023C000244B98478046244B1B88834237D9234EA1
:1023D000234F27E0DA68B2F800A01FFA8AFADB6818
:1023E000DC68251D2846B847636A20469847E3699C
:1023F000012B17D1238B53449BB2534506D9A3809D
:10240000246130682946174B98470BE0002300935E
:10241000204619465246144CA04718B9134B98470A
:1024200000BFFDE733681A68002AD3D1104A11684B
:102430000A48016013600123C9F8003002E000235C
:10244000C9F80030044BA3F80080404602B0BDE854
:10245000F08700BF791B08007C9007205090072070
:102460006D1008002910080061230800F51008000D
:10247000849007202DE9F04387B0514DDFF870813B
:10248000504B1B681A68002A00F09080DB681E8899
:10249000B6B24D4B984703A84C4B98470746039B51
:1024A000002B32D1864225D8494B9847454B1B68B3
:1024B000DB68DC68201DC047E369012B15D1218B47
:1024C0003144204689B23A463346424FB847012844
:1024D0000BD1002300932046194632463E4EB047AA
:1024E00018B93E4B984700BFFDE7636A20469847FE
:1024F0000DE00026F11B286889B2394B9847344B10
:10250000984720B9374B984701E0314B984702A8CC
:102510002E4B98470746344EDFF8B8903EE0059CB6
:102520001CB1616909B1201DC0470399022923D05C
:10253000032930D0002931D1BDF81030218B194446
:10254000204689B23A46C847012827D1636A204607
:102550009847E369012B21D1228BBDF810301A4432
:10256000002300932046194692B21B4CA047A8B9FD
:102570001A4B984700BFFDE7BDF8103023831BB905
:10258000164B984700BFFDE7F918204689B23A4636
:102590003B46C84702E02046144B9847286803A9E9
:1025A00000221346B0470028B9D169E7064B984787
:1025B00003A8064B98470746039B002B99D0A4E736
:1025C0008090072050900720691B0800B92308005D
:1025D000C91C08006922080061230800F5100800E2
:1025E0004D180800E5100800E9160800151308004A
:1025F0006D100800F0B48CB007460E4601AC124DC9
:102600000FCD0FC40FCD0FC495E8070084E8070075
:102610006A46002352F8044FB6FBF4F4B4FBF7F417
:10262000B4F5807F03D901330B2BF3D104E00A2BDF
:1026300005D844EA032004E04FF6FF7001E04FF6AE
:10264000FF700CB0F0BC7047AC60080070B5064677
:102650000C46086840B189680B4B984705464FF611
:10266000FF73984201D10EE00025606840B1A16877
:10267000054B98474FF6FF73984204D045EA004552
:102680003560002070BD70BDF525080070B40B6882
:102690008C8A4A6802F00F0214430D892C438A7A0F
:1026A00044EA42248A7D44EA0244CA7D44EA424420
:1026B0000A7E44EA824400EB4312C2F80042CC682E
:1026C000C2F804420C69C2F80C428A7D3AB18C8B84
:1026D0004A8B42EA044400EB4312C2F81842856C6C
:1026E0004FF001129A40D2431540CE7F9E408C7F1E
:1026F0009C4044EA06442C438464446C224091F894
:1027000021509D4091F820409C4044EA05442243DA
:10271000426401229A4091F822401CB1046A144399
:10272000046203E0046A24EA0204046291F824408B
:10273000012C846E0CBF14439443846691F82540A9
:10274000012C846E0CBF44EA024224EA02428266F3
:10275000032B0CD8C46EDB00FF229A4024EA02024D
:1027600091F8231001FA03F31343C3660CE0043B12
:10277000046FDB00FF229A4024EA020291F8231042
:1027800001FA03F313430367002070BC704700BFD6
:1027900010B40C680B69934206D3CA6000EB441076
:1027A000C0F80822002001E04FF6FF705DF8044BEE
:1027B000704700BF012303FA01F14160704700BF79
:1027C000012303FA01F18160704700BF10B50E4884
:1027D0000E4B984700203E210D4B98470D4CA047CB
:1027E0000028FCD00C4B98470C4A0D4B9A620D4CBC
:1027F000A0470028FCD010200B4B98470B4B984764
:102800000148024B984710BD00BD0105812E08000C
:10281000D52B0800292C0800392C0800013F0D2079
:1028200000060E40492C0800712B0800652D080099
:1028300010B54FF40042174B5A600B20164CA047BE
:102840000C20A0470D20A0470E20A0473B204FF0B2
:102850006051124CA04755204FF06051A0475620C0
:102860004FF06051A04768200D49A0475C200D49FA
:10287000A0470D484FF440714FF000620B4B984752
:102880002B204FF00061A0472A204FF00061A047A5
:1028900010BD00BF501A0E40592C080055290800E1
:1028A0007900002801000028000E0E40292A0800A7
:1028B0004264B1F1805F16D004D8C1B1B1F1006FAC
:1028C0000AD013E0B1F1405F11D0B1F1605F0ED0DA
:1028D000B1F1205F0AD17047036F016F0B4023EA0B
:1028E0000203036702E0036F13430367426070470C
:1028F000416412F0010F14BF4166016612F00A0F25
:1029000014BF0162416212F0020F02D0C0F88010C1
:1029100004E012F0080F18BFC0F884104161016094
:10292000704700BF10B44164019C0CB1416600E0E7
:1029300001660BB1016500E041650AB1016300E089
:102940004163016101605DF8044B7047C06C7047E2
:10295000806C704770B582B00D46440904F50014D0
:1029600004F20774660201F0F044B4F1205F30D045
:1029700006D8B4F1006F0AD0B4F1805F18D049E0F6
:10298000B4F1405F30D0B4F1605F2DD042E000F090
:102990001F000124844030464FF0006122461F4B47
:1029A000984715F0010F14BF74663466012032E0B9
:1029B00000F01F000124844030464FF08051224631
:1029C000164B984715F0010F14BF7466346601204A
:1029D00021E000F01F010124304604FA01F12A46EB
:1029E0000F4B9847204616E000F01F01012405F028
:1029F000605205EA04030093304604FA01F1B2F193
:102A0000605F14BF00220122C5F38003054DA84773
:102A1000204600E0002002B070BD00BFB1280800D1
:102A2000F128080025290800F0B583B007460E46B6
:102A3000154602F0F044B4F1205F26D006D8B4F178
:102A4000006F0AD0B4F1805F13D034E0B4F1405F7E
:102A50001FD0B4F1605F1CD02DE04FF00061324612
:102A6000164B984715F0010F14BF7E663E66012095
:102A700022E04FF080513246104B984715F0010F7D
:102A800014BF7E663E66012016E00D4B984701207C
:102A900012E005F0605205F001030093384631461C
:102AA000B2F1605F14BF00220122C5F38003054C20
:102AB000A047012000E0002003B0F0BDB1280800CD
:102AC000F1280800252908002DE9F04104460E46AA
:102AD000104B9847054620460F4B9847054017D0A6
:102AE0000E4F07F10C046C3754F80C3CB3420AD17A
:102AF00054F8081C294206D023683046984754F8F9
:102B0000083C25EA0305BC4202D01034002DEBD16D
:102B1000BDE8F0814D290800512908008890072060
:102B200008B502480B21024B984708BD000E0E4025
:102B3000C92A080008B502480C21024B984708BD75
:102B400000100E40C92A080008B502480D21024BAA
:102B5000984708BD00120E40C92A080008B502486F
:102B60000E21024B984708BD00140E40C92A0800E8
:102B7000174B1A6B22F07002104318639B6E13F010
:102B8000080F09D14FF40063114901E0013B19D04E
:102B90008A6E12F0080FF9D00D4B1A6B22F0030267
:102BA00042F002021A63986E10F008000CD14FF444
:102BB0000063074901E0013B08D08A6E12F0080F5C
:102BC000F9D07047012070470020704701207047FE
:102BD00000060E4038B111490B6A114A1A40114BD8
:102BE00013430B6270470D4A136A23F45C1323F0FE
:102BF000030343F45C1343F00103090289B20B435E
:102C00001362936E13F0010FFBD0044A136A43F072
:102C10009B7343F480331362704700BF00060E407D
:102C2000FCFFC8FE02003701024B986E00F48030B2
:102C3000704700BF00060E404FF00052014B9A62F1
:102C4000704700BF00060E40024B986E00F0020075
:102C5000704700BF00060E402C2820D81F280DD832
:102C6000124B9A69012383401A40934219D00123E1
:102C700003FA00F00D4B1861002070470B4BD3F89E
:102C800008212038012383401A4093420BD00123AE
:102C900003FA00F0054BC3F8000100207047012043
:102CA0007047002070470020704700BF00060E40AC
:102CB000FEE700BF10B51E4B1E4A9A4203D01E4BC2
:102CC0001B4A9A4204D31D4B1D4A9A420FD31AE065
:102CD0001C4B1D4CE41A24F0030404340023144854
:102CE00014495A581A500433A342FAD1EBE7174B50
:102CF0001749C91A21F003011A1D1144002243F893
:102D0000042F8B42FBD1134A22F0604323F07F0350
:102D100011498B6002F16042B2F5801F03D28A68CC
:102D200042F000528A600D4B98470D4B9847FEE7E2
:102D30000000072054610800900D0720CC91072067
:102D4000900D072004000720930D07208C0D07200D
:102D5000C79107200000080000ED00E0753708006B
:102D60004D0B08003E4B1B6B03F00303032B5FD896
:102D7000DFE803F0020E2B2B3A4B5B6913F0800F58
:102D800014BF4FF400424FF4FA42374B1A604FE041
:102D9000334B1B6A13F0807F03D0344A324B1A60E6
:102DA00046E0334A304B1A602D4B1B6A03F0700328
:102DB000102B02D0202B04D03AE02E4A2A4B1A6066
:102DC00036E02A4A284B1A6032E0254B1B6A13F082
:102DD000807F03D0254A244B1A6012E0244A224BFC
:102DE0001A601F4B1B6A03F07003102B02D0202BBC
:102DF00004D006E01F4A1C4B1A6002E01B4A1A4B23
:102E00001A60174B1B6B03F00303022B0DD1144BFD
:102E1000986A996A144BC0F30A401A6800FB0222B0
:102E2000C9B2B2FBF1F21A6002E0134A0E4B1A600B
:102E30000B4B1B6B03F07003702B07D10A4B1A6806
:102E40000E49A1FB020252081A607047044B196B2D
:102E5000054BC1F302111A68CA401A60704700BFDF
:102E600000060E40101A0E40C8040720001BB700D1
:102E700000093D0000127A00001C4E0EABAAAAAA5F
:102E80001B4B984206D800231A4A136002F50072C1
:102E900013607047184B984207D84FF48073154A57
:102EA000136002F5007213607047144B984207D804
:102EB0004FF400730F4A136002F5007213607047FD
:102EC0000F4B984207D84FF440730A4A136002F53B
:102ED0000072136070470B4B984294BF4FF48063AD
:102EE0004FF4A063034A136002F500721360704749
:102EF000BFEA2101000A0E407FF0FA02FF8FD003E3
:102F0000FFB3C4047F4A5D05094B1B6813B9094A26
:102F1000074B1A60064B1B681A180749914204DBDD
:102F20001046034A1060184670474FF0FF30704754
:102F3000F8900720D0B10720FC7F08204FF0FF3029
:102F4000704700BF4FF400534B600020704700BF34
:102F5000012070470020704781F0004102E000BF6F
:102F600083F0004330B54FEA41044FEA430594EA49
:102F7000050F08BF90EA020F1FBF54EA000C55EA84
:102F8000020C7FEA645C7FEA655C00F0E2804FEA55
:102F90005454D4EB5555B8BF6D420CDD2C4480EA37
:102FA000020281EA030382EA000083EA010180EA67
:102FB000020281EA0303362D88BF30BD11F0004FB5
:102FC0004FEA01314FF4801C4CEA113102D04042EB
:102FD00061EB410113F0004F4FEA03334CEA133326
:102FE00002D0524263EB430394EA050F00F0A7803E
:102FF000A4F10104D5F1200E0DDB02FA0EFC22FA39
:1030000005F2801841F1000103FA0EF2801843FA2C
:1030100005F359410EE0A5F120050EF1200E012A1D
:1030200003FA0EFC28BF4CF0020C43FA05F3C0185B
:1030300051EBE37101F0004507D54FF0000EDCF1D4
:10304000000C7EEB00006EEB0101B1F5801F1BD37D
:10305000B1F5001F0CD349085FEA30004FEA3C0C81
:1030600004F101044FEA445212F5800F80F09A8077
:10307000BCF1004F08BF5FEA500C50F1000041EB7B
:10308000045141EA050130BD5FEA4C0C404141EB7F
:10309000010111F4801FA4F10104E9D191F0000FA6
:1030A00004BF01460020B1FA81F308BF2033A3F129
:1030B0000B03B3F120020CDA0C3208DD02F1140C20
:1030C000C2F10C0201FA0CF021FA02F10CE002F15B
:1030D0001402D8BFC2F1200C01FA02F120FA0CFC54
:1030E000DCBF41EA0C019040E41AA2BF01EB04519D
:1030F000294330BD6FEA04041F3C1CDA0C340EDC9B
:1031000004F11404C4F1200220FA04F001FA02F3DD
:1031100040EA030021FA04F345EA030130BDC4F19B
:103120000C04C4F1200220FA02F001FA04F340EA90
:103130000300294630BD21FA04F0294630BD94F041
:10314000000F83F4801306BF81F480110134013D28
:103150004EE77FEA645C18BF7FEA655C29D094EA99
:10316000050F08BF90EA020F05D054EA000C04BF17
:103170001946104630BD91EA030F1EBF0021002002
:1031800030BD5FEA545C05D14000494128BF41F0A1
:10319000004130BD14F580043CBF01F5801130BD05
:1031A00001F0004545F0FE4141F470014FF0000090
:1031B00030BD7FEA645C1ABF194610467FEA655C41
:1031C0001CBF0B46024650EA013406BF52EA0335E3
:1031D00091EA030F41F4002130BD00BF90F0000FD1
:1031E00004BF0021704730B54FF4806404F132040D
:1031F0004FF000054FF0000150E700BF90F0000FC6
:1032000004BF0021704730B54FF4806404F13204EC
:1032100010F0004548BF40424FF000013EE700BFBC
:1032200042004FEAE2014FEA31014FEA02701FBF4C
:1032300012F07F4393F07F4F81F06051704792F01E
:10324000000F14BF93F07F4F704730B54FF4607498
:1032500001F0004521F0004120E700BF50EA0102E3
:1032600008BF704730B54FF000050AE050EA010290
:1032700008BF704730B511F0004502D5404261EB00
:1032800041014FF4806404F132045FEA915C3FF441
:10329000DCAE4FF003025FEADC0C18BF03325FEADA
:1032A000DC0C18BF033202EBDC02C2F1200300FA8F
:1032B00003FC20FA02F001FA03FE40EA0E0021FAB4
:1032C00002F11444C1E600BF70B54FF0FF0C4CF49E
:1032D000E06C1CEA11541DBF1CEA135594EA0C0F54
:1032E00095EA0C0F00F0DEF82C4481EA030621EA8F
:1032F0004C5123EA4C5350EA013518BF52EA0335CA
:1033000041F4801143F4801338D0A0FB02CE4FF07B
:103310000005E1FB02E506F00042E0FB03E54FF0AB
:103320000006E1FB03569CF0000F18BF4EF0010EA3
:10333000A4F1FF04B6F5007F64F5407404D25FEA9F
:103340004E0E6D4146EB060642EAC62141EA555152
:103350004FEAC52040EA5E504FEACE2EB4F1FD0C94
:1033600088BFBCF5E06F1ED8BEF1004F08BF5FEA12
:10337000500E50F1000041EB045170BD06F00046C4
:1033800046EA010140EA020081EA0301B4EB5C0471
:10339000C2BFD4EB0C0541EA045170BD41F4801169
:1033A0004FF0000E013C00F3AB8014F1360FDEBF8E
:1033B000002001F0004170BDC4F10004203C35DA6A
:1033C0000C341BDC04F11404C4F1200500FA05F3ED
:1033D00020FA04F001FA05F240EA020001F000428E
:1033E00021F0004110EBD37021FA04F642EB060104
:1033F0005EEA430E08BF20EAD37070BDC4F10C042E
:10340000C4F1200500FA04F320FA05F001FA04F2F1
:1034100040EA020001F0004110EBD37041F10001DD
:103420005EEA430E08BF20EAD37070BDC4F12005E8
:1034300000FA05F24EEA020E20FA04F301FA05F250
:1034400043EA020321FA04F001F0004121FA04F2F8
:1034500020EA020000EBD3705EEA430E08BF20EAC8
:10346000D37070BD94F0000F0FD101F00046400002
:1034700041EB010111F4801F08BF013CF7D041EA84
:10348000060195F0000F18BF704703F00046520088
:1034900043EB030313F4801F08BF013DF7D043EA59
:1034A0000603704794EA0C0F0CEA135518BF95EA0F
:1034B0000C0F0CD050EA410618BF52EA4306D1D196
:1034C00081EA030101F000414FF0000070BD50EAB5
:1034D000410606BF1046194652EA430619D094EA3F
:1034E0000C0F02D150EA013613D195EA0C0F05D129
:1034F00052EA03361CBF104619460AD181EA03017D
:1035000001F0004141F0FE4141F470014FF0000034
:1035100070BD41F0FE4141F4780170BD70B54FF0CF
:10352000FF0C4CF4E06C1CEA11541DBF1CEA13554F
:1035300094EA0C0F95EA0C0F00F0A7F8A4EB050431
:1035400081EA030E52EA03354FEA013100F0888028
:103550004FEA03334FF0805545EA131343EA1263F1
:103560004FEA022245EA111545EA10654FEA0026A6
:103570000EF000419D4208BF964244F1FD0404F55F
:10358000407402D25B084FEA3202B61A65EB0305BB
:103590005B084FEA32024FF480104FF4002CB6EB78
:1035A000020E75EB030E22BFB61A754640EA0C00F8
:1035B0005B084FEA3202B6EB020E75EB030E22BF38
:1035C000B61A754640EA5C005B084FEA3202B6EB79
:1035D000020E75EB030E22BFB61A754640EA9C0038
:1035E0005B084FEA3202B6EB020E75EB030E22BF08
:1035F000B61A754640EADC0055EA060E18D04FEAC6
:10360000051545EA16754FEA06164FEAC30343EA65
:1036100052734FEAC2025FEA1C1CC0D111F4801F32
:103620000BD141EA00014FF000004FF0004CB6E72B
:1036300011F4801F04BF01430020B4F1FD0C88BFCA
:10364000BCF5E06F3FF6AFAEB5EB030C04BFB6EBD5
:10365000020C5FEA500C50F1000041EB045170BDC8
:103660000EF0004E4EEA113114EB5C04C2BFD4EBF5
:103670000C0541EA045170BD41F480114FF0000E79
:10368000013C90E645EA060E8DE60CEA135594EAF5
:103690000C0F08BF95EA0C0F3FF43BAF94EA0C0FF8
:1036A0000AD150EA01347FF434AF95EA0C0F7FF46D
:1036B00025AF104619462CE795EA0C0F06D152EAC1
:1036C00003353FF4FDAE1046194622E750EA4106A5
:1036D00018BF52EA43067FF4C5AE50EA41047FF4B6
:1036E0000DAF52EA43057FF4EBAE12E74FEA410219
:1036F00012F5001215D211D56FF47873B3EB625244
:1037000012D94FEAC12343F0004343EA505311F06A
:10371000004F23FA02F018BF404270474FF00000FC
:10372000704750EA013005D111F0004008BF6FF03A
:10373000004070474FF00000704700BF0146002076
:103740000246034600F036BE38B5084D084C641BEF
:10375000A41005EB840524B155F8043D013C9847BD
:10376000F9E7BDE8384002F0E9BC00BF4861080055
:103770004C61080070B50E4B0E4D0024ED1AAD10D3
:103780001E46AC4204D056F8242090470134F8E796
:1037900002F0CAFC084D094B0024ED1AAD101E467C
:1037A000AC4204D056F8242090470134F8E770BDAD
:1037B00034610800346108003C610800346108008D
:1037C0000FB407B5064904AB086853F8042B8168A9
:1037D000019300F0F0F803B05DF804EB04B070471B
:1037E000D00407200EB403B503AB53F8042B816853
:1037F000019300F0E0F802B05DF804EB03B070470D
:1038000010B50023934203D0CC5CC4540133F9E7D4
:1038100010BD02440346934202D003F8011BFAE7AD
:10382000704700290CBF022200224FF4806300F091
:1038300001B800002DE9F0411D46364B04461F68D3
:103840000E46904627B1BB6B13B9384600F0DCFE3C
:10385000B8F1020F59D8002D57DB3846214600F049
:103860008AFE00236360A361A3891B0603D5384643
:10387000216901F04DF8A389B8F1020F23F0830309
:10388000A38112D036BB002D08BF4FF480652846B7
:1038900001F022FB0646C8B94FF4806001F01CFB22
:1038A000064688B94FF0FF3000E00020A38943F0BE
:1038B0000203A3810023A36004F143032360236177
:1038C00001236361BDE8F0814FF48065A38943F073
:1038D0008003A381B8F1010F05D1A38943F001034F
:1038E000A3816B42A3610C4BFB63A389266003F0A9
:1038F000080080B22661656148B113F0030F18BF5C
:103900000025A5600020BDE8F0814FF0FF30BDE844
:10391000F08100BFD0040720C5450800034613F816
:10392000012B002AFBD1181A0138704710B5034645
:1039300032B111F8014B013A03F8014B002CF7D1D9
:103940001A44934203D0002103F8011BF9E710BD8C
:1039500093682DE9F04781460F4614461BB9536022
:103960001846BDE8F0874B6E9D041DD51568A36809
:103970000835BBB155F8043C55F808AC4FEA93083C
:103980000026464509DA48465AF826103A4600F01D
:1039900005FF431C0AD00136F3E7A368A3EB8803B5
:1039A000A360E4E7184601E001F06AF80023A36091
:1039B0006360BDE8F0872DE9F04FADB08846029214
:1039C0001C461E46834618B1836B0BB900F01CFEE3
:1039D000B8F80C30980409D443F40053A8F80C301C
:1039E000D8F8643023F40053C8F86430B8F80C30C9
:1039F000190709D5D8F8103033B1B8F80C3003F0F6
:103A00001A030A2B14D108E05846414600F078FC0E
:103A10000028F2D04FF0FF30D9E3B8F90E30002B78
:103A200006DB58464146029A234600F0E1FBCEE30E
:103A300000231CAA0F921193109394460A930593A6
:103A4000029B1C4613F8012B1AB90298251A03D1C0
:103A50001DE0252AF5D1F8E7119B02992B4411931B
:103A6000109B8CE822000133072B109302DC0CF131
:103A7000080C09E0584641460FAAFFF769FF0028E5
:103A800040F09F830DF1700C059A2A44059223782B
:103A9000002B00F08F83002201348DF837204FF087
:103AA000FF3A04921746651C23780295582B64D080
:103AB0002DDC2E2B76D012DC2A2B66D008DC202BB6
:103AC0005FD0232B40F0008247F00107029CEAE719
:103AD0002B2B01D11A46F9E72D2B60D0F4E1392BBD
:103AE00007DC312B7FDA302B40F0EE8147F0800786
:103AF000ECE74F2B00F0E080552B00F02081442BA9
:103B000040F0E2818DF8372047F0100794E06E2BEB
:103B100000F0B6800DDC682B76D005DC632B00F05E
:103B20008380642B26D0CFE1692B23D06C2B6ED001
:103B3000CAE1712B75D013DC6F2B00F0BF80702BA6
:103B400040F0C2813023A0488DF8383078233468A3
:103B5000002547F002078DF8393004360A902EE12F
:103B6000752B00F0EE80782B00F00381732B40F072
:103B7000AB81BFE08DF837205EE08DF83720934CA5
:103B8000FAE0002A08BF2022A0E7331D3668002E85
:103B9000049601DB1E4699E7754204951E4647F0E0
:103BA000040793E7029C2378611C2A2B02D04FF074
:103BB000000A0AE0D6F800A0331DBAF1000F1E4635
:103BC000029183DA4FF0FF3A80E7A3F13000092831
:103BD00005D80A2303FB0A0A11F8013BF5E74AEA74
:103BE000EA7A029162E700250495049C303B0A21A1
:103BF00001FB04340299049411F8013BA3F1300055
:103C00000928EED80291F0E747F040075EE7029DF1
:103C10002B786C2B02D10135029502E047F010079A
:103C200054E747F0200751E7336800258DF8483006
:103C30008DF83750043651E1BA0607D5073626F01D
:103C4000070303F10806D3E900450DE017F0100F54
:103C500006F1040301D0346804E0346817F0400F23
:103C600018BF24B2E5171E46002C75F1000080F243
:103C7000AF802D23644265EB45058DF83730A7E012
:103C800017F0200F8DF8372006F1040107D0059CAE
:103C90003068E51722462B46C0E900230AE0FB0600
:103CA00005D47F0603D53368059C1C8002E0336889
:103CB000059D1D600E46C3E647F0100717F0200370
:103CC00008D0073626F0070303F10806D3E90045BC
:103CD000002375E017F0100106F1040206D117F079
:103CE000400303D0348800251646F1E734680025E8
:103CF000164665E0D6F8009000239A4506F10406C2
:103D00008DF83730484611DB19465246CDF804C0CD
:103D100001F0FAFADDF804C0002800F0E480C9EBF5
:103D200000005045B8BF82460025DDE0CDF804C054
:103D3000FFF7F4FD00258246DDF804C0D4E047F02B
:103D40001007BD0607D5073626F0070303F108065E
:103D5000D3E900450BE017F0100F06F1040303D17F
:103D60007C0601D5348800E0346800251E46012316
:103D700026E0154C8DF83720B8060A9407D507368B
:103D800026F0070202F10806D2E900450BE017F021
:103D9000100F06F1040203D1790601D5348800E042
:103DA000346800251646FA0709D554EA050006D0FE
:103DB00030228DF838208DF8393047F00207022381
:103DC00000228DF8372004E00F610800FE60080033
:103DD0000123BAF1000FA8BF27F0800754EA0501BC
:103DE00002D1BAF1000F5ED0012B1FD0022B0DF1D2
:103DF0006F0345D0E00840EA4571E80804F0070287
:103E0000069107903032DDE9064554EA05019946EE
:103E10001A7003F1FF33EDD1F80749464ED5302A29
:103E20004CD09946302301F8013C47E0002D08BFF3
:103E30000A2C05D230348DF86F400DF16F093DE04A
:103E40000DF16F020392204629460A220023CDF885
:103E500004C001F095FD039B303203F80129204690
:103E60002946DDF80C900A220393002301F088FD17
:103E700004460D4654EA0500DDF804C0E3D11DE018
:103E80000A9904F00F028A5C994603F80129220975
:103E900042EA0570290908900991DDE9084554EACC
:103EA0000502EDD10AE03BB9F90705D50DF1B009DE
:103EB000302309F8413D01E00DF1700955460DF13F
:103EC000700AC9EB0A0A0FE08DF83720002B00F0CA
:103ED000718100258DF848308DF837504FF0010A78
:103EE0000DF1480900E005469DF83730AA45ACBF02
:103EF00054462C4603B1013417F00203039318BF54
:103F0000023417F084030B933BD10498031B002B5E
:103F100037DDA64A102BCCF800201BDD1022CCF890
:103F20000420119A10321192109A0132072A10922D
:103F300002DC0CF1080C0BE0584641460FAA019335
:103F4000FFF706FD019B002840F03B810DF1700C4E
:103F5000103BDEE7119ACCF8043013441193109B08
:103F60000133072B109302DC0CF1080C09E05846D2
:103F700041460FAAFFF7ECFC002840F022810DF12A
:103F8000700C9DF83730DBB10DF13703CCF8003001
:103F90000123CCF80430119B01331193109B0133A2
:103FA000072B109302DC0CF1080C09E0584641463F
:103FB0000FAAFFF7CDFC002840F003810DF1700C33
:103FC000039BD3B10EABCCF800300223CCF8043005
:103FD000119B02331193109B0133072B109302DCCA
:103FE0000CF1080C09E0584641460FAAFFF7B0FC57
:103FF000002840F0E6800DF1700C0B9B802B3FD128
:10400000049B1B1B002B03933ADD039B102B684B77
:10401000CCF800301BDD1023CCF80430119B10339A
:104020001193109B0133072B109302DC0CF1080C49
:1040300009E0584641460FAAFFF78AFC002840F0E5
:10404000C0800DF1700C039B103B0393DDE7039BD5
:104050000398CCF80430119B03441193109B013357
:10406000072B109302DC0CF1080C09E0584641467E
:104070000FAAFFF76DFC002840F0A3800DF1700C33
:10408000CAEB0505002D34DD494B102DCCF800306E
:1040900019DD1023CCF80430119B10331193109BC1
:1040A0000133072B109302DC0CF1080C09E0584691
:1040B00041460FAAFFF74CFC002840F082800DF12A
:1040C000700C103DE0E7119BCCF804501D44109B90
:1040D00011950133072B109302DC0CF1080C08E05A
:1040E000584641460FAAFFF733FC002869D10DF16D
:1040F000700C119B8CE8000653441193109B013304
:10410000072B109302DC0CF1080307E058464146E8
:104110000FAAFFF71DFC002853D11CAB7A070AD465
:10412000059D0498119B8442ACBF2D192D1805954F
:10413000002B35D02EE004990D1B002DF0DD1B4A1D
:10414000102D1A6015DD10225A60119A103211924A
:10415000109A0132072A109201DC083307E0584612
:1041600041460FAAFFF7F4FB00282AD11CAB103DF3
:10417000E5E75D60119B1D44109B11950133072BF2
:104180001093CDDD584641460FAAFFF7E1FB00280A
:10419000C6D016E0584641460FAAFFF7D9FB80B9B2
:1041A000002310930DF1700C4AE400BFDE6008009C
:1041B000EE600800119B23B1584641460FAAFFF755
:1041C000C7FBB8F80C305B063FF524AC05982DB062
:1041D000BDE8F08F30B51346044A05460C4610681A
:1041E00029462246BDE83040FFF7E5BBD004072052
:1041F00070B50C468989ADF58D6D21F00201ADF8E1
:104200000C10616E06461991E189ADF80E10E16956
:104210000791616A09911AA9009104914FF4806194
:1042200002910591002106916946FFF7C4FB051E26
:1042300007DB3046694600F09EF9002818BF4FF0B2
:10424000FF35BDF80C305B0603D5A38943F040036E
:10425000A38128460DF58D6D70BD00BF70B50D466C
:104260001446064618B1836B0BB900F0CDF9A3696B
:10427000A360A38919070DD523695BB1A389EDB2AA
:104280009A0410D443F40053A381636E23F40053C3
:10429000636608E03046214600F032F80028EDD091
:1042A0004FF0FF3070BD23692068C01A63699842DF
:1042B00005DB3046214600F05EF90028F0D1A36806
:1042C0000130013BA36023685A1C22601D706369A2
:1042D000984204D0A389DB0707D50A2D05D13046C3
:1042E000214600F048F90028DAD1284670BD0A4678
:1042F0000249034608681946FFF7B0BFD0040720FB
:1043000038B52B4B054618680C4618B1836B0BB9B2
:1043100000F07AF9A28993B2180720D4D90605D4FF
:10432000092342F040022B60A2813BE0580712D5DE
:10433000216B41B104F14003994202D0284600F0BC
:10434000E7FA00232363A38923F02403A381002336
:10435000636023692360A38943F00803A381236971
:104360004BB9A38903F42073B3F5007F03D028462B
:10437000214600F04DFDA38913F0010205D0002273
:10438000A26062695242A26103E0990758BF626964
:10439000A26022694AB903F0800080B230B143F0D4
:1043A0004003A3814FF0FF3038BD002038BD00BF6F
:1043B000D00407202DE9F8439846224B06461C6896
:1043C0000F46D4F84801914618B904F5A670C4F810
:1043D000480143681F2B16DD1B4B1BB94FF0FF3004
:1043E000BDE8F8834FF4C87000F076FD0028F5D0E2
:1043F000D4F84811002545600160C4F84801C0F8B0
:104400008851C0F88C514468A6B10122A24000EB4B
:104410008405C5F88890D0F88811022E41EA02017F
:10442000C0F88811C5F8088104D1D0F88C311A433E
:10443000C0F88C21631C0234436040F824700020D3
:10444000BDE8F883D8600800D94E0800024B13B1CC
:104450000248FFF773B970470000000049370800B1
:104460008A892DE9F04193B2054618070C465ED4BF
:104470004B6842F40062002B8A8102DCCB6B002B7C
:1044800018DDA66AB6B102F48052002392B22F68FA
:104490002B600AB1226D10E0E16928460123B04784
:1044A000411C024609D12B683BB11D2B01D0162BB4
:1044B0004AD12F600020BDE8F081A3895B0705D5B4
:1044C0006368D21A236B0BB1E36BD21AA66A284633
:1044D000E1690023B047461CA28905D12B681BB1B6
:1044E0001D2B01D0162B1DD1002322F4006292B2A5
:1044F00063602369D104A281236004D5421C01D1E9
:104500002B6803B92065216B2F600029D2D004F1FC
:104510004003994202D0284600F0FAF900202063B7
:10452000BDE8F08142F04002A281BDE8F0810E6951
:10453000002EBFD09B070A680CBF4B690023C6EB57
:1045400002080E608B6012E0A3894FF0FF3043F049
:104550004003A381BDE8F081676A2846E1693246DD
:104560004346B8470028EFDD0644C0EB0808B8F121
:10457000000FF1DC9EE738B50C46054618B1836B99
:104580000BB900F041F8B4F90C0028B128462146D7
:10459000BDE83840FFF764BF38BD014620B9044B81
:1045A0000449186800F0D4BB034B1868FFF7E3BF59
:1045B000D860080077450800D00407200020704725
:1045C00000207047014900F0A7BB00BFE558080074
:1045D00070B54B1E68255D430E4605F1740100F071
:1045E0008BFC044640B1002180E842000C30A06002
:1045F00005F16802FFF70DF9204670BD014B186800
:10460000FFF7E0BFD86008002DE9F84F846B06463D
:10461000002C62D1324B4568C3630323C0F8E432F7
:1046200000F53B73C0F8E832DFF8BCA00423DFF8E4
:10463000BC90DFF8BC802B4FC0F8E0422146AB8134
:104640002C606C60AC606C66EC812C616C61AC6160
:1046500005F15C000822FFF7DCF8ED61C5F820A049
:10466000C5F82490C5F82880EF62B56809234FF09B
:10467000010BAB812C606C60AC606C66A5F80EB071
:104680002C616C61AC6105F15C0021460822FFF7EA
:10469000C0F8ED61C5F820A0C5F82490C5F82880C1
:1046A000EF62F5681223AB8102232C606C60AC6072
:1046B0006C66EB812C616C61AC6105F15C0021469C
:1046C0000822FFF7A6F8ED61C5F820A0C5F82490F0
:1046D000C5F82880EF62C6F838B0BDE8F88F00BF93
:1046E000C545080057570800D5560800FB56080076
:1046F00033570800F8B51C4B07461E68B36B13B957
:104700003046FFF781FF06F53876B4687368013BE1
:1047100004D4B4F90C5075B16834F8E733682BB998
:1047200038460421FFF754FF306008B13668ECE7E3
:104730000C233B60F8BD4FF6FF73E3810123A38197
:1047400065662560A560656025616561A56104F108
:104750005C0029460822FFF75CF825636563656401
:10476000A5642046F8BD00BFD860080070477047B8
:1047700070477047024B0349186800F0CDBA00BF7C
:10478000D0040720BD450800024B0349186800F01B
:10479000C3BA00BFD0040720C145080093892DE9A2
:1047A000F3410E4699048046144606D443F4005360
:1047B0009381536E43F40053536600F00BFB0128C2
:1047C00006D1731EFE2B03D88DF8046007460EE059
:1047D0003246404601A904F15C0300F0CBFF421CC5
:1047E000074604D1A38943F04003A3812BE00025B1
:1047F000BD4224D0A26801AB013A002AA26016DAB9
:10480000A1698A4208DB5B5D22681370236819780E
:104810000A2910D1404601E0595D40462246FFF783
:104820001DFDB0F1FF335842584130B109E05B5DE6
:10483000226813702368013323600135D8E73046BE
:1048400001E04FF0FF3002B0BDE8F081084B70B5D9
:104850001C6806460D4624B1A36B13B92046FFF72A
:10486000D3FE204631462A46BDE87040FFF796BF8A
:10487000D0040720F8B5234D0E46044600F06DFD28
:10488000AB685F6827F00307BE1B06F6EF7626F4D9
:104890007F6626F00F06A6F58056B6F5805F04DA2F
:1048A000204600F05BFD0020F8BD2046002100F00E
:1048B00001FFAB683B449842F2D12046714200F0C0
:1048C000F9FE013010D12046002100F0F3FEAB6864
:1048D000C21A0F2AE4DD0C4942F0010209685A604D
:1048E000401A0A490860DBE7AB68BF1B47F00107C5
:1048F0005F60064B20461A68961B1E6000F02EFD76
:104900000120F8BD7C090720840D072000910720B5
:10491000F8B506460D46002900F0A98000F01DFDFF
:1049200055F804CC524CA5F108032CF0010298185C
:10493000A1684768884227F003070CF001011BD1EA
:104940003A4439B955F8081C5B1A98680A44D96882
:10495000C160886042F001015960A360454B1B684B
:104960009A4204D3444B30461968FFF783FF304620
:10497000BDE8F84000F0F2BC476079B955F8085C32
:1049800004F1080C5B1B2A449D68654508D0D3F8E8
:104990000CC0C5F80CC0CCF8085002E0002100E0C3
:1049A0000121C5196D68ED070ED43A44856841B9F7
:1049B000324FBD4205D1636123610121DD609D60FD
:1049C00002E0C068E860856042F0010058609A50DB
:1049D0000029CCD1B2F5007F0ED2D208911001206F
:1049E000884061680143616004EBC204A268DC6036
:1049F0009A60A360D360BAE7510A042902D89109EA
:104A0000383115E0142901D85B3111E0542902D85E
:104A1000110B6E310CE0B1F5AA7F02D8D10B7731C2
:104A200006E040F2545081429ABF910C7C317E21C5
:104A300004EBC104A5680E48A54201D029460BE04D
:104A40000122891002FA01F142680A4342602946B4
:104A500008E08968A14204D0486820F0030082423F
:104A6000F7D3CD68DD609960AB60CB607FE7F8BDC0
:104A70007C090720880D0720FC9007208409072067
:104A800093682DE9F74F80460C4691460BB90020FC
:104A90003CE18B8918070ED50B6963B1B4F80CA003
:104AA000D9F800600AF0020C1FFA8CF333B34FF010
:104AB000000A57461BE040462146FFF721FC00282C
:104AC000ECD021E1934B40469F4238BF3B46E16921
:104AD0005246656AA847002840F31281D9F8083089
:104AE00082443F1A181AC9F808000028CFD0002FB6
:104AF000E8D1D6F800A077680836F8E71AF0010A7E
:104B000004D09B4601931F469A46BFE0554625B9FF
:104B1000D6F800A075680836F9E7A289A76891055C
:104B200052D5BD4242D312F4906F3DD02169236823
:104B300002205B1A0193636903EB430393FBF0FBD1
:104B4000019B581C2844834538BF83465305404683
:104B50000FD5594600F0D0F90746B8B1019A21693E
:104B6000FEF74EFEA28922F4906242F08002A281FA
:104B700010E05A4600F0F4FB074658B94046216958
:104B8000FFF7C6FEA38923F08003A3810C23C8F896
:104B90000030B5E0019B27611F44C3EB0B03276086
:104BA000C4F814B02F46A360BD4200D22F463A4647
:104BB0002068514600F0B6FBA368DB1BA3602368A6
:104BC0001F4427602F462AE020682369984202D8B4
:104BD00063699D4213D2BD4238BF2F463A465146C3
:104BE00000F0A0FBA3682268DB1B3A44A3602260AC
:104BF000ABB940462146FFF7BEFC80B180E06FF0C4
:104C0000004E754538BFAE469EFBF3FE676A4046D0
:104C1000E169524603FB0EF3B847071E70DDD9F871
:104C20000830BA44ED1BDF1BC9F80870002F7FF471
:104C30006EAF2CE7019D002D31D020682269D3454D
:104C400034BF5B4653469042A568D4F814E036D989
:104C50007544AB4233DD39462A4600F063FB2368D6
:104C600040462B4423602146FFF785FC002847D1AE
:104C7000BBEB050B3CD0D9F808302F44C5EB0A0A32
:104C80005D1BC9F80850002D3FF401AFBAF1000FC9
:104C9000D0D1002596E8800401950836F6E738461D
:104CA0000A21524600F030FB20B100F1010CC7EBA5
:104CB0000C0B01E00AF1010B01250195BDE77345DD
:104CC00008DB656A4046E1693A467346A847051E17
:104CD000CEDC15E01A463946009300F023FB009B1A
:104CE000A2681D46D21AA26022681A442260BFE759
:104CF00040462146FFF73FFC10B9CDF804B0BAE7B3
:104D0000A38943F04003A3814FF0FF3003B0BDE817
:104D1000F08F00BF00FCFF7F2DE9F041884600F5D1
:104D2000387400268CB1A5686768013F0BD4AB8945
:104D3000012B06D9B5F90E30013302D02846C04701
:104D400006436835F1E72468ECE73046BDE8F081BA
:104D50002DE9F8438046894600F53874002694B161
:104D6000A5686768013F0CD4AB89012B07D9B5F959
:104D70000E30013303D040462946C8470643683504
:104D8000F0E72468EBE73046BDE8F88310B5144639
:104D90000AB90B4810BD10460A4900F0E0FC002893
:104DA000F7D02046064900F0DAFC0028F1D0204672
:104DB000054900F0D4FC0028014818BF002010BDB0
:104DC000DC60080020610800276108000048704787
:104DD00000090720014B186A704700BF000907202F
:104DE000004870472409072000207047004870479A
:104DF000440907200A460349034608681946FFF795
:104E0000C5BF00BFD00407200048704744090720F1
:104E1000F0B58B8991B09D0706460C463AD4B1F99E
:104E20000E1000290BDAA389002713F0800F43F43A
:104E300000630CBF4FF480654025A3811FE001AAE9
:104E400000F058FD0028EEDB029B03F47043B3F53D
:104E500000514F424F41B3F5004FA3890AD1A26AD6
:104E60001B498A4206D143F480634FF48065A381D5
:104E7000E56404E043F40063A3814FF480653046A9
:104E8000294600F039F860B9A3899A051DD443F08A
:104E90000203A38104F143032360236101236361BF
:104EA00013E00C4BF363A389206043F08003A381DC
:104EB000206165614FB13046B4F90E1000F02CFD51
:104EC00018B1A38943F00103A38111B0F0BD00BF65
:104ED00033570800C5450800024B0146186800F02A
:104EE0000BB800BFD0040720024B01461868FFF73B
:104EF0000FBD00BFD00407202DE9F74F01F10B04CF
:104F0000162C074603D934F0070401D502E010241B
:104F10008C4202D20C233B60DEE1384600F01DFAE1
:104F2000B4F5FC7FA34D14D2E20805EBC203DE68A2
:104F30009E4206D106F1080376699E4208BF0232FE
:104F400043D07368F268B16823F00303CA609160CC
:104F50005DE0620A1AD0042A02D8A209383218E0A9
:104F6000142A01D85B3214E0542A02D8220B6E3284
:104F70000FE0B2F5AA7F02D8E20B773209E040F2E7
:104F800054539A4204D8A20C7C3202E03F2200E043
:104F90007E2205EBC203DE689E4215D0716821F0C7
:104FA0000301081B0F2801DD013A0DE0002809DB91
:104FB000F368B268D3609A6073185A6842F00102CD
:104FC0005A6094E1F668E7E701327A492E6901F107
:104FD0000800864286466DD0736823F00303C4EB55
:104FE000030CBCF10F0F0DDD33194CF0010244F03E
:104FF000010474604B610B61D86098605A6043F89B
:105000000CC074E1BCF1000F4861086101DB33445E
:10501000D3E7B3F5007F11D2DB0898104FF0010CF5
:105020000CFA00FC48684CEA0000486001EBC30140
:105030008B68F160B3608E60DE603BE0580A042844
:1050400002D89809383015E0142801D85B3011E0F7
:10505000542802D8180B6E300CE0B0F5AA7F02D8A5
:10506000D80B773006E040F2545188429ABF980C32
:105070007C307E2005EBC00CDCF80810DFF83481B2
:1050800061450DD10123801003FA00F0D8F80430F7
:105090000343C8F804300B4608E08968614504D032
:1050A000486820F003008342F7D3CB68F360B16017
:1050B0009E60CE600121931001FA03F369688B4270
:1050C0005DD80B4206D122F003025B000B4202F1D5
:1050D0000402FAD005EBC20080469446D8F80C6072
:1050E00046452DD0716821F00309C4EB09010F2951
:1050F00013DD331944F00104F268746056F8080FA8
:10510000C260906041F001026B612B61C3F80CE05A
:10511000C3F808E05A6059500CE000290EDB06EB9A
:1051200009014B6843F001034B60F36856F8082F00
:10513000D3609A60384600F011F9DCE0F668CFE7FA
:105140000CF1010C1CF0030F08F10808C6D19107FF
:1051500004D16A6822EA03026A6005E0A0F108014E
:105160000068013A8842F2D069685B008B4206D839
:105170002BB162460B42ADD104325B00FAE7D5F8A1
:105180000890D9F8043023F0030BA34504D3C4EBF3
:105190000B030F2B00F3A280074909EB0B030A68EE
:1051A000884604EB020AD5F80824013206D10AF138
:1051B000100A0BE07C090720FC9007200AF5805AB2
:1051C0000AF10F0A2AF47F6A2AF00F0A384651467C
:1051D000019300F06FFA421C0646019B6FD0984283
:1051E00001D2A9456BD1D8F804209E425244C8F898
:1051F000042008D1C6F30B0129B9AB68DA444AF0A0
:1052000001025A604DE0D5F80814013103D13C4B3E
:10521000C3F8086403E0F31A1A44C8F8042016F02F
:1052200007031CBFC3F10803F618B24403F580530B
:10523000CAF30B0ACAEB030A5146384600F03AFAA1
:10524000431C04BF30464FF0000AD8F80430801BDE
:105250005044534440F00100A945AE60C8F8043002
:1052600070601ED0BBF10F0F02D80123736026E0DF
:10527000D9F80430ABF10C0B2BF0070B03F0010352
:105280004BEA0303C9F80430052209EB0B03BBF119
:105290000F0F5A609A6004D9384609F10801FFF7E8
:1052A00037FBD8F80430D8F82C20934284BF154A35
:1052B000D362D8F83020934284BF124A1363AB689C
:1052C0005A6822F00302A242C4EB020301D30F2B5F
:1052D00004DC384600F042F800260CE0AE6844F0EA
:1052E000010243F0010334447260AC6063603846ED
:1052F00000F034F80836304603B0BDE8F08F00BF48
:105300007C090720FC90072010B5C9B202449042E6
:10531000034605D01C7801308C42F8D1184610BDE8
:10532000002010BD814270B501D300230EE08C181F
:10533000A042FAD28518134613F1FF3305D3514228
:105340006618F65C2944CE54F6E770BD934203D04C
:10535000CC5CC4540133F9E770BD7047704700005E
:105360002DE9F74F81460C4629B9114603B0BDE837
:10537000F04FFFF7C1BD0192FFF7EFFF019A54F81C
:10538000045C02F10B07162FA4F1080825F00306B0
:1053900003D937F0070701D502E01027974204D25E
:1053A0000C23C9F80030002080E1BE4280F2568113
:1053B000A34908EB0603D1F808E08B46734558680B
:1053C00005D020F0010119444968C90725D420F00F
:1053D0000300734500EB060117D107F1100C61457E
:1053E0001DDBC91B08EB070541F00101CBF8085094
:1053F000696054F8043C484603F001031F4344F835
:10540000047CFFF7ABFF204650E1B94207DBDA68C6
:105410009B680E46DA60936020E100200346E907AE
:1054200000F1CB8054F8085CC5EB0805696821F0F1
:10543000030101EB060A002B00F08A8073454DD171
:105440000AEB000307F110018B42C0F28180A846ED
:10545000EA6858F8081FCA609160321F242A26D8CB
:10546000132A1CD921681B2AA9606168E96003D846
:1054700005F11002083413E0A168242A2961E168CB
:10548000696103D005F11802103409E0226918346B
:10549000AA6154F8041C05F12002E96100E04246CB
:1054A0002168116061685160A168916005E0404623
:1054B00021460193FFF736FF019BDB1BEA1943F0FE
:1054C0000103CBF8082053606B68484603F00103E2
:1054D0001F436F60FFF742FF4046E7E00AEB000B17
:1054E000BB4535DBDA689B682846DA60936050F884
:1054F000082FEB68D3609A60321F242A23D8132A1E
:105500001AD923681B2AAB606368EB6003D805F1E6
:105510001000083410E0A368242A2B61E3686B6153
:1055200003D005F11800103406E0236905F12000CE
:10553000AB6163691834EB6123680360636843609F
:10554000A368836002E02146FFF7ECFE5E462EE092
:10555000BA4532DB284650F8082FEB68D3609A60D2
:10556000321F242A25D8132A1AD923681B2AAB6094
:105570006368EB6003D805F11000083410E0A368FD
:10558000242A2B61E3686B6103D005F11800103405
:1055900006E0236905F12000AB6163691834EB6113
:1055A0002368036063684360A36883605646A84627
:1055B00054E02146FFF7B6FEF8E748461146FFF7EC
:1055C0009BFC0546002844D054F8043CA0F1080296
:1055D00023F0010343449A4205D150F8043C23F0E0
:1055E00003031E443AE0321F242A2BD8132A1ED963
:1055F00023681B2A03606368436004D800F1080332
:1056000004F1080215E0A368242A8360E368C360FC
:1056100004D000F1100304F110020AE0236904F140
:1056200018020361616900F11803416101E003465A
:105630002246116819605168596092689A6004E0C6
:105640007C0907202146FFF76DFE48462146FFF7FB
:105650005FF94846FFF782FE284627E0F31B0F2B31
:10566000D8F8042013D902F0010208EB0701174310
:1056700043F00102C8F804700B444A605A68484677
:1056800042F001025A600831FFF742F909E002F0E6
:1056900001023243C8F804204644736843F0010312
:1056A00073604846FFF75AFE08F1080003B0BDE8F2
:1056B000F08F00BF38B5064C00230546084623602E
:1056C000FDF722FC431C02D1236803B12B6038BDD7
:1056D000C891072010B50C46B1F90E1000F03EF944
:1056E000002803DB236D0344236510BDA38923F445
:1056F0008053A38110BD002070472DE9F0411D4665
:105700008B890746DB050C46164605D5B1F90E1008
:105710000022022300F010F9A389384623F48053B5
:10572000A381B4F90E1032462B46BDE8F04100F0DB
:1057300079B810B50C46B1F90E1000F0FDF8431C15
:10574000A38903D123F48053A38110BD43F4805374
:10575000A381206510BDB1F90E1000F075B810F8E6
:10576000012B11F8013B012A28BF9A42F7D0D01A29
:10577000704700002DE9F0411D46104B86B00446ED
:1057800090460E461F6839B9FFF720FB0095034687
:1057900003A92046324606E0FFF718FB00950346B2
:1057A000314620464246B847431C03D100232B60B4
:1057B0008A23236006B0BDE8F08100BF8C0D07206E
:1057C00030B51346044A05460C4610682946224661
:1057D000BDE83040FFF7CEBFD004072049B1FF2A13
:1057E00004D98A2303604FF0FF3070470A7001200C
:1057F0007047084670472DE9F3419846084B054627
:105800001C680F461646FFF7E1FACDF80080034604
:10581000394628463246A04702B0BDE8F08100BFB5
:105820008C0D072038B5074C05460020206008463F
:1058300011461A46FAF7BAFD431C02D1236803B198
:105840002B6038BDC891072038B5064C00230546AB
:1058500008462360FDF772FB431C02D1236803B1A5
:105860002B6038BDC891072070B505460C4609B9B4
:10587000002070BD18B1836B0BB9FEF7C5FEB4F9FB
:105880000C30002BF4D028462146FEF774FEE36A64
:10589000064633B12846E16998470028B8BF4FF063
:1058A000FF36A3891B0603D528462169FFF730F888
:1058B000216B41B104F14003994202D02846FFF721
:1058C00027F800232363616C21B12846FFF720F8F5
:1058D00000236364FEF74AFF0023A381FEF747FF1E
:1058E000304670BD024B01461868FFF7BDBF00BFD0
:1058F000D004072038B5074C00230546084611465A
:105900002360FDF71FFB431C02D1236803B12B600A
:1059100038BD00BFC891072038B5064C00230546A6
:1059200008462360FDF714FB431C02D1236803B132
:105930002B6038BDC891072038B5074C05460020BC
:105940002060084611461A46FDF704FB431C02D1AD
:10595000236803B12B6038BDC891072038B5074CC8
:10596000054600202060084611461A46FAF7FEFC5C
:10597000431C02D1236803B12B6038BDC8910720B6
:105980004BB942B9002908BF002802D04FF0FF31BF
:10599000084600F03BB882B0EC462DE9005000F01C
:1059A0001DF8DDF804E002B00CBC70472DE9704F23
:1059B000089E14461D468046894600F029F804FBDF
:1059C00001F3A4FB00AB00FB05329344B8EB0A08DB
:1059D00069EB0B09C6E90089BDE8708F2DE9704FAE
:1059E000089E14461D468046894600F061F900FB7A
:1059F00005F5A0FB04AB04FB0154A344B8EB0A0873
:105A000069EB0B09C6E90089BDE8708F704700BFDC
:105A100000292DE9F00FC0F2A1800024002BC0F274
:105A20009880154606460F46002B3FD18A4258D92A
:105A3000B2FA82F34BB1C3F1200201FA03F720FA64
:105A400002F29D4000FA03F61743290CB7FBF1F26E
:105A500001FB1277A8B200FB02F34FEA164C4CEAA6
:105A60000747BB4209D97F1902F1FF3C80F005814D
:105A7000BB4240F20281023A2F44FF1AB7FBF1F316
:105A800001FB137100FB03F0B6B246EA0141884204
:105A900008D9491903F1FF3780F0F180884240F2BC
:105AA000EE80023B43EA0242002303E08B420AD924
:105AB00000231A461046194614B1404261EB4101D9
:105AC000BDE8F00F7047B3FA83F8B8F1000F40F06B
:105AD00088808B4202D3824200F2E28000230122BE
