S0120000486F76657243726166742E737265631E
S214080000202A07208D190800891908008919080070
S21408001089190800891908008919080000000000D5
S2140800200000000000000000000000004912080060
S214080030891908000000000081120800BD12080097
S21408004089190800891908008919080089190800FB
S21408005089190800891908008919080089190800EB
S214080060891908008919080000000000F917080017
S2140800700D180800211808003518080000000000B0
S2140800800000000089190800891908008919080065
S21408009089190800891908008919080089190800AB
S2140800A08919080000000000891908008919080045
S2140800B0891908008919080089190800891908008B
S2140800C0891908008919080089190800891908007B
S2140800D0891908008919080089190800891908006B
S2140800E0891908008919080089190800891908005B
S2140800F08919080010B5054C237833B9044B13B199
S2140801000448AFF300800123237010BD440807207D
S21408011000000000282F080008B5064B1BB106484B
S2140801200649AFF300800648036813B1054B03B1D0
S214080130984708BD00000000282F08004808072038
S214080140282F08000000000008B5044B9847044B09
S2140801509847044B9847002008BD00BF09150800BB
S214080160A51408009D040800704700BF704700BF2C
S21408017010B582B02420094B9847094C2046002128
S214080180084B9847E2681123009301204FF0FF318F
S214080190054B064CA04702B010BD00BF3119080039
S2140801A00040094099140800EC2D0800510F08007B
S2140801B010B582B02420094B9847094C20460121E7
S2140801C0084B9847E2681923009302204FF0FF3146
S2140801D0054B064CA04702B010BD00BF31190800F9
S2140801E00040094099140800082E0800510F08001E
S2140801F010B582B02420094B9847094C20460221A6
S214080200084B9847E2682123009304204FF0FF31FB
S214080210054B064CA04702B010BD00BF31190800B8
S2140802200040094099140800082E0800510F0800DD
S21408023010B582B02420094B9847094C2046032164
S214080240084B9847E2682923009308204FF0FF31AF
S214080250054B064CA04702B010BD00BF3119080078
S2140802600040094099140800082E0800510F08009D
S21408027010B582B02420094B9847094C2046042123
S214080280084B9847E2683123009310204FF0FF315F
S214080290054B064CA04702B010BD00BF3119080038
S2140802A00040094099140800082E0800510F08005D
S2140802B0F0B583B004460D461F4B984207D11F463B
S2140802C01E4E38462946B0470028FAD119E01C4B7E
S2140802D0984209D11F461B4E384601A9B047002848
S2140802E0FAD1019B2B7019E0174B984209D11E468C
S2140802F0144C304601A9A0470028FAD1019B2B7060
S21408030018E0124B9C4209D11E460E4C304601A9F5
S214080310A0470028FAD1019B2B700BE00C4B9C429F
S21408032008D11E46074C304601A9A0470028FAD136
S214080330019B2B7003B0F0BD00080E40F1050800C5
S214080340008009401906080000C0094000000A405D
S21408035000400A4070B50C46214B984207D11E460D
S214080360204D30462146A8470028FAD12BE01E4BE0
S214080370984207D11E461D4D30462146A8470028FC
S214080380FAD122E01A4B984207D11E46174D30463E
S2140803902146A8470028FAD119E0164B984207D1FB
S2140803A01E46124D30462146A8470028FAD110E0CE
S2140803B0114B98420FD11E460C4D30462146A84791
S2140803C00028FAD109E0012070BD012070BD012087
S2140803D070BD012070BD002070BD012070BD00BF3B
S2140803E000080E40E10508000080094005060800E0
S2140803F000C0094000000A4000400A4030B585B0F9
S21408040008201A4DA8471A4C1A4B1C601A4A1B4B50
S2140804101A601B4A1B4B1A601B4B00934FF4E133C0
S21408042001934FF4006302930820A84720466946C4
S214080430164B9847164D2B6898680021154CA04710
S2140804402B6858680021A047134B4FF480725A66F1
S2140804505A655A62C3F880201A6F22F480721A67A7
S2140804602B6898680021A04705B030BD31190800F0
S21408047000080E409809072055030800940907202D
S214080480B10208009009072000BD0105A90508006B
S21408049030040720151D0800000E0E4008B50E4B48
S2140804A098470E480E4B98470E480F490D220F4C9A
S2140804B0A0470F480F491522A0470F480F491D228D
S2140804C0A0470F480F492522A0470F480F492D225D
S2140804D0A0470F4B9847FEE7FD030800242E0800A8
S2140804E02110080071010800342E0800C90F080002
S2140804F0B1010800482E0800F10108005C2E08002B
S21408050031020800702E080071020800842E0800C8
S2140805103D1008002DE9F0410C46904660B9002AC7
S2140805200EDD8F18094E0A4D306821462B6898470D
S2140805300134BC42F8D106E04FF0FF30BDE8F08148
S2140805400020BDE8F0814046BDE8F0819809072004
S214080550900907202DE9F0410E4615460138022875
S2140805600FD892B10024DFF83C800D4FD8F8000071
S214080570315D3B68984700280ADB0134A542F5D16F
S2140805800AE04FF0FF30BDE8F0810020BDE8F081BA
S2140805904FF0FF30BDE8F0812046BDE8F08100BF8F
S2140805A0940907209809072010B4AC2303600A684A
S2140805B04B68B2FBF3F31B095C1E4FF6FE729442BF
S2140805C00AD803628B68436040F20223C0F82031E1
S2140805D050230360002000E001205DF8044B7047BC
S2140805E0436913F0020F1ABFC1610020012070474B
S2140805F0436913F0010F1DBF83690B7000200120AB
S214080600704700BF436913F0020F1DBFC1F308010E
S214080610C161002001207047436913F0010F05D01F
S2140806208369C3F308030B600020704701207047F6
S2140806302DE9F0410546B0F1004F32D15F4B1868FE
S21408064082689368013B9360002B1DDA8268916884
S2140806509369994212DB13682D221A70574B186853
S2140806608268136819780A2902D0013313604FE0AC
S2140806700A21534B98474FF0004549E02D21504B2F
S21408068098474FF0004543E083681B682D221A7090
S2140806904A4B1B689B681A6801321A604FF000457F
S2140806A036E0002834DA454B186882689368013BC0
S2140806B09360002B19DA826891689369994210DB77
S2140806C013682D221A703D4B1868826813681978CB
S2140806D00A2902D00133136011E00A21384B9847E3
S2140806E00DE02D21364B984709E083681B682D22BC
S2140806F01A70324B1B689B681A6801321A606D4282
S21408070006E004EB84035B009C4206DA1C4600E025
S2140807100124B5FBF4F3092BF3D8284E294FDFF84C
S214080720A080306882689368013B9360002B29DAC2
S214080730826891689369994217DB1168B5FBF4F3F0
S214080740A7FB0302D20802EB8202A3EB4203303374
S2140807500B7030688268136819780A2902D001334A
S214080760136021E00A21C0471EE0B5FBF4F3A7FB9F
S21408077003E1C90801EB8101A3EB41013031C9B29D
S214080780C04711E083681968B5FBF4F3A7FB0302BA
S214080790D20802EB8202A3EB420330330B703368B5
S2140807A09B681A6801321A60074B83FB0423E41718
S2140807B0C4EBA304002CB4DCBDE8F08130040720A9
S2140807C0411E0800CDCCCCCC676666662DE9F8439A
S2140807D006460C465E4B186882689368013B936031
S2140807E0002B19DA826891689369994210DB1368BE
S2140807F030221A70564B18688268136819780A29C6
S21408080002D00133136011E00A21524B98470DE0DD
S2140808103021504B984709E083681B6830221A70CD
S2140808204B4B1B689B681A6801321A60484B18685D
S21408083082689368013B9360002B1BDA8268916894
S2140808409369994210DB136878221A70404B18682F
S2140808508268136819780A2902D00133136006E003
S2140808600A213C4B984702E078213A4B984764B9EE
S214080870BDE8F88383681B6878221A70344B1B68B7
S2140808809B681A6801321A60F1E7314DDFF8C490A8
S2140808904FF00A08013CE4B2A30026FA03F303F07B
S2140808A00F03092B28D8286881688A68013A8A6065
S2140808B0002A17DA826891689769B9420EDB1268CF
S2140808C03033137028688268136819780A2902D0AA
S2140808D00133136038E04146C84735E003F130017C
S2140808E0C84731E082681268303313702B689B68FB
S2140808F01A6801321A6027E0286881688A68013A0F
S2140809008A60002A17DA826891689769B9420EDB0E
S21408091012683733137028688268136819780A29AA
S21408092002D0013313600FE04146C8470CE003F1DC
S2140809303701C84708E082681268373313702B6897
S2140809409B681A6801321A60002CA3D1BDE8F883A8
S21408095030040720411E0800F8B5002800F00A8178
S2140809600378002B00F00681441C834D834E844F89
S214080970A3F12002D2B25E2A2AD828688268936831
S214080980013B9360002B18DA826891689369994254
S2140809900FDB136814F8012C1A702868826813682D
S2140809A019780A2902D001331360DEE00A21B84715
S2140809B0DBE014F8011CB847D7E083681B6814F816
S2140809C0012C1A702B689B681A6801321A60CCE0F2
S2140809D00D2B4ED1286882689368013B9360002BE4
S2140809E016DA82689168936999420EDB13685C226E
S2140809F01A7028688268136819780A2902D00133A1
S214080A0013600EE00A21B8470BE05C21B84708E0FF
S214080A1083681B685C221A702B689B681A68013208
S214080A201A60286882689368013B9360002B16DA80
S214080A3082689168936999420EDB136872221A706D
S214080A4028688268136819780A2902D00133136067
S214080A508BE00A21B84788E07221B84785E08368AA
S214080A601B6872221A702B689B681A6801321A6013
S214080A707BE00A2B4ED1286882689368013B936016
S214080A80002B16DA82689168936999420EDB136820
S214080A905C221A7028688268136819780A2902D0B6
S214080AA0013313600EE00A21B8470BE05C21B84713
S214080AB008E083681B685C221A702B689B681A68B3
S214080AC001321A60286882689368013B9360002B9D
S214080AD016DA82689168936999420EDB13686E226B
S214080AE01A7028688268136819780A2902D00133B0
S214080AF013603AE00A21B84737E06E21B84734E079
S214080B0083681B686E221A702B689B681A68013205
S214080B101A602AE0286882689368013B9360002B75
S214080B2016DA82689168936999420EDB13685C222C
S214080B301A7028688268136819780A2902D001335F
S214080B4013600EE00A21B8470BE05C21B84708E0BE
S214080B5083681B685C221A702B689B681A680132C7
S214080B601A6014F8010C0221B04714F8013B002B58
S214080B707FF4FEAEF8BD00BF30040720CD0708009E
S214080B80411E080038B50D46464B9847464B186830
S214080B908468A268013AA260002A19DA8268936813
S214080BA091698B4210DB13683A221A703E4B18681C
S214080BB08268136819780A2902D00133136011E095
S214080BC00A213A4B98470DE03A21384B984709E0F6
S214080BD083681B683A221A70334B1B689B681A682E
S214080BE001321A602846324B98472F4B186882689D
S214080BF09368013B9360002B19DA826891689369C1
S214080C00994210DB13683A221A70274B18688268D4
S214080C10136819780A2902D00133136011E00A21F3
S214080C20224B98470DE03A21204B984709E0836805
S214080C301B683A221A701C4B1B689B681A6801329C
S214080C401A601C4B5868174B9847174B18688268E9
S214080C509368013B9360002B19DA82689168936960
S214080C60994210DB13683A221A700F4B186882688C
S214080C70136819780A2902D00133136038BD0A218F
S214080C800A4B984738BD3A21084B984738BD8368C1
S214080C901B683A221A70044B1B689B681A68013254
S214080CA01A6038BD5909080030040720411E08009C
S214080CB0310608009C09072008B50146194B186834
S214080CC0194B984719481A4B98471A4B1868826860
S214080CD09368013B9360002B19DA826891689369E0
S214080CE0994210DB13683A221A70124B1868826809
S214080CF0136819780A2902D00133136008BD0A213F
S214080D000D4B984708BD3A210B4B984708BD83689A
S214080D101B683A221A70074B1B689B681A680132D0
S214080D201A6008BD9C090720850B0800A82E080035
S214080D305909080030040720411E080038B5054642
S214080D4020B10348034CA0472846A04738BD00BF3B
S214080D509C2E0800590908002DE9F04707468846E2
S214080D6020254FF00044434E4FF05809DFF808A1FD
S214080D703C4252D014EA080F27D03068826893683D
S214080D80013B9360002B16DA826891689369994252
S214080D900EDB136831221A70306882681368197877
S214080DA00A2902D0013313605EE00A21D0475BE0CF
S214080DB03121D04758E083681B6831221A7033689F
S214080DC09B681A6801321A604EE030688268936839
S214080DD0013B9360002B16DA826891689369994202
S214080DE00EDB136830221A70306882681368197828
S214080DF00A2902D00133136036E00A21D04733E0CF
S214080E003021D04730E083681B6830221A70336878
S214080E109B681A6801321A6026E030688268936810
S214080E20013B9360002B16DA8268916893699942B1
S214080E300EDB136883F800903068826813681978A8
S214080E400A2902D0013313600EE00A21D0470BE0CE
S214080E504946D04708E083681B6883F800903368E3
S214080E609B681A6801321A606408013D80D1BDE8A3
S214080E70F08700BF30040720411E080008B5024866
S214080E80024B984708BD00BFA82E0800590908005D
S214080E9008B50248024B984708BD00BF982E0800C0
S214080EA05909080008B5244BDB6923B1224B5A6957
S214080EB001325A610FE0204B9B6943B91E4B1868F4
S214080EC099681E4B98471E481E4B984703E01A4BD6
S214080ED01A6901321A61184B00229A61DA611A4BB4
S214080EE0186882689368013B9360002B19DA826859
S214080EF091689369994210DB13680A221A70124B9C
S214080F0018688268136819780A2902D001331360B2
S214080F1008BD0A210D4B984708BD0A210B4B984778
S214080F2008BD83681B680A221A70074B1B689B68F3
S214080F301A6801321A6008BD9C090720850B08004C
S214080F40F42E08005909080030040720411E08003E
S214080F502DE9F84305460F4616469846124CA469EE
S214080F60FCB9114AD269E2B981EA0603034218D0ED
S214080F7008980E4B98470E48DFF84890C84728460A
S214080F8039460C4CA0470C48C84728463146A04767
S214080F9040460A4B98470448012181612030084B97
S214080FA09847BDE8F88300BF9C090720B90C0800DD
S214080FB0B02E0800590D0800A02E08003D0D0800A8
S214080FC0311D08005909080000B583B001900E4885
S214080FD041608260C3680133C36020300B4B98477A
S214080FE018B90B4B9847019B98470A48074B9847F0
S214080FF020B9054BDB690BB9074B9847074B984751
S21408100003B05DF804FB00BF9C090720251D0800F7
S21408101069010800BC0907206D010800A50E080034
S214081020054B186000225A609A60DA601A615A61A5
S2140810309A61DA61704700BF9C09072070B5664B55
S214081040186882689368013B9360002B19DA8268F7
S21408105091689369994210DB13680A221A705E4BEE
S21408106018688268136819780A2902D00133136051
S21408107011E00A21594B98470DE00A21574B98472B
S21408108009E083681B680A221A70534B1B689B6822
S2140810901A6801321A605248524B98474E4B1868E5
S2140810A082689368013B9360002B19DA826891681E
S2140810B09369994210DB13680A221A70464B18681F
S2140810C08268136819780A2902D00133136011E080
S2140810D00A21424B98470DE00A21404B984709E001
S2140810E083681B680A221A703B4B1B689B681A6841
S2140810F001321A603C4EF0683C4DA8473C48394CD3
S214081100A0473069A8473B48A0477069A8473A48AF
S214081110A047314B186882689368013B9360002BA0
S21408112019DA826891689369994210DB13680A2273
S2140811301A70294B18688268136819780A2902D029
S2140811400133136011E00A21244B98470DE00A2169
S214081150224B984709E083681B680A221A701E4BC0
S2140811601B689B681A6801321A601F4B1B6913B903
S214081170224B984701E0224B9847174B186882681D
S2140811809368013B9360002B19DA8268916893692B
S214081190994210DB13680A221A700F4B1868826887
S2140811A0136819780A2902D00133136011E00A215E
S2140811B00A4B98470DE00A21084B984709E08368D0
S2140811C01B680A221A70044B1B689B681A6801324F
S2140811D01A60054B186970BD30040720411E0800C8
S2140811E0BC2E0800590908009C090720310608008B
S2140811F0EC2E0800D42E0800E02E0800910E0800F9
S2140812007D0E080043685A684A6042688A605A68D1
S2140812109160596041600861036801330360704754
S214081220436882689A60836842685A6003695A68A5
S214081230824204BF82685A60002202611A68013A34
S2140812401A601868704700BF064B19680868B0E847
S214081250F00F80F309884FF0000080F311884EF0F5
S2140812600D0E7047D4080720EFF311804FF0A00149
S21408127081F311887047002080F31188704700BFFB
S214081280EFF309800C4B1A6820E9F00F10602DE97F
S21408129008404FF0A00080F3118800F0B5F84FF032
S2140812A0000080F31188BDE8084019680868B0E8AF
S2140812B0F00F80F309887047D408072008B54FF068
S2140812C08052054B1A60054B9847054B98470020F7
S2140812D0044B984708BD00BF04ED00E069120800FB
S2140812E0E9120800791208002DE9F0413A4B1B680C
S2140812F0002B6BD1394B1A6801321A601B6803BB86
S214081300374B1B681B681BB1364B984700BFFDE779
S214081310334B1968344A106818601160334A1168EC
S214081320013111601B681B6823B94FF0FF32304B40
S2140813301A6006E02A4B1B68DB68DB685A682C4B89
S2140813401A60264B1A682A4B1B689A4242D3244BCB
S2140813501B681B684BB1224B1B68DB68DC6863683C
S2140813601E4A1268934213D90EE04FF0FF32204B04
S2140813701A60BDE8F0811A4B1B68DB68DC68636896
S214081380164A1268934207D9194A1360BDE8F081D5
S214081390184E194FDFF86C80251D2846B047A36AFB
S2140813A013B104F11800B047E36A3A68934288BF5D
S2140813B03B6003EB830008EB800029460F4B9847F9
S2140813C0074B1B681B68002BD5D1CEE70C4B1A6859
S2140813D001321A60BDE8F081D0080720DC08072033
S2140813E06408072069120800E0080720D8080720C4
S2140813F000000720211208006808072005120800C8
S214081400600807206C08072008B51D4B1B685BB9E9
S2140814101C4B1B6803EB83039B001B4AD358CBB9B2
S214081420184B1B6853B905E00122184B1A6008BD13
S2140814301A682AB9164B984700BFFDE7114B1249A0
S2140814401A68013A1A601A6802EB820251F82220DA
S214081450002AEDD00B4B1B6803EB83030A4A02EB0A
S21408146083035A6852685A6003F108018A4204BF27
S21408147052685A605B68DA68064B1A6008BD00BF97
S214081480D0080720680807206C080720E40807200B
S21408149069120800D4080720012303FA01F1416005
S2140814A0704700BF10B50E480E4B984700203E21E7
S2140814B00D4B98470D4CA0470028FCD00C4B98477E
S2140814C00C4A0D4B9A620D4CA0470028FCD0102001
S2140814D00B4B98470B4B98470148024B984710BD53
S2140814E000BD0105591B0800AD18080001190800C1
S2140814F011190800013F0D2000060E4021190800AA
S214081500491808003D1A080010B54FF40042174B5A
S2140815105A600B20164CA0470C20A0470D20A04769
S2140815200E20A0473B204FF06051124CA047552094
S2140815304FF06051A04756204FF06051A0476820F2
S2140815400D49A0475C200D49A0470D484FF440714F
S2140815504FF000620B4B98472B204FF00061A047D6
S2140815602A204FF00061A04710BD00BF501A0E4059
S214081570311908002D1608007900002801000028F7
S214081580000E0E40011708004264B1F1805F16D0C5
S21408159004D8C1B1B1F1006F0AD013E0B1F1405FD1
S2140815A011D0B1F1605F0ED0B1F1205F0AD170475B
S2140815B0036F016F0B4023EA0203036702E0036F21
S2140815C01343036742607047416412F0010F14BF6B
S2140815D04166016612F00A0F14BF0162416212F0FA
S2140815E0020F02D0C0F8801004E012F0080F18BFEF
S2140815F0C0F8841041610160704700BF10B44164B0
S214081600019C0CB1416600E001660BB1016500E083
S21408161041650AB1016300E04163016101605DF85C
S214081620044B7047C06C7047806C704770B582B0CA
S2140816300D46440904F5001404F20774660201F026
S214081640F044B4F1205F30D006D8B4F1006F0AD069
S214081650B4F1805F18D049E0B4F1405F30D0B4F1FF
S214081660605F2DD042E000F01F0001248440304621
S2140816704FF0006122461F4B984715F0010F14BF24
S21408168074663466012032E000F01F0001248440AE
S21408169030464FF080512246164B984715F0010FFA
S2140816A014BF74663466012021E000F01F0101248F
S2140816B0304604FA01F12A460F4B9847204616E0B2
S2140816C000F01F01012405F0605205EA04030093A8
S2140816D0304604FA01F1B2F1605F14BF002201221D
S2140816E0C5F38003054DA847204600E0002002B059
S2140816F070BD00BF89150800C9150800FD1508004B
S214081700F0B583B007460E46154602F0F044B4F12D
S214081710205F26D006D8B4F1006F0AD0B4F1805FF7
S21408172013D034E0B4F1405F1FD0B4F1605F1CD032
S2140817302DE04FF000613246164B984715F0010F22
S21408174014BF7E663E66012022E04FF08051324686
S214081750104B984715F0010F14BF7E663E660120B1
S21408176016E00D4B9847012012E005F0605205F090
S2140817700103009338463146B2F1605F14BF002279
S2140817800122C5F38003054CA047012000E0002095
S21408179003B0F0BD89150800C9150800FD15080036
S2140817A02DE9F04104460E46104B9847054620465C
S2140817B00F4B9847054017D00E4F07F10C046C37AF
S2140817C054F80C3CB3420AD154F8081C294206D0F7
S2140817D023683046984754F8083C25EA0305BC4277
S2140817E002D01034002DEBD1BDE8F0812516080094
S2140817F029160800E808072008B502480B21024BFE
S214081800984708BD000E0E40A117080008B5024804
S2140818100C21024B984708BD00100E40A11708007F
S21408182008B502480D21024B984708BD00120E4025
S214081830A117080008B502480E21024B984708BDB4
S21408184000140E40A1170800174B1A6B22F07002FE
S214081850104318639B6E13F0080F09D14FF400630A
S214081860114901E0013B19D08A6E12F0080FF9D031
S2140818700D4B1A6B22F0030242F002021A63986EAE
S21408188010F008000CD14FF40063074901E0013B53
S21408189008D08A6E12F0080FF9D0704701207047FA
S2140818A0002070470120704700060E4038B11149E5
S2140818B00B6A114A1A40114B13430B6270470D4AC4
S2140818C0136A23F45C1323F0030343F45C1343F016
S2140818D00103090289B20B431362936E13F0010FDA
S2140818E0FBD0044A136A43F09B7343F480331362B5
S2140818F0704700BF00060E40FCFFC8FE0200370116
S214081900024B986E00F48030704700BF00060E4009
S2140819104FF00052014B9A62704700BF00060E4017
S214081920024B986E00F00200704700BF00060E409B
S2140819302C2820D81F280DD8124B9A6901238340DB
S2140819401A40934219D0012303FA00F00D4B186190
S214081950002070470B4BD3F808212038012383401A
S2140819601A4093420BD0012303FA00F0054BC3F844
S21408197000010020704701207047002070470020B3
S214081980704700BF00060E40FEE700BF10B51E4BAE
S2140819901E4A9A4203D01E4B1B4A9A4204D31D4B3A
S2140819A01D4A9A420FD31AE01C4B1D4CE41A24F029
S2140819B0030404340023144814495A581A500433AC
S2140819C0A342FAD1EBE7174B1749C91A21F00301CE
S2140819D01A1D1144002243F8042F8B42FBD1134AE8
S2140819E022F0604323F07F0311498B6002F16042C6
S2140819F0B2F5801F03D28A6842F000528A600D4B07
S214081A0098470D4B9847FEE700000720282F080048
S214081A10440807201C0A072044080720040007205B
S214081A204708072040080720170A07200000080074
S214081A3000ED00E0311C0800490108003E4B1B6B16
S214081A4003F00303032B5FD8DFE803F0020E2B2B0B
S214081A503A4B5B6913F0800F14BF4FF400424FF403
S214081A60FA42374B1A604FE0334B1B6A13F0807FFD
S214081A7003D0344A324B1A6046E0334A304B1A6079
S214081A802D4B1B6A03F07003102B02D0202B04D0BA
S214081A903AE02E4A2A4B1A6036E02A4A284B1A6041
S214081AA032E0254B1B6A13F0807F03D0254A244B6F
S214081AB01A6012E0244A224B1A601F4B1B6A03F076
S214081AC07003102B02D0202B04D006E01F4A1C4BB4
S214081AD01A6002E01B4A1A4B1A60174B1B6B03F07E
S214081AE00303022B0DD1144B986A996A144BC0F362
S214081AF00A401A6800FB0222C9B2B2FBF1F21A6069
S214081B0002E0134A0E4B1A600B4B1B6B03F0700374
S214081B10702B07D10A4B1A680E49A1FB020252081D
S214081B201A607047044B196B054BC1F302111A680B
S214081B30CA401A60704700BF00060E40101A0E40D2
S214081B4004000720001BB70000093D0000127A00B9
S214081B50001C4E0EABAAAAAA1B4B984206D8002316
S214081B601A4A136002F5007213607047184B9842C1
S214081B7007D84FF48073154A136002F50072136095
S214081B807047144B984207D84FF400730F4A1360F7
S214081B9002F50072136070470F4B984207D84FF44F
S214081BA040730A4A136002F50072136070470B4BC5
S214081BB0984294BF4FF480634FF4A063034A1360BF
S214081BC002F5007213607047BFEA2101000A0E4052
S214081BD07FF0FA02FF8FD003FFB3C4047F4A5D0587
S214081BE0094B1B6813B9094A074B1A60064B1B6852
S214081BF01A180749914204DB1046034A1060184633
S214081C0070474FF0FF30704758090720202A0720F2
S214081C10FC7F08204FF0FF30704700BF4FF400539A
S214081C204B600020704700BF0120704700207047B7
S214081C3070B50F4E0F4D761BB61007D0043D002426
S214081C40013455F8043F9847A642F9D10A4E0B4D81
S214081C5001F058F9761BB61008D0043D002401346C
S214081C6055F8043F9847A642F9D170BD70BD00BF2D
S214081C70102F0800102F0800182F0800102F080033
S214081C80F0B4840743D0541E002A3ED0CDB2034693
S214081C9003E0621E002C38D0144603F8015B9A074E
S214081CA0F7D1032C2AD9CDB245EA05250F2C45EAEB
S214081CB0054515D9A4F110073F0903F1100606EBF0
S214081CC007161A46156055609560D5601032B24200
S214081CD0F8D104F00F040137032C03EB07130DD9D2
S214081CE01E462246043A032A46F8045BFAD8221F00
S214081CF022F003020432134404F003042CB1C9B2E0
S214081D001C4403F8011BA342FBD1F0BC70471446E1
S214081D100346C6E700290CBF022200224FF4806360
S214081D2000F00EB8EC46A0E8F05F4FF000007047F1
S214081D30B0E8F05FE546080008BF0120704700BF1E
S214081D402DE9F0413C4D04462D68884616461F4648
S214081D5015B1AB6B002B4FD0022E30D8002F2EDBE0
S214081D602846214600F0D6F9A38900226260A261BF
S214081D701A0628D423F083039BB2022EA3812DD003
S214081D80B8F1000F3CD0012E13D09BB203F0080028
S214081D902A4A80B2EA63C4F80080C4F810806761F3
S214081DA078B113F0030F18BF0027A7600020BDE81E
S214081DB0F08143F001037A42A381A261E5E74FF080
S214081DC0FF30BDE8F0812846216900F0A3FAA38910
S214081DD0022E23F083039BB2A381D1D1002004F105
S214081DE0430243F0020300250121A381A560226077
S214081DF022616161BDE8F081284600F0A7F9ABE7EB
S214081E00002F08BF4FF48067384600F0E3FB804693
S214081E1028B1A38943F080039BB2A381B3E74FF4AC
S214081E20806000F0D7FB804618B9A3894FF0FF30D2
S214081E30D5E74FF48067ECE7300407204121080017
S214081E40F8B50D461446074610B1836B002B48D0EC
S214081E50A289A06993B2A060180738D52669002E13
S214081E6035D09904EDB215D5236862699E1B964253
S214081E701CDA0136A268591C013AA26021601D705E
S214081E806369B3421AD0A389DB0701D50A2D15D09A
S214081E902846F8BD636E42F4005223F40053636686
S214081EA02368A28162699E1B9642E2DB3846214679
S214081EB000F030F940B923680126DBE738462146AA
S214081EC000F028F90028E3D04FF0FF30F8BD384678
S214081ED0214600F009F80028F6D1A289266993B2AF
S214081EE0BFE700F033F9B3E72F4B70B5064618681E
S214081EF00C4610B1826B002A36D0A589ABB21907FA
S214081F000CD52269AAB113F001011ED0636900211D
S214081F105B42A361A160F2B1002070BDDA063AD533
S214081F205B0724D4226945F00803A3819BB2002AE4
S214081F30E9D103F42071B1F5007FE4D0304621469C
S214081F4000F0D8FAA3892269DDE7980758BF6169C7
S214081F50A160002AE0D1A3891A06DDD543F0400324
S214081F60A3814FF0FF3070BD00F0F0F8C5E7216B95
S214081F7049B104F14003994203D0304600F0CAF94B
S214081F80A58900232363226925F024050021ADB224
S214081F9022606160C7E745F04005092333604FF0CB
S214081FA0FF30A58170BD00BF30040720024B13B177
S214081FB0024800F005B870470000000049220800F3
S214081FC0014600200246034600F014BE8B892DE920
S214081FD0F0419AB20D46110780463CD46A6843F42D
S214081FE00063002AAB8159DDAC6A002C4BD09BB24B
S214081FF003F48052002192B2D8F80060C8F80010A6
S214082000002A4FD02A6D5F0705D569682B6B521AD0
S2140820100BB1EB6BD21A4046E9690023A047441C73
S2140820204AD0AB892A6923F400639BB200212A6050
S214082030DA04AB8169604CD4296BC8F8006011B328
S21408204005F14003994202D0404600F063F90020AB
S2140820502863BDE8F0812E69AEB191072C680CBFE5
S2140820606B6900232E60A41BAB600AE03246234649
S2140820706F6A4046E969B8470028C0EB040406447E
S21408208004DD002CF2DC0020BDE8F081AB894FF0BF
S214082090FF3043F04003AB81BDE8F081EA6B002ACD
S2140820A0A2DCF0E701234046E969A047431C024644
S2140820B01ED0AB89AC6AA6E7D8F800305BB9AA8907
S2140820C0296922F4006292B26B60D304AA8129605F
S2140820D0B2D52865B0E71D2B01D0162B13D1A989D8
S2140820E02B6921F400610022A9812B606A60A3E7AE
S2140820F0D8F80030002BDCD01D2B01D0162BC5D10C
S214082100C8F80060BFE7AB8943F04003AB81BDE881
S214082110F08100BF10B5044682B008B1836B53B196
S214082120B1F90C0008B902B010BD204602B0BDE8EF
S2140821301040FFF74BBF019100F008F80199EFE750
S214082140014900F0B3B900BF412D08002DE9F04F52
S214082150846B83B00746002C65D17D68334804231A
S214082160032107F53B72F863C7F8E412C7F8E822BC
S214082170C7F8E04205F15C00AB812C606C60AC608F
S2140821806C66EC812C616C61AC6121460822FFF715
S21408219077FDDFF89CB0BE68DFF898A0DFF8989067
S2140821A0DFF8988001230922ED61C5F820B0C5F84C
S2140821B024A0C5F82890C5F82C802146F381B28162
S2140821C034607460B460746634617461B461082203
S2140821D006F15C000193FFF753FDFD68122002220A
S2140821E0F661C6F820B0C6F824A0C6F82890C6F847
S2140821F02C802146A881EA812C606C60AC606C66F5
S2140822002C616C61AC6105F15C000822FFF738FDB3
S214082210019BED61C5F820B0C5F824A0C5F8289044
S214082220C5F82C80BB6303B0BDE8F08F41210800D9
S214082230492B08006D2B0800A52B0800C52B0800A5
S214082240704700BF704700BF38B5094D094C641B7E
S214082250A41018BF05EB840505D0013C55F8043DCD
S2140822609847002CF9D1BDE8384000F055BE00BFAD
S214082270242F0800282F0800F8B5234D0F460446DB
S21408228000F04CFCAB685E6826F00306F11B01F60E
S214082290EF7121F47F6121F00F01A1F58057B7F5A2
S2140822A0805F07DB2046002100F03CFCAB68334427
S2140822B0984204D0204600F033FC0020F8BD2046A3
S2140822C0794200F02FFC01300DD0104BAA6819682F
S2140822D0F61B46F001062046C91B5660196000F03A
S2140822E01FFC0120F8BD2046002100F01BFCAB684F
S2140822F0C21A0F2ADEDD064D04492D6842F0010297
S214082300401B5A600860D5E7340407206809072090
S214082310400807202DE9F0410D460646002955D00D
S21408232000F0FCFB55F8041CDFF870C1A5F10804A2
S21408233021F00103E218DCF808005768904227F0FD
S214082340030768D011F00101576032D00021D01978
S2140823504068C00706D43B44906800294DD0D26830
S214082360C260906043F001026260E350E1B9B3F5E1
S214082370007F2DD35A0A042A69D8980938304100B4
S2140823800CEB810CDCF808204449624565D051689E
S21408239021F003018B4202D292689445F7D1D368A4
S2140823A0E360A2609C60D4603046BDE8F04100F06F
S2140823B0B7BB55F8085C0CF10808641BA0682B44EA
S2140823C0404542D0E568C560A860C0E7BDE8F08132
S2140823D0DB089A1001209040DCF804100CEBC303CD
S2140823E09A680143A260E360CCF8041030469C600B
S2140823F0D460BDE8F04100F093BB294DA842AED1A9
S21408240043F00102CCF81440CCF81040E060A0601D
S2140824106260E350C8E71F44CB0707D455F8081C8A
S214082420641AE368A2680F44D3609A601D4B47F0AD
S21408243001021B6862609F42CCF80840B4D31A4B6E
S21408244030461968FFF718FFAEE701217FE7142A20
S2140824500BD802F15B00410092E780100125854009
S21408246048681346284348609AE7542A03D8180B46
S2140824706E30410084E7B2F5AA7F03D8D80B7730D0
S21408248041007DE740F254518A4203D8980C7C30CC
S214082490410075E7FC217E2072E700BF3404072060
S2140824A03C0407203C080720640907202DE9F04172
S2140824B010F53877884619D000267D68BC68013D37
S2140824C00ED4A389013D012B06D9B4F90E30204657
S2140824D0013301D0C04706436B1C04F16804F0D1F1
S2140824E03F68002FE9D13046BDE8F0813E463046C9
S2140824F0BDE8F081F0B58B8991B09AB296070C4684
S214082500054637D4B1F90E10002917DB01AA00F0EA
S2140825101FFC002810DB029B03F47043B3F5005140
S2140825204F424F41B3F5004F2CD0A3894FF4806635
S21408253043F40063A3810BE0A3899AB212F0800FDC
S21408254043F40063A38114BF40264FF48066002737
S2140825502846314600F046F8A389002829D01B4AA9
S21408256043F08003EA63A381206020616661A7B90F
S21408257011B0F0BD01F1430301220B600B614A6103
S21408258011B0F0BD124AA36A9342CED1A3894FF484
S21408259080663343A381E664DAE72846B4F90E106A
S2140825A000F0EAFB0028E3D0A38943F00103A381E7
S2140825B0DEE79A05DCD404F1430243F00203012166
S2140825C0A381226022616161D2E700BF4121080031
S2140825D0A52B0800024B0146186800F003B800BF98
S2140825E0300407202DE9F04F01F10B05162D83B0B6
S2140825F0064627D935F0070527D4A94225D83046F8
S21408260000F08CFAB5F5FC7F26D2C14F4FEAD50C00
S21408261007EBCC03DC689C4200F0D2816368E26872
S21408262023F0030323445868A16840F00105CA60F4
S214082630304691605D6000F073FA0834204603B0B7
S214082640BDE8F08F1025A942D9D900240C232046CE
S214082650336003B0BDE8F08F5FEA552C00F0898040
S214082660BCF1040F00F260814FEA951C0CF1380C9F
S2140826704FEA4C01A64F07EB8101CC68A14205D171
S2140826800CE0002B79DAE468A14207D0626822F0F1
S2140826900302531B0F2BF4DD0CF1FF3C0CF1010C6D
S2140826A09B4B3C6903F1080E744500F07E81616817
S2140826B021F003014A1B0F2A00F36481002AC3F89D
S2140826C014E0C3F810E069DAB1F5007F80F03A81CB
S2140826D0C9088A104FF0010808FA02F803EBC1018E
S2140826E05A68886848EA0202A060E1605A608C600E
S2140826F0C4604FEAAC030120984090425BD802427F
S21408270006D12CF0030C400002420CF1040CFAD05F
S21408271007EBCC084446E146E3689C4207D146E10D
S214082720002A80F25781DB689C4200F04081596895
S21408273021F003014A1B0F2AF2DD1C4654F808CF85
S214082740D96845F0010942F001081D44C3F8049011
S2140827503046CCF80C10C1F808C07D613D61C5F85C
S2140827600CE0C5F808E0C5F80480AA5000F0D8F9CF
S21408277064E77E214FF03F0C7CE722445068E3680C
S214082780A16840F00105CB6030469960556000F0BE
S214082790C7F90834204603B0BDE8F08F21444B68DB
S2140827A0304643F001034B6000F0BAF9083420467F
S2140827B003B0BDE8F08FBC68636823F00309A94539
S2140827C004D3C5EB09030F2B00F39180514B524AF3
S2140827D01968136805EB010A013304EB090B00F0CE
S2140827E061810AF5805A0AF10F0A2AF47F6A2AF0EC
S2140827F00F0A30465146019200F094F9B0F1FF3FB7
S2140828008046019A00F00181834500F2FB80DFF8DC
S21408281014C1C345DCF800305344CCF8003000F04F
S2140828204A8112683C4901321BBFCBEB080B5B445C
S214082830C1F80080CCF8003018F0070300F01481C7
S214082840C3F10802C3F5805390440833C244CAF360
S2140828500B0ACAEB030A51463046CDF804C000F00E
S21408286061F9431CDDF804C000F03581C8EB0002AE
S214082870524442F00102DCF80030BC425344C7F828
S2140828800880CCF80030C8F80420DFF898A015D0E7
S214082890B9F10F0F40F2EB806168A9F10C0222F043
S2140828A0070201F0010142EA010E0520A1180F2ACD
S2140828B0C4F804E04860886000F21181174ABC68D2
S2140828C011688B4288BF1360154A11688B4288BF0F
S2140828D01360626822F003029542C5EB020301D832
S2140828E00F2B04DC304600F01BF90024A6E645F062
S2140828F0010243F00103254462603046BD606B6008
S21408290000F00EF90834204603B0BDE8F08F00BF8B
S21408291034040720640907204008072060090720B8
S2140829205C09072068090720BCF1140F61D9BCF1BF
S214082930540F00F28F804FEA153C0CF16E0C4FEAEC
S2140829404C0197E64B0A042B58D9142B00F2AD809D
S21408295003F15B02500007EB80008368DFF8B8815C
S214082960834200F08A805A6822F00302914202D21B
S2140829709B689842F7D1D9687A68E160A3608C6052
S214082980DC60B6E645F0010742F0010125446760C1
S21408299030465D611D61C5F80CE0C5F808E0696061
S2140829A0AA50083400F0BCF848E65A68A1E609F1CF
S2140829B0010919F0030F04F108047FF4ADAE2DE009
S2140829C004F108036469A34208BF0CF1020C3FF443
S2140829D067AE23E6194448681C4654F8082FDB6897
S2140829E040F001054D603046D3609A6000F098F8D4
S2140829F024E60CF15B0C4FEA4C013BE68A093832B8
S214082A005000A8E7BC423FF402AFBC68626822F0F8
S214082A10030261E7D8F8008098457AD11CF0030FC6
S214082A20A8F108030CF1FF3CF4D17B6823EA000305
S214082A307B60400098423FF6BEAE00283FF4BBAE2F
S214082A400342CC467FF464AE400003420CF1040C0B
S214082A50FAD05DE6BCF5AA7F19D84FEAD53C0CF14A
S214082A60770C4FEA4C0105E64FF48053EEE6012357
S214082A70C8F80430444600222EE792100120904001
S214082A80D8F8042019460243C8F8042075E740F22F
S214082A9054539C451BD84FEA954C0CF17C0C4FEAD6
S214082AA04C01E7E50AF1100AA3E6542B1FD80A0BD7
S214082AB06E3250004FE7CBF30B0100297FF4B1AE1E
S214082AC00AEB0901BA6841F001015160F6E6FC21FB
S214082AD04FF07E0CCEE501224FF0000ACBE604F15B
S214082AE008013046FFF716FCDAF80030E6E6B3F5DC
S214082AF0AA7F03D8CA0B773250002CE740F254520C
S214082B00934203D88A0C7C32500024E7FC207E22AD
S214082B1021E77B688DE700BF34040720704700BFB5
S214082B20704700BF38B5074C0023054608462360A3
S214082B30FFF756F8431C00D038BD2368002BFBD09F
S214082B402B6038BD180A072010B50C46B1F90E10D0
S214082B5000F038F9002803DB236D0344236510BD15
S214082B60A38923F48053A38110BD00BF2DE9F0414B
S214082B700C4689891D46CB051646074606D5B4F980
S214082B800E100022022300F009F9A18921F48051D1
S214082B90A1813846B4F90E1032462B46BDE8F041FE
S214082BA000F014B810B50C46B1F90E1000F0F6F89F
S214082BB0A389421C0EBF23F4805343F48053206538
S214082BC0A38110BDB1F90E1000F068B870B5084CB6
S214082BD006460025084611461A462560FDF7BAFC43
S214082BE0431C00D070BD2368002BFBD0336070BD3B
S214082BF0180A0720F0B5274C85B026680746D6F889
S214082C004841002C40D065681F2D1EDD224818B9A3
S214082C104FF0FF3005B0F0BD4FF4C8700391029234
S214082C200193FFF7D7FC03990446029A019B0028F4
S214082C30EED0D6F848510020256060600546C6F8F4
S214082C404841C4F88801C4F88C013FB96B1C0020C1
S214082C500235636044F8251005B0F0BD0126AE4085
S214082C6004EB8500C0F88820D4F88821022F42EAB1
S214082C700602C4F88821C0F80831E7D1D4F88C31A8
S214082C801E43C4F88C61E1E706F5A674C6F8484109
S214082C90B9E700BF002F0800D525080038B5074C4F
S214082CA00023054608462360FEF7B4FF431C00D001
S214082CB038BD2368002BFBD02B6038BD180A0720C8
S214082CC070B50C46054631B110B1836B002B2FD07A
S214082CD0B4F90C300BB9002070BD28462146FFF722
S214082CE019FAE36A064633B12846E1699847002888
S214082CF0B8BF4FF0FF36A3891B061CD4216B41B121
S214082D0004F14003994202D02846FFF703FB00234C
S214082D102363616C21B12846FFF7FCFA002363643D
S214082D20FFF78EFA0023A381FFF78CFA304670BDB2
S214082D30FFF70CFACCE728462169FFF7EBFADDE740
S214082D40024B01461868FFF7BBBF00BF30040720D8
S214082D5038B5084C00230546084611462360FEF79A
S214082D605DFF431C00D038BD2368002BFBD02B60CA
S214082D7038BD00BF180A072038B5074C002305469B
S214082D8008462360FEF750FF431C00D038BD236872
S214082D90002BFBD02B6038BD180A072070B5084CEE
S214082DA006460025084611461A462560FEF73EFFE9
S214082DB0431C00D070BD2368002BFBD0336070BD69
S214082DC0180A072070B5084C06460025084611461E
S214082DD01A462560FDF79EFB431C00D070BD23688D
S214082DE0002BFBD0336070BD180A072057726F6E31
S214082DF067206368616E6E656C20696E20656E611B
S214082E00626C65640000000057726F6E6720636826
S214082E10616E6E656C20697320656E61626C6564B0
S214082E2000000000746573742F746573745F7077A0
S214082E306D2E6300746573745F70776D5F63686189
S214082E406E6E656C5F300000746573745F70776DC6
S214082E505F6368616E6E656C5F31000074657374DD
S214082E605F70776D5F6368616E6E656C5F320000D9
S214082E70746573745F70776D5F6368616E6E656C9A
S214082E805F330000746573745F70776D5F636861A5
S214082E906E6E656C5F3400004F4B00002E200000FD
S214082EA020576173200000004641494C000000008E
S214082EB02045787065637465642000002D2D2D2DDF
S214082EC02D2D2D2D2D2D2D2D2D2D2D2D2D2D2D2D25
S214082ED02D2D2D00204661696C75726573200000E3
S214082EE02049676E6F726564200000002054657381
S214082EF07473200050415353000000004300000044
S214082F0008000720F8B500BFF8BC08BC9E46704706
S214082F10AD1F080019010800F8B500BFF8BC08BCCA
S20C082F209E467047F500080004
S214082F28FFFFFFFF00093D0000000000F40207202D
S214082F385C030720C4030720000000000000000008
S214082F48000000000000000000000000000000006C
S214082F58000000000000000000000000FC2E08002A
S214082F68000000000000000000000000000000004C
S214082F78000000000000000000000000000000003C
S214082F88000000000000000000000000000000002C
S214082F98000000000000000000000000000000001C
S214082FA8000000000000000000000000000000000C
S214082FB800000000000000000000000000000000FC
S214082FC800000000000000000000000000000000EC
S214082FD801000000000000000E33CDAB34126DE689
S214082FE8ECDE05000B0000000000000000000000F2
S214082FF800000000000000000000000000000000BC
S21408300800000000000000000000000000000000AB
S214083018000000000000000000000000000000009B
S214083028000000000000000000000000000000008B
S21408335808000720000000000000000034040720CA
S214083368340407203C0407203C04072044040720AC
S214083378440407204C0407204C040720540407205C
S214083388540407205C0407205C040720640407200C
S214083398640407206C0407206C04072074040720BC
S2140833A8740407207C0407207C040720840407206C
S2140833B8840407208C0407208C040720940407201C
S2140833C8940407209C0407209C040720A4040720CC
S2140833D8A4040720AC040720AC040720B40407207C
S2140833E8B4040720BC040720BC040720C40407202C
S2140833F8C4040720CC040720CC040720D4040720DC
S214083408D4040720DC040720DC040720E40407208B
S214083418E4040720EC040720EC040720F40407203B
S214083428F4040720FC040720FC04072004050720EA
S214083438040507200C0507200C0507201405072097
S214083448140507201C0507201C0507202405072047
S214083458240507202C0507202C05072034050720F7
S214083468340507203C0507203C05072044050720A7
S214083478440507204C0507204C0507205405072057
S214083488540507205C0507205C0507206405072007
S214083498640507206C0507206C05072074050720B7
S2140834A8740507207C0507207C0507208405072067
S2140834B8840507208C0507208C0507209405072017
S2140834C8940507209C0507209C050720A4050720C7
S2140834D8A4050720AC050720AC050720B405072077
S2140834E8B4050720BC050720BC050720C405072027
S2140834F8C4050720CC050720CC050720D4050720D7
S214083508D4050720DC050720DC050720E405072086
S214083518E4050720EC050720EC050720F405072036
S214083528F4050720FC050720FC05072004060720E5
S214083538040607200C0607200C0607201406072092
S214083548140607201C0607201C0607202406072042
S214083558240607202C0607202C06072034060720F2
S214083568340607203C0607203C06072044060720A2
S214083578440607204C0607204C0607205406072052
S214083588540607205C0607205C0607206406072002
S214083598640607206C0607206C06072074060720B2
S2140835A8740607207C0607207C0607208406072062
S2140835B8840607208C0607208C0607209406072012
S2140835C8940607209C0607209C060720A4060720C2
S2140835D8A4060720AC060720AC060720B406072072
S2140835E8B4060720BC060720BC060720C406072022
S2140835F8C4060720CC060720CC060720D4060720D2
S214083608D4060720DC060720DC060720E406072081
S214083618E4060720EC060720EC060720F406072031
S214083628F4060720FC060720FC06072004070720E0
S214083638040707200C0707200C070720140707208D
S214083648140707201C0707201C070720240707203D
S214083658240707202C0707202C07072034070720ED
S214083668340707203C0707203C070720440707209D
S214083678440707204C0707204C070720540707204D
S214083688540707205C0707205C07072064070720FD
S214083698640707206C0707206C07072074070720AD
S2140836A8740707207C0707207C070720840707205D
S2140836B8840707208C0707208C070720940707200D
S2140836C8940707209C0707209C070720A4070720BD
S2140836D8A4070720AC070720AC070720B40707206D
S2140836E8B4070720BC070720BC070720C40707201D
S2140836F8C4070720CC070720CC070720D4070720CD
S214083708D4070720DC070720DC070720E40707207C
S214083718E4070720EC070720EC070720F40707202C
S214083728F4070720FC070720FC07072004080720DB
S214083738040807200C0807200C0807201408072088
S214083748140807201C0807201C0807202408072038
S214083758240807202C0807202C0807200000020049
S208083768FFFFFFFF54
S80408198D4D
