:0200000280007C
:1000000050AB0720F5290800F1290800F129080064
:10001000F1290800F1290800F1290800000000007A
:10002000000000000000000000000000E1070800E0
:10003000F12908000000000071080800AD08080060
:10004000F1290800F1290800F1290800F129080028
:10005000F1290800F1290800F1290800F129080018
:10006000F1290800F129080000000000BD27080060
:10007000D9270800F5270800112808000000000013
:1000800000000000F1290800F1290800F12908000A
:10009000F1290800F1290800F1290800F1290800D8
:1000A000F129080000000000F1290800F1290800EA
:1000B000F1290800F1290800F1290800F1290800B8
:1000C000F1290800F1290800F1290800F1290800A8
:1000D000F1290800F1290800F1290800F129080098
:1000E000F1290800F1290800F1290800F129080088
:1000F000F129080008B50548054B191A062900D84A
:1001000008BD044A002AFBD09047F9E7C85608000A
:10011000CB5608000000000008B50748074B191A25
:100120008A1002EBD273591000D108BD044A002A8C
:10013000FBD09047F9E700BFC8560800C856080032
:100140000000000010B5064C237843B9FFF7D2FF3A
:10015000044810B10448AFF300800121217010BDA4
:10016000D008072000000000C856080008B5084B5A
:100170001BB108480849AFF300800848016811B175
:10018000074A02B19047BDE80840FFF7C5BF00BF6E
:1001900000000000C8560800D4080720C856080010
:1001A000000000002DE9F8430C46904648BB002AA9
:1001B0002BDD8F1848F64836C2F2070648F6403560
:1001C000C2F207056FEA010907EB090000F0010917
:1001D00030682B68984704F10104BC4219D10DE046
:1001E00030682B682146984704F1010421463068A5
:1001F0002A68904704F10104BC42F1D14046BDE8B1
:10020000F8834FF0FF30BDE8F8834FF00000BDE801
:10021000F883B9F1000FE3D030682A68214690478F
:1002200004F10104BC42DBD1E8E700BF2DE9F8434B
:100230000D46904600F1FF30022824D832B348F62C
:100240004836C2F2070648F64437C2F207074FF0B5
:10025000000402F1FF3909F0010930683B68095DCB
:100260009847A0421ADA14E030683B68295D984745
:1002700000280EDB04F1010430683A68295D9047DC
:1002800000281DDA05E04FF0FF3404E04FF00004D1
:1002900001E04FF0FF342046BDE8F88304F101048B
:1002A000A045F8D0B9F1000FDED030683A68295D7A
:1002B00090470028EDDB04F10104A045D4D1EAE722
:1002C00004F10104A045CFD1E5E700BF10B44FF021
:1002D000AC0303600A684C68B2FBF4F34FEA1313F3
:1002E00003F1FF344FF6FE7294420CD80362896822
:1002F000416040F20223C0F820314FF0500202600A
:100300004FF0000001E04FF0010010BC704700BF4B
:10031000436913F0020F03D0C1614FF00000704732
:100320004FF00100704700BF436913F0010F04D084
:10033000806908704FF0000070474FF0010070476F
:10034000436913F0020F07D04FEAC1514FEAD1526F
:10035000C2614FF0000070474FF00100704700BFCE
:10036000436913F0010F08D080694FEAC0524FEA89
:10037000D2530B604FF0000070474FF00100704700
:10038000F0B583B004460D464FF40063C4F20E038B
:1003900098420DD14FF40066C4F20E0640F22937A0
:1003A000C0F2080730462946B8470028FAD12BE0AA
:1003B0004FF40040C4F2090084420FD14FF40046CC
:1003C000C4F2090640F26137C0F20807304601A9BD
:1003D000B8470028FAD1019B2B702BE04FF4404125
:1003E000C4F209018C420FD14FF44044C4F2090415
:1003F00040F26136C0F20806204601A9B047002845
:10040000FAD1019A2A702AE04FF00000C4F20A00E3
:1004100084420FD14FF00004C4F20A0440F2613666
:10042000C0F20806204601A9B0470028FAD1019B76
:100430002B7014E04FF48041C4F20A018C420ED1BB
:100440004FF48044C4F20A0440F26136C0F2080658
:10045000204601A9B0470028FAD1019A2A7003B0BA
:10046000F0BD00BF70B50C464FF40063C4F20E033C
:1004700098420FD14FF40065C4F20E0540F21136D8
:10048000C0F2080628462146B0470028FAD14FF0AE
:10049000010070BD4FF40041C4F2090188420FD140
:1004A0004FF40045C4F2090540F24136C0F2080697
:1004B00028462146B0470028FAD14FF0010070BD10
:1004C0004FF44042C4F2090290420FD14FF440452C
:1004D000C4F2090540F24136C0F20806284621461A
:1004E000B0470028FAD14FF0010070BD4FF0000373
:1004F000C4F20A0398420FD14FF00005C4F20A0576
:1005000040F24136C0F2080628462146B04700288E
:10051000FAD14FF0010070BD4FF48041C4F20A01DE
:1005200088420FD14FF48045C4F20A0540F24136AB
:10053000C0F2080628462146B0470028FAD14FF0FD
:10054000010070BD4FF0000070BD00BF10B584B059
:100550004FF0010300934FF00003019302930393C4
:1005600040F2B560C0F2080045F2E051C0F2080167
:100570004FF4006241F20124C0F20804A0470128B0
:1005800008D045F2F050C0F2080042F63D71C0F2CA
:100590000801884741F2BD40C0F20800804704B01E
:1005A00010BD00BF30B585B042F29123C0F2080300
:1005B000984742F21D30C0F2080080474FF00B0010
:1005C00042F66D14C0F20804A0474FF00C00A0479B
:1005D0004FF00D00A0474FF00E00A0474FF008006D
:1005E000A0474FF40065C4F20E0548F64831C2F248
:1005F00007010D6048F64433C2F2070340F265423A
:10060000C0F208021A6048F64030C2F2070040F219
:100610008131C0F2080101604FF43D43C0F2015343
:1006200000934FF4E13201924FF4006002904FF0DA
:100630000800A0472846694640F2CD24C0F20804CD
:10064000A04740F21005C2F20705296888684FF0FC
:10065000000142F69F74C0F20804A0472B68586856
:100660004FF00001A0474FF46060C4F20E004FF459
:100670008072426642654262C0F88020016F21F4B8
:1006800080730367286880684FF00001A04745F237
:100690001460C0F2080042F63D72C0F208029047B2
:1006A00040F24D51C0F2080188474FF0000005B0FC
:1006B00030BD00BF2DE9F04383B041F25953C0F281
:1006C0000803984702AD25F8020D4FF0000445F2EB
:1006D0001869C0F2080942F63D78C0F208084FF4E4
:1006E000FA7741F60916C0F2080604F101044846FB
:1006F0002146C04728463946B047F6E700F10803CF
:1007000043604FF6FF720281C36003614FF0000146
:10071000016070474FF000030361704743685A68F7
:100720004A6042688A605A68916059604160086115
:10073000016801F101010160704700BF10B40C882D
:100740004FF6FF739C4201D103690CE000F10803EE
:10075000C268128892B2944205D35B685A681288C4
:1007600092B29442F9D25A684A6091608B605960A3
:100770000861016801F10101016010BC704700BF10
:10078000436882689A60816843684B6001694A687F
:10079000824204BF82684A604FF000030361086828
:1007A00000F1FF320A600868704700BF0348006824
:1007B000006880F3088862B600DF00BF08ED00E043
:1007C0004FF0807340F8043C40F8081C4FF00001E3
:1007D00040F80C1C40F8202CA0F14000704700BFEE
:1007E000064B19680868B0E8F00F80F309884FF0ED
:1007F000000080F311884EF00D0E7047188A072014
:100800004EF60453CEF200034FF080521A60704748
:10081000EFF311804FF0A00181F3118870474FF082
:10082000000000BF08B540F61103C0F20803984766
:1008300040F20000C2F20700026802F10102026009
:1008400008BD00BF80F31188704700BF08B540F2B3
:100850000002C2F20702136803F1FF30106030B9E2
:100860004FF0000040F64501C0F20801884708BD7E
:10087000EFF309800C4B1A6820E9F00F10602DE9A6
:1008800008404FF0A00080F3118801F09BF84FF072
:10089000000080F31188BDE8084019680868B0E8D6
:1008A000F00F80F309887047188A072008B54EF6C4
:1008B0000453CEF200034FF080521A6040F611004C
:1008C000C0F20800804741F28151C0F20801884718
:1008D0004FF0000040F64503C0F20803984708BDFA
:1008E0004EF21403CEF2000344F61F02C0F20102DE
:1008F0001A604EF21000CEF200004FF007010160C6
:10090000704700BF10B54EF62053CEF200031A68B0
:1009100042F470001860196841F070441C6040F6A1
:10092000E103C0F2080398474FF0000440F20002D0
:10093000C2F20702146040F2AD70C0F208008047B6
:10094000204610BD30B448F6F402C2F2070200E0BF
:100950001A4613688342FBD3114654681519854221
:1009600003D1686804195460104642688418A34291
:100970000FD148F6F004C2F2070424689C4206D066
:100980005B689A1842600B681A68026002E00360B4
:1009900000E00360814218BF086030BC704700BFB0
:1009A00038B5044641F24553C0F20803984748F66B
:1009B000F000C2F20700016811BB48F6F402C2F26F
:1009C000070240F6F003C2F2070313604FF0000184
:1009D000516003F5FF4202F1700048F6F005C2F2E3
:1009E000070528605167116747F6F0715960186074
:1009F00040F20403C2F207031A68A2F110021A605F
:100A0000002C3CD004F1100212F0070F1CBF22F0A2
:100A10000702083202F1FF3047F6FE75A84231D8CE
:100A200048F6F401C2F207010C6801E021460446D1
:100A300063689A4202D920680028F7D148F6F00589
:100A4000C2F207052B689C421FD00D6805F1100506
:100A50002068086061688B1A202B07D9A0184360B2
:100A6000626040F64512C0F20802904740F204006E
:100A7000C2F20700036861685A1A026007E04FF08B
:100A8000000504E04FF0000501E04FF0000541F2E1
:100A90001D70C0F208008047284638BD10B50446D6
:100AA000C8B141F24553C0F20803984740F2040030
:100AB000C2F20700016854F80C2C8B180360A4F1F3
:100AC000100040F64511C0F20801884741F21D7040
:100AD000C0F20800804710BDF8B5044640F6250373
:100AE000C0F208039847A06C00281ADD616A19B9A2
:100AF00017E0616A51B914E004F1240641F6553556
:100B0000C0F2080541F6E147C0F208073046A847A1
:100B100000B1B847A26C02F1FF33A364A06C0028B7
:100B2000E7DC4FF0FF32A26440F64D03C0F2080349
:100B3000984740F62500C0F208008047616C002904
:100B40001ADD22691AB917E0226952B914E004F1DA
:100B5000100641F65535C0F2080541F6E147C0F2EE
:100B600008073046A84700B1B847636C03F1FF306F
:100B70006064616C0029E7DC4FF0FF33636440F68A
:100B80004D00C0F208008047F8BD00BF38B50346ED
:100B9000056875B1026CC468A418C46040688442DA
:100BA00028BFDD600846D96842F67D73C0F20803AD
:100BB000984738BD10B50446036C63B90168002935
:100BC0002ED1406841F6CD53C0F2080398474FF04C
:100BD0000000606024E082B980681A4642F67D73A6
:100BE000C0F208039847A268216C5018A06063689F
:100BF000984215D32268A26012E0C0681A4642F6F5
:100C00007D73C0F208039847226CC2F10000E168CE
:100C10000B18E3602268934202D261680818E06012
:100C2000A26B02F10102A26310BD00BF38B50D46F0
:100C3000044630B940F61104C0F20804A04700BFD2
:100C4000FDE740F62503C0F2080398472368E06BF0
:100C5000226C00FB023161604FF00001A163A360D0
:100C600000F1FF3002FB0033E3604FF0FF326264BB
:100C7000A26485B92169C1B104F1100041F6553370
:100C8000C0F20803984701280FD140F60100C0F2D6
:100C90000800804709E004F1100040F2FD65C0F251
:100CA0000805A84704F12400A84740F64D02C0F209
:100CB000080290474FF0010038BD00BFF8B50D465F
:100CC00017460646E0B14FF0500040F6A113C0F2BF
:100CD00008039847044698B106FB05F000F10100AF
:100CE00040F6A111C0F208018847206070B9204683
:100CF00040F69D22C0F20802904701E000BFFDE7E8
:100D000040F61100C0F208008047F7E7E66325646B
:100D100020464FF0010140F62D43C0F208039847EA
:100D200084F84D702046F8BD2DE9F04F85B08A4615
:100D30009B46ADF80620044630B940F61104C0F2D7
:100D40000804A04700BFFDE741B9036C4BB140F672
:100D50001100C0F20800804700BFFDE74FF0000718
:100D600001E04FF0000740F62506C0F2080641F604
:100D7000FD31C0F20801009140F64D05C0F20805B2
:100D8000B047A26BE36B9A421FD2204651465A46A7
:100D900040F6B533C0F208039847616A69B104F1BF
:100DA000240041F65532C0F208029047012804D1D0
:100DB00040F60100C0F20800804740F64D03C0F243
:100DC000080398474FF001006AE0BDF8060038B903
:100DD00040F64D03C0F2080398474FF000005FE073
:100DE00027B902A8009FB8474FF00107A84741F272
:100DF0004551C0F208018847B047626CB2F1FF3F2D
:100E000004BF00226264A36CB3F1FF3F04BF002360
:100E1000A364A84702A80DF1060141F62D42C0F2D5
:100E20000802904778BBB047D4F83890D4F83C809B
:100E3000A847C1451BD104F11000BDF8061041F6CA
:100E40008523C0F208039847204640F6D921C0F216
:100E50000801884741F21D70C0F208008047002851
:100E60008ED140F60102C0F20802904788E7204682
:100E700040F6D923C0F20803984741F21D72C0F230
:100E8000080290477CE7204640F6D921C0F20801CD
:100E9000884741F21D70C0F2080080474FF0000003
:100EA00005B0BDE8F08F00BF2DE9F0410E461546B4
:100EB0009846044630B940F61105C0F20805A84727
:100EC00000BFFDE741B9036C33B140F61100C0F239
:100ED0000800804700BFFDE740F61101C0F208019D
:100EE00088470746A26BE36B9A4221D220463146DF
:100EF000424640F6B533C0F208039847A06CB0F103
:100F0000FF3F0ED1626AB2B104F1240041F65534BC
:100F1000C0F20804A04788B19DB14FF001042C60D5
:100F200011E0A16C01F10101A1644FF001040AE09C
:100F30004FF0000407E04FF0010404E04FF001041B
:100F400001E04FF00104384640F64503C0F20803C3
:100F500098472046BDE8F0812DE9F04F85B08946DD
:100F60009A46ADF80620044630B940F61104C0F2A6
:100F70000804A04700BFFDE741B9036C4BB140F640
:100F80001100C0F20800804700BFFDE74FF00007E6
:100F900001E04FF0000740F62506C0F2080641F6D2
:100FA000FD3BC0F2080B40F64D05C0F20805B04706
:100FB000A16B00293FD0E5682046494640F68D33B5
:100FC000C0F208039847BAF1000F1CD1A36B03F1DC
:100FD000FF30A063216829B941F6F142C0F208024E
:100FE000904760602369F3B104F1100041F6553178
:100FF000C0F208018847012815D140F60100C0F26F
:10100000080080470FE0E560606A60B104F12400E9
:1010100041F65531C0F20801884720B140F601027F
:10102000C0F20802904740F64D02C0F20802904715
:101030004FF0010074E0BDF806203AB940F64D02C9
:10104000C0F2080290474FF0000069E01FB902A803
:10105000D8474FF00107A84741F24553C0F20803B3
:101060009847B047606CB0F1FF3F04BF0020606458
:10107000A16CB1F1FF3F04BF0021A164A84702A801
:101080000DF1060141F62D42C0F2080290470028FA
:1010900039D1B047D4F83880A847B8F1000F26D12D
:1010A00023683BB9B047606841F62551C0F208019A
:1010B0008847A84704F12400BDF8061041F68522B0
:1010C000C0F208029047204640F6D923C0F2080338
:1010D000984741F21D70C0F20800804700287FF455
:1010E00066AF40F60101C0F2080188475FE720467D
:1010F00040F6D921C0F20801884741F21D72C0F2C2
:101100000802904753E7204640F6D923C0F208036F
:10111000984741F21D70C0F2080080474FF0000070
:1011200005B0BDE8F08F00BF38B504460D4640F667
:101130002503C0F208039847606CB0F1FF3F04BF7D
:1011400000206064A16CB1F1FF3F04BF0021A164E5
:1011500040F64D02C0F208029047A36B3BB904F180
:101160002400294641F6FD22C0F20802904720469D
:1011700040F6D921C0F20801884738BD10B50446B1
:1011800048F61823C2F207031868848048F6342111
:10119000C2F207010A8893B29C4211D248F6382362
:1011A000C2F20703186848F61821C2F2070109685D
:1011B00001F1040140F23D72C0F20802904710BDF7
:1011C00048F61410C2F20700006848F61821C2F26F
:1011D0000701096801F1040140F23D72C0F2080202
:1011E000904740F20803C2F20703188881B28C428C
:1011F00004D240F20802C2F20702148010BD00BF00
:101200002DE9F84F0F4690469A460A9D0C9E81465E
:1012100030B940F61107C0F20807B84700BFFDE734
:10122000092D06D940F61105C0F20805A84700BFF0
:10123000FDE74FF0500040F6A113C0F208039847B5
:101240000446002800F03681002E40F031814FEA3C
:10125000880040F6A111C0F20801884706462063C5
:1012600030B9204640F69D22C0F20802904721E1A5
:1012700030464FF0A5014FEA880242F68F76C0F261
:101280000806B04708F1FF38206B00EB880222F017
:10129000070B04F1340039464FF0100243F2AD075A
:1012A000C0F20807B8474FF0000384F84330092D17
:1012B00034BF2E460926E662E66404F10407384688
:1012C00040F21578C0F20808C04704F11800C04782
:1012D0002461C6F10A06268364625846494652468E
:1012E00040F2C173C0F208039847206010F0070F66
:1012F00006D040F61104C0F20804A04700BFFDE785
:101300000B9901B10C6040F62500C0F2080080473F
:1013100048F65823C2F207031A6802F101021A6064
:1013200048F61821C2F207010868002858D148F68B
:101330001821C2F207010C6048F65820C2F20700DB
:101340000368012B5FD148F64C19C2F207094846E1
:1013500040F2FD66C0F20806B04709F11400B0473C
:1013600009F12800B04709F13C00B04709F15000ED
:10137000B04709F16400B04709F17800B04709F1BE
:101380008C00B04709F1A000B04709F1B400B047A4
:1013900048F64029C2F207094846B04748F63418D3
:1013A000C2F207084046B04748F61C20C2F20700C8
:1013B000B04748F62010C2F20700B04748F60010C8
:1013C000C2F20700B04748F61412C2F20702C2F890
:1013D000009048F63821C2F20701C1F8008012E0FF
:1013E00048F61813C2F207031A6862B948F61821C2
:1013F000C2F207010868C36A9D4204D348F6182266
:10140000C2F207021460E06A48F65C23C2F20703E6
:101410001A68904204D948F65C21C2F207010860BC
:1014200048F63C23C2F207031A68626402F1010223
:101430001A6048F64811C2F207010B68984204D9B5
:1014400048F64812C2F20702106000EB800148F62D
:101450004C100346C2F2070303EB8100394640F209
:101460001D72C0F20802904740F64D01C0F208011B
:10147000884748F61810C2F20700036883B148F69F
:101480001822C2F207021168C86A85420CD940F6D8
:101490000103C0F2080398474FF00100BDE8F88F40
:1014A0004FF00100BDE8F88F4FF00100BDE8F88F64
:1014B0000663DDE64FF0FF30BDE8F88F10B584B06D
:1014C0004FF00003009301930293039341F66900E8
:1014D000C0F2080045F23861C0F208014FF4807292
:1014E00041F20124C0F20804A04701281FD141F6AF
:1014F0000D73C0F208039847012818D140F6110176
:10150000C0F20801884748F61813C2F207034FF0EB
:1015100001021A6048F63420C2F207004FF00001C1
:10152000018040F60513C0F20803984707E030B980
:1015300040F61100C0F20800804700BFFDE704B08C
:1015400010BD00BF48F61423C2F207031A6802F167
:1015500001021A60704700BF10B540F62503C0F2C3
:101560000803984748F63420C2F207000488A4B262
:1015700040F64D01C0F208018847204610BD00BF6B
:101580002DE9F84F48F61423C2F207031868002823
:1015900040F0B98048F63423C2F20703188800F1FE
:1015A000010081B219801A8893B2002B39D148F614
:1015B0001410C2F2070001680A6832B140F6110542
:1015C000C0F20805A84700BFFDE748F61413C2F2B1
:1015D0000703196848F63822C2F20702106818603B
:1015E000116048F63022C2F20702116801F10101D0
:1015F00011601B68186838B940F20803C2F207038B
:101600004FF6FF7018800CE048F61412C2F2070281
:101610001168CB68D868828840F20801C2F20701DD
:101620000A8048F63422C2F20702118888B240F2DA
:101630000803C2F207031A8891B288426BD348F6B6
:101640001410C2F2070003681A6882B148F6141435
:10165000C2F207042168C868C468A38848F6342227
:10166000C2F20702118888B283421BD913E040F20C
:101670000803C2F207034FF6FF711980BDE8F88F27
:101680003468E268D468A3884846C2F2070001883B
:101690008AB293421CD940F20800C2F207000380CC
:1016A000BDE8F88F40F28177C0F2080748F6481885
:1016B000C2F2070848F64C1BC2F2070B40F21D7A33
:1016C000C0F2080A48F61416C2F2070648F6342992
:1016D00004F104052846B847A36A13B104F11800C1
:1016E000B847E16AD8F80020914288BFC8F80010D6
:1016F00001EB81000BEB80002946D0473368196865
:101700000029BDD1B3E748F6FC01C2F207010A681F
:1017100002F101020A60BDE8F88F00BF2DE9F04731
:1017200048F61423C2F20703186830B940F61105D1
:10173000C0F20805A84700BFFDE740F62501C0F24A
:101740000801884748F61424C2F20704226802F10F
:10175000FF3323602068002878D148F65821C2F270
:1017600007010C684CBB4FF0000474E0D8F80C2063
:10177000D46804F11800B84704F104094846B84792
:10178000E36A3068834288BF33605146C2F2070182
:1017900003EB830201EB8200494640F21D73C0F265
:1017A0000803984748F61820C2F207000168E46A67
:1017B000CA6A944228BF01250FE04FF0000548F6A1
:1017C0001C28C2F2070840F28177C0F2080748F6E9
:1017D0004816C2F2070648F64C1AD8F80020002A2C
:1017E000C4D148F6FC03C2F207031868B0B148F64A
:1017F000FC02C2F207021368CBB141F28155C0F27C
:10180000080548F6FC04C2F20704A847206800F166
:10181000FF3121602268002AF7D108E0012D06D0AF
:1018200048F65421C2F207010C68012C11D148F688
:101830005423C2F207034FF000041C6040F601007D
:10184000C0F2080080474FF0010404E04FF00004AC
:1018500001E04FF0000440F64D01C0F20801884756
:101860002046BDE8F08700BF2DE9F84348F61C1577
:10187000C2F2070541F24558C0F2080848F62016A2
:10188000C2F2070641F21D772DE0C04734683B469F
:10189000C0F20803984734B340F62500C0F20800B0
:1018A0008047F168CC6804F1040040F28172C0F214
:1018B0000802904748F65823C2F20703186800F15F
:1018C000FF3119602A6802F1FF332B6040F64D00AA
:1018D000C0F208008047206B40F69D29C0F208093D
:1018E000C8472046C8472B68002BCED148F64C107D
:1018F000C2F2070001680129F5D940F60102C0F2E1
:1019000008029047EFE700BF38B50C46054630B9EE
:1019100040F61104C0F20804A04700BFFDE731B94A
:1019200040F61105C0F20805A84700BFFDE741F2E7
:101930004553C0F208039847288801198CB248F62D
:101940003422C2F20702138899B288420BD9A0420E
:1019500034D948F63421C2F20701088882B22C80BB
:1019600094421DD90AE0A04226D848F63420C2F29B
:101970000700028893B29C421ED81FE048F6182345
:10198000C2F20703186800F1040040F28171C0F24E
:1019900008018847204641F27D12C0F208029047B4
:1019A00041F21D70C0F20800804748B940F60103BB
:1019B000C0F20803984738BD2C80DFE72C80EFE7A2
:1019C00038BD00BF08B548F61423C2F207031868F3
:1019D000A8B948F64811C2F207010A6802EB82036F
:1019E0004FEA830048F64C11C2F207010A5852BB75
:1019F00048F64813C2F20703186888B909E048F6A8
:101A00005421C2F207014FF00100086008BD1A68B6
:101A100072B940F61103C0F20803984700BFFDE712
:101A200048F64813C2F2070348F64C11C2F2070108
:101A30001A6802F1FF3018601A6802EB820051F850
:101A40002020002AE3D048F64813C2F207031968A1
:101A500001EB810048F64C12C2F2070202EB800350
:101A600059684868586003F10802904204BF406812
:101A700058605B68D96848F61820C2F20700016018
:101A800008BD00BF38B50C4630B940F61104C0F2AD
:101A90000804A04700BFFDE748F61825C2F2070575
:101AA000296801F1180140F23D72C0F20802904726
:101AB000286800F1040040F28171C0F208018847F3
:101AC0004FF6FF7084420CD1296848F60010C2F22C
:101AD000070001F1040140F21D72C0F208029047B4
:101AE00038BD48F63423C2F207031A88A11888B219
:101AF00041F27D13C0F20803984738BD38B50D4652
:101B000030B940F61104C0F20804A04700BFFDE759
:101B100048F61824C2F20704216801F1180140F2C6
:101B20001D72C0F208029047206800F1040040F2E4
:101B30008171C0F20801884748F63420C2F20700DC
:101B40000388EA1890B241F27D11C0F2080188477B
:101B500038BD00BF38B5C368DC6834B940F611043D
:101B6000C0F20804A04700BFFDE704F118052846AD
:101B700040F28171C0F20801884748F61420C2F291
:101B80000700026822BB04F10405284640F2817177
:101B9000C0F208018847E06A48F64812C2F207021C
:101BA0001368984204D948F64811C2F20701086048
:101BB00000EB800348F64C100246C2F2070202EB2B
:101BC0008300294640F21D73C0F20803984709E0DC
:101BD00048F61C20C2F20700294640F21D73C0F2ED
:101BE0000803984748F61821C2F207010A68E06A1C
:101BF000D36A984234BF0020012038BD08B503469F
:101C000030B940F61103C0F20803984700BFFDE762
:101C100048F63022C2F207021068186048F63421F4
:101C2000C2F207010A889A8008BD00BF38B50D4688
:101C3000044630B940F61103C0F20803984700BFCC
:101C4000FDE731B940F61105C0F20805A84700BF0D
:101C5000FDE740F62503C0F20803984728884FF6B1
:101C6000FF7290422CD048F63021C2F207010B6877
:101C700022689A4208D048F63421C2F207010B8844
:101C80009AB2A18891421ED948F63423C2F20703C2
:101C90001988A2888B1A99B2884217D948F634233A
:101CA000C2F2070319888BB2D21A80182880204606
:101CB00041F6FD34C0F20804A0474FF0000407E0ED
:101CC0004FF0000404E04FF0010401E04FF0010484
:101CD00040F64D01C0F208018847204638BD00BFDC
:101CE00048F65423C2F207034FF001021A6070470E
:101CF00048F61823C2F207031868704748F618130D
:101D0000C2F20703186848B148F61421C2F207016D
:101D10000A68002A14BF0220012070474FF000001B
:101D2000704700BF38B5044600284ED0C36A48F655
:101D30001822C2F207021068C16A8B4245D248F6E7
:101D40001822C2F207021068C16AC1F10A02228396
:101D500003EB830348F64C10C2F2070000EB83014B
:101D600062698A422AD104F10405284640F2817250
:101D7000C0F20802904748F61823C2F20703186819
:101D8000C16AE16248F64812C2F20702136899423A
:101D900004D948F64810C2F20700016001EB810146
:101DA00048F64C121346C2F2070303EB81002946A2
:101DB00040F21D72C0F20802904738BD48F6182361
:101DC000C2F207031868C16AE16238BD38B504463B
:101DD00050B3C26AC36C9A4226D000F1040528466B
:101DE00040F28171C0F208018847E06CE062C0F106
:101DF0000A02228348F64813C2F207031968884290
:101E000004D948F64812C2F20702106000EB8003C2
:101E100048F64C10C2F2070000EB8300294640F25E
:101E20001D72C0F20802904738BD00BF70B540F681
:101E30002503C0F20803984748F69020C2F2070035
:101E4000016849BB48F66425C2F20705284640F2FE
:101E5000FD66C0F20806B04748F67824C2F20704CF
:101E60002046B04748F66022C2F20702156048F6E5
:101E70009423C2F207031C604FF005004FF00C01E1
:101E80004FF0000240F6BD43C0F20803984748F601
:101E90009021C2F20701086040F64D00C0F2080030
:101EA000804770BD10B5044681802061914213D8EF
:101EB000D01A218B83B2994221D948F69422C2F2DA
:101EC0000702106804F1040140F23D73C0F20803F8
:101ED00098474FF0000010BD9A4201D2994211D2AA
:101EE00048F66023C2F20703186804F1040140F2C7
:101EF0003D72C0F2080290474FF0000010BD4FF055
:101F0000010010BD4FF0010010BD00BF10B584B03E
:101F100041F62D63C0F20803984748F69020C2F2BC
:101F200007000168B9B14FF0090200924FF00003B9
:101F300001930293039342F2B500C0F2080045F208
:101F40004461C0F208014FF4007241F20124C0F272
:101F50000804A04730B940F61104C0F20804A047B5
:101F600000BFFDE704B010BD10B584B048F6902462
:101F7000C2F2070424683CB30191ADF80820039035
:101F8000BBB941F6FD43C0F208039847012848F663
:101F90009023C2F20703186801A907BFBDF81820F3
:101FA00000230022134640F62954C0F20804A0473B
:101FB0000CE0204601A91A464FF0000340F6A96440
:101FC000C0F20804A04701E04FF0000004B010BDCB
:101FD0002DE9F04F85B0824641F25953C0F2080313
:101FE0009847814648F68C20C2F20700018849458F
:101FF00051D92DE0DC682688B6B2DD68EC6804F1C2
:1020000004052846C047616A20468847E0690128E0
:102010002DD1238BF21891B2B14209D9A18024614C
:102020003868294640F23D73C0F2080398471EE025
:10203000CDF800B02046594632465B46039CA04787
:10204000A8B940F61107C0F20807B84700BFFDE77E
:1020500048F66027C2F2070740F28178C0F208080C
:102060004FF0000B41F66973C0F2080303933B681D
:1020700018680028BED148F69422C2F207021168FF
:1020800048F66020C2F20700016013604FF00103C0
:10209000CAF8003003E04FF00002CAF8002048F60A
:1020A0008C22C2F20702A2F80090484605B0BDE8B3
:1020B000F08F00BF2DE9F04F89B048F6602BC2F2D7
:1020C000070B41F24553C0F20803039341F6D17A5E
:1020D000C0F2080ADBF800000268002A00F0CD8098
:1020E000C7683B889DB20398804704A8D04706463E
:1020F000049A002A52D1854238D841F21D70C0F2AC
:1021000008008047DBF80020D168CC6804F10400A7
:1021100040F28177C0F20807B847E369012B1FD16D
:10212000208B2A18204691B232462B4641F6A566EE
:10213000C0F20806B047012812D14FF00003009307
:10214000204619462A4641F66975C0F20805A84797
:1021500030B940F61107C0F20807B84700BFFDE7E5
:10216000616A204688471EE04FF00005AE1B48F626
:102170009024C2F207042068B1B241F22915C0F2DE
:102180000805A84741F21D77C0F20807B84750B9C3
:1021900040F60103C0F20803984704E041F21D71C4
:1021A000C0F20801884704A8D047074648F69026A1
:1021B000C2F2070640F65975C0F2080540F2817870
:1021C000C0F2080841F6A569C0F208094CE0079C76
:1021D00024B1636913B104F10400C04705980228D3
:1021E0002AD003283AD000283ED1BDF81830228BDF
:1021F0009918204689B23A46C847012834D1636A03
:1022000020469847E06901282ED1228BBDF818108E
:1022100052184FF0000300932046194692B241F63F
:102220006974C0F20804A047F0B940F61105C0F285
:102230000805A84700BFFDE7BDF81800208330B9A6
:1022400040F61106C0F20806B04700BFFDE7391896
:10225000204689B23A463B46C84705E0204640F64C
:102260009D23C0F208039847306805A94FF000028B
:102270001346A8470028AAD12CE70399884704A849
:10228000D0470646049C002C3FF46EAF86E700BFA3
:1022900010B54FF43D40C0F2015042F6F543C0F294
:1022A000080398474FF000004FF03E0142F6CD0280
:1022B000C0F20802904742F63D14C0F20804A0475D
:1022C0000028FCD042F64D10C0F2080080474FF4C1
:1022D000C061C4F20E0143F60173C2F20D038B62BA
:1022E00042F65D14C0F20804A0470028FCD04FF06D
:1022F000100042F62D02C0F20802904742F62D303F
:10230000C0F2080080474FF43D40C0F2015042F651
:10231000F541C0F20801884710BD00BF10B541F675
:102320005023C4F20E034FF400425A604FF00B00EA
:1023300042F66D14C0F20804A0474FF00C00A0470D
:102340004FF00D00A0474FF00E00A0474FF03B00AC
:102350004FF0605142F28154C0F20804A0474FF0A0
:1023600055004FF06051A0474FF056004FF06051BC
:10237000A0474FF068004FF07901C2F60001A04776
:102380004FF05C004FF00101C2F60001A0474FF48E
:102390006060C4F20E004FF440714FF0006242F2F0
:1023A000A543C0F2080398474FF02B004FF000619F
:1023B000A0474FF02A004FF00061A04710BD00BFBA
:1023C0000AB1416670470166704700BF4264B1F1CF
:1023D000805F16D004D8C9B1B1F1006F15D109E002
:1023E000B1F1405F12D0B1F1605F0FD0B1F1205F69
:1023F0000BD17047036F016F0B4023EA02030367A1
:1024000003E0036F42EA030101674260704700BFC7
:1024100041647047F8B504460D4616461F4642F221
:102420001143C0F20803984720462946069A42F213
:10243000C133C0F2080398470FB1256500E0656518
:102440000EB1256300E0656325612560F8BD00BF1E
:1024500070B504460D46164642F21143C0F2080319
:1024600098472046294606F0010242F2C133C0F2E5
:102470000803984716F00A0F14BF2562656216F02C
:10248000020F02D0C4F8805004E016F0080F18BF05
:10249000C4F884506561256070BD00BFC06C704792
:1024A000806C7047F0B583B007460E46154602F0C3
:1024B000F044B4F1205F36D006D8B4F1006F0AD0F2
:1024C000B4F1805F4DD11AE0B4F1405F33D0B4F184
:1024D000605F46D12FE04FF00061324642F2CD33CB
:1024E000C0F2080398473846314605F0010242F22F
:1024F000C133C0F2080398474FF0010033E04FF0BA
:102500008051324642F2CD33C0F208039847384634
:10251000314605F0010242F2C133C0F20803984788
:102520004FF001001FE042F25143C0F20803984708
:102530004FF0010017E005F0605205F00100009037
:1025400038463146B2F1605F14BF00220122C5F364
:10255000800342F21544C0F20804A0474FF0010086
:1025600001E04FF0000003B0F0BD00BF4FEA501093
:1025700000F5001101F207724FEA4220704700BFD8
:10258000F0B583B007460D4642F26D53C0F2080322
:102590009847064605F0F044B4F1205F41D006D8D4
:1025A000B4F1006F0AD0B4F1805F62D120E0B4F1E1
:1025B000405F44D0B4F1605F5BD140E007F01F00A2
:1025C0004FF0010404FA00F730464FF000613A463C
:1025D00042F2CD33C0F2080398473046394605EA47
:1025E000040242F2C133C0F208039847204642E099
:1025F00007F01F074FF0010404FA07F74FF080516E
:102600003A4642F2CD33C0F2080398473046394685
:1026100005EA040242F2C133C0F20803984720469B
:1026200029E007F01F024FF0010404FA02F12A46E4
:1026300042F25143C0F20803984720461BE007F0DE
:102640001F014FF0010405F0605205EA04000090FC
:10265000304604FA01F1B2F1605F14BF002201229A
:10266000C5F3800342F21545C0F20805A84720468D
:1026700001E04FF0000003B0F0BD00BF70B50646AA
:102680000C4642F29D43C0F2080398470546304687
:1026900042F2A141C0F208018847054000F08C8059
:1026A00048F69820C2F207000068A0420CD148F614
:1026B0009822C2F2070251680D4205D01646D3682F
:1026C000984771688D4377D048F69820C2F207008A
:1026D0000069A0420CD148F69822C2F20702516963
:1026E0000D4205D01646D369984771698D4363D072
:1026F00048F69820C2F20700006AA0420CD148F6C2
:102700009822C2F20702516A0D4205D01646D36ADA
:102710009847716A8D434FD048F69820C2F207005F
:10272000006BA0420CD148F69822C2F20702516B0E
:102730000D4205D01646D36B9847716B8D433BD045
:1027400048F69820C2F20700006CA0420CD148F66F
:102750009822C2F20702516C0D4205D01646D36C86
:102760009847716C8D4327D048F69820C2F2070035
:10277000006DA0420CD148F69822C2F20702516DBA
:102780000D4205D01646D36D9847716D8D4313D019
:1027900048F69820C2F20700006EA0420CD148F61D
:1027A0009822C2F20702516E294205D048F69823BA
:1027B000C2F20703DA6E904770BD00BF08B54FF450
:1027C0006060C4F20E004FF00B0142F27D63C0F274
:1027D0000803984708BD00BF08B54FF48050C4F205
:1027E0000E004FF00C0142F27D63C0F208039847DF
:1027F00008BD00BF08B54FF49050C4F20E004FF072
:102800000D0142F27D63C0F20803984708BD00BF86
:1028100008B54FF4A050C4F20E004FF00E0142F282
:102820007D63C0F20803984708BD00BF4FF4C06342
:10283000C4F20E031A6B22F0700108431863986EFD
:1028400010F0080F07D010E000F1FF33906E10F089
:10285000080F38D009E04FF400604FF4C062C4F2B2
:102860000E02916E11F0080FEED04FF4C061C4F269
:102870000E010A6B22F0030343F002000863896E25
:1028800011F0080F09D04FF00000704703F1FF333B
:10289000916E11F0080F13D009E04FF400634FF46C
:1028A000C062C4F20E02906E10F0080FEED04FF02E
:1028B000000070474FF0010070474FF00100704773
:1028C000013BF0D1F9E7581ECBD1F3E788B14FF4C3
:1028D000C061C4F20E01086A4FF6FC72CFF6C862FE
:1028E00002404FF00203C0F2371342EA03000862CD
:1028F00070474FF4C063C4F20E031A6A22F45C10EE
:1029000020F0030242F45C1040F001024FEA016142
:1029100042EA114018624FF4C062C4F20E02936E94
:1029200013F0010FFBD04FF4C061C4F20E01086A2E
:1029300040F09B7242F480330B6270474FF4C063E7
:10294000C4F20E03986E00F4803070474FF4C063F9
:10295000C4F20E034FF000529A6270474FF4C06306
:10296000C4F20E03986E00F0020070472C2835D890
:102970001F2817D84FF4C061C4F20E018A694FF0C6
:10298000010303FA00F31A4093422AD04FF00101E9
:1029900001FA00F04FF4C062C4F20E0210614FF071
:1029A000000070474FF4C063C4F20E03D3F808214F
:1029B000A0F120004FF0010101FA00F10A4091421C
:1029C00012D04FF0010303FA00F04FF4C062C4F2DA
:1029D0000E02C2F800014FF0000070474FF00100F6
:1029E00070474FF0000070474FF00000704700BF85
:1029F000FEE700BF38B540F20003C2F2070345F21C
:102A0000C862C0F208029A4203D04048404981425D
:102A100004D3404B404A9A4225D342E03F4D404CBC
:102A2000631B23F003054FF0000340F20002C2F2E3
:102A3000070245F2C861C0F2080105F10400C5F3C0
:102A400080045D589D5003F10403834255D1E0E7B3
:102A50005D589D5003F104035C589C5003F104033E
:102A60008342F5D1D5E72F4D2F49481B20F00304B1
:102A700040F6D003C2F20703E2184FF00001501BEA
:102A8000A0F10400C0F3800445F8041F95422DD145
:102A900007E005F10403696005F1080559609542F6
:102AA000F7D140F20005C0F2080525F0604222F09F
:102AB0007F014FF46D40CEF20000816005F160446B
:102AC000B4F5801F07D24FF46D43CEF200039D682A
:102AD00045F000529A6042F6F161C0F20801884761
:102AE00040F2A550C0F208008047FEE7002CD0D08D
:102AF00045F8041F9542CCD1D3E7002CA8D05C58F0
:102B00009C5003F104038342A2D182E7D00807203E
:102B100000000720508B0720D00807200400072062
:102B2000D3080720CC0807204B8B07204FF4C06345
:102B3000C4F20E03186B00F00301032900F2B18008
:102B4000DFE801F002144F4F41F61020C4F20E00EE
:102B5000416911F0800F40F20C03C2F2070314BF69
:102B60004FF400424FF4FA421A609AE04FF4C06307
:102B7000C4F20E03186A10F0807F09D04FF4D853C6
:102B8000C0F2B70340F20C02C2F20702136088E001
:102B90004FF41061C0F23D0140F20C02C2F2070294
:102BA00011604FF4C063C4F20E03186A00F07001A4
:102BB000102902D0202974D109E04FF49050C0F2BE
:102BC0007A0040F20C01C2F20701086069E04FF49C
:102BD000D853C0F2B70340F20C02C2F207021360EE
:102BE0005FE04FF4C062C4F20E02136A13F0807FFC
:102BF00009D04FF4D851C0F2B70140F20C02C2F232
:102C00000702116027E04FF41060C0F23D0040F26F
:102C10000C01C2F2070108604FF4C062C4F20E0258
:102C2000136A03F07000102802D0202813D109E0A5
:102C30004FF49053C0F27A0340F20C00C2F2070046
:102C4000036008E04FF4D851C0F2B70140F20C0223
:102C5000C2F2070211604FF4C063C4F20E03186B96
:102C600000F00301022913D14FF4C061C4F20E0138
:102C7000886A896A40F20C03C2F20703C0F30A4073
:102C80001A6800FB0220C9B2B0FBF1F21A6008E03A
:102C90004FF4E053C0F64E6340F20C02C2F207025A
:102CA00013604FF4C062C4F20E02106B00F07001AA
:102CB00070290ED140F20C03C2F2070318684AF6DD
:102CC000AB22CAF6AA22A2FB00014FEA510018600B
:102CD00070474FF4C063C4F20E031A6B40F20C004D
:102CE000C2F20700C2F30211036823FA01F3036082
:102CF000704700BF4EF6BF23C0F2211398420CD894
:102D00004FF42063C4F20E034FF0000018604FF43C
:102D10004061C4F20E01086070474FF27F01C0F2BB
:102D2000FA2188420CD84FF42060C4F20E004FF410
:102D3000807101604FF44062C4F20E02116070476E
:102D400048F6FF73C0F2D03398420CD84FF420619C
:102D5000C4F20E014FF400720A604FF44063C4F2F3
:102D60000E031A6070474BF2FF31C0F2C441884233
:102D70000CD84FF42063C4F20E034FF440721A6073
:102D80004FF44060C4F20E000260704744F67F23A7
:102D9000C0F25D5398424FF42060C4F20E0094BF1D
:102DA0004FF480624FF4A06202604FF44061C4F2BD
:102DB0000E010A60704700BF48F60833C2F20703ED
:102DC000196841B948F60833C2F207034AF650328F
:102DD000C2F207021A6048F60831C2F207010B6816
:102DE000181847F6FC72C2F20802824206DB01465E
:102DF00048F60830C2F20700016001E04FF0FF33EF
:102E0000184670474FF0FF30704700BF4FF4005333
:102E10004B604FF0000070474FF00100704700BF5B
:102E20004FF00000704700BF2DE9F8439846234B50
:102E300006461C680F46D4F84801914618B904F5B7
:102E4000A670C4F8480141681F2916DD1C4818B94E
:102E50004FF0FF30BDE8F8834FF4C87001F0C0FBBD
:102E60000028F5D0D4F84821002545600260C4F858
:102E70004801C0F88851C0F88C51B6B144680122AD
:102E800002FA04F2D0F8881100EB84031143022EF9
:102E9000C3F88890C0F888111C46C3F8088104D193
:102EA000D0F88C311A43C0F88C2141688B1C4A1C25
:102EB00040F8237042600020BDE8F8834C560800BB
:102EC000E145080070B5084B084C0025E01A841055
:102ED00003EB8406043D1CB172599047013CF9E7AD
:102EE000BDE8704002F0E4BBBC560800C0560800C4
:102EF00038B50E4D0E4B0024E81A8510AC4205D0B3
:102F00000B4951F8242090470134F7E702F0C6FB43
:102F10000849094A541AA5100024AC4205D0054BB3
:102F200053F8240080470134F7E738BDA85608005D
:102F3000A8560800A8560800B05608000FB407B5F8
:102F4000064904AB086853F8042B8168019300F02C
:102F5000F7F8BDE80E4004B0704700BF100007202E
:102F60000EB403B503AB53F8042B8168019300F052
:102F7000E7F8BDE80C4003B0704700BF10B5002370
:102F8000934203D0CC5CC4540133F9E710BD8218DE
:102F90000346934202D003F8011BFAE77047002969
:102FA0000CBF022200224FF4806300F001B8000041
:102FB0002DE9F0411D46374B044618680E4617466A
:102FC000984618B1826B0AB900F0C8FE022F5DD88E
:102FD000002D5BDB2146D8F8000000F0CDFDA18973
:102FE000002001F080031AB26060A06122B129487C
:102FF0002169006800F0F0FFA189022F21F083030E
:10300000A38112D036BB002D08BF4FF4806528463F
:1030100001F0E6FA0646C8B94FF4806001F0E0FA24
:10302000064688B94FF0FF3000E00020A189002259
:1030300041F00203A38104F143010123A260216056
:1030400021616361BDE8F0814FF48065A28942F09F
:103050008000A081012F05D1A1896A4241F00103BE
:10306000A381A2610B48A28901680B4B02F0080002
:1030700000B2CB6326602661656148B112F0030F90
:1030800018BF0025A5600020BDE8F0814FF0FF309B
:10309000BDE8F08110000720D13C0800034613F87A
:1030A000012B002AFBD1181A0138704730B50139BD
:1030B00003461C463AB111F8015F013A03F8015B7F
:1030C0001C46002DF5D199188C4203D0002204F83B
:1030D000012BF9E730BD000093682DE9F0478146E8
:1030E0000F4614461BB953601846BDE8F0874B6E77
:1030F0009B041ED51568A0680835C8B155F8041C96
:1031000055F808AC4FEA91080026464509DA4846CA
:103110005AF826103A4600F09DFE431C0BD00136AB
:10312000F3E7A2684FEA8808C8EB0203A360E2E76E
:1031300001E001F007F80021A1606160BDE8F087BF
:103140002DE9F04F8946A9B014461D461E46824619
:1031500018B1836B0BB900F001FEB9F80C0000F454
:10316000005211B249B940F40053D9F86400A9F8EB
:103170000C3020F40052C9F86420B9F80C1001F0AA
:10318000080318B248B1D9F8102032B1B9F80C10C0
:1031900001F01A030A2B16D109E05046494600F007
:1031A0007FFC0028F2D04FF0FF320392D3E3B9F94D
:1031B0000E00002807DB5046494622462B4600F009
:1031C000CEFB0390C7E3002218AD0B950D920C9235
:1031D000019405920392A84601990C4611F8013B0F
:1031E0000BB1252BF9D1019AA51A19D00C990D987C
:1031F0004B1C88E82400072B00EB05020D9208F118
:1032000008080C9309DD504649460BAAFFF764FFF6
:10321000002840F098830DF160080398421903924A
:103220002178002900F088830022013401948DF870
:1032300027204FF0FF3C04921746019810F8013BFD
:103240000190632B00F0B38033DC392B1ADC312B77
:1032500080F291802B2B01D11A46EEE70ADC232B5A
:1032600055D02A2B56D0202B40F0F581002A08BFDC
:103270002022E2E72E2B58D0302B79D02D2B40F096
:10328000EA814FE04F2B00F0DE8007DC442B40F05A
:10329000E2818DF8272047F0100790E0552B00F0D1
:1032A0001F81582B40F0D781AE4D8DF82720059512
:1032B00030E16F2B00F0C98010DC692B24D007DCD3
:1032C000642B21D0682B40F0C68147F04007B4E75B
:1032D0006C2B5FD06E2B40F0BE8196E0732B00F01C
:1032E000DF8006DC702B00F0CD80712B40F0B381C5
:1032F0005AE0752B00F0F680782B40F0AC819A4DA7
:103300008DF82720059505E18DF8272057E047F037
:10331000010792E7331D3668002E049615DA7042D5
:1033200004901E4647F0040787E7019911F8013B16
:103330002A2B01910BD1D6F800C0331DBCF1000F30
:1033400003DA1E464FF0FF3C77E71E4675E74FF065
:10335000000CA3F13000092807D801990A2303FBC8
:103360000C0C11F8013B0191F3E74CEAEC7C68E7A7
:1033700047F0800761E701980021303B0A2404FBF5
:10338000013110F8013BA3F13004092C0190F4D96C
:10339000049156E701990B786C2B02D1481C0190DF
:1033A00002E047F0100748E747F0200745E732689A
:1033B00000258DF838208DF82750043655E1BA06DF
:1033C00007D5073626F0070505F10806D5E90045BB
:1033D0000FE017F0100F06F1040101D0326805E08C
:1033E00017F0400F326801D014B200E01446E51720
:1033F0000E46002C75F1000280F2B8802D23644245
:1034000065EB45058DF82730B0E017F0200F8DF8FB
:10341000272006F1040205D0039C3568E0172C60D4
:10342000686004E0FB0604D533680399196016460A
:10343000D2E63068039C17F0400F06F1040614BF73
:1034400004800460C8E647F0100717F0200008D099
:10345000F31D23F0070505F10806D5E90045002016
:103460007CE017F0100106F1040206D117F04000CD
:1034700003D0348800251646F1E736680025344627
:1034800016466BE0384B302178223468002547F02F
:1034900002078DF828108DF82920043605935CE08A
:1034A00031460025D1F800B00436AC458DF82750E0
:1034B000584611DB62462946CDF800C001F0A2FA59
:1034C000DDF800C0002800F0D480CBEB0004644598
:1034D00040F3D1806446CEE0FFF7E0FD0446CAE049
:1034E00047F01007BD0606D5F01D20F0070404F1D3
:1034F000080630CC0CE017F0100F06F1040303D1DE
:103500007C0601D5348801E035682C4600251E462E
:10351000012023E0B80607D5F41D24F0070101F1CE
:103520000806D1E900450CE017F0100F06F1040081
:1035300003D1790601D5348801E036683446002588
:103540000646FA0709D554EA050206D030228DF85E
:1035500028208DF8293047F00207022000218DF83D
:10356000271004E072560800835608000120BCF1C1
:10357000000FA8BF27F0800754EA050102D1BCF173
:10358000000F58D001281DD002280DF15F0341D053
:1035900004F00702E40844EA4570E90804460D46D1
:1035A000303254EA05019B461A7003F1FF33EFD124
:1035B000F8075D464AD5302A48D030229B4605F8A8
:1035C000012C43E0002D08BF0A2C03D230348DF8C3
:1035D0005F4036E00DF15F030293204629460A2240
:1035E0000023CDF800C001F00FFD0298303200F842
:1035F000012929460A220023DDF808B0029020465E
:1036000001F002FD04460D4654EA0501DDF800C054
:10361000E3D11BE0059904F00F0024090A5C44EA99
:103620000570290904460D469B4603F8012954EA12
:103630000502EFD10AE038B9F90705D530208DF839
:103640005F000DF15F0B01E00DF1600B18ADCBEBEE
:10365000050465460FE08DF82720002B00F06C81F3
:1036600000258DF838308DF8275001240DF1380BE6
:1036700001E0644605469DF82730AC42ACBF2146C8
:103680002946029113B10298421C029217F00201DE
:10369000069102D0029B981C029017F084020792B8
:1036A0003AD10499029BCB1A002B35DDA048102B90
:1036B000C8F800001ADD0C9910200D9AC8F8040013
:1036C000481C103207280D9208F108080C900BDDF9
:1036D000504649460BAA0093FFF7FEFC009B0028CA
:1036E00040F031810DF16008103BDFE70D9AC8F81A
:1036F0000430D1180C9B0D91581C072808F10808BC
:103700000C9009DD504649460BAAFFF7E5FC00285E
:1037100040F019810DF160089DF82720D2B10DF11C
:103720002701C8F800100C9901230D98C8F804303F
:103730004B1C421C072B0D9208F108080C9309DD65
:10374000504649460BAAFFF7C7FC002840F0FB8013
:103750000DF160080698C8B10AAAC8F800200C9AB2
:1037600002210D9BC8F80410511C981C07290D90CC
:1037700008F108080C9109DD504649460BAAFFF7ED
:10378000ABFC002840F0DF800DF16008079B802B28
:103790003AD10498029A831A002B35DD6549102B23
:1037A000C8F800101ADD0C9A10210D98C8F8041002
:1037B000511C103007290D9008F108080C910BDD01
:1037C000504649460BAA0093FFF786FC009B002851
:1037D00040F0B9800DF16008103BDFE70C9A0D98BE
:1037E000511CC8F80430072903440D9308F1080858
:1037F0000C9109DD504649460BAAFFF76DFC0028E5
:1038000040F0A1800DF160082D1B002D32DD4948EC
:10381000102DC8F8000018DD0C9A0D98531C1021CB
:103820001030072BC8F804100D9008F108080C930D
:1038300009DD504649460BAAFFF74EFC002840F030
:1038400082800DF16008103DE1E70C9A0D9B511C40
:10385000C8F8045007291D440D9508F108080C917B
:1038600008DD504649460BAAFFF736FC00286AD10E
:103870000DF160080C9A0D98511CC8F804400729F6
:103880000444C8F800B00D9408F108030C9107DD5A
:10389000504649460BAAFFF71FFC002853D118AB2E
:1038A0007A070BD4039B029A04990D988A42ACBF05
:1038B0009B185B180393002835D02EE0049C0298D7
:1038C000241A002CEEDD1A4A102C1A6014DD0C9814
:1038D00010220D995A60421C10310833072A0D91AD
:1038E0000C9207DD504649460BAAFFF7F5FB00286E
:1038F00029D118AB103CE6E70C995C600D9B481C85
:103900001C1907280D940C90CCDD504649460BAA93
:10391000FFF7E2FB0028C5D015E0504649460BAA48
:10392000FFF7DAFB78B900250C950DF1600853E438
:1039300052560800625608000D9A22B15046494678
:103940000BAAFFF7C9FBB9F80C1001F0400003B255
:10395000002B7FF428AC039829B0BDE8F08F70B538
:103960000C468989ADF58D6D21F00205616EADF8CB
:103970000C501991E589E169ADF80E500791656A1F
:103980001AA9009104910021099506914FF48065D0
:103990006946029505950646FFF7D2FB051E07DB33
:1039A0003046694600F0E8F8002818BF4FF0FF35B0
:1039B000BDF80C3003F0400002B21AB1A18941F009
:1039C0004003A38128461AB00DF5806D70BD30B557
:1039D0001346054A05460C46106829462246BDE8AE
:1039E0003040FFF7ADBB00BF1000072070B50D469B
:1039F0001446064618B1836B0BB900F0AFF9A189E4
:103A0000A06901F0080213B2A0600BB1206958B997
:103A10003046214600F044F830B1A589092045F030
:103A20004001A181306017E0A189EDB201F400529C
:103A300013B233B941F40050616EA08121F40052F9
:103A40006266206823696169C01A884207DB3046D4
:103A5000214600F091F810B14FF0FF3515E0A26853
:103A60002168531EA36001F8015B62690130904236
:103A7000216004D0A389DB0707D50A2D05D1304684
:103A8000214600F079F80028E6D1284670BD0A46A4
:103A90000249034608681946FFF7A8BF100007202F
:103AA00038B52C4B054618680C4618B1826B0AB91C
:103AB00000F054F9A08900F008010BB20BBB00F034
:103AC000100211B211B94FF0FF3038BD00F0040000
:103AD00003B293B1216B41B104F14002914202D093
:103AE000284600F079FA00212163A089216920F09D
:103AF00024030022A38162602160A08940F00803B2
:103B0000A38122694AB9A18901F42070B0F5007F30
:103B100003D02846214600F0F7FCA38913F00102E8
:103B200005D0616900224842A260A06107E003F06D
:103B3000020108B208B9636900E01346A360236973
:103B400033B9A28902F0800108B20028BBD138BD88
:103B5000002038BD10000720024B13B1024800F0CE
:103B600005B8704700000000C52E0800014600207F
:103B700002460346FFF758B92DE9F0410C460546C9
:103B800018B1836B0BB900F0E9F8A28932B302F0E7
:103B9000080001B2002962D1616842F40060002986
:103BA000A08102DCE36B002B18DDA66AB6B102F43B
:103BB0008052002012B22F6828600AB1226D10E0F6
:103BC00001232846E169B0470246013009D129683E
:103BD00039B11D2901D016294ED12F600020BDE832
:103BE000F081A68906F004010BB22BB16068266B48
:103BF000121A0EB1E16B521AE1690023A66A284637
:103C0000B047411C05D12A681AB11D2A01D0162AD5
:103C10001FD1A389002123F40062A28103F4805301
:103C20002269616019B2226021B1421C01D12A6867
:103C300002B92065216B2F600029CFD004F140002C
:103C4000814202D0284600F0C7F900202063BDE879
:103C5000F081A38943F04001A181BDE8F08126698C
:103C6000002EBBD0920723680CBF62690022C6EB0E
:103C700003082660A26012E0A38943F04000A081FF
:103C80004FF0FF30BDE8F081676A2846E1693246AF
:103C90004346B8470028EFDD3618C0EB0808B8F1F6
:103CA000000FF1DC9AE7014620B904480449006896
:103CB00000F0C4BB034B1868FFF75EBF4C5608000A
:103CC000793B080010000720002070470020704753
:103CD000014900F092BB00BF6D4F0800002310B5F2
:103CE000044603604360836081814366C28103614F
:103CF000436183611946082200F15C00FFF747F930
:103D000004480549054A064BE46120626162A262EB
:103D1000E36210BD554D08007B4D0800B74D08000B
:103D2000DB4D080070B568254D430E4605F10C01CA
:103D300000F066FC044640B100F10C00002184E86C
:103D40004200A0602A46FFF722F9204670BD024BD0
:103D50001868FFF7BDBF00BF4C56080038B5836B2D
:103D60000446EBB90F4A0125C0F8E032C26385630F
:103D700004F53B7103201A46C4F8E402C4F8E812C3
:103D800060680421FFF7AAFFA06809212A46FFF70F
:103D9000A5FFE06812210222BDE83840FFF79EBF70
:103DA00038BD00BFD13C0800F8B51D4B07461E6862
:103DB000B06B10B93046FFF7D1FF06F53876B4681E
:103DC0007168013904D4B4F90C5085B16834F8E74E
:103DD00032680AB13668F2E738460421FFF7A2FFDD
:103DE00030600028F6D10C243C60044615E04FF604
:103DF000FF730120A081E38165662560A560656091
:103E000025616561A56104F15C0029460822FFF780
:103E1000BEF8256365636564A5642046F8BD00BFF0
:103E20004C5608007047704770477047024B034973
:103E3000186800F0E2BA00BF10000720C93C080073
:103E4000024B0349186800F0D8BA00BF10000720E1
:103E5000CD3C080093892DE9F341144603F4005248
:103E6000804610B20E4630B9676E43F4005147F4F5
:103E70000053A181636600F029FB012806D12EB111
:103E8000FF2E03D88DF8046007460FE03246404607
:103E900001A904F15C0300F0AFFF421C074605D105
:103EA000A28942F04000A081384631E00025BD42A1
:103EB0002AD0A16801AB4A1E002AA2601ADAA069C2
:103EC00082420CDB21685A5D0A70236819780A293E
:103ED00003D001330022236013E0404601E0595D26
:103EE00040462246FFF782FDB0F1FF31484250EBD9
:103EF000010206E02068595D01702268531C2360AE
:103F000000E01AB90135D2E7304601E04FF0FF304A
:103F1000BDE8FC81F8B5084C074620680E4618B18C
:103F2000856B0DB9FFF71AFF206839463246BDE8A8
:103F3000F840FFF78FBF00BF10000720F8B5234DF2
:103F40000E46044600F086FDAB685F6827F0030765
:103F500007F6EF70811B21F47F6222F00F06A6F5B1
:103F60008056B6F5805F04DA204600F074FD00202C
:103F7000F8BD0021204600F0DDFEAB68D91988426B
:103F8000F2D17142204600F0D5FE013010D100215F
:103F9000204600F0CFFEAB68C21A0F2AE4DD0C49C0
:103FA00042F0010209685A60401A0A490860DBE7DA
:103FB000084BA8681A68BF1B47F001074760961BAB
:103FC00020461E6000F047FD0120F8BDBC0407201C
:103FD000C4080720108B0720F8B506460D460029B7
:103FE00000F0A68000F036FD55F804CC514FA5F145
:103FF00008032CF001029C18B96860688C4220F01C
:1040000003000CF001011CD1821839B955F8081CC5
:104010005B1A98685218D968C1608860454842F0B8
:10402000010159608360444B19688A4204D3434AB2
:1040300030461168FFF782FF3046BDE8F84000F0D7
:104040000ABD606059B955F8085C08375B1B521906
:104050009D68BD4205D0DF68EF60BD6002E00021D1
:1040600000E0012125186D6815F0010F0FD112181D
:1040700049B9A068324DA84205D1EB60AB60D86069
:104080009860012103E0E068A468E060846042F089
:10409000010058609A500029CED1B2F5007F0CD2B1
:1040A000D2089010012404FA00F422494868204301
:1040B000486001EBC200816835E0540A042C02D844
:1040C0009409383416E0142C01D85B3412E0542CD7
:1040D00002D8140B6E340DE0B4F5AA7F02D8D40BCD
:1040E000773407E040F25455AC4202D8940C7C344B
:1040F00000E07E240F4D05EBC400816881420CD1A5
:104100000122A41002FA04F4686844EA00026A601A
:10411000084608E08968814204D04C6824F0030412
:10412000A242F7D3C868D86099608360CB6083E708
:10413000F8BD00BFBC040720C80807200C8B07206F
:10414000C404072093682DE9F74F06460C469146B4
:104150000BB900204FE1888900F008010AB20AB1CA
:1041600023695BB930462146FFF79AFC30B1A1893B
:10417000092241F04000A08132603AE1B4F80CA07D
:10418000D9F800800AF0020C0FFA8CF515B34FF045
:10419000000A574637B9D8F800A0D8F8047008F1DB
:1041A0000808F7E7B7F5806F34BF3B464FF48063EC
:1041B0003046E1695246656AA847002840F31581F8
:1041C000D9F8081082443F1A081AC9F808000028D4
:1041D000E0D1BEE71AF0010A04D0AB4601952F46A4
:1041E000AA46C7E0554635B9D8F800A0D8F804501B
:1041F00008F10808F7E7A289D4F808B002F40070C3
:1042000003B2002B52D05D4540D312F4906F3BD0E7
:1042100063694FF0030B0BFB03F32169276802204E
:104220007F1A93FBF0FC7B1C581902F480628445D2
:1042300028BF604613B2019030467BB1019900F06F
:10424000DFF9834698B121693A46FEF797FEA189C6
:1042500021F4906040F08002A2810BE0019A00F00E
:10426000FBFB834630B930462169FFF7B5FE0C23CE
:104270003360BAE001990BEB0703CF1BC4F810B011
:1042800023606161AB46A7605D4500D2AB465A46EC
:104290005146206800F0C4FBA0682368CBEB000205
:1042A00003EB0B01A2602160AB462AE02068216984
:1042B00088420FD95D450DD951465A4600F0B0FBF2
:1042C0002268214602EB0B0020603046FFF754FCC9
:1042D000B8B18AE063699D4208D3676A3046E169F4
:1042E0005246B847B0F1000B0BDC7EE051462A463F
:1042F00000F096FBA2682368501B5919AB46A060DA
:104300002160D9F80800DA44CBEB0002CBEB0505BD
:10431000C9F80820002A7FF466AF1AE70198002840
:1043200032D020682169D34534BF5B46534688426A
:10433000A568D4F814E037D97544AB4234DD39466A
:104340002A4600F06DFB2068214643192360304661
:10435000FFF712FC002848D1BBEB050B3DD0D9F884
:1043600008207F19C5EB0A0A551BC9F80850002D13
:104370003FF4EFAEBAF1000FD0D1002198E88004ED
:10438000019108F10808F5E738460A21524600F085
:1043900039FB20B100F10101C7EB010B01E00AF18B
:1043A000010B01220192BCE7734508DB656A3046C8
:1043B000E1693A467346A847051ECDDC15E01A466A
:1043C0003946009300F02CFB009B2568A068E91893
:1043D000C21AA26021601D46BEE730462146FFF7A3
:1043E000CBFB10B9CDF804B0B9E7A28942F0400385
:1043F000A3814FF0FF30BDE8FE8F2DE9F041044668
:104400008846FFF70FFD04F5387400268CB1A568C7
:104410006768013F0BD4B5F90C3033B1B5F90E0024
:10442000431C02D02846C04706436835F1E724689C
:10443000ECE7FFF7F8FC3046BDE8F0812DE9F843E2
:1044400080468946FFF7EEFC08F53874002694B1E3
:10445000A5686768013F0CD4B5F90C303BB1B5F9DC
:104460000E00431C03D040462946C8470643683522
:10447000F0E72468EBE7FFF7D6FC3046BDE8F883A9
:1044800010B514460AB90C4810BD10460B4900F08F
:10449000A8FC0028F7D02046074900F0A2FC00281D
:1044A000F1D02046064900F09CFC034B00280CBFCD
:1044B0001846002010BD00BF505608009456080052
:1044C0009B5608000048704740040720014B186ABB
:1044D000704700BF4004072000487047640407206D
:1044E0000020704700487047840407200A460349AB
:1044F000034608681946FFF7C3BF00BF1000072036
:104500000048704784040720F0B58B890C4603F0FF
:1045100002010AB291B00646002A3FD1B4F90E104A
:1045200000290DDAA78907F0800247F4006310B272
:1045300000280CBF4FF480654025A381002720E0B0
:1045400001AA00F01BFD0028ECDB029800F4704586
:10455000B5F500535F425F41B5F5004F0BD1A16A3D
:104560001D4A914207D1A3894FF4806543F48061CD
:10457000A181E56405E0A08940F40065A5814FF4C0
:1045800080653046294600F03BF870B9A38903F4F2
:10459000007210B2E8B943F00201A18104F14303B3
:1045A000012223602361626113E0A2890B4942F07A
:1045B0008003F163A3812060206165614FB13046C3
:1045C000B4F90E1000F0ECFC18B1A08940F0010124
:1045D000A18111B0F0BD00BFB74D0800D13C08006B
:1045E000024B0146186800F00BB800BF100007200E
:1045F000024B01461868FFF7EFBC00BF1000072010
:104600002DE9F04701F10B04162C064603D934F0CE
:10461000070401D502E010248C4202D20C2535603B
:10462000D9E1304600F016FAB4F5FC7F14D2A04D63
:10463000E10805EBC100C568854205D105F1080315
:104640006D698A1C9D4244D0E868A9686A68C860A0
:1046500022F00303816059E0620A01D1E2081BE005
:10466000042A02D8A209383216E0142A01D85B3293
:1046700012E0542A02D8220B6E320DE0B2F5AA7F66
:1046800002D8E20B773207E040F254539A4202D844
:10469000A20C7C3200E07E22854800EBC203DD687C
:1046A0009D4215D0696821F00301081B0F2801DD28
:1046B000013A0DE0002809DBEB68AA68D3609A6034
:1046C0006B185A6842F00100586090E1ED68E7E726
:1046D000013277490D6901F10807BD4268D0686869
:1046E00020F00303181B0F280CDD2B194B610B6105
:1046F00044F0010440F001016C60DF609F6059608C
:10470000185074E100284F610F6101DBEB18D8E706
:10471000B3F5007F0FD2DB089810012707FA00F7E6
:10472000486807434F6001EBC3018B68E960AB60E9
:10473000DD608D603CE0580A042802D898093830C2
:1047400016E0142801D85B3012E0542802D8180B68
:104750006E300DE0B0F5AA7F02D8D80B773007E0B5
:1047600040F25457B84202D8980C7C3000E07E20CA
:10477000DFF83CE10EEBC007B968B9420ED18710F3
:10478000012303FA07F0DEF8047040EA0703CEF8CD
:104790000430084608E08968B94204D0486820F02F
:1047A00003008342F7D3C868E860A960CD608560E4
:1047B0009510012000FA05F33D4F79688B425DD8D2
:1047C0000B4205D122F003025B0004320B42FBD006
:1047D000374D104605EBC20E7746FD68BD422DD021
:1047E000696821F0030CC4EB0C010F2913DD2B19B0
:1047F00044F00104EA686C6055F8080F5950C26033
:1048000090602B4A41F00100536113610832DA6075
:104810009A6058600CE000290EDB05EB0C00426842
:10482000E96842F00103436055F8080FC1608860F1
:10483000304600F010F9DEE0ED68CFE70130810787
:1048400005F10807C9D17146950705D1184A556881
:1048500025EA0305556005E0A1F108070968013A5A
:10486000B942F1D0124F5B007F68BB4206D82BB132
:1048700002463B42ACD104325B00FAE70C4B9F6826
:104880001946786820F00309A14504D3C4EB090058
:104890000F2800F3A280074AD1F8083415680133C5
:1048A00007EB090A04EB050806D108F110080BE034
:1048B000BC0407200C8B072008F5805000F10F0185
:1048C00021F47F6222F00F083046414600F032FAB0
:1048D000421C054671D0504502D2484B9F426CD1D4
:1048E000474855454168454A08EB0103436007D1F5
:1048F000290505D19568C84448F00100686051E079
:10490000D2F80804421C03D13C4AC2F8085405E01E
:10491000CAEB050A03EB0A01394B596015F0070091
:104920001CBFC0F108002D1805EB080C00F58051E4
:104930004FEA0C5EA1EB1E584146304600F0FAF9F2
:104940002F4A431C536808BF4FF0000808EB0301CF
:1049500008BF28465160401B284A00EB080343F07B
:1049600001019742956069601CD0B9F10F0F02D820
:1049700001226A6021E07D68A9F10C0929F007098C
:1049800005F00102052107EB090349EA0200B9F12C
:104990000F0F78605960996004D9304607F108011B
:1049A000FFF71AFB164A5368D16A156B8B4288BF12
:1049B000D362AB4284BF124D2B63104882685368A8
:1049C00023F00301A142C4EB010001D30F2804DC52
:1049D000304600F040F800250DE0084A44F001039D
:1049E000956840F001012C196B609460616030465D
:1049F00000F031F808352846BDE8F087BC040720F0
:104A00000C8B072010B5C9B2034682189342184692
:104A100004D0047801338C42F8D100E0002010BDAE
:104A2000814270B50ED28C18A0420BD28518134665
:104A300013F1FF3305D351426618F65C6918CE5462
:104A4000F6E770BD0023934203D0CC5CC45401331D
:104A5000F9E770BD704770472DE9F84F814616465B
:104A60000C4621B91146BDE8F84FFFF7C9BDFFF765
:104A7000F1FF06F10B0754F8045C162FA4F1080BA4
:104A800025F0030803D937F0070701D502E0102706
:104A9000B74204D20C20C9F80000002645E1B84511
:104AA00080F21A81A24A0BEB080391688B4206D070
:104AB000586820F0010298184268D00726D45A6836
:104AC0008B4222F0030000EB080A18D107F1100214
:104AD00092451DDBC7EB0A0A0BEB07054AF0010103
:104AE000696054F8042C924E02F001031F43B56034
:104AF00044F8047C4846FFF7AEFF264615E1BA4568
:104B000006DBDD689E68F560AE60E6E000200346E7
:104B1000EA0700F1918054F8085CC5EB0B056A6860
:104B200022F00302002B51D002EB080A8B42824490
:104B300045D107F110039A4548DB2E46E96856F83F
:104B4000083FA8F10402242AD9608B6025D8132AD3
:104B50001BD921681B2AA9606368EB6003D805F1A3
:104B60001000083412E0A068242A2861E168696115
:104B700003D005F11800103408E0226905F1200087
:104B8000AA6163691834EB6100E030462168016076
:104B900062684260A368836003E030462146FFF705
:104BA0003FFFC7EB0A0AE8194AF0010242606B684E
:104BB0005F49886003F0010007436F6088E0BA45F1
:104BC00004DBD9689868C160886003E002EB080ADA
:104BD000BA4531DB2846EB6850F8081FA8F10402FB
:104BE000242ACB60996023D8132A1AD920681B2A5B
:104BF000A8606668EE6003D805F11000083410E084
:104C0000A368242A2B61E168696103D005F11800CB
:104C1000103406E02269AA6160691834E86105F180
:104C200020002668066063684360A168816055E0E3
:104C30002146FFF7F5FE51E031464846FFF7E0FC1C
:104C40000646002844D054F8041CA0F1080221F0C4
:104C500001030BEB03018A4206D150F8046C26F0E5
:104C6000030505EB080A38E0A8F10402242A28D835
:104C7000132A1ED923681B2A03606168416004D887
:104C800000F1080004F1080214E0A068242AB060D2
:104C9000E368F36004D006F1100004F1100209E0AB
:104CA000226906F118003261616904F1180271612C
:104CB00000E0224613680360516841609268826098
:104CC00002E02146FFF7ACFE48462146FFF784F993
:104CD0004846FFF7C0FE28E0C2465D46C7EB0A0023
:104CE0000F286A6811D902F00106E91940F00103A2
:104CF00037436F6008184B604268083142F0010684
:104D000046604846FFF768F90AE002F001064AEA01
:104D100006036B6005EB0A01486840F001024A6037
:104D20004846FFF798FE05F108063046BDE8F88FC3
:104D3000BC04072038B5064C00230546084623600E
:104D4000FEF73AF8431C02D1216801B1296038BD51
:104D50004C8B072010B50C46B1F90E1000F042F94B
:104D6000002803DB226D1318236510BDA38923F4EB
:104D70008051A18110BD002070472DE9F0411D46F2
:104D80008B890C4603F4807116460AB207462AB195
:104D9000B4F90E100022022300F012F9A089B4F930
:104DA0000E1020F48053A381384632462B46BDE8CE
:104DB000F04100F077B810B50C46B1F90E1000F0D4
:104DC000FFF8431CA38903D123F48052A28110BDB4
:104DD00043F48051A181206510BDB1F90E1000F09F
:104DE00073B810F8012B11F8013B012A28BF9A4231
:104DF000F7D0A2EB030070472DE9F0411D46104BA0
:104E000086B0044690460E461F6839B9FFF75AFB34
:104E10000095034603A92046324606E0FFF752FB01
:104E200000950346314620464246B847431C03D10D
:104E300000218A222960226006B0BDE8F08100BF0F
:104E4000CC08072030B51346044A05460C461068C6
:104E500029462246BDE83040FFF7CEBF10000720AC
:104E600049B1FF2A04D98A2303604FF0FF3070470D
:104E70000A7001207047084670472DE9F3419846B3
:104E8000074B05460F4616461C68FFF71BFBCDF87F
:104E900000800346394628463246A047BDE8FC81DB
:104EA000CC08072038B5074C05460020206008468E
:104EB00011461A46FBF7BAF9431C02D1236803B125
:104EC0002B6038BD4C8B072038B5064C00230546B7
:104ED00008462360FDF796FF431C02D1216801B10B
:104EE000296038BD4C8B072070B505460C4600295B
:104EF00039D0FEF797FF25B1AB6B13B92846FEF703
:104F00002DFFB4F90C605EB328462146FEF734FE4F
:104F1000E26A06463AB12846E169904736EA200639
:104F200028BF4FF0FF36A08900F080010BB21BB103
:104F300028462169FFF750F8216B41B104F1400286
:104F4000914202D02846FFF747F800202063616CA9
:104F500021B12846FFF740F8002161640023A381B6
:104F6000FEF761FF00E00E46304670BD024B014681
:104F70001868FFF7B9BF00BF1000072038B5074C0D
:104F800000230546084611462360FDF73FFF431CFA
:104F900002D1216801B1296038BD00BF4C8B0720C8
:104FA00038B5064C0023054608462360FDF734FF5C
:104FB000431C02D1216801B1296038BD4C8B072008
:104FC00038B5074C054600202060084611461A46B1
:104FD000FDF726FF431C02D1236803B12B6038BDC7
:104FE0004C8B072038B5074C05460020206008464A
:104FF00011461A46FBF7D6F8431C02D1236803B1C9
:105000002B6038BD4C8B07204BB942B9002908BF33
:10501000002802D04FF0FF31084600F03BB882B0C4
:10502000EC462DE9005000F01DF8DDF804E002B078
:105030000CBC70472DE9F0411646984604460D46D3
:1050400000F02AF806FB01FCA6FB002300FB08C7C2
:10505000FB18A21A65EB0303069CC4E90023BDE814
:10506000F08100BF2DE9F041904606460F461D46EF
:1050700000F070F900FB05F3A0FB084508FB0138C0
:10508000069B4544341B67EB0505C3E90045BDE8B5
:10509000F08100BF704700BF00292DE9F00F1D46C9
:1050A000C0F29D800024002DC0F2948080460F46FF
:1050B00094461E46E3BB8A4255D9B2FA82F747B1FD
:1050C000C7F1200520FA05F601FA07F1BA40B84009
:1050D0003143170CB1FBF7F61FFA82FC07FB1611E0
:1050E0000CFB06F5030C43EA01439D4208D9711EEF
:1050F0009B1880F013819D4240F21081023E9B1864
:10510000591BB1FBF7F507FB15130CFB05FC80B22F
:1051100040EA03418C4507D96B1E8A1880F0008154
:10512000944540F2FD80023D45EA0641002503E03A
:105130008B420CD9002529460A462B4614B152420F
:1051400063EB430310461946BDE8F00F7047B3FA0E
:1051500083F5002D40F087808B4201D38242EAD84C
:1051600000250121E8E712B90126B6FBF2F2B2FAF6
:1051700082F6002E39D18E1A130C1FFA82FC0125FB
:10518000B6FBF3F703FB17610CFB07F84FEA104976
:1051900049EA0146B04506D9791EB61802D2B04593
:1051A00000F2D3800F46C8EB0606B6FBF3F103FB13
:1051B00011630CFB01FC80B240EA03439C4506D915
:1051C0004E1E9A1802D2944500F2C280314641EA3E
:1051D0000741B1E7E443524263EB430366E74042D1
:1051E00061EB41014FF0FF345DE7B240C6F12009A9
:1051F00021FA09F720FA09F901FA06F1130CB7FBB5
:10520000F3F81FFA82FC03FB18770CFB08F549EA58
:1052100001094FEA194141EA0747B040BD420AD9A6
:10522000BF1808F1FF3680F08E80BD4240F28B80BF
:10523000A8F10208BF18791BB1FBF3F503FB1517A2
:105240000CFB05F61FFA89F949EA07418E4206D997
:105250006F1E891871D28E426FD9023D89188E1B3C
:1052600045EA08458CE7C5F1200122FA01F306FA68
:1052700005F627FA01F207FA05F720FA01F11E43B5
:105280004FEA1649B2FBF9F81FFA86FA09FB182211
:105290000AFB08FB0F433B0C43EA024293450CFA1E
:1052A00005FC08D9921908F1FF314AD2934548D933
:1052B000A8F102089219CBEB0203B3FBF9F109FB49
:1052C00011320AFB01FABFB247EA02439A4506D9F6
:1052D0004A1E9B1933D29A4531D902399B1941EAAA
:1052E00008410F0C1FFA8CF808FB07F68AB24FEA48
:1052F0001C4C08FB02F80CFB02620CFB07FC02EBE7
:105300001842964288BF0CF5803CCAEB03030CEBB5
:10531000124C63450ED305D000250DE70E46EFE68F
:105320001D4601E700FA05F01FFA88F808EB024570
:10533000A842F1D201390025FEE63D468FE711462D
:10534000CDE78846B7E7B04675E7023FB6182AE7CB
:1053500002393CE72DE9F007144605460E46002BBE
:105360003DD18A4249D9B2FA82F747B1C7F120014B
:1053700020FA01F206FA07F6BC40BD401643220CA3
:10538000B6FBF2F0A1B202FB106601FB00F32F0C9A
:1053900047EA0646B34208D9471E361980F0FA801C
:1053A000B34240F2F78002383619F61AB6FBF2F330
:1053B00002FB136201FB03F1ADB245EA02429142E6
:1053C00007D95E1E121980F0E780914240F2E48016
:1053D000023B43EA00400021BDE8F00770478B42E2
:1053E00043D8B3FA83F4002C42D18B4202D38242D9
:1053F00000F2E18000210120EEE712B90127B7FB9E
:10540000F2F4B4FA84F2002A40F089800A1B230CDB
:10541000A7B20121B2FBF3F603FB162207FB06F04D
:105420004FEA154C4CEA0242904207D9121906F194
:10543000FF3C02D2904200F2D0806646121AB2FBC4
:10544000F3F003FB102307FB00F7ADB245EA03437B
:105450009F4207D9421E1B1980F0A0809F4240F254
:105460009D80023840EA0640B6E700210846B3E7CF
:10547000C4F1200622FA06F703FA04F321FA06F52E
:1054800001FA04F120FA06F63B434FEA134CB5FB50
:10549000FCF71FFA83F80CFB175508FB07F946EADF
:1054A000010A4FEA1A4141EA0545A94502FA04F208
:1054B00004D97E1EED18C0F081803746C9EB050186
:1054C000B1FBFCF60CFB161508FB06F81FFA8AFA6E
:1054D0004AEA0541884503D9751EC91874D32E467A
:1054E00046EA0746370C1FFA82FC0CFB07F5120C44
:1054F000B3B20CFB03FC02FB035302FB07F203EB0A
:105500001C439D4288BF02F58032C8EB010102EBCB
:10551000134291424CD343D0304600215CE7944083
:10552000C2F1200521FA05F620FA05F501FA02F18B
:10553000230CB6FBF3FCA7B203FB1C6607FB0CF8BD
:1055400029430D0C45EA0646B04500FA02F508D994
:1055500036190CF1FF303ED2B0453CD9ACF1020C0B
:105560003619C8EB0602B2FBF3F003FB102607FB6B
:1055700000F889B241EA0642904506D9461E121942
:1055800027D2904525D902381219C8EB020240EA09
:105590000C413FE7384608E733461AE7104661E713
:1055A00000FA04F01FFA8CFC0CEB03439842B3D2D0
:1055B000701E002110E7214620460DE7A9457FF621
:1055C0007CAF023FED1879E7884588D9023EC918BB
:1055D00086E73046D9E78446C3E7023E12192DE735
:1055E000436F6D6D756E69636174696F6E00000065
:1055F000436F756C64206E6F7420637265617465AF
:10560000207461736B20436F6D6D756E6963617497
:10561000696F6E004741480053656E642025640A37
:105620000D000000257309092563092575092575F5
:105630000925750D0A00000049444C450000000092
:105640000D0A0000546D7220537663001800072085
:105650004300202020202020202020202020202047
:10566000202030303030303030303030303030305A
:1056700030303031323334353637383941424344B3
:10568000454600303132333435363738396162635C
:1056900064656600504F534958002E00F8B500BFAE
:1056A000F8BC08BC9E467047593B08006D010800D5
:1056B000F8B500BFF8BC08BC9E467047450108001D
:0856C000D8F9FF7F0100000092
:1056C800AAAAAAAA00800000FFFF000000093D0066
:1056D8001800072000000000000000000403072055
:1056E8006C030720D403072000000000000000001E
:1056F80000000000000000000000000000000000A2
:1057080000000000000000000000000050560800E3
:105718000000000000000000000000000000000081
:105728000000000000000000000000000000000071
:105738000000000000000000000000000000000061
:105748000000000000000000000000000000000051
:105758000000000000000000000000000000000041
:105768000000000000000000000000000000000031
:105778000000000000000000000000000000000021
:1057880001000000000000000E33CDAB34126DE6BE
:10579800ECDE05000B000000000000000000000027
:1057A80000000000000000000000000000000000F1
:1057B80000000000000000000000000000000000E1
:1057C80000000000000000000000000000000000D1
:1057D80000000000000000000000000000000000C1
:105B08004153434949000000000000000000000024
:105B1800000000000000000000000000000000007D
:105B28000100000041534349490000000000000003
:105B3800000000000000000000000000000000005D
:105B4800000000009A5608009B5608009B56080063
:105B58009B5608009B5608009B5608009B56080059
:105B68009B5608009B5608009B560800FFFFFFFF46
:105B7800FFFFFFFFFFFFFFFFFFFF00000000000027
:105B880000000000BC040720BC040720C404072050
:105B9800C4040720CC040720CC040720D404072021
:105BA800D4040720DC040720DC040720E4040720D1
:105BB800E4040720EC040720EC040720F404072081
:105BC800F4040720FC040720FC0407200405072030
:105BD800040507200C0507200C05072014050720DD
:105BE800140507201C0507201C050720240507208D
:105BF800240507202C0507202C050720340507203D
:105C0800340507203C0507203C05072044050720EC
:105C1800440507204C0507204C050720540507209C
:105C2800540507205C0507205C050720640507204C
:105C3800640507206C0507206C05072074050720FC
:105C4800740507207C0507207C05072084050720AC
:105C5800840507208C0507208C050720940507205C
:105C6800940507209C0507209C050720A40507200C
:105C7800A4050720AC050720AC050720B4050720BC
:105C8800B4050720BC050720BC050720C40507206C
:105C9800C4050720CC050720CC050720D40507201C
:105CA800D4050720DC050720DC050720E4050720CC
:105CB800E4050720EC050720EC050720F40507207C
:105CC800F4050720FC050720FC050720040607202B
:105CD800040607200C0607200C06072014060720D8
:105CE800140607201C0607201C0607202406072088
:105CF800240607202C0607202C0607203406072038
:105D0800340607203C0607203C06072044060720E7
:105D1800440607204C0607204C0607205406072097
:105D2800540607205C0607205C0607206406072047
:105D3800640607206C0607206C06072074060720F7
:105D4800740607207C0607207C06072084060720A7
:105D5800840607208C0607208C0607209406072057
:105D6800940607209C0607209C060720A406072007
:105D7800A4060720AC060720AC060720B4060720B7
:105D8800B4060720BC060720BC060720C406072067
:105D9800C4060720CC060720CC060720D406072017
:105DA800D4060720DC060720DC060720E4060720C7
:105DB800E4060720EC060720EC060720F406072077
:105DC800F4060720FC060720FC0607200407072026
:105DD800040707200C0707200C07072014070720D3
:105DE800140707201C0707201C0707202407072083
