:0200000280007C
:10000000D0AC07203D4608003946080039460800B4
:10001000394608003946080039460800000000004B
:100020000000000000000000000000005521080052
:100030003946080000000000E521080021220800E0
:100040003946080039460800394608003946080094
:100050003946080039460800394608003946080084
:100060003946080039460800000000000544080031
:10007000214408003D4408005944080000000000E5
:1000800000000000394608003946080039460800DB
:100090003946080039460800394608003946080044
:1000A00039460800000000003946080039460800BB
:1000B0003946080039460800394608003946080024
:1000C0003946080039460800394608003946080014
:1000D0003946080039460800394608003946080004
:1000E00039460800394608003946080039460800F4
:1000F0003946080008B50548054B191A062900D8E5
:1001000008BD044A002AFBD09047F9E7847D080027
:10011000877D08000000000008B50748074B191A42
:100120008A1002EBD273591000D108BD044A002A8C
:10013000FBD09047F9E700BF847D0800847D08006C
:100140000000000010B5064C237843B9FFF7D2FF3A
:10015000044810B10448AFF300800121217010BDA4
:10016000D008072000000000847D080008B5084B77
:100170001BB108480849AFF300800848016811B175
:10018000074A02B19047BDE80840FFF7C5BF00BF6E
:1001900000000000847D0800D4080720847D08004A
:1001A000000000002DE9F0474FF46064C4F20E0433
:1001B0004FF04009C4F80090C4F81490C4F8A0901F
:1001C0004FF48008C4F80080C4F81480C4F8A080FC
:1001D0004FF4000727606761C4F8A0704FF0807685
:1001E00026606661C4F8A0604FF0250044F2B55364
:1001F000C0F2080398474FF00005C4F20C052846EA
:100200004FF4F441C0F6032144F24022C0F20F0241
:100210004FF0080340F2F13CC0F2080CE0472846DA
:100220004FF000014FF440124FF0010340F2414AF9
:10023000C0F2080AD04728464FF0000140F2314290
:10024000C0F20802904728464FF0030140F2694A85
:10025000C0F2080AD04728464FF00401D04728468C
:100260004FF00501D04728464FF00601D047C4F8AB
:100270006490C4F85490C4F82490C4F88090206F1F
:1002800020F040012167C4F86480C4F85480C4F8A9
:100290002480C4F88080236F23F48002226767667D
:1002A00067656762C4F88070206F20F400012167E1
:1002B000666666656662C4F88060236F23F08072AC
:1002C0002267BDE8F08700BF2DE9F8430C46904651
:1002D00048BB002A2BDD8F1848F64846C2F20706B5
:1002E00048F64045C2F207056FEA010907EB09002D
:1002F00000F0010930682B68984704F10104BC4202
:1003000019D10DE030682B682146984704F10104AB
:10031000214630682A68904704F10104BC42F1D1BB
:100320004046BDE8F8834FF0FF30BDE8F8834FF05A
:100330000000BDE8F883B9F1000FE3D030682A6807
:100340002146904704F10104BC42DBD1E8E700BF3D
:100350002DE9F8430D46904600F1FF30022824D8DD
:1003600032B348F64846C2F2070648F64447C2F29E
:1003700007074FF0000402F1FF3909F00109306866
:100380003B68095D9847A0421ADA14E030683B6880
:10039000295D984700280EDB04F1010430683A68B3
:1003A000295D904700281DDA05E04FF0FF3404E096
:1003B0004FF0000401E04FF0FF342046BDE8F88321
:1003C00004F10104A045F8D0B9F1000FDED0306887
:1003D0003A68295D90470028EDDB04F10104A0454F
:1003E000D4D1EAE704F10104A045CFD1E5E700BF8D
:1003F00030B44FF0010404604FF00004446040F258
:100400000225C0F82051C0F80441C0F814414568E5
:100410002B434FEA4202B1FBF2F101F1FF324FEA06
:10042000026143EA11434360204630BC704700BF7D
:10043000436823F0100242604368194341607047EB
:1004400010B4446822434FEA016101F07064224312
:100450004FEA037303F040510A43426010BC7047F7
:100460004FF00203036070474FF0010303FA01F1FC
:100470000161704710B44FF0AC0303600A684C6828
:10048000B2FBF4F34FEA131303F1FF344FF6FE729D
:1004900094420CD803628968416040F20223C0F89C
:1004A00020314FF0500202604FF0000001E04FF0A9
:1004B000010010BC704700BF436913F0020F03D066
:1004C000C1614FF0000070474FF00100704700BF5E
:1004D000436913F0010F04D0806908704FF00000E9
:1004E00070474FF001007047436913F0020F07D0C7
:1004F0004FEAC1514FEAD152C2614FF0000070473C
:100500004FF00100704700BF436913F0010F08D09E
:1005100080694FEAC0524FEAD2530B604FF000009F
:1005200070474FF0010070472DE9F04182B042F66C
:10053000CD63C0F20803984702AD25F8020D4FF0D5
:100540000004C4F20C0440F26148C0F208084FF005
:10055000FA0743F27D26C0F208062046C047A36D85
:10056000636D28463946B047F7E700BF10B540F243
:10057000E734A042A8BF204620EAE07401290DD14B
:10058000204640F6C152C0F20802904740F24D109A
:1005900040F69553C0F2080398470CE040F24D1026
:1005A00040F6C153C0F208039847204640F69551E3
:1005B000C0F20801884747F62820C0F2080021460B
:1005C00045F26932C0F20802904710BD00000000F9
:1005D0002DE9F04F83B080460F4647F63820C0F231
:1005E00008004FF0020145F26935C0F20805A8473E
:1005F00047F64820C0F2080041463A46A84740F670
:10060000EC03C2F20703DA681A619968D960586886
:1006100098601C685C604FF002061E60A3191818F1
:1006200041188E1846F26762C6F2666282FB0624A3
:100630004FEAE673C3EB640447F65820C0F20800A3
:100640002146A84740F60011C2F2070108682018A9
:10065000086044F61556C0F20806B04744F6E15A61
:10066000C0F2080A4FF000024FF00003C3F6E07337
:10067000D047CDE9000145F20529C0F20809C84775
:10068000014647F66820C0F20800A84740F6041566
:10069000C2F20705D5F800B0C5F804B02C602046BA
:1006A000B04744F67D25C0F20805DDE90023A847E0
:1006B000CDE90001CBEB0400B0470FA3D3E9002341
:1006C000D04702460B46A84702460B46DDE900012B
:1006D000A847C84708F5433808F5A0718F42CCBF3A
:1006E0000021012140F26D52C0F20802904703B090
:1006F000BDE8F08FAFF300809A9999999999B93F25
:100700002DE9F04383B042F6CD63C0F20803984769
:1007100002AD25F8020D4FF00004C4F20C0440F2C3
:100720006149C0F2080940F2D158C0F208084FF4FC
:10073000FA7743F27D26C0F208062046C847206EAD
:10074000E16DC04728463946B047F6E7F0B583B0BB
:1007500004460D464FF40063C4F20E0398420DD1D7
:100760004FF40066C4F20E0640F2D147C0F208070B
:1007700030462946B8470028FAD12BE04FF4004014
:10078000C4F2090084420FD14FF40046C4F20906B6
:1007900040F20957C0F20807304601A9B8470028BF
:1007A000FAD1019B2B702BE04FF44041C4F20901B8
:1007B0008C420FD14FF44044C4F2090440F2095670
:1007C000C0F20806204601A9B0470028FAD1019AD4
:1007D0002A702AE04FF00000C4F20A0084420FD1D0
:1007E0004FF00004C4F20A0440F20956C0F20806B1
:1007F000204601A9B0470028FAD1019B2B7014E0D4
:100800004FF48041C4F20A018C420ED14FF480446F
:10081000C4F20A0440F20956C0F20806204601A9B3
:10082000B0470028FAD1019A2A7003B0F0BD00BF8A
:1008300070B50C464FF40063C4F20E0398420FD11A
:100840004FF40065C4F20E0540F2B946C0F2080646
:1008500028462146B0470028FAD14FF0010070BD6C
:100860004FF40041C4F2090188420FD14FF4004512
:10087000C4F2090540F2E946C0F2080628462146BE
:10088000B0470028FAD14FF0010070BD4FF440424C
:10089000C4F2090290420FD14FF44045C4F2090559
:1008A00040F2E946C0F2080628462146B047002833
:1008B000FAD14FF0010070BD4FF00003C4F20A03FB
:1008C00098420FD14FF00005C4F20A0540F2E94604
:1008D000C0F2080628462146B0470028FAD14FF05A
:1008E000010070BD4FF48041C4F20A0188420FD16B
:1008F0004FF48045C4F20A0540F2E946C0F208060A
:1009000028462146B0470028FAD14FF0010070BDBB
:100910004FF0000070BD00BF08B540F6A133C0F233
:100920000803984740F2E73040F69551C0F20801BD
:1009300088474FF4167040F6C152C0F20802904743
:100940004FF4167040F6ED53C0F2080398474FF489
:10095000FA7040F61961C0F2080188474FF42F7011
:1009600040F64562C0F20802904708BD10B584B059
:100970004FF0020300934FF000030193029303939F
:1009800040F20170C0F2080047F67021C0F2080181
:100990004FF4006242F67534C0F20804A047012803
:1009A00008D047F68420C0F2080045F26931C0F251
:1009B000080188474FF0020000904FF000030193B8
:1009C0000293039340F22950C0F2080047F6AC218D
:1009D000C0F208014FF4006242F67534C0F2080418
:1009E000A047012808D047F6BC20C0F2080045F215
:1009F0006932C0F2080290474FF0010300934FF0B4
:100A0000000301930293039340F67160C0F2080063
:100A100047F6E421C0F208014FF4006242F6753453
:100A2000C0F20804A047012808D047F6F420C0F21D
:100A3000080045F26931C0F20801884742F631608A
:100A4000C0F20800804704B010BD00BF10B54FF0E1
:100A500001004FF000014FF0030242F23163C0F297
:100A60000803984740F60C11C2F20701086040B134
:100A70004FF000010A460B4642F29D64C0F20804A2
:100A8000A04710BD30B585B043F6D963C0F2080366
:100A9000984743F66570C0F2080080474FF00B009E
:100AA00044F2B554C0F20804A0474FF00C00A04730
:100AB0004FF00D00A0474FF00E00A0474FF0080088
:100AC000A0474FF40065C4F20E0548F64841C2F253
:100AD00007010D6048F64443C2F2070340F63102B5
:100AE000C0F208021A6048F64040C2F2070040F225
:100AF0004D71C0F2080101604FF43D43C0F2015353
:100B000000934FF4E13201924FF4006002904FF0F5
:100B10000800A0472846694640F27544C0F2080420
:100B2000A04740F21005C2F20705296888684FF017
:100B3000000145F2CB34C0F20804A0472B68586886
:100B40004FF00001A0474FF46060C4F20E004FF474
:100B50008072426642654262C0F88020016F21F4D3
:100B600080730367286880684FF00001A04740F257
:100B7000A512C0F20802904740F61911C0F2080110
:100B8000884740F64D23C0F20803984740F66D10A1
:100B9000C0F2080080474FF0000005B030BD00BF34
:100BA0002DE9F04F85B04FF0240044F2B555C0F266
:100BB0000805A8474FF48044C4F2090420464FF0CA
:100BC000000143F6C166C0F20806B04720464FF068
:100BD0000101B04720464FF00201B04720464FF0D8
:100BE0000301B04720464FF00401B0474FF0240006
:100BF000A84743F65863C0F20F0301934FF0000576
:100C000002954FF4F440C0F603200390204601A95A
:100C100043F62952C0F2080290472046294643F67F
:100C2000CD67C0F20807B84720464FF00101B8472A
:100C300020464FF00201B84720464FF00301B84765
:100C400020464FF00401B84740F63C11C2F20701BC
:100C5000AB460D818D724FF00B0AC1F804A040F233
:100C6000E739C1F81090CD600D60204643F675530A
:100C7000C0F2080398474FF48050C4F20E004FF0C2
:100C800080514FF4803244F21507B846C0F208088C
:100C9000C04720462946B04740F69011C2F20701EE
:100CA0000D818D72C1F804A0C1F81090CD604FF095
:100CB00001000860204643F67552C0F208029047D2
:100CC0004FF49057C4F20E0738464FF080514FF062
:100CD0001002C04720464FF00101B04740F6BC115A
:100CE000C2F207010D818D72C1F804A0C1F8109005
:100CF000CD604FF002030B60204643F67552C0F200
:100D00000802904738464FF080514FF04002C047EC
:100D100020464FF00201B04740F66811C2F20701C9
:100D20000D818D72C1F804A0C1F81090CD604FF014
:100D300003000860204643F67553C0F20803984745
:100D400038464FF080514FF48072C04720464FF034
:100D50000301B04740F61411C2F207010D818D72F4
:100D6000C1F804A0C1F81090CD604FF004050D60EB
:100D7000204643F67552C0F20802904738464FF0BD
:100D800080514FF40012C04720462946B04705B0B5
:100D9000BDE8F08F08B5024640F66413C2F20703BF
:100DA00018604FF48040C4F2090040F63C11C2F2D2
:100DB000070143F69D63C0F20803984708BD00BFD2
:100DC00008B5024640F6E813C2F2070318604FF474
:100DD0008040C4F2090040F69011C2F2070143F6C8
:100DE0009D63C0F20803984708BD00BF08B50246DE
:100DF00040F61013C2F2070318604FF48040C4F2AB
:100E0000090040F6BC11C2F2070143F69D63C0F22F
:100E10000803984708BD00BF08B5024640F6E41332
:100E2000C2F2070318604FF48040C4F2090040F694
:100E30006811C2F2070143F69D63C0F208039847A8
:100E400008BD00BF08B5024640F6B813C2F207035A
:100E500018604FF48040C4F2090040F61411C2F249
:100E6000070143F69D63C0F20803984708BD00BF21
:100E70002DE9F04F83B042F6CD63C0F208039847E6
:100E8000ADF8060047F61830C0F2080041F6BD5133
:100E9000C0F20801884741F22500C0F2080047F679
:100EA0003031C0F208014FF0140241F64D54C0F247
:100EB0000804A04741F25900C0F2080047F6443147
:100EC000C0F208014FF01402A04741F28D00C0F2B9
:100ED000080047F65831C0F208014FF01402A0474D
:100EE00041F2C100C0F2080047F66C31C0F20801BF
:100EF0004FF01402A04740F6F170C0F2080047F628
:100F00008031C0F208014FF01402A04741F2F50011
:100F1000C0F2080047F69831C0F208014FF0140201
:100F2000A04741F6DD50C0F20800804740F60C159E
:100F3000C2F2070540F6E81AC2F2070A40F6B812F4
:100F40009346C2F2070B28684FF000014FF6FF727C
:100F50000B4642F6CD06C0F20806B047DAF800901C
:100F600040F61017C2F20707D7F8008040F6E413E6
:100F7000C2F207031F68DBF8006040F66411C2F29A
:100F800007010C6828684FF000010A460B4642F240
:100F90009D6CC0F2080CE04747F6B430C0F2080080
:100FA000214645F26934C0F20804A04747F6CC3028
:100FB000C0F208004946A04747F6E030C0F20800FA
:100FC0004146A04747F6F430C0F208003946A04732
:100FD00047F60840C0F208003146A0470DF1060070
:100FE0004FF47A7143F27D22C0F208029047AAE7DB
:100FF00010B582B040F66413C2F2070319684FF0CF
:101000009400009040F2E73047F61C42C0F208021C
:101010004FF00A0341F6C144C0F20804A04702B0F1
:1010200010BD00BF10B582B040F6E813C2F207034E
:1010300019684FF0940000904FF4167047F61C4268
:10104000C0F208024FF00E0341F6C144C0F208049A
:10105000A04702B010BD00BF10B582B040F610131B
:10106000C2F2070319684FF0940000904FF4167015
:1010700047F61C42C0F208024FF0120341F6C14489
:10108000C0F20804A04702B010BD00BF10B582B086
:1010900040F6E413C2F2070319684FF09400009081
:1010A0004FF4FA7047F61C42C0F208024FF01603E4
:1010B00041F6C144C0F20804A04702B010BD00BF11
:1010C00010B582B040F6B813C2F2070319684FF0AA
:1010D000940000904FF42F7047F61C42C0F20802B3
:1010E0004FF01A0341F6C144C0F20804A04702B011
:1010F00010BD00BF10B582B04FF0000040F6955310
:10110000C0F20803984740F66410C2F20700016875
:101110004FF0940200924FF0000047F61C42C0F2DC
:1011200008024FF01E0341F6C144C0F20804A04774
:1011300002B010BD2DE9F0470646B0F1004F48D18E
:1011400040F21003C2F2070318688268916801F147
:10115000FF349460002C2ADA826894689569AC4266
:101160001BDB10684FF02D07077040F21003C2F22E
:10117000070318688268146821780A2903D004F1EB
:101180000104146073E04FF00A0145F63565C0F2C2
:101190000805A8474FF0004669E04FF02D0145F6DD
:1011A0003566C0F20806B0474FF000465FE086683B
:1011B00030684FF02D05057040F21007C2F20707A6
:1011C0003B6899680A6802F101020A604FF0004624
:1011D0004DE000284BDA40F21003C2F20703186812
:1011E0008268916801F1FF349460002C26DA8268ED
:1011F00095689769BD4219DB10684FF02D020270A7
:1012000040F21001C2F2070108688268146825786C
:101210000A2D03D004F1010414601EE04FF00A010E
:1012200045F63567C0F20807B84716E04FF02D01C4
:1012300045F63563C0F2080398470EE080680568FC
:101240004FF02D072F7040F21003C2F207031A6807
:1012500091680C6804F101040C60C6F1000606E018
:1012600004EB84004FEA4007BC4203DB07E04FF089
:10127000010400E03C46B6FBF4F2092AF0D840F243
:101280001005C2F207054CF6CD48CCF6CC4845F621
:101290003569C0F208094FF00A0A46F26767C6F2DC
:1012A0006667286881688B6803F1FF328A60002ACC
:1012B0002EDA82689168936999421ADB1168B6FB4D
:1012C000F4F3A8FB03024FEAD20000EB8002A3EB89
:1012D000420303F130030B702868826813681978A1
:1012E0000A2903D003F10103136026E05146C847E1
:1012F00023E0B6FBF4F3A8FB03E14FEAD10101EBD5
:101300008101A3EB410303F13003D9B2C84714E0D4
:1013100080680168B6FBF4F3A8FB03024FEAD20031
:1013200000EB8002A3EB420303F130030B7029684A
:101330008868026802F10102026087FB04204FEA1C
:10134000E474C4EBA004002CABDCBDE8F08700BF64
:101350002DE9F84306464FF0010406E004EB840053
:101360004FEA40018C4204D20C46B6FBF4F3092B41
:10137000F4D840F21007C2F207074CF6CD45CCF680
:10138000CC4545F63568C0F208084FF00A093B68BD
:101390009868826802F1FF31816000292FDA9A682B
:1013A0009068916988421ADB1168B6FBF4F3A5FBDB
:1013B00003024FEAD20000EB8002A3EB420303F1E9
:1013C00030030B7038688268136819780A2903D0D3
:1013D00003F10103136027E04946C04724E0B6FB50
:1013E000F4F1A5FB01E04FEAD00000EB8000A1EB97
:1013F000400101F130011846C9B2C04714E09B68B2
:101400001968B6FBF4F3A5FB03024FEAD20000EB28
:101410008002A3EB420303F130030B703968886844
:10142000026802F101020260A5FB0434E408AED1B7
:10143000BDE8F8832DE9F84306460C4640F2100358
:10144000C2F2070318688268916801F1FF33936064
:10145000002B26DA826891689369994219DB10683B
:101460004FF03002027040F21001C2F2070108682A
:101470008268136819780A2903D003F10103136005
:101480001EE04FF00A0145F63563C0F208039847A5
:1014900016E04FF0300145F63563C0F20803984777
:1014A0000EE0806801684FF030020A7040F21003CD
:1014B000C2F20703186881680A6802F101020A6033
:1014C00040F21000C2F2070000688268916801F1E2
:1014D000FF339360002B28DA826891689369994200
:1014E00019DB10684FF07802027040F21001C2F26E
:1014F000070108688268136819780A2903D003F184
:10150000010313600EE04FF00A0145F63563C0F2A7
:101510000803984706E04FF0780145F63563C0F2BE
:10152000080398478CB9BDE8F883806801684FF0DC
:1015300078020A7040F21003C2F20703186881684B
:101540000A6802F101020A60ECE740F21005C2F2FB
:10155000070545F63567B946C0F208094FF00A0895
:1015600004F1FF34E4B24FEA840026FA00F202F0FC
:101570000F03092B2DD8286881688A6802F1FF3291
:101580008A60002A19DA826891689769B94210DB8B
:10159000106803F1300303702868826813681978B3
:1015A0000A2903D003F1010313603FE04146C84715
:1015B0003CE003F13001C84738E08068016803F17E
:1015C00030030B702B689868026802F10102026018
:1015D0002CE0286881688A6802F1FF328A60002A5C
:1015E00019DA826891689769B94210DB106803F1D3
:1015F0003703037028688268136819780A2903D0B2
:1016000003F10103136011E04146C8470EE003F106
:101610003701C8470AE08068016803F137030B709F
:101620002B689868026802F101020260002C97D1D1
:10163000BDE8F88308B511F0100F05D041F235135D
:10164000C0F20803984708BD11F0200F10D001F038
:101650000F0202F1FF3147F63443C0F2080353F89A
:101660002120104041F25131C0F20801884708BDE5
:1016700001F00F014FEA410141F23543C0F2080386
:10168000984708BDF8B50446002800F03C8103786F
:10169000002B00F0388104F1010440F21005C2F281
:1016A000070541F23546C0F2080645F63567C0F237
:1016B0000807A3F12002D0B25E282ED828688268DD
:1016C000936803F1FF31916000291ADA826891680A
:1016D0009369994211DB106814F8012C0270286894
:1016E0008268136819780A2903D003F10103136093
:1016F00004E14FF00A01B84700E114F8011CB847B3
:10170000FCE08068036814F8012C1A702968886866
:10171000036803F101030360F0E00D2B5CD128683E
:101720008268936803F1FF31916000291ADA8268B8
:1017300091689369994211DB10684FF05C02027066
:1017400028688268136819780A2903D003F1010315
:10175000136012E04FF00A01B8470EE04FF05C0151
:10176000B8470AE0806803684FF05C021A70296885
:101770008868036803F1010303602868826893683E
:1017800003F1FF31916000291ADA82689168936948
:10179000994211DB10684FF072020270286882686B
:1017A000136819780A2903D003F101031360A5E037
:1017B0004FF00A01B847A1E04FF07201B8479DE031
:1017C000806803684FF072021A702968886803689D
:1017D00003F10103036091E00A2B5CD12868826861
:1017E000936803F1FF31916000291ADA82689168E9
:1017F0009369994211DB10684FF05C02027028680F
:101800008268136819780A2903D003F10103136071
:1018100012E04FF00A01B8470EE04FF05C01B84704
:101820000AE0806803684FF05C021A7029688868D3
:10183000036803F10103036028688268936803F179
:10184000FF31916000291ADA8268916893699942A0
:1018500011DB10684FF06E0202702868826813680E
:1018600019780A2903D003F10103136046E04FF011
:101870000A01B84742E04FF06E01B8473EE0806889
:1018800003684FF06E021A7029688868036803F1D4
:101890000103036032E0286881688B6803F1FF323E
:1018A0008A60002A1ADA826891689369994211DB8A
:1018B00010684FF05C02027028688268136819781B
:1018C0000A2903D003F10103136012E04FF00A016B
:1018D000B8470EE04FF05C01B8470AE08068016845
:1018E0004FF05C030B702A689068016801F10101F8
:1018F000016014F8010C4FF00201B04714F8013BED
:10190000002B7FF4D6AEF8BD38B50D4641F28563A5
:10191000C0F20803984740F21000C2F207000068C6
:101920008468A26802F1FF31A160002926DA82688A
:10193000936891698B4219DB10684FF03A0202708C
:1019400040F21001C2F20701086882681368197832
:101950000A2903D003F1010313601EE04FF00A01CE
:1019600045F63563C0F20803984716E04FF03A0198
:1019700045F63563C0F2080398470EE0836818689F
:101980004FF03A02027040F21001C2F207010B68F8
:101990009868026802F101020260284641F235129D
:1019A000C0F20802904740F21000C2F2070000683F
:1019B00081688B6803F1FF328A60002A26DA826828
:1019C00091689369994219DB10684FF03A020270EE
:1019D00040F21001C2F207010868826813681978A2
:1019E0000A2903D003F1010313601EE04FF00A013E
:1019F00045F63563C0F20803984716E04FF03A0108
:101A000045F63563C0F2080398470EE08068016828
:101A10004FF03A030B7040F21002C2F20702106856
:101A200081680B6803F101030B6048F64C40C2F279
:101A30000700406841F28562C0F20802904740F218
:101A40001001C2F2070108688268936803F1FF3150
:101A50009160002926DA826891689369994219DBBE
:101A600010684FF03A02027040F21001C2F2070112
:101A700008688268136819780A2903D003F1010302
:101A8000136038BD4FF00A0145F63563C0F2080314
:101A9000984738BD4FF03A0145F63563C0F2080368
:101AA000984738BD806803684FF03A021A7040F2D8
:101AB0001001C2F20701086883681A6802F1010286
:101AC0001A6038BD08B5014648F64C43C2F2070318
:101AD000186841F60912C0F20802904747F66040C4
:101AE000C0F2080041F28561C0F20801884740F267
:101AF0001000C2F2070000688268936803F1FF31AA
:101B00009160002926DA826891689369994219DB0D
:101B100010684FF03A02027040F21001C2F2070161
:101B200008688268136819780A2903D003F1010351
:101B3000136008BD4FF00A0145F63563C0F2080393
:101B4000984708BD4FF03A0145F63563C0F20803E7
:101B5000984708BD806803684FF03A021A7040F257
:101B60001001C2F20701086883681A6802F10102D5
:101B70001A6008BD38B5054650B147F65440C0F26A
:101B8000080041F28564C0F20804A0472846A04737
:101B900038BD00BF08B547F66040C0F2080041F20A
:101BA0008563C0F20803984708BD00BF08B547F633
:101BB0005040C0F2080041F28563C0F20803984724
:101BC00008BD00BF08B548F64C43C2F20703D86908
:101BD00040B148F64C40C2F20700416901F10101F1
:101BE000416122E048F64C41C2F207018A69A2B97C
:101BF00048F64C41C2F207010868896841F60912AB
:101C0000C0F20802904747F6AC40C0F2080041F22B
:101C10008563C0F20803984707E048F64C43C2F2D8
:101C20000703186900F10100186148F64C43C2F23D
:101C300007034FF000029A61DA6140F21000C2F22D
:101C40000700006881688B6803F1FF328A60002A10
:101C500026DA826891689369994219DB10684FF01F
:101C60000A02027040F21001C2F20701086882689D
:101C7000136819780A2903D003F10103136008BD22
:101C80004FF00A0145F63563C0F20803984708BDD6
:101C90004FF00A0145F63563C0F20803984708BDC6
:101CA000806801684FF00A030B7040F21002C2F224
:101CB0000702106881680B6803F101030B6008BD1F
:101CC0002DE9F84306460D4690469DF8207048F6EB
:101CD0004C44C2F20704A46914BB48F64C42C2F259
:101CE0000702D469E4B988421AD018460D4B9847C8
:101CF0000D48DFF84C90C847304639460B4EB04788
:101D00000B48C84728463946B047404609498847E6
:101D100009484FF00101816100F12000074DA847FB
:101D2000BDE8F883C51A0800687C0800351608006D
:101D3000587C0800751B08004C8C0720E9530800EC
:101D400085160800704700BF704700BF00B583B01C
:101D5000019048F64C40C2F2070041608260C368BF
:101D600003F10103C36000F1200045F2DD31C0F250
:101D70000801884730B941F64550C0F20800804755
:101D8000019A90470C4845F2DD33C0F208039847AA
:101D900050B948F64C41C2F20701C86920B941F672
:101DA0004952C0F20802904741F6C533C0F2080319
:101DB000984703B000BD00BF6C8C072048F64C4329
:101DC000C2F2070318604FF000025A609A60DA60AE
:101DD0001A615A619A61DA61704700BF70B540F2CA
:101DE0001003C2F2070318688268916801F1FF349A
:101DF0009460002C26DA826895689669B54219DBF2
:101E000010684FF00A02027040F21001C2F207019E
:101E100008688268146825780A2D03D004F101044B
:101E200014601EE04FF00A0145F63566C0F2080660
:101E3000B04716E04FF00A0145F63563C0F20803DB
:101E400098470EE0806805684FF00A062E7040F251
:101E50001003C2F207031A6891680C6804F10104C8
:101E60000C6047F67440C0F2080041F28563C0F28E
:101E70000803984740F21000C2F207000068826829
:101E8000916801F1FF349460002C26DA826895682D
:101E90009669B54219DB10684FF00A02027040F2F1
:101EA0001001C2F2070108688268146825780A2DBB
:101EB00003D004F1010414601EE04FF00A0145F65E
:101EC0003566C0F20806B04716E04FF00A0145F645
:101ED0003563C0F2080398470EE085682E684FF01E
:101EE0000A03337040F21000C2F2070002689168E2
:101EF0000C6804F101040C6048F64C46C2F2070677
:101F0000F06841F23515C0F20805A84747F6A4402D
:101F1000C0F2080041F28564C0F20804A0473069AD
:101F2000A84747F68C40C0F20800A0477069A84750
:101F300047F69840C0F20800A04740F21003C2F2F2
:101F4000070318688268916801F1FF339360002BE2
:101F500026DA826891689369994219DB10684FF01C
:101F60000A02027040F21001C2F20701086882689A
:101F7000136819780A2903D003F1010313601EE0E6
:101F80004FF00A0145F63563C0F20803984716E0A2
:101F90004FF00A0145F63563C0F2080398470EE09A
:101FA000806801684FF00A020A7040F21003C2F222
:101FB0000703186881680A6802F101020A6048F69E
:101FC0004C40C2F2070002692AB941F6AD33C0F2B3
:101FD0000803984704E041F69531C0F208018847AC
:101FE00040F21000C2F2070000688268916801F1B7
:101FF000FF339360002B26DA8268916893699942D7
:1020000019DB10684FF00A02027040F21001C2F2B0
:10201000070108688268136819780A2903D003F158
:10202000010313601EE04FF00A0145F63563C0F26C
:102030000803984716E04FF00A0145F63563C0F2F1
:10204000080398470EE0806801684FF00A020A70A2
:1020500040F21003C2F20703186881680A6802F1AF
:1020600001020A6048F64C40C2F20700006970BDE8
:1020700000F1080343604FF6FF720281C360036101
:102080004FF00001016070474FF00003036170479B
:1020900043685A684A6042688A605A689160596029
:1020A00041600861016801F101010160704700BFF2
:1020B00010B40C884FF6FF739C4201D103690CE009
:1020C00000F10803C268128892B2944205D35B689B
:1020D0005A68128892B29442F9D25A684A60916062
:1020E0008B6059600861016801F10101016010BC59
:1020F000704700BF436882689A60816843684B609C
:1021000001694A68824204BF82684A604FF0000356
:102110000361086800F1FF320A600868704700BF79
:1021200003480068006880F3088862B600DF00BFDB
:1021300008ED00E04FF0807340F8043C40F8081CC4
:102140004FF0000140F80C1C40F8202CA0F140009A
:10215000704700BF064B19680868B0E8F00F80F3BD
:1021600009884FF0000080F311884EF00D0E704783
:10217000188B07204EF60453CEF200034FF0805226
:102180001A607047EFF311804FF0A00181F31188BE
:1021900070474FF0000000BF08B542F28513C0F24F
:1021A0000803984740F20000C2F20700026802F1FB
:1021B0000102026008BD00BF80F31188704700BFB4
:1021C00008B540F20002C2F20702136803F1FF30C3
:1021D000106030B94FF0000042F2B911C0F20801AE
:1021E000884708BDEFF309800C4B1A6820E9F00F0F
:1021F00010602DE908404FF0A00080F3118801F035
:102200009BF84FF0000080F31188BDE80840196882
:102210000868B0E8F00F80F309887047188B072032
:1022200008B54EF60453CEF200034FF080521A6008
:1022300042F28510C0F20800804742F6F561C0F214
:10224000080188474FF0000042F2B913C0F20803BA
:10225000984708BD4EF21403CEF2000344F61F0265
:10226000C0F201021A604EF21000CEF200004FF0F0
:1022700007010160704700BF10B54EF62053CEF243
:1022800000031A6842F470001860196841F0704445
:102290001C6042F25523C0F2080398474FF0000437
:1022A00040F20002C2F20702146042F22110C0F2B2
:1022B00008008047204610BD30B448F6F412C2F240
:1022C000070200E01A4613688342FBD311465468A4
:1022D0001519854203D16868041954601046426894
:1022E0008418A3420FD148F6F014C2F20704246800
:1022F0009C4206D05B689A1842600B681A680260BC
:1023000002E0036000E00360814218BF086030BC57
:10231000704700BF38B5044642F6B963C0F20803FF
:10232000984748F6F010C2F20700016811BB48F662
:10233000F412C2F2070240F6F013C2F20703136070
:102340004FF00001516003F5FF4202F1700048F6C2
:10235000F015C2F2070528605167116747F6F07162
:102360005960186040F20403C2F207031A68A2F130
:1023700010021A60002C3CD004F1100212F0070F7A
:102380001CBF22F00702083202F1FF3047F6FE754B
:10239000A84231D848F6F411C2F207010C6801E0F6
:1023A0002146044663689A4202D920680028F7D182
:1023B00048F6F015C2F207052B689C421FD00D6845
:1023C00005F110052068086061688B1A202B07D979
:1023D000A0184360626042F2B922C0F2080290473E
:1023E00040F20400C2F20700036861685A1A0260F2
:1023F00007E04FF0000504E04FF0000501E04FF06A
:10240000000543F29100C0F208008047284638BD1D
:1024100010B50446C8B142F6B963C0F20803984744
:1024200040F20400C2F20700016854F80C2C8B182B
:102430000360A4F1100042F2B921C0F208018847FC
:1024400043F29100C0F20800804710BDF8B5044681
:1024500042F29913C0F208039847A06C00281ADDD5
:10246000616A19B917E0616A51B914E004F12406F0
:1024700043F2C945C0F2080543F25567C0F20807A8
:102480003046A84700B1B847A26C02F1FF33A364FD
:10249000A06C0028E7DC4FF0FF32A26442F2C113C7
:1024A000C0F20803984742F29910C0F20800804732
:1024B000616C00291ADD22691AB917E0226952B944
:1024C00014E004F1100643F2C945C0F2080543F2D6
:1024D0005567C0F208073046A84700B1B847636C9B
:1024E00003F1FF306064616C0029E7DC4FF0FF33DB
:1024F000636442F2C110C0F208008047F8BD00BF1B
:1025000038B50346056875B1026CC468A418C46088
:102510004068844228BFDD600846D96845F2A93387
:10252000C0F20803984738BD10B50446036C63B980
:10253000016800292ED1406843F24173C0F20803BC
:1025400098474FF00000606024E082B980681A4626
:1025500045F2A933C0F208039847A268216C5018CD
:10256000A0606368984215D32268A26012E0C06838
:102570001A4645F2A933C0F208039847226CC2F10B
:102580000000E1680B18E3602268934202D26168A0
:102590000818E060A26B02F10102A26310BD00BF47
:1025A00038B50D46044630B942F28514C0F208042D
:1025B000A04700BFFDE742F29913C0F20803984715
:1025C0002368E06B226C00FB023161604FF0000178
:1025D000A163A36000F1FF3002FB0033E3604FF022
:1025E000FF326264A26485B92169C1B104F11000AF
:1025F00043F2C943C0F20803984701280FD142F2C1
:102600007510C0F20800804709E004F1100042F2A2
:102610007105C0F20805A84704F12400A84742F25A
:10262000C112C0F2080290474FF0010038BD00BF50
:10263000F8B50D4617460646E0B14FF0500042F29D
:102640001533C0F208039847044698B106FB05F01D
:1026500000F1010042F21531C0F208018847206004
:1026600070B9204642F21142C0F20802904701E0E0
:1026700000BFFDE742F28510C0F208008047F7E78F
:10268000E663256420464FF0010142F2A153C0F2F7
:102690000803984784F84D702046F8BD2DE9F04FA7
:1026A00085B08A469B46ADF80620044630B942F212
:1026B0008514C0F20804A04700BFFDE741B9036CD0
:1026C0004BB142F28510C0F20800804700BFFDE721
:1026D0004FF0000701E04FF0000742F29916C0F2F8
:1026E000080643F27151C0F20801009142F2C1158F
:1026F000C0F20805B047A26BE36B9A421FD2204696
:1027000051465A4642F22953C0F208039847616A7B
:1027100069B104F1240043F2C942C0F208029047B3
:10272000012804D142F27510C0F20800804742F23D
:10273000C113C0F2080398474FF001006AE0BDF8EA
:10274000060038B942F2C113C0F2080398474FF0AF
:1027500000005FE027B902A8009FB8474FF00107CB
:10276000A84742F6B961C0F208018847B047626CD9
:10277000B2F1FF3F04BF00226264A36CB3F1FF3FDC
:1027800004BF0023A364A84702A80DF1060143F289
:10279000A152C0F20802904778BBB047D4F83890F5
:1027A000D4F83C80A847C1451BD104F11000BDF806
:1027B000061043F2F933C0F208039847204642F26C
:1027C0004D41C0F20801884743F29100C0F2080071
:1027D000804700288ED142F27512C0F2080290475D
:1027E00088E7204642F24D43C0F20803984743F27F
:1027F0009102C0F2080290477CE7204642F24D4128
:10280000C0F20801884743F29100C0F208008047F7
:102810004FF0000005B0BDE8F08F00BF2DE9F0419A
:102820000E4615469846044630B942F28515C0F268
:102830000805A84700BFFDE741B9036C33B142F278
:102840008510C0F20800804700BFFDE742F2851105
:10285000C0F2080188470746A26BE36B9A4221D277
:1028600020463146424642F22953C0F208039847B7
:10287000A06CB0F1FF3F0ED1626AB2B104F1240046
:1028800043F2C944C0F20804A04788B19DB14FF09B
:1028900001042C6011E0A16C01F10101A1644FF071
:1028A00001040AE04FF0000407E04FF0010404E0E7
:1028B0004FF0010401E04FF00104384642F2B91331
:1028C000C0F2080398472046BDE8F0812DE9F04F9B
:1028D00085B089469A46ADF80620044630B942F2E2
:1028E0008514C0F20804A04700BFFDE741B9036C9E
:1028F0004BB142F28510C0F20800804700BFFDE7EF
:102900004FF0000701E04FF0000742F29916C0F2C5
:10291000080643F2715BC0F2080B42F2C115C0F227
:102920000805B047A16B00293FD0E568204649461D
:1029300042F20153C0F208039847BAF1000F1CD1CC
:10294000A36B03F1FF30A063216829B943F26562EC
:10295000C0F20802904760602369F3B104F11000EF
:1029600043F2C941C0F208018847012815D142F25B
:102970007510C0F2080080470FE0E560606A60B142
:1029800004F1240043F2C941C0F20801884720B194
:1029900042F27512C0F20802904742F2C112C0F230
:1029A000080290474FF0010074E0BDF806203AB9E4
:1029B00042F2C112C0F2080290474FF0000069E0F5
:1029C0001FB902A8D8474FF00107A84742F6B963DC
:1029D000C0F208039847B047606CB0F1FF3F04BFF6
:1029E00000206064A16CB1F1FF3F04BF0021A1642D
:1029F000A84702A80DF1060143F2A152C0F2080255
:102A00009047002839D1B047D4F83880A847B8F1AA
:102A1000000F26D123683BB9B047606843F2996143
:102A2000C0F208018847A84704F12400BDF8061049
:102A300043F2F932C0F208029047204642F24D4379
:102A4000C0F20803984743F29100C0F208008047A3
:102A500000287FF466AF42F27511C0F20801884782
:102A60005FE7204642F24D41C0F20801884743F239
:102A70009102C0F20802904753E7204642F24D43CC
:102A8000C0F20803984743F29100C0F20800804763
:102A90004FF0000005B0BDE8F08F00BF38B5044628
:102AA0000D4642F29913C0F208039847606CB0F1EA
:102AB000FF3F04BF00206064A16CB1F1FF3F04BF81
:102AC0000021A16442F2C112C0F208029047A36B38
:102AD0003BB904F12400294643F27142C0F20802D6
:102AE0009047204642F24D41C0F20801884738BD68
:102AF00010B5044648F61833C2F2070318688480FC
:102B000048F63431C2F207010A8893B29C4211D2CE
:102B100048F63833C2F20703186848F61831C2F293
:102B20000701096801F1040142F2B102C0F2080292
:102B3000904710BD48F61420C2F20700006848F61E
:102B40001831C2F20701096801F1040142F2B10231
:102B5000C0F20802904740F20803C2F20703188847
:102B600081B28C4204D240F20802C2F20702148001
:102B700010BD00BF2DE9F84F0F4690469A460A9DBA
:102B80000C9E814630B942F28517C0F20807B8475B
:102B900000BFFDE7092D06D942F28515C0F20805F0
:102BA000A84700BFFDE74FF0500042F21533C0F2D6
:102BB000080398470446002800F03681002E40F0B4
:102BC00031814FEA880042F21531C0F2080188478E
:102BD0000646206330B9204642F21142C0F2080294
:102BE000904721E130464FF0A5014FEA880245F2B7
:102BF000BB36C0F20806B04708F1FF38206B00EB87
:102C0000880222F0070B04F1340039464FF010021D
:102C100045F2F547C0F20807B8474FF0000384F8C3
:102C20004330092D34BF2E460926E662E66404F1DE
:102C30000407384642F28908C0F20808C04704F188
:102C40001800C0472461C6F10A062683646258460C
:102C50004946524642F23513C0F2080398472060B5
:102C600010F0070F06D042F28514C0F20804A04706
:102C700000BFFDE70B9901B10C6042F29910C0F260
:102C80000800804748F65833C2F207031A6802F179
:102C900001021A6048F61831C2F2070108680028DC
:102CA00058D148F61831C2F207010C6048F6583086
:102CB000C2F207000368012B5FD148F64C29C2F22B
:102CC0000709484642F27106C0F20806B04709F10A
:102CD0001400B04709F12800B04709F13C00B047A3
:102CE00009F15000B04709F16400B04709F17800DC
:102CF000B04709F18C00B04709F1A000B04709F1D5
:102D0000B400B04748F64039C2F207094846B04718
:102D100048F63428C2F207084046B04748F61C304F
:102D2000C2F20700B04748F62020C2F20700B047C1
:102D300048F60020C2F20700B04748F61422C2F25B
:102D40000702C2F8009048F63831C2F20701C1F814
:102D5000008012E048F61823C2F207031A6862B92D
:102D600048F61831C2F207010868C36A9D4204D3CD
:102D700048F61832C2F207021460E06A48F65C3383
:102D8000C2F207031A68904204D948F65C31C2F2D5
:102D90000701086048F63C33C2F207031A68626410
:102DA00002F101021A6048F64821C2F207010B68DD
:102DB000984204D948F64822C2F20702106000EB9C
:102DC000800148F64C200346C2F2070303EB810062
:102DD000394642F29102C0F20802904742F2C11114
:102DE000C0F20801884748F61820C2F207000368BD
:102DF00083B148F61832C2F207021168C86A8542E8
:102E00000CD942F27513C0F2080398474FF0010045
:102E1000BDE8F88F4FF00100BDE8F88F4FF00100DA
:102E2000BDE8F88F0663DDE64FF0FF30BDE8F88FB0
:102E300010B584B04FF00003009301930293039305
:102E400043F2DD10C0F2080047F6C841C0F20801A5
:102E50004FF4807242F67534C0F20804A04701288E
:102E60001FD143F68103C0F208039847012818D107
:102E700042F28511C0F20801884748F61823C2F2D1
:102E800007034FF001021A6048F63430C2F207001F
:102E90004FF00001018042F27923C0F20803984705
:102EA00007E030B942F28510C0F20800804700BF49
:102EB000FDE704B010BD00BF48F61433C2F20703AB
:102EC0001A6802F101021A60704700BF10B542F2A1
:102ED0009913C0F20803984748F63430C2F207004D
:102EE0000488A4B242F2C111C0F20801884720460A
:102EF00010BD00BF2DE9F84F48F61433C2F20703A6
:102F00001868002840F0B98048F63433C2F207034D
:102F1000188800F1010081B219801A8893B2002B41
:102F200039D148F61420C2F2070001680A6832B1AC
:102F300042F28515C0F20805A84700BFFDE748F634
:102F40001423C2F20703196848F63832C2F20702A6
:102F500010681860116048F63032C2F2070211683A
:102F600001F1010111601B68186838B940F20803CB
:102F7000C2F207034FF6FF7018800CE048F61422E7
:102F8000C2F207021168CB68D868828840F2080153
:102F9000C2F207010A8048F63432C2F207021188F1
:102FA00088B240F20803C2F207031A8891B288423D
:102FB0006BD348F61420C2F2070003681A6882B186
:102FC00048F61424C2F207042168C868C468A388BC
:102FD00048F63432C2F20702118888B283421BD904
:102FE00013E040F20803C2F207034FF6FF711980A5
:102FF000BDE8F88F3468E268D468A3884846C2F216
:10300000070001888AB293421CD940F20800C2F23C
:1030100007000380BDE8F88F42F2F507C0F2080709
:1030200048F64828C2F2070848F64C2BC2F2070BB4
:1030300042F2910AC0F2080A48F61426C2F20706C4
:1030400048F6343904F104052846B847A36A13B199
:1030500004F11800B847E16AD8F80020914288BF0F
:10306000C8F8001001EB81000BEB80002946D04727
:10307000336819680029BDD1B3E748F6FC11C2F2E4
:1030800007010A6802F101020A60BDE8F88F00BF7B
:103090002DE9F04748F61433C2F20703186830B937
:1030A00042F28515C0F20805A84700BFFDE742F2CD
:1030B0009911C0F20801884748F61434C2F2070497
:1030C000226802F1FF3323602068002878D148F697
:1030D0005831C2F207010C684CBB4FF0000474E099
:1030E000D8F80C20D46804F11800B84704F104099A
:1030F0004846B847E36A3068834288BF3360514628
:10310000C2F2070103EB830201EB8200494642F25F
:103110009103C0F20803984748F61830C2F207003E
:103120000168E46ACA6A944228BF01250FE04FF0A3
:10313000000548F61C38C2F2070842F2F507C0F253
:10314000080748F64826C2F2070648F64C2AD8F87F
:103150000020002AC4D148F6FC13C2F20703186805
:10316000B0B148F6FC12C2F207021368CBB142F6C6
:10317000F565C0F2080548F6FC14C2F20704A8473A
:10318000206800F1FF3121602268002AF7D108E0B1
:10319000012D06D048F65431C2F207010C68012C0B
:1031A00011D148F65433C2F207034FF000041C60FB
:1031B00042F27510C0F2080080474FF0010404E0AD
:1031C0004FF0000401E04FF0000442F2C111C0F2E0
:1031D000080188472046BDE8F08700BF2DE9F84385
:1031E00048F61C25C2F2070542F6B968C0F2080885
:1031F00048F62026C2F2070643F291072DE0C047A9
:1032000034683B46C0F20803984734B342F2991041
:10321000C0F208008047F168CC6804F1040042F273
:10322000F502C0F20802904748F65833C2F207038D
:10323000186800F1FF3119602A6802F1FF332B6032
:1032400042F2C110C0F208008047206B42F21149DF
:10325000C0F20809C8472046C8472B68002BCED1CA
:1032600048F64C20C2F2070001680129F5D942F264
:103270007512C0F208029047EFE700BF38B50C4660
:10328000054630B942F28514C0F20804A04700BFD9
:10329000FDE731B942F28515C0F20805A84700BF25
:1032A000FDE742F6B963C0F2080398472888011980
:1032B0008CB248F63432C2F20702138899B28842BF
:1032C0000BD9A04234D948F63431C2F2070108883C
:1032D00082B22C8094421DD90AE0A04226D848F63A
:1032E0003430C2F20700028893B29C421ED81FE01D
:1032F00048F61833C2F20703186800F1040042F2DE
:10330000F501C0F208018847204642F6F122C0F2DA
:103310000802904743F29100C0F20800804748B984
:1033200042F27513C0F20803984738BD2C80DFE7DE
:103330002C80EFE738BD00BF08B548F61433C2F261
:1033400007031868A8B948F64821C2F207010A68BD
:1033500002EB82034FEA830048F64C21C2F20701D8
:103360000A5852BB48F64823C2F20703186888B9C6
:1033700009E048F65431C2F207014FF0010008603D
:1033800008BD1A6872B942F28513C0F20803984763
:1033900000BFFDE748F64823C2F2070348F64C2178
:1033A000C2F207011A6802F1FF3018601A6802EBD6
:1033B000820051F82020002AE3D048F64823C2F2C8
:1033C0000703196801EB810048F64C22C2F207029C
:1033D00002EB800359684868586003F10802904284
:1033E00004BF406858605B68D96848F61830C2F27C
:1033F0000700016008BD00BF38B50C4630B942F285
:103400008514C0F20804A04700BFFDE748F6183550
:10341000C2F20705296801F1180142F2B102C0F2B7
:1034200008029047286800F1040042F2F501C0F25A
:10343000080188474FF6FF7084420CD1296848F68E
:103440000020C2F2070001F1040142F29102C0F231
:103450000802904738BD48F63433C2F207031A8891
:10346000A11888B242F6F123C0F20803984738BD8C
:1034700038B50D4630B942F28514C0F20804A047B1
:1034800000BFFDE748F61834C2F20704216801F1D5
:10349000180142F29102C0F208029047206800F140
:1034A000040042F2F501C0F20801884748F63430C2
:1034B000C2F207000388EA1890B242F6F121C0F286
:1034C0000801884738BD00BF38B5C368DC6834B927
:1034D00042F28514C0F20804A04700BFFDE704F1E2
:1034E0001805284642F2F501C0F20801884748F65F
:1034F0001430C2F20700026822BB04F1040528461A
:1035000042F2F501C0F208018847E06A48F6482215
:10351000C2F207021368984204D948F64821C2F261
:103520000701086000EB800348F64C200246C2F217
:10353000070202EB8300294642F29103C0F208031E
:10354000984709E048F61C30C2F20700294642F2CB
:103550009103C0F20803984748F61831C2F20701F8
:103560000A68E06AD36A984234BF0020012038BD5F
:1035700008B5034630B942F28513C0F208039847F4
:1035800000BFFDE748F63032C2F20702106818604B
:1035900048F63431C2F207010A889A8008BD00BF9C
:1035A00038B50D46044630B942F28513C0F208031F
:1035B000984700BFFDE731B942F28515C0F2080512
:1035C000A84700BFFDE742F29913C0F208039847ED
:1035D00028884FF6FF7290422CD048F63031C2F264
:1035E00007010B6822689A4208D048F63431C2F2CB
:1035F00007010B889AB2A18891421ED948F634334C
:10360000C2F207031988A2888B1A99B2884217D987
:1036100048F63433C2F2070319888BB2D21A8018E5
:103620002880204643F27154C0F20804A0474FF0AE
:10363000000407E04FF0000404E04FF0010401E053
:103640004FF0010442F2C111C0F208018847204640
:1036500038BD00BF48F65433C2F207034FF00102F1
:103660001A60704748F61833C2F2070318687047AB
:1036700048F61823C2F20703186848B148F6143117
:10368000C2F207010A68002A14BF02200120704715
:103690004FF00000704700BF38B5044600284ED0F8
:1036A000C36A48F61832C2F207021068C16A8B4238
:1036B00045D248F61832C2F207021068C16AC1F159
:1036C0000A02228303EB830348F64C20C2F2070070
:1036D00000EB830162698A422AD104F1040528467D
:1036E00042F2F502C0F20802904748F61833C2F2DF
:1036F00007031868C16AE16248F64822C2F207026D
:103700001368994204D948F64820C2F207000160C4
:1037100001EB810148F64C221346C2F2070303EB8A
:103720008100294642F29102C0F20802904738BD5A
:1037300048F61833C2F207031868C16AE16238BD5F
:1037400038B5044650B3C26AC36C9A4226D000F121
:103750000405284642F2F501C0F208018847E06CF2
:10376000E062C0F10A02228348F64823C2F207034E
:103770001968884204D948F64822C2F2070210604C
:1037800000EB800348F64C20C2F2070000EB8300F8
:10379000294642F29102C0F20802904738BD00BFAC
:1037A00070B542F29913C0F20803984748F690307A
:1037B000C2F20700016849BB48F66435C2F207054A
:1037C000284642F27106C0F20806B04748F678343F
:1037D000C2F207042046B04748F66032C2F2070240
:1037E000156048F69433C2F207031C604FF00500E1
:1037F0004FF00C014FF0000242F23163C0F20803B7
:10380000984748F69031C2F20701086042F2C110B1
:10381000C0F20800804770BD10B504468180206169
:10382000914213D8D01A218B83B2994221D948F6FC
:103830009432C2F20702106804F1040142F2B103AB
:10384000C0F2080398474FF0000010BD9A4201D221
:10385000994211D248F66033C2F20703186804F1A6
:10386000040142F2B102C0F2080290474FF000009A
:1038700010BD4FF0010010BD4FF0010010BD00BFA2
:1038800010B584B043F2A173C0F20803984748F61C
:103890009030C2F207000168B9B14FF009020092FE
:1038A0004FF0000301930293039343F62920C0F2E3
:1038B000080047F6D441C0F208014FF4007242F606
:1038C0007534C0F20804A04730B942F28514C0F242
:1038D0000804A04700BFFDE704B010BD10B584B0D8
:1038E00048F69034C2F2070424683CB30191ADF865
:1038F00008200390BBB943F27163C0F208039847F4
:10390000012848F69033C2F20703186801A907BFDF
:10391000BDF8182000230022134642F29D64C0F235
:103920000804A0470CE0204601A91A464FF0000306
:1039300042F61D04C0F20804A04701E04FF0000069
:1039400004B010BD2DE9F04F85B0824642F6CD633C
:10395000C0F208039847814648F68C30C2F207004F
:103960000188494551D92DE0DC682688B6B2DD686A
:10397000EC6804F104052846C047616A2046884780
:10398000E06901282DD1238BF21891B2B14209D9F7
:10399000A18024613868294642F2B103C0F20803CD
:1039A00098471EE0CDF800B02046594632465B46A7
:1039B000039CA047A8B942F28517C0F20807B84790
:1039C00000BFFDE748F66037C2F2070742F2F5088C
:1039D000C0F208084FF0000B43F6DD03C0F2080305
:1039E00003933B6818680028BED148F69432C2F2AF
:1039F0000702116848F66030C2F2070001601360E8
:103A00004FF00103CAF8003003E04FF00002CAF89B
:103A1000002048F68C32C2F20702A2F80090484615
:103A200005B0BDE8F08F00BF2DE9F04F89B048F632
:103A3000603BC2F2070B42F6B963C0F2080303937E
:103A400043F6451AC0F2080ADBF800000268002AB3
:103A500000F0CD80C7683B889DB20398804704A8DA
:103A6000D0470646049A002A52D1854238D843F2FC
:103A70009100C0F208008047DBF80020D168CC68D4
:103A800004F1040042F2F507C0F20807B847E36901
:103A9000012B1FD1208B2A18204691B232462B468B
:103AA00043F61906C0F20806B047012812D14FF0BC
:103AB00000030093204619462A4643F6DD05C0F26E
:103AC0000805A84730B942F28517C0F20807B84781
:103AD00000BFFDE7616A204688471EE04FF0000501
:103AE000AE1B48F69034C2F207042068B1B242F629
:103AF0009D25C0F20805A84743F29107C0F20807C8
:103B0000B84750B942F27513C0F20803984704E071
:103B100043F29101C0F20801884704A8D047074644
:103B200048F69036C2F2070642F6CD05C0F2080507
:103B300042F2F508C0F2080843F61909C0F2080974
:103B40004CE0079C24B1636913B104F10400C04741
:103B5000059802282AD003283AD000283ED1BDF883
:103B60001830228B9918204689B23A46C847012856
:103B700034D1636A20469847E06901282ED1228B10
:103B8000BDF8181052184FF0000300932046194654
:103B900092B243F6DD04C0F20804A047F0B942F245
:103BA0008515C0F20805A84700BFFDE7BDF818005D
:103BB000208330B942F28516C0F20806B04700BF34
:103BC000FDE73918204689B23A463B46C84705E02A
:103BD000204642F21143C0F208039847306805A915
:103BE0004FF000021346A8470028AAD12CE70399FA
:103BF000884704A8D0470646049C002C3FF46EAFCB
:103C000086E700BFF0B48CB006460F4601AC47F61D
:103C1000DC45C0F208050FCD0FC40FCD0FC495E8E9
:103C2000070084E80700019BB7FBF3F0B0FBF6F157
:103C3000B1F5807F52D90299B7FBF1F2B2FBF6F1F0
:103C4000B1F5807F4DD9039BB7FBF3F0B0FBF6F1E4
:103C5000B1F5807F48D90499B7FBF1F2B2FBF6F1D8
:103C6000B1F5807F43D9059BB7FBF3F0B0FBF6F1CC
:103C7000B1F5807F3ED90699B7FBF1F2B2FBF6F1C0
:103C8000B1F5807F39D9079BB7FBF3F0B0FBF6F1B4
:103C9000B1F5807F34D90899B7FBF1F2B2FBF6F1A8
:103CA000B1F5807F2FD9099BB7FBF3F0B0FBF6F19C
:103CB000B1F5807F2AD90A99B7FBF1F2B2FBF6F190
:103CC000B1F5807F25D90B9BB7FBF3F0B0FBF6F184
:103CD000B1F5807F20D94FF6FF7021E04FF0000250
:103CE0001CE04FF0010219E04FF0020216E04FF025
:103CF000030213E04FF0040210E04FF005020DE064
:103D00004FF006020AE04FF0070207E04FF008020A
:103D100004E04FF0090201E04FF00A0241EA0220FC
:103D20000CB0F0BC704700BF70B506460C46086882
:103D300058B1896843F60543C0F2080398474FF627
:103D4000FF71884214D0054601E04FF0000560681D
:103D500058B1A16843F60542C0F2080290474FF6F9
:103D6000FF73984204D045EA004535604FF00000EB
:103D700070BD00BF70B40B688D8A4A6802F00F04F2
:103D800025430E8935438A7A45EA42258C7D45EAEA
:103D90000446CA7D46EA42450C7E45EA844603F164
:103DA00010024FEA421544194651CE6866600A690E
:103DB00000EB4315C5F80C228C7D3CB18E8B4A8BF1
:103DC00042EA064500EB4314C4F81852856C4FF0E4
:103DD000011606FA03F66FEA06021540CE7F06FAD0
:103DE00003F68C7F04FA03F444EA06442C4384640B
:103DF000456C2A4091F8215005FA03F591F82040CE
:103E000004FA03F444EA0544224342644FF00102F9
:103E100002FA03F291F822401CB1046A14430462CE
:103E200003E0046A24EA0204046291F82440012CAD
:103E3000846E0CBF14439443846691F82540012C92
:103E4000846E0CBF44EA024224EA02428266032BDB
:103E50000FD8C46E4FEAC3034FF0FF0202FA03F219
:103E600024EA020291F8231001FA03F31A43C2660E
:103E700010E0A3F10403046F4FEAC3034FF0FF0205
:103E800002FA03F224EA020291F8231001FA03F382
:103E90001A4302674FF0000070BC704710B40C6802
:103EA0000B69934207D3CA6000EB4410C0F80822A4
:103EB0004FF0000001E04FF6FF7010BC704700BFEC
:103EC0004FF0010303FA01F1416070474FF0010325
:103ED00003FA01F18160704710B54FF43D40C0F224
:103EE000015044F63D13C0F2080398474FF000001C
:103EF0004FF03E0144F21552C0F20802904744F2DE
:103F00008554C0F20804A0470028FCD044F2955024
:103F1000C0F2080080474FF4C061C4F20E0143F6BE
:103F20000173C2F20D038B6244F2A554C0F208047F
:103F3000A0470028FCD04FF0100044F27542C0F2B8
:103F40000802904744F27570C0F2080080474FF4B1
:103F50003D40C0F2015044F63D11C0F208018847CF
:103F600010BD00BF10B541F65023C4F20E034FF44C
:103F700000425A604FF00B0044F2B554C0F20804FE
:103F8000A0474FF00C00A0474FF00D00A0474FF0A6
:103F90000E00A0474FF03B004FF0605144F2C914AF
:103FA000C0F20804A0474FF055004FF06051A04701
:103FB0004FF056004FF06051A0474FF068004FF0AF
:103FC0007901C2F60001A0474FF05C004FF00101FB
:103FD000C2F60001A0474FF46060C4F20E004FF437
:103FE00040714FF0006244F2ED03C0F208039847BD
:103FF0004FF02B004FF00061A0474FF02A004FF028
:104000000061A04710BD00BF0AB14166704701665C
:10401000704700BF4264B1F1805F16D004D8C9B1C7
:10402000B1F1006F15D109E0B1F1405F12D0B1F1EB
:10403000605F0FD0B1F1205F0BD17047036F016F4C
:104040000B4023EA0203036703E0036F42EA030124
:1040500001674260704700BF41647047F8B504468D
:104060000D4616461F4644F25903C0F2080398470E
:1040700020462946069A44F20903C0F208039847ED
:104080000FB1256500E065650EB1256300E065634D
:1040900025612560F8BD00BF70B504460D46164683
:1040A00044F25903C0F2080398472046294606F017
:1040B000010244F20903C0F20803984716F00A0F00
:1040C00014BF2562656216F0020F02D0C4F880505A
:1040D00004E016F0080F18BFC4F88450656125602D
:1040E00070BD00BFC06C7047806C7047F0B583B086
:1040F00007460E46154602F0F044B4F1205F36D074
:1041000006D8B4F1006F0AD0B4F1805F4DD11AE047
:10411000B4F1405F33D0B4F1605F46D12FE04FF08F
:104120000061324644F21503C0F20803984738464E
:10413000314605F0010244F20903C0F20803984732
:104140004FF0010033E04FF08051324644F2150346
:10415000C0F2080398473846314605F0010244F2A0
:104160000903C0F2080398474FF001001FE044F232
:104170009903C0F2080398474FF0010017E005F0DB
:10418000605205F00100009038463146B2F1605FA0
:1041900014BF00220122C5F3800344F25D04C0F283
:1041A0000804A0474FF0010001E04FF0000003B009
:1041B000F0BD00BF4FEA501000F5001101F2077288
:1041C0004FEA4220704700BFF0B583B007460D4666
:1041D00044F2B513C0F208039847064605F0F044D0
:1041E000B4F1205F41D006D8B4F1006F0AD0B4F129
:1041F000805F62D120E0B4F1405F44D0B4F1605FF1
:104200005BD140E007F01F004FF0010404FA00F713
:1042100030464FF000613A4644F21503C0F20803FD
:1042200098473046394605EA040244F20903C0F2D1
:1042300008039847204642E007F01F074FF00104AB
:1042400004FA07F74FF080513A4644F21503C0F2E2
:10425000080398473046394605EA040244F2090348
:10426000C0F208039847204629E007F01F024FF0EC
:10427000010404FA02F12A4644F29903C0F2080349
:10428000984720461BE007F01F014FF0010405F09E
:10429000605205EA04000090304604FA01F1B2F1E0
:1042A000605F14BF00220122C5F3800344F25D0564
:1042B000C0F20805A847204601E04FF0000003B017
:1042C000F0BD00BF70B506460C4644F2E503C0F2EF
:1042D000080398470546304644F2E901C0F2080158
:1042E0008847054000F08C8048F69830C2F20700FD
:1042F0000068A0420CD148F69832C2F20702516819
:104300000D4205D01646D368984771688D4377D023
:1043100048F69830C2F207000069A0420CD148F676
:104320009832C2F2070251690D4205D01646D36990
:10433000984771698D4363D048F69830C2F2070000
:10434000006AA0420CD148F69832C2F20702516AC4
:104350000D4205D01646D36A9847716A8D434FD0F7
:1043600048F69830C2F20700006BA0420CD148F624
:104370009832C2F20702516B0D4205D01646D36B3C
:104380009847716B8D433BD048F69830C2F20700D6
:10439000006CA0420CD148F69832C2F20702516C70
:1043A0000D4205D01646D36C9847716C8D4327D0CB
:1043B00048F69830C2F20700006DA0420CD148F6D2
:1043C0009832C2F20702516D0D4205D01646D36DE8
:1043D0009847716D8D4313D048F69830C2F20700AC
:1043E000006EA0420CD148F69832C2F20702516E1C
:1043F000294205D048F69833C2F20703DA6E904797
:1044000070BD00BF08B54FF46060C4F20E004FF0FD
:104410000B0144F2C523C0F20803984708BD00BF52
:1044200008B54FF48050C4F20E004FF00C0144F276
:10443000C523C0F20803984708BD00BF08B54FF474
:104440009050C4F20E004FF00D0144F2C523C0F2AB
:104450000803984708BD00BF08B54FF4A050C4F248
:104460000E004FF00E0144F2C523C0F20803984736
:1044700008BD00BF4FF4C063C4F20E031A6B22F0F4
:10448000700108431863986E10F0080F07D010E011
:1044900000F1FF33906E10F0080F38D009E04FF4B0
:1044A00000604FF4C062C4F20E02916E11F0080F6A
:1044B000EED04FF4C061C4F20E010A6B22F0030388
:1044C00043F002000863896E11F0080F09D04FF025
:1044D0000000704703F1FF33916E11F0080F13D005
:1044E00009E04FF400634FF4C062C4F20E02906E14
:1044F00010F0080FEED04FF0000070474FF00100B1
:1045000070474FF001007047013BF0D1F9E7581EAA
:10451000CBD1F3E788B14FF4C061C4F20E01086A51
:104520004FF6FC72CFF6C86202404FF00203C0F2B1
:10453000371342EA0300086270474FF4C063C4F2C5
:104540000E031A6A22F45C1020F0030242F45C109D
:1045500040F001024FEA016142EA114018624FF453
:10456000C062C4F20E02936E13F0010FFBD04FF441
:10457000C061C4F20E01086A40F09B7242F48033BD
:104580000B6270474FF4C063C4F20E03986E00F4E0
:10459000803070474FF4C063C4F20E034FF00052F6
:1045A0009A6270474FF4C063C4F20E03986E00F035
:1045B000020070472C2835D81F2817D84FF4C06147
:1045C000C4F20E018A694FF0010303FA00F31A40A6
:1045D00093422AD04FF0010101FA00F04FF4C0627B
:1045E000C4F20E0210614FF0000070474FF4C06338
:1045F000C4F20E03D3F80821A0F120004FF001010E
:1046000001FA00F10A40914212D04FF0010303FA7F
:1046100000F04FF4C062C4F20E02C2F800014FF085
:10462000000070474FF0010070474FF000007047E6
:104630004FF00000704700BFFEE700BF38B540F202
:104640000003C2F2070347F68452C0F208029A42FE
:1046500003D040484049814204D3404B404A9A42EB
:1046600025D342E03F4D404C631B23F003054FF040
:10467000000340F20002C2F2070247F68451C0F282
:10468000080105F10400C5F380045D589D5003F155
:104690000403834255D1E0E75D589D5003F10403C4
:1046A0005C589C5003F104038342F5D1D5E72F4DAC
:1046B0002F49481B20F0030440F6D003C2F2070341
:1046C000E2184FF00001501BA0F10400C0F3800479
:1046D00045F8041F95422DD107E005F104036960F8
:1046E00005F1080559609542F7D140F20005C0F286
:1046F000080525F0604222F07F014FF46D40CEF2B4
:104700000000816005F16044B4F5801F07D24FF4CA
:104710006D43CEF200039D6845F000529A6045F269
:104720001D31C0F20801884740F68520C0F208001C
:104730008047FEE7002CD0D045F8041F9542CCD12D
:10474000D3E7002CA8D05C589C5003F104038342AB
:10475000A2D182E7D008072000000720CC8C0720D8
:10476000D008072004000720D3080720CC08072022
:10477000C78C07204FF4C063C4F20E03186B00F01F
:104780000301032900F2B180DFE801F002144F4F6A
:1047900041F61020C4F20E00416911F0800F40F282
:1047A0000C03C2F2070314BF4FF400424FF4FA4265
:1047B0001A609AE04FF4C063C4F20E03186A10F056
:1047C000807F09D04FF4D853C0F2B70340F20C02F7
:1047D000C2F20702136088E04FF41061C0F23D019D
:1047E00040F20C02C2F2070211604FF4C063C4F23F
:1047F0000E03186A00F07001102902D0202974D12C
:1048000009E04FF49050C0F27A0040F20C01C2F27D
:104810000701086069E04FF4D853C0F2B70340F2D3
:104820000C02C2F2070213605FE04FF4C062C4F2F0
:104830000E02136A13F0807F09D04FF4D851C0F2F2
:10484000B70140F20C02C2F20702116027E04FF4F8
:104850001060C0F23D0040F20C01C2F20701086096
:104860004FF4C062C4F20E02136A03F07000102805
:1048700002D0202813D109E04FF49053C0F27A03FC
:1048800040F20C00C2F20700036008E04FF4D85178
:10489000C0F2B70140F20C02C2F2070211604FF4FD
:1048A000C063C4F20E03186B00F00301022913D198
:1048B0004FF4C061C4F20E01886A896A40F20C03A9
:1048C000C2F20703C0F30A401A6800FB0220C9B213
:1048D000B0FBF1F21A6008E04FF4E053C0F64E630B
:1048E00040F20C02C2F2070213604FF4C062C4F23D
:1048F0000E02106B00F0700170290ED140F20C0313
:10490000C2F2070318684AF6AB22CAF6AA22A2FB33
:1049100000014FEA5100186070474FF4C063C4F2C1
:104920000E031A6B40F20C00C2F20700C2F3021130
:10493000036823FA01F30360704700BF4EF6BF23FC
:10494000C0F2211398420CD84FF42063C4F20E0336
:104950004FF0000018604FF44061C4F20E0108608F
:1049600070474FF27F01C0F2FA2188420CD84FF411
:104970002060C4F20E004FF4807101604FF4406279
:10498000C4F20E021160704748F6FF73C0F2D033D4
:1049900098420CD84FF42061C4F20E014FF400721B
:1049A0000A604FF44063C4F20E031A6070474BF282
:1049B000FF31C0F2C44188420CD84FF42063C4F2E6
:1049C0000E034FF440721A604FF44060C4F20E00C0
:1049D0000260704744F67F23C0F25D5398424FF463
:1049E0002060C4F20E0094BF4FF480624FF4A062C6
:1049F00002604FF44061C4F20E010A60704700BFCC
:104A000048F60843C2F20703196841B948F608435B
:104A1000C2F207034AF6D042C2F207021A6048F611
:104A20000841C2F207010B68181847F6FC72C2F27F
:104A30000802824206DB014648F60840C2F207003F
:104A4000016001E04FF0FF33184670474FF0FF3030
:104A5000704700BF4FF400534B604FF000007047A9
:104A60004FF00100704700BF4FF00000704700BFDB
:104A700081F0004102E000BF83F0004330B54FEA0F
:104A800041044FEA430594EA050F08BF90EA020F7C
:104A90001FBF54EA000C55EA020C7FEA645C7FEA0F
:104AA000655C00F0E2804FEA5454D4EB5555B8BF32
:104AB0006D420CDD2C4480EA020281EA030382EAA3
:104AC000000083EA010180EA020281EA0303362D35
:104AD00088BF30BD11F0004F4FEA01314FF4801C08
:104AE0004CEA113102D0404261EB410113F0004F1A
:104AF0004FEA03334CEA133302D0524263EB4303D1
:104B000094EA050F00F0A780A4F10104D5F1200E6E
:104B10000DDB02FA0EFC22FA05F2801841F10001C9
:104B200003FA0EF2801843FA05F359410EE0A5F19D
:104B300020050EF1200E012A03FA0EFC28BF4CF0CE
:104B4000020C43FA05F3C01851EBE37101F0004584
:104B500007D54FF0000EDCF1000C7EEB00006EEB91
:104B60000101B1F5801F1BD3B1F5001F0CD349081B
:104B70005FEA30004FEA3C0C04F101044FEA445272
:104B800012F5800F80F09A80BCF1004F08BF5FEAF9
:104B9000500C50F1000041EB045141EA050130BDD9
:104BA0005FEA4C0C404141EB010111F4801FA4F17C
:104BB0000104E9D191F0000F04BF01460020B1FAD1
:104BC00081F308BF2033A3F10B03B3F120020CDA09
:104BD0000C3208DD02F1140CC2F10C0201FA0CF0E7
:104BE00021FA02F10CE002F11402D8BFC2F1200C4C
:104BF00001FA02F120FA0CFCDCBF41EA0C01904002
:104C0000E41AA2BF01EB0451294330BD6FEA04044A
:104C10001F3C1CDA0C340EDC04F11404C4F1200235
:104C200020FA04F001FA02F340EA030021FA04F347
:104C300045EA030130BDC4F10C04C4F1200220FA9E
:104C400002F001FA04F340EA0300294630BD21FADC
:104C500004F0294630BD94F0000F83F4801306BFA2
:104C600081F480110134013D4EE77FEA645C18BF96
:104C70007FEA655C29D094EA050F08BF90EA020F2D
:104C800005D054EA000C04BF1946104630BD91EA25
:104C9000030F1EBF0021002030BD5FEA545C05D128
:104CA0004000494128BF41F0004130BD14F5800467
:104CB0003CBF01F5801130BD01F0004545F0FE41DB
:104CC00041F470014FF0000030BD7FEA645C1ABF10
:104CD000194610467FEA655C1CBF0B46024650EA47
:104CE000013406BF52EA033591EA030F41F4002173
:104CF00030BD00BF90F0000F04BF0021704730B5F9
:104D00004FF4806404F132044FF000054FF00001CD
:104D100050E700BF90F0000F04BF0021704730B58E
:104D20004FF4806404F1320410F0004548BF404263
:104D30004FF000013EE700BF42004FEAE2014FEAB8
:104D400031014FEA02701FBF12F07F4393F07F4F93
:104D500081F06051704792F0000F14BF93F07F4FC5
:104D6000704730B54FF4607401F0004521F0004108
:104D700020E700BF50EA010208BF704730B54FF08E
:104D800000050AE050EA010208BF704730B511F093
:104D9000004502D5404261EB41014FF4806404F1CB
:104DA00032045FEA915C3FF4DCAE4FF003025FEA4D
:104DB000DC0C18BF03325FEADC0C18BF033202EBD5
:104DC000DC02C2F1200300FA03FC20FA02F001FA2F
:104DD00003FE40EA0E0021FA02F11444C1E600BFCE
:104DE00070B54FF0FF0C4CF4E06C1CEA11541DBF81
:104DF0001CEA135594EA0C0F95EA0C0F00F0DEF84C
:104E00002C4481EA030621EA4C5123EA4C5350EA30
:104E1000013518BF52EA033541F4801143F4801381
:104E200038D0A0FB02CE4FF00005E1FB02E506F012
:104E30000042E0FB03E54FF00006E1FB03569CF067
:104E4000000F18BF4EF0010EA4F1FF04B6F5007F6D
:104E500064F5407404D25FEA4E0E6D4146EB0606DF
:104E600042EAC62141EA55514FEAC52040EA5E5068
:104E70004FEACE2EB4F1FD0C88BFBCF5E06F1ED812
:104E8000BEF1004F08BF5FEA500E50F1000041EB49
:104E9000045170BD06F0004646EA010140EA0200F6
:104EA00081EA0301B4EB5C04C2BFD4EB0C0541EA18
:104EB000045170BD41F480114FF0000E013C00F32D
:104EC000AB8014F1360FDEBF002001F0004170BD51
:104ED000C4F10004203C35DA0C341BDC04F114046A
:104EE000C4F1200500FA05F320FA04F001FA05F2F6
:104EF00040EA020001F0004221F0004110EBD370C3
:104F000021FA04F642EB06015EEA430E08BF20EAEE
:104F1000D37070BDC4F10C04C4F1200500FA04F391
:104F200020FA05F001FA04F240EA020001F0004123
:104F300010EBD37041F100015EEA430E08BF20EA96
:104F4000D37070BDC4F1200500FA05F24EEA020EDE
:104F500020FA04F301FA05F243EA020321FA04F00D
:104F600001F0004121FA04F220EA020000EBD370C4
:104F70005EEA430E08BF20EAD37070BD94F0000FC4
:104F80000FD101F00046400041EB010111F4801FF8
:104F900008BF013CF7D041EA060195F0000F18BFA9
:104FA000704703F00046520043EB030313F4801FE5
:104FB00008BF013DF7D043EA0603704794EA0C0F9F
:104FC0000CEA135518BF95EA0C0F0CD050EA4106B5
:104FD00018BF52EA4306D1D181EA030101F0004132
:104FE0004FF0000070BD50EA410606BF104619465A
:104FF00052EA430619D094EA0C0F02D150EA013666
:1050000013D195EA0C0F05D152EA03361CBF1046A6
:1050100019460AD181EA030101F0004141F0FE4145
:1050200041F470014FF0000070BD41F0FE4141F4C9
:10503000780170BD70B54FF0FF0C4CF4E06C1CEAC9
:1050400011541DBF1CEA135594EA0C0F95EA0C0F7E
:1050500000F0A7F8A4EB050481EA030E52EA033539
:105060004FEA013100F088804FEA03334FF080555A
:1050700045EA131343EA12634FEA022245EA111587
:1050800045EA10654FEA00260EF000419D4208BF38
:10509000964244F1FD0404F5407402D25B084FEAE5
:1050A0003202B61A65EB03055B084FEA32024FF491
:1050B00080104FF4002CB6EB020E75EB030E22BFEE
:1050C000B61A754640EA0C005B084FEA3202B6EBAE
:1050D000020E75EB030E22BFB61A754640EA5C005D
:1050E0005B084FEA3202B6EB020E75EB030E22BFED
:1050F000B61A754640EA9C005B084FEA3202B6EBEE
:10510000020E75EB030E22BFB61A754640EADC00AC
:1051100055EA060E18D04FEA051545EA16754FEA0E
:1051200006164FEAC30343EA52734FEAC2025FEA2C
:105130001C1CC0D111F4801F0BD141EA00014FF0BB
:1051400000004FF0004CB6E711F4801F04BF01438C
:105150000020B4F1FD0C88BFBCF5E06F3FF6AFAEA8
:10516000B5EB030C04BFB6EB020C5FEA500C50F138
:10517000000041EB045170BD0EF0004E4EEA1131BB
:1051800014EB5C04C2BFD4EB0C0541EA045170BDC2
:1051900041F480114FF0000E013C90E645EA060E06
:1051A0008DE60CEA135594EA0C0F08BF95EA0C0F34
:1051B0003FF43BAF94EA0C0F0AD150EA01347FF47C
:1051C00034AF95EA0C0F7FF425AF104619462CE753
:1051D00095EA0C0F06D152EA03353FF4FDAE1046B6
:1051E000194622E750EA410618BF52EA43067FF407
:1051F000C5AE50EA41047FF40DAF52EA43057FF497
:10520000EBAE12E74FEA410212F5001215D211D5AA
:105210006FF47873B3EB625212D94FEAC12343F0B3
:10522000004343EA505311F0004F23FA02F018BF35
:10523000404270474FF00000704750EA013005D1FE
:1052400011F0004008BF6FF0004070474FF00000C1
:10525000704700BF2DE9F8439846234B06461C686B
:105260000F46D4F84801914618B904F5A670C4F861
:10527000480141681F2916DD1C4818B94FF0FF305E
:10528000BDE8F8834FF4C87001F0CEFB0028F5D0DC
:10529000D4F84821002545600260C4F84801C0F8F0
:1052A0008851C0F88C51B6B14468012202FA04F268
:1052B000D0F8881100EB84031143022EC3F88890C4
:1052C000C0F888111C46C3F8088104D1D0F88C318D
:1052D0001A43C0F88C2141688B1C4A1C40F823708B
:1052E00042600020BDE8F883087D0800296A0800B4
:1052F00070B5084B084C0025E01A841003EB8406B7
:10530000043D1CB172599047013CF9E7BDE870407B
:1053100002F02CBD787D08007C7D080038B50E4D6C
:105320000E4B0024E81A8510AC4205D00B4951F809
:10533000242090470134F7E702F00EFD0849094A9E
:10534000541AA5100024AC4205D0054B53F8240094
:1053500080470134F7E738BD647D0800647D0800AC
:10536000647D08006C7D08000FB407B5064904ABE6
:10537000086853F8042B8168019300F005F9BDE833
:105380000E4004B0704700BF100007200EB403B5F4
:1053900003AB53F8042B8168019300F0F5F8BDE8E6
:1053A0000C4003B0704700BF10B50023934203D0F8
:1053B000CC5CC4540133F9E710BD82180346934214
:1053C00002D003F8011BFAE7704700290CBF022244
:1053D00000224FF4806300F00FB80000EC46A0E814
:1053E000F05F4FF000007047B0E8F05FE54608005E
:1053F00008BF0120704700BF2DE9F0411D46374B23
:10540000044618680E461746984618B1826B0AB9CA
:1054100000F0C8FE022F5DD8002D5BDB2146D8F8D6
:10542000000000F0CDFDA189002001F080031AB238
:105430006060A06122B129482169006800F0F0FF96
:10544000A189022F21F08303A38112D036BB002D46
:1054500008BF4FF48065284601F0E6FA0646C8B951
:105460004FF4806001F0E0FA064688B94FF0FF3053
:1054700000E00020A189002241F00203A38104F191
:1054800043010123A260216021616361BDE8F081D5
:105490004FF48065A28942F08000A081012F05D1E0
:1054A000A1896A4241F00103A381A2610B48A2894C
:1054B00001680B4B02F0080000B2CB632660266146
:1054C000656148B112F0030F18BF0025A5600020E8
:1054D000BDE8F0814FF0FF30BDE8F08110000720FB
:1054E00019610800034613F8012B002AFBD1181A92
:1054F0000138704730B5013903461C463AB111F8FE
:10550000015F013A03F8015B1C46002DF5D19918A3
:105510008C4203D0002204F8012BF9E730BD0000D3
:1055200093682DE9F04781460F4614461BB9536036
:105530001846BDE8F0874B6E9B041ED51568A06821
:105540000835C8B155F8041C55F808AC4FEA910865
:105550000026464509DA48465AF826103A4600F031
:105560009DFE431C0BD00136F3E7A2684FEA880882
:10557000C8EB0203A360E2E701E001F007F80021B5
:10558000A1606160BDE8F0872DE9F04F8946A9B0C0
:1055900014461D461E46824618B1836B0BB900F0B7
:1055A00001FEB9F80C0000F4005211B249B940F400
:1055B0000053D9F86400A9F80C3020F40052C9F85F
:1055C0006420B9F80C1001F0080318B248B1D9F8FA
:1055D000102032B1B9F80C1001F01A030A2B16D1C1
:1055E00009E05046494600F07FFC0028F2D04FF019
:1055F000FF320392D3E3B9F90E00002807DB5046CF
:10560000494622462B4600F0CEFB0390C7E300221A
:1056100018AD0B950D920C92019405920392A84639
:1056200001990C4611F8013B0BB1252BF9D1019AD8
:10563000A51A19D00C990D984B1C88E82400072B4B
:1056400000EB05020D9208F108080C9309DD5046A5
:1056500049460BAAFFF764FF002840F098830DF13C
:1056600060080398421903922178002900F088838A
:105670000022013401948DF827204FF0FF3C049262
:105680001746019810F8013B0190632B00F0B3809E
:1056900033DC392B1ADC312B80F291802B2B01D19A
:1056A0001A46EEE70ADC232B55D02A2B56D0202BA6
:1056B00040F0F581002A08BF2022E2E72E2B58D0C7
:1056C000302B79D02D2B40F0EA814FE04F2B00F0AA
:1056D000DE8007DC442B40F0E2818DF8272047F084
:1056E000100790E0552B00F01F81582B40F0D78118
:1056F000AE4D8DF82720059530E16F2B00F0C98065
:1057000010DC692B24D007DC642B21D0682B40F0FF
:10571000C68147F04007B4E76C2B5FD06E2B40F09A
:10572000BE8196E0732B00F0DF8006DC702B00F06A
:10573000CD80712B40F0B3815AE0752B00F0F680DC
:10574000782B40F0AC819A4D8DF82720059505E126
:105750008DF8272057E047F0010792E7331D3668A0
:10576000002E049615DA704204901E4647F0040796
:1057700087E7019911F8013B2A2B01910BD1D6F84B
:1057800000C0331DBCF1000F03DA1E464FF0FF3C92
:1057900077E71E4675E74FF0000CA3F130000928AB
:1057A00007D801990A2303FB0C0C11F8013B019166
:1057B000F3E74CEAEC7C68E747F0800761E7019883
:1057C0000021303B0A2404FB013110F8013BA3F116
:1057D0003004092C0190F4D9049156E701990B7813
:1057E0006C2B02D1481C019002E047F0100748E7FB
:1057F00047F0200745E7326800258DF838208DF8FE
:105800002750043655E1BA0607D5073626F00705B6
:1058100005F10806D5E900450FE017F0100F06F175
:10582000040101D0326805E017F0400F326801D062
:1058300014B200E01446E5170E46002C75F1000284
:1058400080F2B8802D23644265EB45058DF8273042
:10585000B0E017F0200F8DF8272006F1040205D0E4
:10586000039C3568E0172C60686004E0FB0604D5F3
:105870003368039919601646D2E63068039C17F026
:10588000400F06F1040614BF04800460C8E647F028
:10589000100717F0200008D0F31D23F0070505F1CD
:1058A0000806D5E9004500207CE017F0100106F15C
:1058B000040206D117F0400003D0348800251646B4
:1058C000F1E736680025344616466BE0384B302148
:1058D00078223468002547F002078DF828108DF8EB
:1058E0002920043605935CE031460025D1F800B04C
:1058F0000436AC458DF82750584611DB62462946E0
:10590000CDF800C001F0A2FADDF800C0002800F0D8
:10591000D480CBEB0004644540F3D1806446CEE0F4
:10592000FFF7E0FD0446CAE047F01007BD0606D5C4
:10593000F01D20F0070404F1080630CC0CE017F04D
:10594000100F06F1040303D17C0601D5348801E071
:1059500035682C4600251E46012023E0B80607D5F1
:10596000F41D24F0070101F10806D1E900450CE01F
:1059700017F0100F06F1040003D1790601D5348821
:1059800001E03668344600250646FA0709D554EA90
:10599000050206D030228DF828208DF8293047F0F6
:1059A0000207022000218DF8271004E02E7D080058
:1059B0003F7D08000120BCF1000FA8BF27F0800741
:1059C00054EA050102D1BCF1000F58D001281DD0C6
:1059D00002280DF15F0341D004F00702E40844EA15
:1059E0004570E90804460D46303254EA05019B46ED
:1059F0001A7003F1FF33EFD1F8075D464AD5302A1C
:105A000048D030229B4605F8012C43E0002D08BF0A
:105A10000A2C03D230348DF85F4036E00DF15F037D
:105A20000293204629460A220023CDF800C001F047
:105A30000FFD0298303200F8012929460A2200237E
:105A4000DDF808B00290204601F002FD04460D4644
:105A500054EA0501DDF800C0E3D11BE0059904F02C
:105A60000F0024090A5C44EA0570290904460D4622
:105A70009B4603F8012954EA0502EFD10AE038B940
:105A8000F90705D530208DF85F000DF15F0B01E0BF
:105A90000DF1600B18ADCBEB050465460FE08DF8FA
:105AA0002720002B00F06C8100258DF838308DF810
:105AB000275001240DF1380B01E0644605469DF89E
:105AC0002730AC42ACBF21462946029113B102985F
:105AD000421C029217F00201069102D0029B981C10
