S0120000486F76657243726166742E737265631E
S214080000A8290720450C0800410C0800410C0800E8
S214080010410C0800410C0800410C080000000000D4
S2140800200000000000000000000000000D050800A9
S214080030410C08000000000045050800810508007E
S214080040410C0800410C0800410C0800410C08004F
S214080050410C0800410C0800410C0800410C08003F
S214080060410C0800410C080000000000B10A080016
S214080070C50A0800D90A0800ED0A080000000000B2
S21408008000000000410C0800410C0800410C080064
S214080090410C0800410C0800410C0800410C0800FF
S2140800A0410C080000000000410C0800410C080044
S2140800B0410C0800410C0800410C0800410C0800DF
S2140800C0410C0800410C0800410C0800410C0800CF
S2140800D0410C0800410C0800410C0800410C0800BF
S2140800E0410C0800410C0800410C0800410C0800AF
S2140800F0410C080008B50548054B1B1A062B00D806
S21408010008BD044B002BFBD09847F9E7F01C080005
S214080110F31C08000000000008B50748074B1B1A28
S2140801209B1003EBD373591000D108BD044A002A6C
S214080130FBD09047F9E700BFF01C0800F01C080049
S2140801400000000010B5064C237843B9FFF7D2FF2D
S214080150044B13B10448AFF300800123237010BD8D
S2140801604808072000000000F01C080008B5084BE7
S2140801701BB108480849AFF300800848036813B164
S214080180074B03B19847BDE80840FFF7C5BF00BF57
S21408019000000000F01C08004C080720F01C0800AF
S2140801A000000000F0B583B004460D461F4B984289
S2140801B007D11F461E4E38462946B0470028FAD1B2
S2140801C019E01C4B984209D11F461B4E384601A918
S2140801D0B0470028FAD1019B2B7019E0174B9842BC
S2140801E009D11E46144C304601A9A0470028FAD16A
S2140801F0019B2B7018E0124B9C4209D11E460E4CF0
S214080200304601A9A0470028FAD1019B2B700BE0C5
S2140802100C4B9C4208D11E46074C304601A9A04705
S2140802200028FAD1019B2B7003B0F0BD00080E40E1
S2140802308504080000800940B104080000C0094091
S21408024000000A4000400A4070B50C46214B984210
S21408025007D11E46204D30462146A8470028FAD129
S2140802602BE01E4B984207D11E461D4D30462146B0
S214080270A8470028FAD122E01A4B984207D11E4612
S214080280174D30462146A8470028FAD119E0164BE4
S214080290984207D11E46124D30462146A8470028E8
S2140802A0FAD110E0114B98420FD11E460C4D30463D
S2140802B02146A8470028FAD109E0012070BD012090
S2140802C070BD012070BD012070BD002070BD0120EA
S2140802D070BD00BF00080E40710408000080094089
S2140802E09904080000C0094000000A4000400A407F
S2140802F030B585B008201D4DA8471D4C1D4B1C6009
S2140803001D4A1E4B1A601E4A1E4B1A601E4B00934F
S2140803104FF4E13301934FF4006302930820A84793
S21408032020466946194B9847194D2B68986800214E
S214080330184CA0472B6858680021A047164B4FF466
S21408034080725A665A655A62C3F880201A6F22F479
S21408035080721A672B6898680021A0470F4B984749
S2140803600F4B9847002005B030BD00BFE90B0800CA
S21408037000080E409C090720490208009809072033
S214080380A50108009409072000BD010539040800E6
S214080390080007206D0F0800000E0E40C107080071
S2140803A05D0708002DE9F0410C46904660B9002A22
S2140803B00EDD8F18094E0A4D306821462B6898477F
S2140803C00134BC42F8D106E04FF0FF30BDE8F081BA
S2140803D00020BDE8F0814046BDE8F0819C09072072
S2140803E0940907202DE9F0410E46154601380228E3
S2140803F00FD892B10024DFF83C800D4FD8F80000E3
S214080400315D3B68984700280ADB0134A542F5D1E0
S2140804100AE04FF0FF30BDE8F0810020BDE8F0812B
S2140804204FF0FF30BDE8F0812046BDE8F08100BF00
S214080430980907209C09072010B4AC2303600A68B3
S2140804404B68B2FBF3F31B095C1E4FF6FE72944230
S2140804500AD803628B68436040F20223C0F8203152
S21408046050230360002000E001205DF8044B70472D
S214080470436913F0020F02D0C161002070470120C3
S214080480704700BF436913F0010F03D083690B70F0
S2140804900020704701207047436913F0020F04D00C
S2140804A0C1F30801C161002070470120704700BFF2
S2140804B0436913F0010F05D08369C3F308030B6083
S2140804C0002070470120704743685A684A604268AF
S2140804D08A605A6891605960416008610368013310
S2140804E003607047436882689A60836842685A6007
S2140804F003695A68824204BF82685A600022026111
S2140805001A68013A1A601868704700BF064B1968DF
S2140805100868B0E8F00F80F309884FF0000080F311
S21408052011884EF00D0E7047D8080720EFF311809B
S2140805304FF0A00181F311887047002080F31188DE
S214080540704700BFEFF309800C4B1A6820E9F00FDC
S21408055010602DE908404FF0A00080F3118800F0E5
S214080560B5F84FF0000080F31188BDE80840196818
S2140805700868B0E8F00F80F309887047D8080720A5
S21408058008B54FF08052054B1A60054B9847054B47
S21408059098470020044B984708BD00BF04ED00E0CC
S2140805A02D050800AD0508003D0508002DE9F041B9
S2140805B03A4B1B68002B6BD1394B1A6801321A600C
S2140805C01B6803BB374B1B681B681BB1364B984729
S2140805D000BFFDE7334B1968344A1068186011608D
S2140805E0334A1168013111601B681B6823B94FF044
S2140805F0FF32304B1A6006E02A4B1B68DB68DB6864
S2140806005A682C4B1A60264B1A682A4B1B689A4263
S21408061042D3244B1B681B684BB1224B1B68DB6814
S214080620DC6863681E4A1268934213D90EE04FF0DE
S214080630FF32204B1A60BDE8F0811A4B1B68DB6856
S214080640DC686368164A1268934207D9194A136029
S214080650BDE8F081184E194FDFF86C80251D284636
S214080660B047A36A13B104F11800B047E36A3A68C2
S214080670934288BF3B6003EB830008EB8000294663
S2140806800F4B9847074B1B681B68002BD5D1CEE746
S2140806900C4B1A6801321A60BDE8F081DC080720A6
S2140806A0E0080720680807202D050800E40807204A
S2140806B0D408072000000720E50408006C08072077
S2140806C0C9040800640807207008072008B51D4BF1
S2140806D01B685BB91C4B1B6803EB83039B001B4A18
S2140806E0D358CBB9184B1B6853B905E00122184BF1
S2140806F01A6008BD1A682AB9164B984700BFFDE766
S214080700114B12491A68013A1A601A6802EB8202FB
S21408071051F82220002AEDD00B4B1B6803EB83030D
S2140807200A4A02EB83035A6852685A6003F10801C2
S2140807308A4204BF52685A605B68DA68064B1A60D9
S21408074008BD00BFDC0807206C08072070080720D3
S214080750E80807202D050800D808072010B50E4819
S2140807600E4B984700203E210D4B98470D4CA0474E
S2140807700028FCD00C4B98470C4A0D4B9A620D4C3F
S214080780A0470028FCD010200B4B98470B4B9847E7
S2140807900148024B984710BD00BD0105110E080020
S2140807A0650B0800B90B0800C90B0800013F0D20AF
S2140807B000060E40D90B0800010B0800F50C0800CF
S2140807C010B54FF40042174B5A600B20164CA04742
S2140807D00C20A0470D20A0470E20A0473B204FF036
S2140807E06051124CA04755204FF06051A047562044
S2140807F04FF06051A04768200D49A0475C200D497E
S214080800A0470D484FF440714FF000620B4B9847D5
S2140808102B204FF00061A0472A204FF00061A04728
S21408082010BD00BF501A0E40E90B0800E508080086
S2140808307900002801000028000E0E40B9090800BB
S2140808404264B1F1805F16D004D8C1B1B1F1006F2F
S2140808500AD013E0B1F1405F11D0B1F1605F0ED05D
S214080860B1F1205F0AD17047036F016F0B4023EA8E
S2140808700203036702E0036F13430367426070478F
S214080880416412F0010F14BF4166016612F00A0FA8
S21408089014BF0162416212F0020F02D0C0F8801045
S2140808A004E012F0080F18BFC0F884104161016018
S2140808B0704700BF10B44164019C0CB1416600E06B
S2140808C001660BB1016500E041650AB1016300E00D
S2140808D04163016101605DF8044B7047C06C704766
S2140808E0806C704770B582B00D46440904F5001454
S2140808F004F20774660201F0F044B4F1205F30D0C9
S21408090006D8B4F1006F0AD0B4F1805F18D049E079
S214080910B4F1405F30D0B4F1605F2DD042E000F013
S2140809201F000124844030464FF0006122461F4BCA
S214080930984715F0010F14BF74663466012032E03C
S21408094000F01F000124844030464FF080512246B4
S214080950164B984715F0010F14BF746634660120CD
S21408096021E000F01F010124304604FA01F12A466E
S2140809700F4B9847204616E000F01F01012405F0AB
S214080980605205EA04030093304604FA01F1B2F116
S214080990605F14BF00220122C5F38003054DA847F7
S2140809A0204600E0002002B070BD00BF41080800E5
S2140809B081080800B5080800F0B583B007460E465B
S2140809C0154602F0F044B4F1205F26D006D8B4F1FC
S2140809D0006F0AD0B4F1805F13D034E0B4F1405F02
S2140809E01FD0B4F1605F1CD02DE04FF00061324696
S2140809F0164B984715F0010F14BF7E663E66012019
S214080A0022E04FF080513246104B984715F0010F00
S214080A1014BF7E663E66012016E00D4B98470120FF
S214080A2012E005F0605205F001030093384631469F
S214080A30B2F1605F14BF00220122C5F38003054CA3
S214080A40A047012000E0002003B0F0BD41080800E0
S214080A5081080800B50808002DE9F04104460E464E
S214080A60104B9847054620460F4B9847054017D029
S214080A700E4F07F10C046C3754F80C3CB3420AD1FD
S214080A8054F8081C294206D023683046984754F87C
S214080A90083C25EA0305BC4202D01034002DEBD1F1
S214080AA0BDE8F081DD080800E1080800EC0807202A
S214080AB008B502480B21024B984708BD000E0E40A9
S214080AC0590A080008B502480C21024B984708BD89
S214080AD000100E40590A080008B502480D21024BBE
S214080AE0984708BD00120E40590A080008B5024883
S214080AF00E21024B984708BD00140E40590A0800FC
S214080B00174B1A6B22F07002104318639B6E13F093
S214080B10080F09D14FF40063114901E0013B19D0D1
S214080B208A6E12F0080FF9D00D4B1A6B22F00302EA
S214080B3042F002021A63986E10F008000CD14FF4C7
S214080B400063074901E0013B08D08A6E12F0080FDF
S214080B50F9D0704701207047002070470120704781
S214080B6000060E4038B111490B6A114A1A40114B5B
S214080B7013430B6270470D4A136A23F45C1323F081
S214080B80030343F45C1343F00103090289B20B43E1
S214080B901362936E13F0010FFBD0044A136A43F0F6
S214080BA09B7343F480331362704700BF00060E4001
S214080BB0FCFFC8FE02003701024B986E00F4803036
S214080BC0704700BF00060E404FF00052014B9A6275
S214080BD0704700BF00060E40024B986E00F00200F9
S214080BE0704700BF00060E402C2820D81F280DD8B6
S214080BF0124B9A69012383401A40934219D0012365
S214080C0003FA00F00D4B1861002070470B4BD3F821
S214080C1008212038012383401A4093420BD0012331
S214080C2003FA00F0054BC3F80001002070470120C6
S214080C307047002070470020704700BF00060E402F
S214080C40FEE700BF10B51E4B1E4A9A4203D01E4B45
S214080C501B4A9A4204D31D4B1D4A9A420FD31AE0E8
S214080C601C4B1D4CE41A24F00304043400231448D7
S214080C7014495A581A500433A342FAD1EBE7174BD3
S214080C801749C91A21F003011A1D1144002243F816
S214080C90042F8B42FBD1134A22F0604323F07F03D4
S214080CA011498B6002F16042B2F5801F03D28A6850
S214080CB042F000528A600D4B98470D4B9847FEE766
S214080CC000000720F01C080048080720A409072091
S214080CD048080720040007204B0807204408072078
S214080CE09F0907200000080000ED00E0110F08002B
S214080CF0F10208003E4B1B6B03F00303032B5FD87F
S214080D00DFE803F0020E2B2B3A4B5B6913F0800FDB
S214080D1014BF4FF400424FF4FA42374B1A604FE0C4
S214080D20334B1B6A13F0807F03D0344A324B1A6069
S214080D3046E0334A304B1A602D4B1B6A03F07003AB
S214080D40102B02D0202B04D03AE02E4A2A4B1A60E9
S214080D5036E02A4A284B1A6032E0254B1B6A13F005
S214080D60807F03D0254A244B1A6012E0244A224B7F
S214080D701A601F4B1B6A03F07003102B02D0202B3F
S214080D8004D006E01F4A1C4B1A6002E01B4A1A4BA6
S214080D901A60174B1B6B03F00303022B0DD1144B81
S214080DA0986A996A144BC0F30A401A6800FB022234
S214080DB0C9B2B2FBF1F21A6002E0134A0E4B1A608F
S214080DC00B4B1B6B03F07003702B07D10A4B1A688A
S214080DD00E49A1FB020252081A607047044B196BB1
S214080DE0054BC1F302111A68CA401A60704700BF63
S214080DF000060E40101A0E4004000720001BB7001D
S214080E0000093D0000127A00001C4E0EABAAAAAAE2
S214080E101B4B984206D800231A4A136002F5007244
S214080E2013607047184B984207D84FF48073154ADA
S214080E30136002F5007213607047144B984207D887
S214080E404FF400730F4A136002F500721360704780
S214080E500F4B984207D84FF440730A4A136002F5BE
S214080E600072136070470B4B984294BF4FF4806330
S214080E704FF4A063034A136002F5007213607047CC
S214080E80BFEA2101000A0E407FF0FA02FF8FD00366
S214080E90FFB3C4047F4A5D05094B1B6813B9094AAA
S214080EA0074B1A60064B1B681A180749914204DB61
S214080EB01046034A1060184670474FF0FF307047D8
S214080EC05C090720A8290720FC7F08204FF0FF3080
S214080ED0704700BF002070470146002002460346C0
S214080EE000F0C0B838B5084D084C641BA41005EBD4
S214080EF0840524B155F8043D013C9847F9E7BDE858
S214080F00384000F0EDBE00BFEC1C0800F01C0800DE
S214080F1070B50E4B0E4D0024ED1AAD101E46AC42B1
S214080F2004D056F8242090470134F8E700F0CEFEA7
S214080F30084D094B0024ED1AAD101E46AC4204D0ED
S214080F4056F8242090470134F8E770BDD81C0800EE
S214080F50D81C0800E01C0800D81C080002440346F9
S214080F60934202D003F8011BFAE7704700290CBF2A
S214080F70022200224FF4806300F000B82DE9F04109
S214080F801D46364B04461F680E46904627B1BB6B77
S214080F9013B9384600F090F9B8F1020F59D8002D69
S214080FA057DB3846214600F03EF900236360A3610C
S214080FB0A3891B0603D53846216900F095FAA3894C
S214080FC0B8F1020F23F08303A38112D036BB002D9D
S214080FD008BF4FF48065284600F078FB0646C8B977
S214080FE04FF4806000F072FB064688B94FF0FF3079
S214080FF000E00020A38943F00203A3810023A36036
S21408100004F143032360236101236361BDE8F08193
S2140810104FF48065A38943F08003A381B8F1010FDC
S21408102005D1A38943F00103A3816B42A3610C4B4E
S214081030FB63A389266003F0080080B22661656119
S21408104048B113F0030F18BF0025A5600020BDE8BF
S214081050F0814FF0FF30BDE8F08100BF08000720A0
S214081060751208002DE9F8439846224B06461C6878
S2140810700F46D4F84801914618B904F5A670C4F886
S214081080480143681F2B16DD1B4B1BB94FF0FF307A
S214081090BDE8F8834FF4C87000F018FB0028F5D0B8
S2140810A0D4F84811002545600160C4F84801C0F826
S2140810B08851C0F88C514468A6B10122A24000EBC2
S2140810C08405C5F88890D0F88811022E41EA0201F6
S2140810D0C0F88811C5F8088104D1D0F88C311A43B5
S2140810E0C0F88C21631C0234436040F8247000204A
S2140810F0BDE8F883C41C0800CD160800024B13B1DF
S2140811000248FFF7E9BE704700000000E50E080039
S2140811108A892DE9F04193B2054618070C465ED435
S2140811204B6842F40062002B8A8102DCCB6B002BF2
S21408113018DDA66AB6B102F48052002392B22F6870
S2140811402B600AB1226D10E0E16928460123B047FA
S214081150411C024609D12B683BB11D2B01D0162B2A
S2140811604AD12F600020BDE8F081A3895B0705D52A
S2140811706368D21A236B0BB1E36BD21AA66A2846A9
S214081180E1690023B047461CA28905D12B681BB12C
S2140811901D2B01D0162B1DD1002322F4006292B21B
S2140811A063602369D104A281236004D5421C01D15F
S2140811B02B6803B92065216B2F600029D2D004F173
S2140811C04003994202D0284600F08EF9002020639A
S2140811D0BDE8F08142F04002A281BDE8F0810E69C8
S2140811E0002EBFD09B070A680CBF4B690023C6EBCE
S2140811F002080E608B6012E0A3894FF0FF3043F0C0
S2140812004003A381BDE8F081676A2846E169324653
S2140812104346B8470028EFDD0644C0EB0808B8F197
S214081220000FF1DC9EE738B50C46054618B1836B0F
S2140812300BB900F041F8B4F90C0028B1284621464D
S214081240BDE83840FFF764BF38BD014620B9044BF7
S2140812500449186800F01CBA034B1868FFF7E3BF88
S214081260C41C080027120800080007200020704742
S21408127000207047014900F0EFB900BF6D1C080058
S21408128070B54B1E68255D430E4605F1740100F0E7
S2140812902DFA044640B1002180E842000C30A060D8
S2140812A005F16802FFF75AFE204670BD014B186824
S2140812B0FFF7E0BFC41C08002DE9F84F846B06460C
S2140812C0002C62D1324B4568C3630323C0F8E4326E
S2140812D000F53B73C0F8E832DFF8BCA00423DFF85B
S2140812E0BC90DFF8BC802B4FC0F8E0422146AB81AB
S2140812F02C606C60AC606C66EC812C616C61AC61D7
S21408130005F15C000822FFF729FEED61C5F820A06C
S214081310C5F82490C5F82880EF62B56809234FF011
S214081320010BAB812C606C60AC606C66A5F80EB0E7
S2140813302C616C61AC6105F15C0021460822FFF760
S2140813400DFEED61C5F820A0C5F82490C5F82880E4
S214081350EF62F5681223AB8102232C606C60AC60E8
S2140813606C66EB812C616C61AC6105F15C00214612
S2140813700822FFF7F3FDED61C5F820A0C5F8249014
S214081380C5F82880EF62C6F838B0BDE8F88F00BF09
S21408139075120800A31B0800211B0800471B08003D
S2140813A07F1B0800F8B51C4B07461E68B36B13B9BD
S2140813B03046FFF781FF06F53876B4687368013B58
S2140813C004D4B4F90C5075B16834F8E733682BB90F
S2140813D038460421FFF754FF306008B13668ECE75A
S2140813E00C233B60F8BD4FF6FF73E3810123A3810E
S2140813F065662560A560656025616561A56104F17F
S2140814005C0029460822FFF7A9FD25636563656425
S214081410A5642046F8BD00BFC41C08007047704786
S21408142070477047024B0349186800F015B900BFAB
S214081430080007206D120800024B0349186800F0E0
S2140814400BB900BF0800072071120800F8B5234D35
S2140814500E46044600F052FBAB685F6827F00307A9
S214081460BE1B06F6EF7626F47F6626F00F06A6F570
S2140814708056B6F5805F04DA204600F040FB002070
S214081480F8BD2046002100F03BFBAB683B44984281
S214081490F2D12046714200F033FB013010D12046CD
S2140814A0002100F02DFBAB68C21A0F2AE4DD0C49B8
S2140814B042F0010209685A60401A0A490860DBE7E8
S2140814C0AB68BF1B47F001075F60064B20461A68EB
S2140814D0961B1E6000F013FB0120F8BD3804072099
S2140814E04008072064090720F8B506460D46002977
S2140814F000F0A98000F002FB55F804CC524CA5F188
S21408150008032CF001029818A1684768884227F05B
S21408151003070CF001011BD13A4439B955F8081CE9
S2140815205B1A98680A44D968C160886042F001016D
S2140815305960A360454B1B689A4204D3444B304617
S2140815401968FFF783FF3046BDE8F84000F0D7BAC1
S214081550476079B955F8085C04F1080C5B1B2A4407
S2140815609D68654508D0D3F80CC0C5F80CC0CCF803
S214081570085002E0002100E00121C5196D68ED075A
S2140815800ED43A44856841B9324FBD4205D16361ED
S21408159023610121DD609D6002E0C068E860856027
S2140815A042F0010058609A500029CCD1B2F5007F6D
S2140815B00ED2D2089110012088406168014361600C
S2140815C004EBC204A268DC609A60A360D360BAE742
S2140815D0510A042902D89109383115E0142901D88E
S2140815E05B3111E0542902D8110B6E310CE0B1F5CD
S2140815F0AA7F02D8D10B773106E040F254508142D8
S2140816009ABF910C7C317E2104EBC104A5680E4874
S214081610A54201D029460BE00122891002FA01F101
S21408162042680A434260294608E08968A14204D015
S214081630486820F003008242F7D3CD68DD609960E1
S214081640AB60CB607FE7F8BD380407204408072066
S21408165060090720400407202DE9F041884600F578
S214081660387400268CB1A5686768013F0BD4AB892F
S214081670012B06D9B5F90E30013302D02846C047EB
S21408168006436835F1E72468ECE73046BDE8F081A4
S2140816902DE9F8438046894600F53874002694B14B
S2140816A0A5686768013F0CD4AB89012B07D9B5F943
S2140816B00E30013303D040462946C84706436835EE
S2140816C0F0E72468EBE73046BDE8F883024B0146AE
S2140816D0186800F00BB800BF08000720024B014648
S2140816E01868FFF701BF00BF080007202DE9F74F6D
S2140816F001F10B04162C074603D934F0070401D56C
S21408170002E010248C4202D20C233B60DEE138460D
S21408171000F0F4F9B4F5FC7FA34D14D2E20805EB0B
S214081720C203DE689E4206D106F1080376699E4229
S21408173008BF023243D07368F268B16823F0030327
S214081740CA6091605DE0620A1AD0042A02D8A2092B
S214081750383218E0142A01D85B3214E0542A02D82A
S214081760220B6E320FE0B2F5AA7F02D8E20B773270
S21408177009E040F254539A4204D8A20C7C3202E0A4
S2140817803F2200E07E2205EBC203DE689E4215D0AB
S214081790716821F00301081B0F2801DD013A0DE0EE
S2140817A0002809DBF368B268D3609A6073185A6831
S2140817B042F001025A6094E1F668E7E701327A4996
S2140817C02E6901F10800864286466DD0736823F0BC
S2140817D00303C4EB030CBCF10F0F0DDD33194CF0FB
S2140817E0010244F0010474604B610B61D860986094
S2140817F05A6043F80CC074E1BCF1000F48610861F8
S21408180001DB3344D3E7B3F5007F11D2DB08981029
S2140818104FF0010C0CFA00FC48684CEA00004860DF
S21408182001EBC3018B68F160B3608E60DE603BE05D
S214081830580A042802D89809383015E0142801D820
S2140818405B3011E0542802D8180B6E300CE0B0F567
S214081850AA7F02D8D80B773006E040F25451884267
S2140818609ABF980C7C307E2005EBC00CDCF808107C
S214081870DFF8348161450DD10123801003FA00F0AA
S214081880D8F804300343C8F804300B4608E08968E3
S214081890614504D0486820F003008342F7D3CB683C
S2140818A0F360B1609E60CE600121931001FA03F3E5
S2140818B069688B425DD80B4206D122F003025B00B2
S2140818C00B4202F10402FAD005EBC20080469446A9
S2140818D0D8F80C6046452DD0716821F00309C4EB92
S2140818E009010F2913DD331944F00104F268746006
S2140818F056F8080FC260906041F001026B612B61D8
S214081900C3F80CE0C3F808E05A6059500CE0002908
S2140819100EDB06EB09014B6843F001034B60F368E6
S21408192056F8082FD3609A60384600F0E8F8DCE0EE
S214081930F668CFE70CF1010C1CF0030F08F1080855
S214081940C6D1910704D16A6822EA03026A6005E0F4
S214081950A0F108010068013A8842F2D069685B0085
S2140819608B4206D82BB162460B42ADD104325B00DF
S214081970FAE7D5F80890D9F8043023F0030BA34506
S21408198004D3C4EB0B030F2B00F3A280074909EB23
S2140819900B030A68884604EB020AD5F808240132C5
S2140819A006D10AF1100A0BE0380407206009072060
S2140819B00AF5805A0AF10F0A2AF47F6A2AF00F0AF3
S2140819C038465146019300F09BF8421C0646019B98
S2140819D06FD0984201D2A9456BD1D8F804209E4210
S2140819E05244C8F8042008D1C6F30B0129B9AB68DD
S2140819F0DA444AF001025A604DE0D5F8081401317D
S214081A0003D13C4BC3F8086403E0F31A1A44C8F839
S214081A10042016F007031CBFC3F10803F618B244E7
S214081A2003F58053CAF30B0ACAEB030A5146384635
S214081A3000F066F8431C04BF30464FF0000AD8F89A
S214081A400430801B5044534440F00100A945AE6062
S214081A50C8F8043070601ED0BBF10F0F02D80123FF
S214081A60736026E0D9F80430ABF10C0B2BF0070BAB
S214081A7003F001034BEA0303C9F80430052209EB17
S214081A800B03BBF10F0F5A609A6004D9384609F168
S214081A900801FFF729FDD8F80430D8F82C2093421F
S214081AA084BF154AD362D8F83020934284BF124ABE
S214081AB01363AB685A6822F00302A242C4EB02031F
S214081AC001D30F2B04DC384600F019F800260CE08A
S214081AD0AE6844F0010243F0010334447260AC601F
S214081AE06360384600F00BF80836304603B0BDE8A9
S214081AF0F08F00BF3804072060090720704770473A
S214081B0038B5064C0023054608462360FFF7C4F997
S214081B10431C02D1236803B12B6038BDA0090720F7
S214081B2010B50C46B1F90E1000F0BAF8002803DB21
S214081B30236D0344236510BDA38923F48053A38132
S214081B4010BD002070472DE9F0411D468B890746D9
S214081B50DB050C46164605D5B1F90E100022022301
S214081B6000F08CF8A389384623F48053A381B4F98F
S214081B700E1032462B46BDE8F04100F017B810B5F7
S214081B800C46B1F90E1000F079F8431CA38903D16E
S214081B9023F48053A38110BD43F48053A3812065AA
S214081BA010BDB1F90E1000F013B8000038B5074C98
S214081BB0054600202060084611461A46FEF712FC25
S214081BC0431C02D1236803B12B6038BDA009072047
S214081BD038B5064C0023054608462360FFF776F915
S214081BE0431C02D1236803B12B6038BDA009072027
S214081BF070B505460C4609B9002070BD18B1836B50
S214081C000BB9FFF759FBB4F90C30002BF4D0284673
S214081C102146FFF708FBE36A064633B12846E16922
S214081C2098470028B8BF4FF0FF36A3891B0603D590
S214081C3028462169FFF758FC216B41B104F140039F
S214081C40994202D02846FFF74FFC00232363616CB5
S214081C5021B12846FFF748FC00236364FFF7DEFB44
S214081C600023A381FFF7DBFB304670BD024B01461D
S214081C701868FFF7BDBF00BF0800072038B5074C37
S214081C80054600202060084611461A46FFF722F946
S214081C90431C02D1236803B12B6038BDA009072076
S214081CA038B5074C054600202060084611461A46F7
S214081CB0FEF778FB431C02D1236803B12B6038BDBE
S214081CC0A00907201000072043000000F8B500BF51
S214081CD0F8BC08BC9E467047FD1008006D01080059
S214081CE0F8B500BFF8BC08BC9E467047450108001A
S214081CF0FFFFFFFF00093D0010000720000000005E
S214081D0000000000FC02072064030720CC0307201D
S214081D1000000000000000000000000000000000B6
S214081D2000000000000000000000000000000000A6
S214081D3000000000C81C08000000000000000000AA
S214081D400000000000000000000000000000000086
S214081D500000000000000000000000000000000076
S214081D600000000000000000000000000000000066
S214081D700000000000000000000000000000000056
S214081D800000000000000000000000000000000046
S214081D900000000000000000000000000000000036
S214081DA00000000000000000010000000000000025
S214081DB00E33CDAB34126DE6ECDE05000B000000EA
S214081DC00000000000000000000000000000000006
S214081DD000000000000000000000000000000000F6
S214081DE000000000000000000000000000000000E6
S214081DF000000000000000000000000000000000D6
S21408213038040720380407204004072040040720F6
S21408214048040720480407205004072050040720A6
S2140821505804072058040720600407206004072056
S2140821606804072068040720700407207004072006
S21408217078040720780407208004072080040720B6
S2140821808804072088040720900407209004072066
S2140821909804072098040720A0040720A004072016
S2140821A0A8040720A8040720B0040720B0040720C6
S2140821B0B8040720B8040720C0040720C004072076
S2140821C0C8040720C8040720D0040720D004072026
S2140821D0D8040720D8040720E0040720E0040720D6
S2140821E0E8040720E8040720F0040720F004072086
S2140821F0F8040720F8040720000507200005072034
S21408220008050720080507201005072010050720E1
S2140822101805072018050720200507202005072091
S2140822202805072028050720300507203005072041
S21408223038050720380507204005072040050720F1
S21408224048050720480507205005072050050720A1
S2140822505805072058050720600507206005072051
S2140822606805072068050720700507207005072001
S21408227078050720780507208005072080050720B1
S2140822808805072088050720900507209005072061
S2140822909805072098050720A0050720A005072011
S2140822A0A8050720A8050720B0050720B0050720C1
S2140822B0B8050720B8050720C0050720C005072071
S2140822C0C8050720C8050720D0050720D005072021
S2140822D0D8050720D8050720E0050720E0050720D1
S2140822E0E8050720E8050720F0050720F005072081
S2140822F0F8050720F805072000060720000607202F
S21408230008060720080607201006072010060720DC
S214082310180607201806072020060720200607208C
S214082320280607202806072030060720300607203C
S21408233038060720380607204006072040060720EC
S214082340480607204806072050060720500607209C
S214082350580607205806072060060720600607204C
S21408236068060720680607207006072070060720FC
S21408237078060720780607208006072080060720AC
S214082380880607208806072090060720900607205C
S2140823909806072098060720A0060720A00607200C
S2140823A0A8060720A8060720B0060720B0060720BC
S2140823B0B8060720B8060720C0060720C00607206C
S2140823C0C8060720C8060720D0060720D00607201C
S2140823D0D8060720D8060720E0060720E0060720CC
S2140823E0E8060720E8060720F0060720F00607207C
S2140823F0F8060720F806072000070720000707202A
S21408240008070720080707201007072010070720D7
S2140824101807072018070720200707202007072087
S2140824202807072028070720300707203007072037
S21408243038070720380707204007072040070720E7
S2140824404807072048070720500707205007072097
S2140824505807072058070720600707206007072047
S21408246068070720680707207007072070070720F7
S21408247078070720780707208007072080070720A7
S2140824808807072088070720900707209007072057
S2140824909807072098070720A0070720A007072007
S2140824A0A8070720A8070720B0070720B0070720B7
S2140824B0B8070720B8070720C0070720C007072067
S2140824C0C8070720C8070720D0070720D007072017
S2140824D0D8070720D8070720E0070720E0070720C7
S2140824E0E8070720E8070720F0070720F007072077
S2140824F0F8070720F8070720000807200008072025
S21408250008080720080807201008072010080720D2
S2140825101808072018080720200807202008072082
S2140825202808072028080720300807203008072032
S20C082530FFFFFFFF0000020098
S804080C45A2
