S0120000486F76657243726166742E737265631E
S214080000B8AC0720ED360800E9360800E9360800DF
S214080010E9360800E9360800E9360800000000005E
S21408002000000000000000000000000005120800A4
S214080030E93608000000000095120800D1120800F2
S214080040E9360800E9360800E9360800E936080007
S214080050E9360800E9360800E9360800E9360800F7
S214080060E9360800E936080000000000B534080044
S214080070D1340800ED3408000935080000000000F7
S21408008000000000E9360800E9360800E9360800EE
S214080090E9360800E9360800E9360800E9360800B7
S2140800A0E936080000000000E9360800E9360800CE
S2140800B0E9360800E9360800E9360800E936080097
S2140800C0E9360800E9360800E9360800E936080087
S2140800D0E9360800E9360800E9360800E936080077
S2140800E0E9360800E9360800E9360800E936080067
S2140800F0E936080008B50548054B191A062900D838
S21408010008BD044A002AFBD09047F9E7506C08005F
S214080110536C08000000000008B50748074B191A7A
S2140801208A1002EBD273591000D108BD044A002A7F
S214080130FBD09047F9E700BF506C0800506C0800E9
S2140801400000000010B5064C237843B9FFF7D2FF2D
S214080150044810B10448AFF300800121217010BD97
S214080160D008072000000000506C080008B5084BAF
S2140801701BB108480849AFF300800848016811B168
S214080180074A02B19047BDE80840FFF7C5BF00BF61
S21408019000000000506C0800D4080720506C0800C7
S2140801A00000000038B54FF0250043F26563C0F242
S2140801B0080398474FF00004C4F20C0420464FF496
S2140801C0F441C0F603214FF43D42C0F201524FF00D
S2140801D0080340F25935C0F20805A84720464FF0F4
S2140801E000014FF440124FF0010340F2A935C0F267
S2140801F00805A84720464FF0000140F29932C0F2A1
S2140802000802904720464FF0030140F2D135C0F26D
S2140802100805A84720464FF00401A84720464FF097
S2140802200501A84720464FF00601A84738BD00BF7D
S2140802302DE9F8430C46904648BB002A2BDD8F185C
S21408024048F67846C2F2070648F67045C2F2070531
S2140802506FEA010907EB090000F0010930682B680E
S214080260984704F10104BC4219D10DE030682B68A8
S2140802702146984704F10104214630682A689047C9
S21408028004F10104BC42F1D14046BDE8F8834FF0C2
S214080290FF30BDE8F8834FF00000BDE8F883B9F1F9
S2140802A0000FE3D030682A682146904704F101041D
S2140802B0BC42DBD1E8E700BF2DE9F8430D4690467F
S2140802C000F1FF30022824D832B348F67846C2F246
S2140802D0070648F67447C2F207074FF0000402F113
S2140802E0FF3909F0010930683B68095D9847A04264
S2140802F01ADA14E030683B68295D984700280EDB58
S21408030004F1010430683A68295D904700281DDA30
S21408031005E04FF0FF3404E04FF0000401E04FF032
S214080320FF342046BDE8F88304F10104A045F8D060
S214080330B9F1000FDED030683A68295D904700288A
S214080340EDDB04F10104A045D4D1EAE704F1010489
S214080350A045CFD1E5E700BF30B44FF001040460F4
S2140803604FF00004446040F20225C0F82051C0F85F
S2140803700441C0F8144145682B434FEA4202B1FBDA
S214080380F2F101F1FF324FEA026143EA114343609A
S214080390204630BC704700BF436823F01002426016
S2140803A0436819434160704710B4446822434FEAD3
S2140803B0016101F0706422434FEA037303F0405171
S2140803C00A43426010BC70474FF002030360704750
S2140803D04FF0010303FA01F101617047006B7047A3
S2140803E010B44FF0AC0303600A684C68B2FBF4F331
S2140803F04FEA131303F1FF344FF6FE7294420CD8FB
S21408040003628968416040F20223C0F820314FF049
S214080410500202604FF0000001E04FF0010010BCEF
S214080420704700BF436913F0020F03D0C1614FF055
S214080430000070474FF00100704700BF436913F093
S214080440010F04D0806908704FF0000070474FF025
S21408045001007047436913F0020F07D04FEAC151F5
S2140804604FEAD152C2614FF0000070474FF00100CA
S214080470704700BF436913F0010F08D080694FEA40
S214080480C0524FEAD2530B604FF0000070474FF04F
S2140804900100704710B540F2E7339842A8BF1846E7
S2140804A020EAE07401290DD1204640F6BD73C0F25B
S2140804B00803984740F24D1040F69171C0F20801C3
S2140804C0884710BD40F24D1040F69171C0F2080101
S2140804D08847204640F6BD72C0F20802904710BD15
S2140804E070B5421A48F68043C2F207031A6088427B
S2140804F048F6A040C2F20700B4BF002101210160FF
S214080500002A74D040F60816C2F20706F168316170
S214080510B068F0607468B460356875603260521907
S21408052013191E18701846F26761C6F2666181FBD9
S21408053000144FEAE075D5EB640305D448F69042FC
S214080540C2F20702136006E0C3F1000648F69040C0
S214080550C2F20700066048F69041C2F20701086832
S21408056048F6A444C2F20704206040F60415C2F216
S21408057007052B68C2182A6040F6FC06C2F2070672
S2140805803168716030604FF000044FF0000548F69F
S2140805909843C2F20703C3E9004548F68842C2F208
S2140805A00702C2E9004543F6C556C0F20806B0473A
S2140805B043F62D36C0F2080622462B46B04722469A
S2140805C02B46B04748F6A843C2F20703C3E9000122
S2140805D044F2B522C0F20802904748F6A041C2F29B
S2140805E00701096840F29543C0F20803984770BDB2
S2140805F02DE9F04782B041F67D73C0F208039847AC
S214080600ADF806004FF00004C4F20C0440F2C93AF4
S214080610C0F2080A40F2DD35C0F2080540F63C187C
S214080620C2F2070841F67D19C0F208092046D047ED
S2140806302046A84710F0807FFAD0A76E666ED8F8D6
S21408064000004FF000014FF6FF720B46C84740F611
S214080650F400C2F20700076040F6F001C2F2070194
S2140806600E60D8F800004FF000010A460B4641F22B
S2140806704D7CC0F2080CE0473846314640F2E1426D
S214080680C0F2080290470DF106004FF4FA7142F2E4
S2140806902D33C0F208039847C8E700BF10B540F2EC
S2140806A0E7339842A8BF184620EAE07401290DD11E
S2140806B0204640F66573C0F20803984740F24D108E
S2140806C040F63971C0F20801884710BD40F24D1057
S2140806D040F66571C0F208018847204640F6397230
S2140806E0C0F20802904710BD70B5421A48F680431B
S2140806F0C2F207031A60884248F6A040C2F2070012
S214080700B4BF002101210160002A7FD040F61C16E4
S214080710C2F20706F1683161B068F0607468B460C8
S214080720356875603260521913191E18701846F22B
S2140807306761C6F2666181FB00144FEAE075D5EB87
S214080740640305D448F69042C2F20702136006E036
S214080750C3F1000648F69040C2F20700066048F665
S2140807609041C2F20701086848F6A444C2F207049A
S214080770206040F63015C2F207052B68C2182A60BA
S21408078040F63416C2F207063168716030604FF0E2
S21408079000044FF0000548F69843C2F20703C3E981
S2140807A0004548F68842C2F20702C2E9004543F609
S2140807B0C556C0F20806B04743F62D36C0F20806FE
S2140807C022462B46B04722462B46B0474FF000023B
S2140807D04FF00003C4F2590343F69164C0F20804CC
S2140807E0A04748F6A843C2F20703C3E9000144F24B
S2140807F0B522C0F20802904748F6A041C2F20701A7
S214080800096840F29D63C0F20803984770BD00BFB0
S2140808102DE9F04782B041F67D73C0F20803984789
S214080820ADF806004FF00004C4F20C0440F2C93AD2
S214080830C0F2080A40F2DD35C0F2080540F63C185A
S214080840C2F2070841F67D19C0F208092046D047CB
S2140808502046A84710F0807FFAD0276EE66DD8F8B5
S21408086000004FF000014FF6FF720B46C84740F6EF
S214080870F800C2F20700076040F6EC01C2F2070172
S2140808800E60D8F800004FF000010A460B4641F209
S2140808904D7CC0F2080CE0473846314640F2E96223
S2140808A0C0F2080290470DF106004FF4FA7142F2C2
S2140808B02D33C0F208039847C8E700BFF0B583B0E9
S2140808C004460D464FF40063C4F20E0398420DD159
S2140808D04FF40066C4F20E0640F23D47C0F2080721
S2140808E030462946B8470028FAD12BE04FF4004096
S2140808F0C4F2090084420FD14FF40046C4F2090638
S21408090040F27547C0F20807304601A9B8470028E4
S214080910FAD1019B2B702BE04FF44041C4F2090139
S2140809208C420FD14FF44044C4F2090440F2754695
S214080930C0F20806204601A9B0470028FAD1019A55
S2140809402A702AE04FF00000C4F20A0084420FD151
S2140809504FF00004C4F20A0440F27546C0F20806D6
S214080960204601A9B0470028FAD1019B2B7014E055
S2140809704FF48041C4F20A018C420ED14FF48044F1
S214080980C4F20A0440F27546C0F20806204601A9D9
S214080990B0470028FAD1019A2A7003B0F0BD00BF0C
S2140809A070B50C464FF40063C4F20E0398420FD19C
S2140809B04FF40065C4F20E0540F22546C0F208065C
S2140809C028462146B0470028FAD14FF0010070BDEE
S2140809D04FF40041C4F2090188420FD14FF4004594
S2140809E0C4F2090540F25546C0F2080628462146D4
S2140809F0B0470028FAD14FF0010070BD4FF44042CE
S214080A00C4F2090290420FD14FF44045C4F20905DA
S214080A1040F25546C0F2080628462146B047002848
S214080A20FAD14FF0010070BD4FF00003C4F20A037C
S214080A3098420FD14FF00005C4F20A0540F2554619
S214080A40C0F2080628462146B0470028FAD14FF0DB
S214080A50010070BD4FF48041C4F20A0188420FD1EC
S214080A604FF48045C4F20A0540F25546C0F208061F
S214080A7028462146B0470028FAD14FF0010070BD3D
S214080A804FF0000070BD00BF08B540F64553C0F2F1
S214080A90080398474FF42F7040F63971C0F20801E2
S214080AA088474FF4487040F66572C0F208029047CF
S214080AB04FF4FA7040F69173C0F2080398474FF463
S214080AC0C87040F6BD71C0F2080188474FF46170DF
S214080AD040F6E972C0F20802904708BD10B584B027
S214080AE04FF0020300934FF0000301930293039321
S214080AF040F61100C0F2080046F6BC21C0F2080114
S214080B004FF4006241F62544C0F20804A0470128C5
S214080B1008D046F6D020C0F2080044F21941C0F2C8
S214080B20080188474FF0020000904FF00003019339
S214080B300293039340F2F150C0F2080046F6F821FB
S214080B40C0F208014FF4006241F62544C0F20804DA
S214080B50A047012808D046F60830C0F2080044F23C
S214080B601942C0F2080290474FF0010300934FF075
S214080B70000301930293039341F21500C0F20800A4
S214080B8046F63031C0F208014FF4006241F62544BB
S214080B90C0F20804A047012808D046F64030C0F244
S214080BA0080044F21941C0F20801884741F6E1609E
S214080BB0C0F20800804704B010BD00BF10B54FF063
S214080BC001004FF000014FF0030241F2E163C0F26A
S214080BD00803984740F64011C2F20701086040B182
S214080BE04FF000010A460B4641F24D74C0F2080465
S214080BF0A0474FF001004FF000014FF0030241F20A
S214080C00E163C0F20803984740F63C12C2F20702B6
S214080C10106040B14FF000010A460B4641F24D7491
S214080C20C0F20804A04710BD30B585B042F68973F7
S214080C30C0F20803984743F21500C0F20800804740
S214080C404FF00B0043F26564C0F20804A0474FF06B
S214080C500C00A0474FF00D00A0474FF00E00A0472D
S214080C604FF00800A0474FF40065C4F20E0548F69A
S214080C707841C2F207010D6048F67443C2F20703D2
S214080C8040F6A112C0F208021A6048F67040C2F296
S214080C90070040F6BD01C0F2080101604FF43D436D
S214080CA0C0F2015300934FF4E13201924FF4006012
S214080CB002904FF00800A0472846694640F2E13403
S214080CC0C0F20804A04740F21005C2F207052968DA
S214080CD088684FF0000144F27B44C0F20804A0473D
S214080CE02B6858684FF00001A0474FF46060C4F2C4
S214080CF00E004FF48072426642654262C0F8802059
S214080D00016F21F480730367286880684FF000013C
S214080D10A04740F2A512C0F20802904740F6892183
S214080D20C0F20801884740F6BD33C0F2080398476A
S214080D3040F6DD20C0F2080080474FF0000005B0FE
S214080D4030BD00BF2DE9F04F85B04FF0240043F2C8
S214080D506565C0F20805A8474FF48044C4F2090444
S214080D6020464FF0000142F67176C0F20806B047FA
S214080D7020464FF00101B04720464FF00201B04729
S214080D8020464FF00301B04720464FF00401B04715
S214080D904FF02400A84743F65863C0F20F030193A8
S214080DA04FF0000502954FF4F440C0F60320039078
S214080DB0204601A942F6D952C0F2080290472046BA
S214080DC0294642F67D77C0F20807B84720464FF016
S214080DD00101B84720464FF00201B84720464FF0B9
S214080DE00301B84720464FF00401B84740F6701193
S214080DF0C2F20701AB460D818D724FF00B0AC1F89F
S214080E0004A040F2E739C1F81090CD600D60204686
S214080E1042F62563C0F2080398474FF48050C4F2A0
S214080E200E004FF080514FF4803243F2C507B846A3
S214080E30C0F20808C04720462946B04740F6C41105
S214080E40C2F207010D818D72C1F804A0C1F8109096
S214080E50CD604FF001000860204642F62562C0F2D9
S214080E60080290474FF49057C4F20E0738464FF0E2
S214080E7080514FF01002C04720464FF00101B0479E
S214080E8040F6F011C2F207010D818D72C1F804A078
S214080E90C1F81090CD604FF002030B60204642F672
S214080EA02562C0F20802904738464FF080514FF04E
S214080EB04002C04720464FF00201B04740F69C115A
S214080EC0C2F207010D818D72C1F804A0C1F8109016
S214080ED0CD604FF003000860204642F62563C0F256
S214080EE00803984738464FF080514FF48072C04741
S214080EF020464FF00301B04740F64811C2F20701FA
S214080F000D818D72C1F804A0C1F81090CD604FF025
S214080F1004050D60204642F62562C0F20802904796
S214080F2038464FF080514FF40012C04720462946F5
S214080F30B04705B0BDE8F08F08B5024640F69813EE
S214080F40C2F2070318604FF48040C4F2090040F666
S214080F507011C2F2070142F64D73C0F208039847B3
S214080F6008BD00BF08B5024640F61C23C2F20703B8
S214080F7018604FF48040C4F2090040F6C411C2F26B
S214080F80070142F64D73C0F20803984708BD00BF34
S214080F9008B5024640F64413C2F2070318604FF439
S214080FA08040C4F2090040F6F011C2F2070142F68A
S214080FB04D73C0F20803984708BD00BF08B502463F
S214080FC040F61823C2F2070318604FF48040C4F2B4
S214080FD0090040F69C11C2F2070142F64D73C0F2B2
S214080FE00803984708BD00BF08B5024640F6EC134C
S214080FF0C2F2070318604FF48040C4F2090040F6B6
S2140810004811C2F2070142F64D73C0F2080398472A
S21408101008BD00BF2DE9F04F8DB041F67D73C0F2D4
S21408102008039847ADF82E0040F640108146C2F2F5
S214081030070941F67D110E46C0F20806D9F80000E9
S2140810404FF000014FF6FF720B46B04740F61C22E1
S214081050C2F20702D2F800B040F64414C2F20704FF
S214081060D4F800A040F61825C2F20705D5F8008087
S21408107040F6EC17C2F207073B680693D9F800005B
S2140810804FF000010A460B4641F24D74C0F20804C0
S214081090A04740F63C15C2F2070528684FF0000145
S2140810A04FF6FF720B46B04740F6F400C2F2070050
S2140810B00168079140F6F002C2F20702176808971F
S2140810C040F6F803C2F207031868099040F6EC01E8
S2140810D0C2F207010F6828684FF000010A460B465F
S2140810E0A047069C0094079D0195089A0292099BC2
S2140810F00393049746F66430C0F2080059465246F1
S214081100434644F21947C0F20807B8470DF12E00C7
S2140811104FF0050142F22D34C0F20804A0478DE7CF
S21408112000F1080343604FF6FF720281C360036153
S2140811304FF00001016070474FF0000303617047ED
S21408114043685A684A6042688A605A68916059607B
S21408115041600861016801F101010160704700BF44
S21408116010B40C884FF6FF739C4201D103690CE05B
S21408117000F10803C268128892B2944205D35B68ED
S2140811805A68128892B29442F9D25A684A609160B4
S2140811908B6059600861016801F10101016010BCAB
S2140811A0704700BF436882689A60816843684B60EE
S2140811B001694A68824204BF82684A604FF00003A9
S2140811C00361086800F1FF320A600868704700BFCC
S2140811D003480068006880F3088862B600DF00BF2E
S2140811E008ED00E04FF0807340F8043C40F8081C17
S2140811F04FF0000140F80C1C40F8202CA0F14000ED
S214081200704700BF064B19680868B0E8F00F80F30F
S21408121009884FF0000080F311884EF00D0E7047D5
S214081220488B07204EF60453CEF200034FF0805248
S2140812301A607047EFF311804FF0A00181F3118810
S21408124070474FF0000000BF08B541F23523C0F2E2
S2140812500803984740F20000C2F20700026802F14D
S2140812600102026008BD00BF80F31188704700BF06
S21408127008B540F20002C2F20702136803F1FF3015
S214081280106030B94FF0000041F26921C0F2080141
S214081290884708BDEFF309800C4B1A6820E9F00F61
S2140812A010602DE908404FF0A00080F3118801F087
S2140812B09BF84FF0000080F31188BDE808401968D5
S2140812C00868B0E8F00F80F309887047488B072055
S2140812D008B54EF60453CEF200034FF080521A605B
S2140812E041F23520C0F20800804741F6A571C0F2E9
S2140812F0080188474FF0000041F26923C0F208034E
S214081300984708BD4EF21403CEF2000344F61F02B7
S214081310C0F201021A604EF21000CEF200004FF042
S21408132007010160704700BF10B54EF62053CEF295
S21408133000031A6842F470001860196841F0704497
S2140813401C6041F20533C0F2080398474FF00004CA
S21408135040F20002C2F20702146041F2D110C0F255
S21408136008008047204610BD30B448F62422C2F252
S214081370070200E01A4613688342FBD311465468F6
S2140813801519854203D168680419546010464268E6
S2140813908418A3420FD148F62024C2F20704246812
S2140813A09C4206D05B689A1842600B681A6802600E
S2140813B002E0036000E00360814218BF086030BCAA
S2140813C0704700BF38B5044641F66973C0F2080393
S2140813D0984748F62020C2F20700016811BB48F675
S2140813E02422C2F2070240F62023C2F20703136043
S2140813F04FF00001516003F5FF4202F1700048F615
S2140814002025C2F2070528605167116747F6F07174
S2140814105960186040F20403C2F207031A68A2F182
S21408142010021A60002C3CD004F1100212F0070FCC
S2140814301CBF22F00702083202F1FF3047F6FE759D
S214081440A84231D848F62421C2F207010C6801E008
S2140814502146044663689A4202D920680028F7D1D4
S21408146048F62025C2F207052B689C421FD00D6857
S21408147005F110052068086061688B1A202B07D9CB
S214081480A0184360626041F26932C0F208029047D1
S21408149040F20400C2F20700036861685A1A026044
S2140814A007E04FF0000504E04FF0000501E04FF0BC
S2140814B0000542F24110C0F208008047284638BDB1
S2140814C010B50446C8B141F66973C0F208039847D8
S2140814D040F20400C2F20700016854F80C2C8B187E
S2140814E00360A4F1100041F26931C0F20801884790
S2140814F042F24110C0F20800804710BDF8B5044615
S21408150041F24923C0F208039847A06C00281ADD68
S214081510616A19B917E0616A51B914E004F1240642
S21408152042F27955C0F2080542F20577C0F208077C
S2140815303046A84700B1B847A26C02F1FF33A3644F
S214081540A06C0028E7DC4FF0FF32A26441F271235A
S214081550C0F20803984741F24920C0F208008047C5
S214081560616C00291ADD22691AB917E0226952B996
S21408157014E004F1100642F27955C0F2080542F26A
S2140815800577C0F208073046A84700B1B847636C2D
S21408159003F1FF306064616C0029E7DC4FF0FF332D
S2140815A0636441F27120C0F208008047F8BD00BFAE
S2140815B038B50346056875B1026CC468A418C460DB
S2140815C04068844228BFDD600846D96844F259431B
S2140815D0C0F20803984738BD10B50446036C63B9D3
S2140815E0016800292ED1406842F2F173C0F2080360
S2140815F098474FF00000606024E082B980681A4679
S21408160044F25943C0F208039847A268216C501860
S214081610A0606368984215D32268A26012E0C0688A
S2140816201A4644F25943C0F208039847226CC2F19E
S2140816300000E1680B18E3602268934202D26168F2
S2140816400818E060A26B02F10102A26310BD00BF99
S21408165038B50D46044630B941F23524C0F20804C0
S214081660A04700BFFDE741F24923C0F208039847A8
S2140816702368E06B226C00FB023161604FF00001CA
S214081680A163A36000F1FF3002FB0033E3604FF074
S214081690FF326264A26485B92169C1B104F1100001
S2140816A042F27953C0F20803984701280FD141F255
S2140816B02520C0F20800804709E004F1100041F236
S2140816C02115C0F20805A84704F12400A84741F2EE
S2140816D07122C0F2080290474FF0010038BD00BFE3
S2140816E0F8B50D4617460646E0B14FF0500041F2F1
S2140816F0C533C0F208039847044698B106FB05F0C0
S21408170000F1010041F2C531C0F2080188472060A7
S21408171070B9204641F2C142C0F20802904701E083
S21408172000BFFDE741F23520C0F208008047F7E722
S214081730E663256420464FF0010141F25163C0F28A
S2140817400803984784F84D702046F8BD2DE9F04FF9
S21408175085B08A469B46ADF80620044630B941F265
S2140817603524C0F20804A04700BFFDE741B9036C62
S2140817704BB141F23520C0F20800804700BFFDE7B4
S2140817804FF0000701E04FF0000741F24926C0F28B
S214081790080642F22161C0F20801009141F2712563
S2140817A0C0F20805B047A26BE36B9A421FD22046E8
S2140817B051465A4641F2D953C0F208039847616A1F
S2140817C069B104F1240042F27952C0F20802904747
S2140817D0012804D141F22520C0F20800804741F2D2
S2140817E07123C0F2080398474FF001006AE0BDF87D
S2140817F0060038B941F27123C0F2080398474FF043
S21408180000005FE027B902A8009FB8474FF001071D
S214081810A84741F66971C0F208018847B047626C6C
S214081820B2F1FF3F04BF00226264A36CB3F1FF3F2E
S21408183004BF0023A364A84702A80DF1060142F2DC
S2140818405162C0F20802904778BBB047D4F8389087
S214081850D4F83C80A847C1451BD104F11000BDF858
S214081860061042F2A943C0F208039847204641F200
S214081870FD41C0F20801884742F24110C0F2080054
S214081880804700288ED141F22522C0F208029047F0
S21408189088E7204641F2FD43C0F20803984742F223
S2140818A04112C0F2080290477CE7204641F2FD410B
S2140818B0C0F20801884742F24110C0F2080080478B
S2140818C04FF0000005B0BDE8F08F00BF2DE9F041ED
S2140818D00E4615469846044630B941F23525C0F2FC
S2140818E00805A84700BFFDE741B9036C33B141F2CC
S2140818F03520C0F20800804700BFFDE741F23521D9
S214081900C0F2080188470746A26BE36B9A4221D2C9
S21408191020463146424641F2D953C0F2080398475A
S214081920A06CB0F1FF3F0ED1626AB2B104F1240098
S21408193042F27954C0F20804A04788B19DB14FF02E
S21408194001042C6011E0A16C01F10101A1644FF0C3
S21408195001040AE04FF0000407E04FF0010404E039
S2140819604FF0010401E04FF00104384641F26923C4
S214081970C0F2080398472046BDE8F0812DE9F04FED
S21408198085B089469A46ADF80620044630B941F235
S2140819903524C0F20804A04700BFFDE741B9036C30
S2140819A04BB141F23520C0F20800804700BFFDE782
S2140819B04FF0000701E04FF0000741F24926C0F259
S2140819C0080642F2216BC0F2080B41F27125C0F2FC
S2140819D00805B047A16B00293FD0E5682046494670
S2140819E041F2B153C0F208039847BAF1000F1CD170
S2140819F0A36B03F1FF30A063216829B942F2157280
S214081A00C0F20802904760602369F3B104F1100041
S214081A1042F27951C0F208018847012815D141F2EF
S214081A202520C0F2080080470FE0E560606A60B1D4
S214081A3004F1240042F27951C0F20801884720B127
S214081A4041F22522C0F20802904741F27122C0F204
S214081A50080290474FF0010074E0BDF806203AB936
S214081A6041F27122C0F2080290474FF0000069E088
S214081A701FB902A8D8474FF00107A84741F669736F
S214081A80C0F208039847B047606CB0F1FF3F04BF48
S214081A9000206064A16CB1F1FF3F04BF0021A1647F
S214081AA0A84702A80DF1060142F25162C0F20802E8
S214081AB09047002839D1B047D4F83880A847B8F1FD
S214081AC0000F26D123683BB9B047606842F24971D7
S214081AD0C0F208018847A84704F12400BDF806109C
S214081AE042F2A942C0F208029047204641F2FD435E
S214081AF0C0F20803984742F24110C0F20800804737
S214081B0000287FF466AF41F22521C0F20801884715
S214081B105FE7204641F2FD41C0F20801884742F2DD
S214081B204112C0F20802904753E7204641F2FD43AF
S214081B30C0F20803984742F24110C0F208008047F6
S214081B404FF0000005B0BDE8F08F00BF38B504467A
S214081B500D4641F24923C0F208039847606CB0F17D
S214081B60FF3F04BF00206064A16CB1F1FF3F04BFD3
S214081B700021A16441F27122C0F208029047A36BCB
S214081B803BB904F12400294642F22152C0F2080269
S214081B909047204641F2FD41C0F20801884738BD0B
S214081BA010B5044648F64833C2F20703186884801E
S214081BB048F66431C2F207010A8893B29C4211D2F1
S214081BC048F66833C2F20703186848F64831C2F286
S214081BD00701096801F1040141F26112C0F2080226
S214081BE0904710BD48F64420C2F20700006848F641
S214081BF04831C2F20701096801F1040141F2611295
S214081C00C0F20802904740F20803C2F20703188899
S214081C1081B28C4204D240F20802C2F20702148053
S214081C2010BD00BF2DE9F84F0F4690469A460A9D0C
S214081C300C9E814630B941F23527C0F20807B847EE
S214081C4000BFFDE7092D06D941F23525C0F2080583
S214081C50A84700BFFDE74FF0500041F2C533C0F279
S214081C60080398470446002800F03681002E40F006
S214081C7031814FEA880041F2C531C0F20801884731
S214081C800646206330B9204641F2C142C0F2080237
S214081C90904721E130464FF0A5014FEA880244F20A
S214081CA06B46C0F20806B04708F1FF38206B00EB19
S214081CB0880222F0070B04F1340039464FF0100270
S214081CC044F28957C0F20807B8474FF0000384F873
S214081CD04330092D34BF2E460926E662E66404F131
S214081CE00407384641F23918C0F20808C04704F11C
S214081CF01800C0472461C6F10A062683646258465F
S214081D004946524641F2E513C0F208039847206058
S214081D1010F0070F06D041F23524C0F20804A04799
S214081D2000BFFDE70B9901B10C6041F24920C0F2F3
S214081D300800804748F68833C2F207031A6802F19B
S214081D4001021A6048F64831C2F2070108680028FE
S214081D5058D148F64831C2F207010C6048F6883078
S214081D60C2F207000368012B5FD148F67C29C2F24D
S214081D700709484641F22116C0F20806B04709F19D
S214081D801400B04709F12800B04709F13C00B047F5
S214081D9009F15000B04709F16400B04709F178002E
S214081DA0B04709F18C00B04709F1A000B04709F127
S214081DB0B400B04748F67039C2F207094846B0473B
S214081DC048F66428C2F207084046B04748F64C3042
S214081DD0C2F20700B04748F65020C2F20700B047E4
S214081DE048F63020C2F20700B04748F64422C2F24E
S214081DF00702C2F8009048F66831C2F20701C1F837
S214081E00008012E048F64823C2F207031A6862B94F
S214081E1048F64831C2F207010868C36A9D4204D3EF
S214081E2048F64832C2F207021460E06A48F68C3375
S214081E30C2F207031A68904204D948F68C31C2F2F7
S214081E400701086048F66C33C2F207031A68626432
S214081E5002F101021A6048F67821C2F207010B68FF
S214081E60984204D948F67822C2F20702106000EBBE
S214081E70800148F67C200346C2F2070303EB810084
S214081E80394641F24112C0F20802904741F27121E8
S214081E90C0F20801884748F64820C2F207000368DF
S214081EA083B148F64832C2F207021168C86A85420A
S214081EB00CD941F22523C0F2080398474FF00100D9
S214081EC0BDE8F88F4FF00100BDE8F88F4FF001002D
S214081ED0BDE8F88F0663DDE64FF0FF30BDE8F88F03
S214081EE010B584B04FF00003009301930293039358
S214081EF042F28D20C0F2080046F69431C0F208017E
S214081F004FF4807241F62544C0F20804A047012821
S214081F101FD142F63113C0F208039847012818D19A
S214081F2041F23521C0F20801884748F64823C2F234
S214081F3007034FF001021A6048F66430C2F2070041
S214081F404FF00001018041F22933C0F20803984798
S214081F5007E030B941F23520C0F20800804700BFDC
S214081F60FDE704B010BD00BF48F64433C2F20703CD
S214081F701A6802F101021A60704700BF10B541F2F4
S214081F804923C0F20803984748F66430C2F20700AF
S214081F900488A4B241F27121C0F20801884720469D
S214081FA010BD00BF2DE9F84F48F64433C2F20703C8
S214081FB01868002840F0B98048F66433C2F2070370
S214081FC0188800F1010081B219801A8893B2002B94
S214081FD039D148F64420C2F2070001680A6832B1CF
S214081FE041F23525C0F20805A84700BFFDE748F6C8
S214081FF04423C2F20703196848F66832C2F2070299
S21408200010681860116048F66032C2F2070211685C
S21408201001F1010111601B68186838B940F208031D
S214082020C2F207034FF6FF7018800CE048F6442209
S214082030C2F207021168CB68D868828840F20801A5
S214082040C2F207010A8048F66432C2F20702118813
S21408205088B240F20803C2F207031A8891B288428F
S2140820606BD348F64420C2F2070003681A6882B1A8
S21408207048F64424C2F207042168C868C468A388DE
S21408208048F66432C2F20702118888B283421BD926
S21408209013E040F20803C2F207034FF6FF711980F7
S2140820A0BDE8F88F3468E268D468A3884846C2F268
S2140820B0070001888AB293421CD940F20800C2F28F
S2140820C007000380BDE8F88F41F2A517C0F208079D
S2140820D048F67828C2F2070848F67C2BC2F2070BA7
S2140820E041F2411AC0F2080A48F64426C2F2070628
S2140820F048F6643904F104052846B847A36A13B1BC
S21408210004F11800B847E16AD8F80020914288BF61
S214082110C8F8001001EB81000BEB80002946D04779
S214082120336819680029BDD1B3E748F62C21C2F2F6
S21408213007010A6802F101020A60BDE8F88F00BFCD
S2140821402DE9F04748F64433C2F20703186830B959
S21408215041F23525C0F20805A84700BFFDE741F261
S2140821604921C0F20801884748F64434C2F20704F9
S214082170226802F1FF3323602068002878D148F6E9
S2140821808831C2F207010C684CBB4FF0000474E0BB
S214082190D8F80C20D46804F11800B84704F10409EC
S2140821A04846B847E36A3068834288BF336051467A
S2140821B0C2F2070103EB830201EB8200494641F2B3
S2140821C04113C0F20803984748F64830C2F20700A1
S2140821D00168E46ACA6A944228BF01250FE04FF0F6
S2140821E0000548F64C38C2F2070841F2A517C0F2B7
S2140821F0080748F67826C2F2070648F67C2AD8F872
S2140822000020002AC4D148F62C23C2F20703186817
S214082210B0B148F62C22C2F207021368CBB141F6D9
S214082220A575C0F2080548F62C24C2F20704A8478C
S214082230206800F1FF3121602268002AF7D108E003
S214082240012D06D048F68431C2F207010C68012C2D
S21408225011D148F68433C2F207034FF000041C601D
S21408226041F22520C0F2080080474FF0010404E040
S2140822704FF0000401E04FF0000441F27121C0F273
S214082280080188472046BDE8F08700BF2DE9F843D7
S21408229048F64C25C2F2070541F66978C0F20808E8
S2140822A048F65026C2F2070642F241172DE0C0470C
S2140822B034683B46C0F20803984734B341F24920D5
S2140822C0C0F208008047F168CC6804F1040041F2C7
S2140822D0A512C0F20802904748F68833C2F20703F0
S2140822E0186800F1FF3119602A6802F1FF332B6085
S2140822F041F27120C0F208008047206B41F2C149C4
S214082300C0F20809C8472046C8472B68002BCED11C
S21408231048F67C20C2F2070001680129F5D941F287
S2140823202522C0F208029047EFE700BF38B50C46F2
S214082330054630B941F23524C0F20804A04700BF6C
S214082340FDE731B941F23525C0F20805A84700BFB8
S214082350FDE741F66973C0F2080398472888011913
S2140823608CB248F66432C2F20702138899B28842E1
S2140823700BD9A04234D948F66431C2F2070108885E
S21408238082B22C8094421DD90AE0A04226D848F68C
S2140823906430C2F20700028893B29C421ED81FE03F
S2140823A048F64833C2F20703186800F1040041F201
S2140823B0A511C0F208018847204641F6A132C0F2AE
S2140823C00802904742F24110C0F20800804748B918
S2140823D041F22523C0F20803984738BD2C80DFE772
S2140823E02C80EFE738BD00BF08B548F64433C2F284
S2140823F007031868A8B948F67821C2F207010A68E0
S21408240002EB82034FEA830048F67C21C2F20701FA
S2140824100A5852BB48F67823C2F20703186888B9E8
S21408242009E048F68431C2F207014FF0010008605F
S21408243008BD1A6872B941F23523C0F208039847F6
S21408244000BFFDE748F67823C2F2070348F67C216A
S214082450C2F207011A6802F1FF3018601A6802EB28
S214082460820051F82020002AE3D048F67823C2F2EA
S2140824700703196801EB810048F67C22C2F20702BE
S21408248002EB800359684868586003F108029042D6
S21408249004BF406858605B68D96848F64830C2F29E
S2140824A00700016008BD00BF38B50C4630B941F2D8
S2140824B03524C0F20804A04700BFFDE748F64835B3
S2140824C0C2F20705296801F1180141F26112C0F24B
S2140824D008029047286800F1040041F2A511C0F2EE
S2140824E0080188474FF6FF7084420CD1296848F6E1
S2140824F03020C2F2070001F1040141F24112C0F295
S2140825000802904738BD48F66433C2F207031A88B3
S214082510A11888B241F6A133C0F20803984738BD1F
S21408252038B50D4630B941F23524C0F20804A04744
S21408253000BFFDE748F64834C2F20704216801F1F7
S214082540180141F24112C0F208029047206800F1D3
S214082550040041F2A511C0F20801884748F6643025
S214082560C2F207000388EA1890B241F6A131C0F219
S2140825700801884738BD00BF38B5C368DC6834B979
S21408258041F23524C0F20804A04700BFFDE704F175
S2140825901805284641F2A511C0F20801884748F6F2
S2140825A04430C2F20700026822BB04F1040528463C
S2140825B041F2A511C0F208018847E06A48F6782279
S2140825C0C2F207021368984204D948F67821C2F284
S2140825D00701086000EB800348F67C200246C2F23A
S2140825E0070202EB8300294641F24113C0F20803B2
S2140825F0984709E048F64C30C2F20700294641F2EF
S2140826004113C0F20803984748F64831C2F207015A
S2140826100A68E06AD36A984234BF0020012038BDB1
S21408262008B5034630B941F23523C0F20803984787
S21408263000BFFDE748F66032C2F20702106818606D
S21408264048F66431C2F207010A889A8008BD00BFBE
S21408265038B50D46044630B941F23523C0F20803B2
S214082660984700BFFDE731B941F23525C0F20805A5
S214082670A84700BFFDE741F24923C0F20803984780
S21408268028884FF6FF7290422CD048F66031C2F286
S21408269007010B6822689A4208D048F66431C2F2ED
S2140826A007010B889AB2A18891421ED948F664336E
S2140826B0C2F207031988A2888B1A99B2884217D9DA
S2140826C048F66433C2F2070319888BB2D21A801808
S2140826D02880204642F22164C0F20804A0474FF042
S2140826E0000407E04FF0000404E04FF0010401E0A6
S2140826F04FF0010441F27121C0F2080188472046D4
S21408270038BD00BF48F68433C2F207034FF0010213
S2140827101A60704748F64833C2F2070318687047CD
S21408272048F64823C2F20703186848B148F6443109
S214082730C2F207010A68002A14BF02200120704767
S2140827404FF00000704700BF38B5044600284ED04A
S214082750C36A48F64832C2F207021068C16A8B425A
S21408276045D248F64832C2F207021068C16AC1F17B
S2140827700A02228303EB830348F67C20C2F2070092
S21408278000EB830162698A422AD104F104052846CF
S21408279041F2A512C0F20802904748F64833C2F242
S2140827A007031868C16AE16248F67822C2F207028F
S2140827B01368994204D948F67820C2F207000160E7
S2140827C001EB810148F67C221346C2F2070303EBAD
S2140827D08100294641F24112C0F20802904738BDEE
S2140827E048F64833C2F207031868C16AE16238BD82
S2140827F038B5044650B3C26AC36C9A4226D000F174
S2140828000405284641F2A511C0F208018847E06C85
S214082810E062C0F10A02228348F67823C2F2070370
S2140828201968884204D948F67822C2F2070210606E
S21408283000EB800348F67C20C2F2070000EB83001A
S214082840294641F24112C0F20802904738BD00BF3F
S21408285070B541F24923C0F20803984748F6C030DD
S214082860C2F20700016849BB48F69435C2F207056C
S214082870284641F22116C0F20806B04748F6A834A2
S214082880C2F207042046B04748F69032C2F2070262
S214082890156048F6C433C2F207031C604FF0050003
S2140828A04FF00C014FF0000241F2E163C0F208035A
S2140828B0984748F6C031C2F20701086041F2712015
S2140828C0C0F20800804770BD10B5044681802061BC
S2140828D0914213D8D01A218B83B2994221D948F64F
S2140828E0C432C2F20702106804F1040141F261130F
S2140828F0C0F2080398474FF0000010BD9A4201D274
S214082900994211D248F69033C2F20703186804F1C8
S214082910040141F26112C0F2080290474FF000002D
S21408292010BD4FF0010010BD4FF0010010BD00BFF4
S21408293010B584B042F65103C0F20803984748F62B
S214082940C030C2F207000168B9B14FF00902009220
S2140829504FF0000301930293039342F6D920C0F286
S214082960080046F6A031C0F208014FF4007241F69E
S2140829702544C0F20804A04730B941F23524C0F215
S2140829800804A04700BFFDE704B010BD10B584B02A
S21408299048F6C034C2F2070424683CB30191ADF887
S2140829A008200390BBB942F22173C0F20803984787
S2140829B0012848F6C033C2F20703186801A907BF02
S2140829C0BDF8182000230022134641F24D74C0F2C9
S2140829D00804A0470CE0204601A91A464FF0000359
S2140829E041F6CD04C0F20804A04701E04FF000000D
S2140829F004B010BD2DE9F04F85B0824641F67D73D0
S214082A00C0F208039847814648F6BC30C2F2070071
S214082A100188494551D92DE0DC682688B6B2DD68BC
S214082A20EC6804F104052846C047616A20468847D2
S214082A30E06901282DD1238BF21891B2B14209D949
S214082A40A18024613868294641F26113C0F2080360
S214082A5098471EE0CDF800B02046594632465B46F9
S214082A60039CA047A8B941F23527C0F20807B84723
S214082A7000BFFDE748F69037C2F2070741F2A518EF
S214082A80C0F208084FF0000B42F68D13C0F2080398
S214082A9003933B6818680028BED148F6C432C2F2D1
S214082AA00702116848F69030C2F20700016013600A
S214082AB04FF00103CAF8003003E04FF00002CAF8EE
S214082AC0002048F6BC32C2F20702A2F80090484638
S214082AD005B0BDE8F08F00BF2DE9F04F89B048F685
S214082AE0903BC2F2070B41F66973C0F208030393E2
S214082AF042F6F51AC0F2080ADBF800000268002A57
S214082B0000F0CD80C7683B889DB20398804704A82C
S214082B10D0470646049A002A52D1854238D842F24F
S214082B204110C0F208008047DBF80020D168CC6866
S214082B3004F1040041F2A517C0F20807B847E36994
S214082B40012B1FD1208B2A18204691B232462B46DD
S214082B5042F6C906C0F20806B047012812D14FF05F
S214082B6000030093204619462A4642F68D15C0F201
S214082B700805A84730B941F23527C0F20807B84714
S214082B8000BFFDE7616A204688471EE04FF0000553
S214082B90AE1B48F6C034C2F207042068B1B241F64C
S214082BA04D35C0F20805A84742F24117C0F208079B
S214082BB0B84750B941F22523C0F20803984704E005
S214082BC042F24111C0F20801884704A8D0470746D8
S214082BD048F6C036C2F2070641F67D15C0F208056B
S214082BE041F2A518C0F2080842F6C909C0F2080959
S214082BF04CE0079C24B1636913B104F10400C04794
S214082C00059802282AD003283AD000283ED1BDF8D5
S214082C101830228B9918204689B23A46C8470128A8
S214082C2034D1636A20469847E06901282ED1228B62
S214082C30BDF8181052184FF00003009320461946A6
S214082C4092B242F68D14C0F20804A047F0B941F2D9
S214082C503525C0F20805A84700BFFDE7BDF81800EF
S214082C60208330B941F23526C0F20806B04700BFC7
S214082C70FDE73918204689B23A463B46C84705E07C
S214082C80204641F2C143C0F208039847306805A9B8
S214082C904FF000021346A8470028AAD12CE703994C
S214082CA0884704A8D0470646049C002C3FF46EAF1D
S214082CB086E700BFF0B48CB006460F4601AC46F671
S214082CC0A835C0F208050FCD0FC40FCD0FC495E880
S214082CD0070084E80700019BB7FBF3F0B0FBF6F1AA
S214082CE0B1F5807F52D90299B7FBF1F2B2FBF6F143
S214082CF0B1F5807F4DD9039BB7FBF3F0B0FBF6F137
S214082D00B1F5807F48D90499B7FBF1F2B2FBF6F12A
S214082D10B1F5807F43D9059BB7FBF3F0B0FBF6F11E
S214082D20B1F5807F3ED90699B7FBF1F2B2FBF6F112
S214082D30B1F5807F39D9079BB7FBF3F0B0FBF6F106
S214082D40B1F5807F34D90899B7FBF1F2B2FBF6F1FA
S214082D50B1F5807F2FD9099BB7FBF3F0B0FBF6F1EE
S214082D60B1F5807F2AD90A99B7FBF1F2B2FBF6F1E2
S214082D70B1F5807F25D90B9BB7FBF3F0B0FBF6F1D6
S214082D80B1F5807F20D94FF6FF7021E04FF00002A2
S214082D901CE04FF0010219E04FF0020216E04FF077
S214082DA0030213E04FF0040210E04FF005020DE0B6
S214082DB04FF006020AE04FF0070207E04FF008025D
S214082DC004E04FF0090201E04FF00A0241EA02204F
S214082DD00CB0F0BC704700BF70B506460C460868D5
S214082DE058B1896842F6B543C0F2080398474FF6CB
S214082DF0FF71884214D0054601E04FF00005606870
S214082E0058B1A16842F6B542C0F2080290474FF69C
S214082E10FF73984204D045EA004535604FF000003D
S214082E2070BD00BF70B40B688D8A4A6802F00F0444
S214082E3025430E8935438A7A45EA42258C7D45EA3C
S214082E400446CA7D46EA42450C7E45EA844603F1B6
S214082E5010024FEA421544194651CE6866600A6960
S214082E6000EB4315C5F80C228C7D3CB18E8B4A8B43
S214082E7042EA064500EB4314C4F81852856C4FF036
S214082E80011606FA03F66FEA06021540CE7F06FA22
S214082E9003F68C7F04FA03F444EA06442C4384645D
S214082EA0456C2A4091F8215005FA03F591F8204020
S214082EB004FA03F444EA0544224342644FF001024C
S214082EC002FA03F291F822401CB1046A1443046221
S214082ED003E0046A24EA0204046291F82440012C00
S214082EE0846E0CBF14439443846691F82540012CE5
S214082EF0846E0CBF44EA024224EA02428266032B2E
S214082F000FD8C46E4FEAC3034FF0FF0202FA03F26B
S214082F1024EA020291F8231001FA03F31A43C26660
S214082F2010E0A3F10403046F4FEAC3034FF0FF0257
S214082F3002FA03F224EA020291F8231001FA03F3D4
S214082F401A4302674FF0000070BC704710B40C6854
S214082F500B69934207D3CA6000EB4410C0F80822F6
S214082F604FF0000001E04FF6FF7010BC704700BF3E
S214082F704FF0010303FA01F1416070474FF0010377
S214082F8003FA01F18160704710B54FF43D40C0F276
S214082F90015043F6ED13C0F2080398474FF00000BF
S214082FA04FF03E0143F2C552C0F20802904743F282
S214082FB03564C0F20804A0470028FCD043F24560F8
S214082FC0C0F2080080474FF4C061C4F20E0143F611
S214082FD00173C2F20D038B6243F25564C0F2080413
S214082FE0A0470028FCD04FF0100043F22552C0F24C
S214082FF00802904743F62500C0F2080080474FF4C1
S2140830003D40C0F2015043F6ED11C0F20801884772
S21408301010BD00BF10B541F65023C4F20E034FF49E
S21408302000425A604FF00B0043F26564C0F2080491
S214083030A0474FF00C00A0474FF00D00A0474FF0F8
S2140830400E00A0474FF03B004FF0605143F2792442
S214083050C0F20804A0474FF055004FF06051A04753
S2140830604FF056004FF06051A0474FF068004FF001
S2140830707901C2F60001A0474FF05C004FF001014D
S214083080C2F60001A0474FF46060C4F20E004FF489
S21408309040714FF0006243F29D13C0F20803984750
S2140830A04FF02B004FF00061A0474FF02A004FF07A
S2140830B00061A04710BD00BF0AB1416670470166AF
S2140830C0704700BF4264B1F1805F16D004D8C9B11A
S2140830D0B1F1006F15D109E0B1F1405F12D0B1F13E
S2140830E0605F0FD0B1F1205F0BD17047036F016F9F
S2140830F00B4023EA0203036703E0036F42EA030177
S21408310001674260704700BF41647047F8B50446DF
S2140831100D4616461F4643F20913C0F208039847A1
S21408312020462946069A43F2B903C0F20803984790
S2140831300FB1256500E065650EB1256300E065639F
S21408314025612560F8BD00BF70B504460D461646D5
S21408315043F20913C0F2080398472046294606F0AA
S214083160010243F2B903C0F20803984716F00A0FA3
S21408317014BF2562656216F0020F02D0C4F88050AC
S21408318004E016F0080F18BFC4F88450656125607F
S21408319070BD00BFC06C7047806C7047F0B583B0D8
S2140831A007460E46154602F0F044B4F1205F36D0C6
S2140831B006D8B4F1006F0AD0B4F1805F4DD11AE09A
S2140831C0B4F1405F33D0B4F1605F46D12FE04FF0E2
S2140831D00061324643F2C503C0F2080398473846F2
S2140831E0314605F0010243F2B903C0F208039847D6
S2140831F04FF0010033E04FF08051324643F2C503EA
S214083200C0F2080398473846314605F0010243F2F3
S214083210B903C0F2080398474FF001001FE043F2D5
S2140832204913C0F2080398474FF0010017E005F06D
S214083230605205F00100009038463146B2F1605FF2
S21408324014BF00220122C5F3800343F20D14C0F216
S2140832500804A0474FF0010001E04FF0000003B05B
S214083260F0BD00BF4FEA501000F5001101F20772DA
S2140832704FEA4220704700BFF0B583B007460D46B8
S21408328043F26523C0F208039847064605F0F04463
S214083290B4F1205F41D006D8B4F1006F0AD0B4F17B
S2140832A0805F62D120E0B4F1405F44D0B4F1605F43
S2140832B05BD140E007F01F004FF0010404FA00F766
S2140832C030464FF000613A4643F2C503C0F20803A1
S2140832D098473046394605EA040243F2B903C0F275
S2140832E008039847204642E007F01F074FF00104FE
S2140832F004FA07F74FF080513A4643F2C503C0F286
S214083300080398473046394605EA040243F2B903EB
S214083310C0F208039847204629E007F01F024FF03E
S214083320010404FA02F12A4643F24913C0F20803DC
S214083330984720461BE007F01F014FF0010405F0F0
S214083340605205EA04000090304604FA01F1B2F132
S214083350605F14BF00220122C5F3800343F20D15F7
S214083360C0F20805A847204601E04FF0000003B069
S214083370F0BD00BF70B506460C4643F29513C0F282
S214083380080398470546304643F29911C0F20801EB
S2140833908847054000F08C8048F6C830C2F207001F
S2140833A00068A0420CD148F6C832C2F2070251683B
S2140833B00D4205D01646D368984771688D4377D076
S2140833C048F6C830C2F207000069A0420CD148F699
S2140833D0C832C2F2070251690D4205D01646D369B3
S2140833E0984771698D4363D048F6C830C2F2070023
S2140833F0006AA0420CD148F6C832C2F20702516AE7
S2140834000D4205D01646D36A9847716A8D434FD049
S21408341048F6C830C2F20700006BA0420CD148F646
S214083420C832C2F20702516B0D4205D01646D36B5E
S2140834309847716B8D433BD048F6C830C2F20700F8
S214083440006CA0420CD148F6C832C2F20702516C92
S2140834500D4205D01646D36C9847716C8D4327D01D
S21408346048F6C830C2F20700006DA0420CD148F6F4
S214083470C832C2F20702516D0D4205D01646D36D0A
S2140834809847716D8D4313D048F6C830C2F20700CE
S214083490006EA0420CD148F6C832C2F20702516E3E
S2140834A0294205D048F6C833C2F20703DA6E9047B9
S2140834B070BD00BF08B54FF46060C4F20E004FF050
S2140834C00B0143F27533C0F20803984708BD00BFE6
S2140834D008B54FF48050C4F20E004FF00C0143F2CA
S2140834E07533C0F20803984708BD00BF08B54FF407
S2140834F09050C4F20E004FF00D0143F27533C0F23F
S2140835000803984708BD00BF08B54FF4A050C4F29A
S2140835100E004FF00E0143F27533C0F208039847C9
S21408352008BD00BF4FF4C063C4F20E031A6B22F046
S214083530700108431863986E10F0080F07D010E063
S21408354000F1FF33906E10F0080F38D009E04FF402
S21408355000604FF4C062C4F20E02916E11F0080FBC
S214083560EED04FF4C061C4F20E010A6B22F00303DA
S21408357043F002000863896E11F0080F09D04FF077
S2140835800000704703F1FF33916E11F0080F13D057
S21408359009E04FF400634FF4C062C4F20E02906E66
S2140835A010F0080FEED04FF0000070474FF0010003
S2140835B070474FF001007047013BF0D1F9E7581EFD
S2140835C0CBD1F3E788B14FF4C061C4F20E01086AA4
S2140835D04FF6FC72CFF6C86202404FF00203C0F204
S2140835E0371342EA0300086270474FF4C063C4F218
S2140835F00E031A6A22F45C1020F0030242F45C10F0
S21408360040F001024FEA016142EA114018624FF4A5
S214083610C062C4F20E02936E13F0010FFBD04FF493
S214083620C061C4F20E01086A40F09B7242F480330F
S2140836300B6270474FF4C063C4F20E03986E00F432
S214083640803070474FF4C063C4F20E034FF0005248
S2140836509A6270474FF4C063C4F20E03986E00F087
S214083660020070472C2835D81F2817D84FF4C06199
S214083670C4F20E018A694FF0010303FA00F31A40F8
S21408368093422AD04FF0010101FA00F04FF4C062CD
S214083690C4F20E0210614FF0000070474FF4C0638A
S2140836A0C4F20E03D3F80821A0F120004FF0010160
S2140836B001FA00F10A40914212D04FF0010303FAD2
S2140836C000F04FF4C062C4F20E02C2F800014FF0D8
S2140836D0000070474FF0010070474FF00000704739
S2140836E04FF00000704700BFFEE700BF38B540F255
S2140836F00003C2F2070346F65042C0F208029A4296
S21408370003D040484049814204D3404B404A9A423D
S21408371025D342E03F4D404C631B23F003054FF092
S214083720000340F20002C2F2070246F65041C0F219
S214083730080105F10400C5F380045D589D5003F1A7
S2140837400403834255D1E0E75D589D5003F1040316
S2140837505C589C5003F104038342F5D1D5E72F4DFE
S2140837602F49481B20F0030440F6D003C2F2070393
S214083770E2184FF00001501BA0F10400C0F38004CB
S21408378045F8041F95422DD107E005F1040369604A
S21408379005F1080559609542F7D140F20005C0F2D8
S2140837A0080525F0604222F07F014FF46D40CEF206
S2140837B00000816005F16044B4F5801F07D24FF41D
S2140837C06D43CEF200039D6845F000529A6044F2BD
S2140837D0CD31C0F20801884740F62940C0F20800FB
S2140837E08047FEE7002CD0D045F8041F9542CCD180
S2140837F0D3E7002CA8D05C589C5003F104038342FE
S214083800A2D182E7D008072000000720B48C072042
S214083810D008072004000720D3080720CC08072074
S214083820AF8C07204FF4C063C4F20E03186B00F089
S2140838300301032900F2B180DFE801F002144F4FBC
S21408384041F61020C4F20E00416911F0800F40F2D4
S2140838500C03C2F2070314BF4FF400424FF4FA42B7
S2140838601A609AE04FF4C063C4F20E03186A10F0A8
S214083870807F09D04FF4D853C0F2B70340F20C0249
S214083880C2F20702136088E04FF41061C0F23D01EF
S21408389040F20C02C2F2070211604FF4C063C4F291
S2140838A00E03186A00F07001102902D0202974D17E
S2140838B009E04FF49050C0F27A0040F20C01C2F2D0
S2140838C00701086069E04FF4D853C0F2B70340F226
S2140838D00C02C2F2070213605FE04FF4C062C4F243
S2140838E00E02136A13F0807F09D04FF4D851C0F245
S2140838F0B70140F20C02C2F20702116027E04FF44B
S2140839001060C0F23D0040F20C01C2F207010860E8
S2140839104FF4C062C4F20E02136A03F07000102857
S21408392002D0202813D109E04FF49053C0F27A034E
S21408393040F20C00C2F20700036008E04FF4D851CA
S214083940C0F2B70140F20C02C2F2070211604FF44F
S214083950C063C4F20E03186B00F00301022913D1EA
S2140839604FF4C061C4F20E01886A896A40F20C03FB
S214083970C2F20703C0F30A401A6800FB0220C9B265
S214083980B0FBF1F21A6008E04FF4E053C0F64E635D
S21408399040F20C02C2F2070213604FF4C062C4F28F
S2140839A00E02106B00F0700170290ED140F20C0365
S2140839B0C2F2070318684AF6AB22CAF6AA22A2FB86
S2140839C000014FEA5100186070474FF4C063C4F214
S2140839D00E031A6B40F20C00C2F20700C2F3021183
S2140839E0036823FA01F30360704700BF4EF6BF234F
S2140839F0C0F2211398420CD84FF42063C4F20E0389
S214083A004FF0000018604FF44061C4F20E010860E1
S214083A1070474FF27F01C0F2FA2188420CD84FF463
S214083A202060C4F20E004FF4807101604FF44062CB
S214083A30C4F20E021160704748F6FF73C0F2D03326
S214083A4098420CD84FF42061C4F20E014FF400726D
S214083A500A604FF44063C4F20E031A6070474BF2D4
S214083A60FF31C0F2C44188420CD84FF42063C4F238
S214083A700E034FF440721A604FF44060C4F20E0012
S214083A800260704744F67F23C0F25D5398424FF4B5
S214083A902060C4F20E0094BF4FF480624FF4A06218
S214083AA002604FF44061C4F20E010A60704700BF1E
S214083AB048F63843C2F20703196841B948F638434E
S214083AC0C2F207034AF6B842C2F207021A6048F67C
S214083AD03841C2F207010B68181847F6FC72C2F2A2
S214083AE00802824206DB014648F63840C2F2070062
S214083AF0016001E04FF0FF33184670474FF0FF3083
S214083B00704700BF4FF400534B604FF000007047FB
S214083B104FF00100704700BF4FF00000704700BF2D
S214083B2081F0004102E000BF83F0004330B54FEA61
S214083B3041044FEA430594EA050F08BF90EA020FCE
S214083B401FBF54EA000C55EA020C7FEA645C7FEA61
S214083B50655C00F0E2804FEA5454D4EB5555B8BF84
S214083B606D420CDD2C4480EA020281EA030382EAF5
S214083B70000083EA010180EA020281EA0303362D87
S214083B8088BF30BD11F0004F4FEA01314FF4801C5A
S214083B904CEA113102D0404261EB410113F0004F6C
S214083BA04FEA03334CEA133302D0524263EB430323
S214083BB094EA050F00F0A780A4F10104D5F1200EC1
S214083BC00DDB02FA0EFC22FA05F2801841F100011C
S214083BD003FA0EF2801843FA05F359410EE0A5F1F0
S214083BE020050EF1200E012A03FA0EFC28BF4CF021
S214083BF0020C43FA05F3C01851EBE37101F00045D7
S214083C0007D54FF0000EDCF1000C7EEB00006EEBE3
S214083C100101B1F5801F1BD3B1F5001F0CD349086D
S214083C205FEA30004FEA3C0C04F101044FEA4452C4
S214083C3012F5800F80F09A80BCF1004F08BF5FEA4B
S214083C40500C50F1000041EB045141EA050130BD2B
S214083C505FEA4C0C404141EB010111F4801FA4F1CE
S214083C600104E9D191F0000F04BF01460020B1FA23
S214083C7081F308BF2033A3F10B03B3F120020CDA5B
S214083C800C3208DD02F1140CC2F10C0201FA0CF039
S214083C9021FA02F10CE002F11402D8BFC2F1200C9E
S214083CA001FA02F120FA0CFCDCBF41EA0C01904054
S214083CB0E41AA2BF01EB0451294330BD6FEA04049D
S214083CC01F3C1CDA0C340EDC04F11404C4F1200288
S214083CD020FA04F001FA02F340EA030021FA04F39A
S214083CE045EA030130BDC4F10C04C4F1200220FAF1
S214083CF002F001FA04F340EA0300294630BD21FA2F
S214083D0004F0294630BD94F0000F83F4801306BFF4
S214083D1081F480110134013D4EE77FEA645C18BFE8
S214083D207FEA655C29D094EA050F08BF90EA020F7F
S214083D3005D054EA000C04BF1946104630BD91EA77
S214083D40030F1EBF0021002030BD5FEA545C05D17A
S214083D504000494128BF41F0004130BD14F58004B9
S214083D603CBF01F5801130BD01F0004545F0FE412D
S214083D7041F470014FF0000030BD7FEA645C1ABF62
S214083D80194610467FEA655C1CBF0B46024650EA99
S214083D90013406BF52EA033591EA030F41F40021C5
S214083DA030BD00BF90F0000F04BF0021704730B54B
S214083DB04FF4806404F132044FF000054FF0000120
S214083DC050E700BF90F0000F04BF0021704730B5E1
S214083DD04FF4806404F1320410F0004548BF4042B6
S214083DE04FF000013EE700BF42004FEAE2014FEA0B
S214083DF031014FEA02701FBF12F07F4393F07F4FE6
S214083E0081F06051704792F0000F14BF93F07F4F17
S214083E10704730B54FF4607401F0004521F000415A
S214083E2020E700BF50EA010208BF704730B54FF0E0
S214083E3000050AE050EA010208BF704730B511F0E5
S214083E40004502D5404261EB41014FF4806404F11D
S214083E5032045FEA915C3FF4DCAE4FF003025FEA9F
S214083E60DC0C18BF03325FEADC0C18BF033202EB27
S214083E70DC02C2F1200300FA03FC20FA02F001FA81
S214083E8003FE40EA0E0021FA02F11444C1E600BF20
S214083E9070B54FF0FF0C4CF4E06C1CEA11541DBFD3
S214083EA01CEA135594EA0C0F95EA0C0F00F0DEF89E
S214083EB02C4481EA030621EA4C5123EA4C5350EA83
S214083EC0013518BF52EA033541F4801143F48013D4
S214083ED038D0A0FB02CE4FF00005E1FB02E506F065
S214083EE00042E0FB03E54FF00006E1FB03569CF0BA
S214083EF0000F18BF4EF0010EA4F1FF04B6F5007FC0
S214083F0064F5407404D25FEA4E0E6D4146EB060631
S214083F1042EAC62141EA55514FEAC52040EA5E50BA
S214083F204FEACE2EB4F1FD0C88BFBCF5E06F1ED864
S214083F30BEF1004F08BF5FEA500E50F1000041EB9B
S214083F40045170BD06F0004646EA010140EA020048
S214083F5081EA0301B4EB5C04C2BFD4EB0C0541EA6A
S214083F60045170BD41F480114FF0000E013C00F37F
S214083F70AB8014F1360FDEBF002001F0004170BDA3
S214083F80C4F10004203C35DA0C341BDC04F11404BC
S214083F90C4F1200500FA05F320FA04F001FA05F248
S214083FA040EA020001F0004221F0004110EBD37015
S214083FB021FA04F642EB06015EEA430E08BF20EA41
S214083FC0D37070BDC4F10C04C4F1200500FA04F3E4
S214083FD020FA05F001FA04F240EA020001F0004176
S214083FE010EBD37041F100015EEA430E08BF20EAE9
S214083FF0D37070BDC4F1200500FA05F24EEA020E31
S21408400020FA04F301FA05F243EA020321FA04F05F
S21408401001F0004121FA04F220EA020000EBD37016
S2140840205EEA430E08BF20EAD37070BD94F0000F16
S2140840300FD101F00046400041EB010111F4801F4A
S21408404008BF013CF7D041EA060195F0000F18BFFB
S214084050704703F00046520043EB030313F4801F37
S21408406008BF013DF7D043EA0603704794EA0C0FF1
S2140840700CEA135518BF95EA0C0F0CD050EA410607
S21408408018BF52EA4306D1D181EA030101F0004184
S2140840904FF0000070BD50EA410606BF10461946AC
S2140840A052EA430619D094EA0C0F02D150EA0136B8
S2140840B013D195EA0C0F05D152EA03361CBF1046F9
S2140840C019460AD181EA030101F0004141F0FE4198
S2140840D041F470014FF0000070BD41F0FE4141F41C
S2140840E0780170BD70B54FF0FF0C4CF4E06C1CEA1C
S2140840F011541DBF1CEA135594EA0C0F95EA0C0FD1
S21408410000F0A7F8A4EB050481EA030E52EA03358B
S2140841104FEA013100F088804FEA03334FF08055AC
S21408412045EA131343EA12634FEA022245EA1115D9
S21408413045EA10654FEA00260EF000419D4208BF8A
S214084140964244F1FD0404F5407402D25B084FEA37
S2140841503202B61A65EB03055B084FEA32024FF4E3
S21408416080104FF4002CB6EB020E75EB030E22BF40
S214084170B61A754640EA0C005B084FEA3202B6EB00
S214084180020E75EB030E22BFB61A754640EA5C00AF
S2140841905B084FEA3202B6EB020E75EB030E22BF3F
S2140841A0B61A754640EA9C005B084FEA3202B6EB40
S2140841B0020E75EB030E22BFB61A754640EADC00FF
S2140841C055EA060E18D04FEA051545EA16754FEA61
S2140841D006164FEAC30343EA52734FEAC2025FEA7F
S2140841E01C1CC0D111F4801F0BD141EA00014FF00E
S2140841F000004FF0004CB6E711F4801F04BF0143DF
S2140842000020B4F1FD0C88BFBCF5E06F3FF6AFAEFA
S214084210B5EB030C04BFB6EB020C5FEA500C50F18A
S214084220000041EB045170BD0EF0004E4EEA11310D
S21408423014EB5C04C2BFD4EB0C0541EA045170BD14
S21408424041F480114FF0000E013C90E645EA060E58
S2140842508DE60CEA135594EA0C0F08BF95EA0C0F86
S2140842603FF43BAF94EA0C0F0AD150EA01347FF4CE
S21408427034AF95EA0C0F7FF425AF104619462CE7A5
S21408428095EA0C0F06D152EA03353FF4FDAE104608
S214084290194622E750EA410618BF52EA43067FF459
S2140842A0C5AE50EA41047FF40DAF52EA43057FF4E9
S2140842B0EBAE12E74FEA410212F5001215D211D5FD
S2140842C06FF47873B3EB625212D94FEAC12343F006
S2140842D0004343EA505311F0004F23FA02F018BF88
S2140842E0404270474FF00000704750EA013005D151
S2140842F011F0004008BF6FF0004070474FF0000014
S214084300704700BF2DE9F8439846234B06461C68BD
S2140843100F46D4F84801914618B904F5A670C4F8B3
S214084320480141681F2916DD1C4818B94FF0FF30B0
S214084330BDE8F8834FF4C87001F0C0FB0028F5D03C
S214084340D4F84821002545600260C4F84801C0F842
S2140843508851C0F88C51B6B14468012202FA04F2BA
S214084360D0F8881100EB84031143022EC3F8889016
S214084370C0F888111C46C3F8088104D1D0F88C31DF
S2140843801A43C0F88C2141688B1C4A1C40F82370DD
S21408439042600020BDE8F883D46B0800BD5A0800C8
S2140843A070B5084B084C0025E01A841003EB840609
S2140843B0043D1CB172599047013CF9E7BDE87040CE
S2140843C002F03ABC446C0800486C080038B50E4D3C
S2140843D00E4B0024E81A8510AC4205D00B4951F85C
S2140843E0242090470134F7E702F01CFC0849094AE4
S2140843F0541AA5100024AC4205D0054B53F82400E7
S21408440080470134F7E738BD306C0800306C080088
S214084410306C0800386C08000FB407B5064904ABC2
S214084420086853F8042B8168019300F0F7F8BDE894
S2140844300E4004B0704700BF100007200EB403B546
S21408444003AB53F8042B8168019300F0E7F8BDE846
S2140844500C4003B0704700BF10B50023934203D04A
S214084460CC5CC4540133F9E710BD82180346934266
S21408447002D003F8011BFAE7704700290CBF022296
S21408448000224FF4806300F001B800002DE9F041E7
S2140844901D46374B044618680E461746984618B108
S2140844A0826B0AB900F0C8FE022F5DD8002D5BDBD0
S2140844B02146D8F8000000F0CDFDA189002001F0C3
S2140844C080031AB26060A06122B129482169006899
S2140844D000F0F0FFA189022F21F08303A38112D0F8
S2140844E036BB002D08BF4FF48065284601F0E6FA73
S2140844F00646C8B94FF4806001F0E0FA064688B967
S2140845004FF0FF3000E00020A189002241F00203AE
S214084510A38104F143010123A26021602161636144
S214084520BDE8F0814FF48065A28942F08000A08142
S214084530012F05D1A1896A4241F00103A381A26136
S2140845400B48A28901680B4B02F0080000B2CB6347
S21408455026602661656148B112F0030F18BF002572
S214084560A5600020BDE8F0814FF0FF30BDE8F0817F
S21408457010000720AD510800034613F8012B002A47
S214084580FBD1181A0138704730B5013903461C4666
S2140845903AB111F8015F013A03F8015B1C46002D99
S2140845A0F5D199188C4203D0002204F8012BF9E7BC
S2140845B030BD000093682DE9F04781460F46144643
S2140845C01BB953601846BDE8F0874B6E9B041ED592
S2140845D01568A0680835C8B155F8041C55F808AC25
S2140845E04FEA91080026464509DA48465AF8261042
S2140845F03A4600F09DFE431C0BD00136F3E7A2684E
S2140846004FEA8808C8EB0203A360E2E701E001F07E
S21408461007F80021A1606160BDE8F0872DE9F04F3A
S2140846208946A9B014461D461E46824618B1836BB5
S2140846300BB900F001FEB9F80C0000F4005211B2F4
S21408464049B940F40053D9F86400A9F80C3020F4AE
S2140846500052C9F86420B9F80C1001F0080318B223
S21408466048B1D9F8102032B1B9F80C1001F01A0385
S2140846700A2B16D109E05046494600F07FFC002870
S214084680F2D04FF0FF320392D3E3B9F90E000028B8
S21408469007DB5046494622462B4600F0CEFB0390E1
S2140846A0C7E3002218AD0B950D920C920194059263
S2140846B00392A84601990C4611F8013B0BB1252B2D
S2140846C0F9D1019AA51A19D00C990D984B1C88E8AF
S2140846D02400072B00EB05020D9208F108080C933E
S2140846E009DD504649460BAAFFF764FF002840F04C
S2140846F098830DF1600803984219039221780029DF
S21408470000F088830022013401948DF827204FF0AA
S214084710FF3C04921746019810F8013B0190632B62
S21408472000F0B38033DC392B1ADC312B80F2918011
S2140847302B2B01D11A46EEE70ADC232B55D02A2B61
S21408474056D0202B40F0F581002A08BF2022E2E749
S2140847502E2B58D0302B79D02D2B40F0EA814FE005
S2140847604F2B00F0DE8007DC442B40F0E2818DF80A
S214084770272047F0100790E0552B00F01F81582B94
S21408478040F0D781AE4D8DF82720059530E16F2B88
S21408479000F0C98010DC692B24D007DC642B21D0FC
S2140847A0682B40F0C68147F04007B4E76C2B5FD013
S2140847B06E2B40F0BE8196E0732B00F0DF8006DC9F
S2140847C0702B00F0CD80712B40F0B3815AE0752B2A
S2140847D000F0F680782B40F0AC819A4D8DF82720B3
S2140847E0059505E18DF8272057E047F0010792E781
S2140847F0331D3668002E049615DA704204901E465D
S21408480047F0040787E7019911F8013B2A2B019125
S2140848100BD1D6F800C0331DBCF1000F03DA1E46D4
S2140848204FF0FF3C77E71E4675E74FF0000CA3F104
S2140848303000092807D801990A2303FB0C0C11F845
S214084840013B0191F3E74CEAEC7C68E747F0800708
S21408485061E701980021303B0A2404FB013110F877
S214084860013BA3F13004092C0190F4D9049156E7D2
S21408487001990B786C2B02D1481C019002E047F096
S214084880100748E747F0200745E7326800258DF807
S21408489038208DF82750043655E1BA0607D507366E
S2140848A026F0070505F10806D5E900450FE017F0DC
S2140848B0100F06F1040101D0326805E017F0400F2A
S2140848C0326801D014B200E01446E5170E46002CF4
S2140848D075F1000280F2B8802D23644265EB450529
S2140848E08DF82730B0E017F0200F8DF8272006F156
S2140848F0040205D0039C3568E0172C60686004E065
S214084900FB0604D53368039919601646D2E6306864
S214084910039C17F0400F06F1040614BF04800460D9
S214084920C8E647F0100717F0200008D0F31D23F05C
S214084930070505F10806D5E9004500207CE017F0D4
S214084940100106F1040206D117F0400003D034889F
S21408495000251646F1E736680025344616466BE00D
S214084960384B302178223468002547F002078DF846
S21408497028108DF82920043605935CE0314600257A
S214084980D1F800B00436AC458DF82750584611DBF0
S21408499062462946CDF800C001F0A2FADDF800C04C
S2140849A0002800F0D480CBEB0004644540F3D180A7
S2140849B06446CEE0FFF7E0FD0446CAE047F010077D
S2140849C0BD0606D5F01D20F0070404F1080630CC15
S2140849D00CE017F0100F06F1040303D17C0601D58E
S2140849E0348801E035682C4600251E46012023E061
S2140849F0B80607D5F41D24F0070101F10806D1E929
S214084A0000450CE017F0100F06F1040003D17906F4
S214084A1001D5348801E03668344600250646FA078C
S214084A2009D554EA050206D030228DF828208DF8DC
S214084A30293047F00207022000218DF8271004E0ED
S214084A40FA6B08000B6C08000120BCF1000FA8BF29
S214084A5027F0800754EA050102D1BCF1000F58D0B0
S214084A6001281DD002280DF15F0341D004F007028B
S214084A70E40844EA4570E90804460D46303254EA2C
S214084A8005019B461A7003F1FF33EFD1F8075D4620
S214084A904AD5302A48D030229B4605F8012C43E0F8
S214084AA0002D08BF0A2C03D230348DF85F4036E05C
S214084AB00DF15F030293204629460A220023CDF80B
S214084AC000C001F00FFD0298303200F8012929468F
S214084AD00A220023DDF808B00290204601F002FD05
S214084AE004460D4654EA0501DDF800C0E3D11BE094
S214084AF0059904F00F0024090A5C44EA05702909A0
S214084B0004460D469B4603F8012954EA0502EFD1F0
S214084B100AE038B9F90705D530208DF85F000DF1A1
S214084B205F0B01E00DF1600B18ADCBEB0504654695
S214084B300FE08DF82720002B00F06C8100258DF8FB
S214084B4038308DF8275001240DF1380B01E0644603
S214084B5005469DF82730AC42ACBF2146294602914F
S214084B6013B10298421C029217F00201069102D075
S214084B70029B981C029017F0840207923AD1049977
S214084B80029BCB1A002B35DDA048102BC8F8000076
S214084B901ADD0C9910200D9AC8F80400481C10322B
S214084BA007280D9208F108080C900BDD5046494678
S214084BB00BAA0093FFF7FEFC009B002840F031810B
S214084BC00DF16008103BDFE70D9AC8F80430D118DD
S214084BD00C9B0D91581C072808F108080C9009DD55
S214084BE0504649460BAAFFF7E5FC002840F0198115
S214084BF00DF160089DF82720D2B10DF12701C8F8FD
S214084C0000100C9901230D98C8F804304B1C421C60
S214084C10072B0D9208F108080C9309DD5046494603
S214084C200BAAFFF7C7FC002840F0FB800DF16008D0
S214084C300698C8B10AAAC8F800200C9A02210D9B4B
S214084C40C8F80410511C981C07290D9008F108088C
S214084C500C9109DD504649460BAAFFF7ABFC002825
S214084C6040F0DF800DF16008079B802B3AD104984E
S214084C70029A831A002B35DD6549102BC8F80010F8
S214084C801ADD0C9A10210D98C8F80410511C103023
S214084C9007290D9008F108080C910BDD5046494687
S214084CA00BAA0093FFF786FC009B002840F0B9800B
S214084CB00DF16008103BDFE70C9A0D98511CC8F8F8
S214084CC00430072903440D9308F108080C9109DD00
S214084CD0504649460BAAFFF76DFC002840F0A18015
S214084CE00DF160082D1B002D32DD4948102DC8F83F
S214084CF0000018DD0C9A0D98531C10211030072B55
S214084D00C8F804100D9008F108080C9309DD504601
S214084D1049460BAAFFF74EFC002840F082800DF1AA
S214084D206008103DE1E70C9A0D9B511CC8F804502A
S214084D3007291D440D9508F108080C9108DD504612
S214084D4049460BAAFFF736FC00286AD10DF1600821
S214084D500C9A0D98511CC8F8044007290444C8F852
S214084D6000B00D9408F108030C9107DD504649463B
S214084D700BAAFFF71FFC002853D118AB7A070BD4F1
S214084D80039B029A04990D988A42ACBF9B185B183D
S214084D900393002835D02EE0049C0298241A002C91
S214084DA0EEDD1A4A102C1A6014DD0C9810220D99A4
S214084DB05A60421C10310833072A0D910C9207DD01
S214084DC0504649460BAAFFF7F5FB002829D118AB31
S214084DD0103CE6E70C995C600D9B481C1C190728DC
S214084DE00D940C90CCDD504649460BAAFFF7E2FB23
S214084DF00028C5D015E0504649460BAAFFF7DAFB4F
S214084E0078B900250C950DF1600853E4DA6B0800B4
S214084E10EA6B08000D9A22B1504649460BAAFFF7DE
S214084E20C9FBB9F80C1001F0400003B2002B7FF460
S214084E3028AC039829B0BDE8F08F70B50C46898970
S214084E40ADF58D6D21F00205616EADF80C50199127
S214084E50E589E169ADF80E500791656A1AA90091CF
S214084E6004910021099506914FF4806569460295DC
S214084E7005950646FFF7D2FB051E07DB3046694652
S214084E8000F0E8F8002818BF4FF0FF35BDF80C30E2
S214084E9003F0400002B21AB1A18941F04003A38191
S214084EA028461AB00DF5806D70BD30B51346054A14
S214084EB005460C46106829462246BDE83040FFF7EE
S214084EC0ADBB00BF1000072070B50D461446064659
S214084ED018B1836B0BB900F0AFF9A189A06901F08E
S214084EE0080213B2A0600BB1206958B930462146B3
S214084EF000F044F830B1A589092045F04001A181A9
S214084F00306017E0A189EDB201F4005213B233B94C
S214084F1041F40050616EA08121F400526266206858
S214084F2023696169C01A884207DB3046214600F0CB
S214084F3091F810B14FF0FF3515E0A2682168531EAE
S214084F40A36001F8015B626901309042216004D0D9
S214084F50A389DB0707D50A2D05D13046214600F080
S214084F6079F80028E6D1284670BD0A460249034665
S214084F7008681946FFF7A8BF1000072038B52C4B5D
S214084F80054618680C4618B1826B0AB900F054F941
S214084F90A08900F008010BB20BBB00F0100211B29A
S214084FA011B94FF0FF3038BD00F0040003B293B1DA
S214084FB0216B41B104F14002914202D0284600F02C
S214084FC079FA00212163A089216920F024030022B0
S214084FD0A38162602160A08940F00803A38122694A
S214084FE04AB9A18901F42070B0F5007F03D028469D
S214084FF0214600F0F7FCA38913F0010205D0616989
S21408500000224842A260A06107E003F0020108B24D
S21408501008B9636900E01346A360236933B9A28917
S21408502002F0800108B20028BBD138BD002038BD88
S21408503010000720024B13B1024800F005B870476D
S21408504000000000A143080001460020024603466F
S214085050FFF758B92DE9F0410C46054618B1836BA1
S2140850600BB900F0E9F8A28932B302F0080001B2E1
S214085070002962D1616842F400600029A08102DC40
S214085080E36B002B18DDA66AB6B102F48052002046
S21408509012B22F6828600AB1226D10E00123284654
S2140850A0E169B0470246013009D1296839B11D299E
S2140850B001D016294ED12F600020BDE8F081A689C0
S2140850C006F004010BB22BB16068266B121A0EB1FB
S2140850D0E16B521AE1690023A66A2846B047411CCC
S2140850E005D12A681AB11D2A01D0162A1FD1A3890C
S2140850F0002123F40062A28103F4805322696160D0
S21408510019B2226021B1421C01D12A6802B9206571
S214085110216B2F600029CFD004F14000814202D0D5
S214085120284600F0C7F900202063BDE8F081A3896F
S21408513043F04001A181BDE8F0812669002EBBD06E
S214085140920723680CBF62690022C6EB0308266034
S214085150A26012E0A38943F04000A0814FF0FF3020
S214085160BDE8F081676A2846E16932464346B84793
S2140851700028EFDD3618C0EB0808B8F1000FF1DCA0
S2140851809AE7014620B904480449006800F0C4BB01
S214085190034B1868FFF75EBFD46B0800555008002D
S2140851A0100007200020704700207047014900F0D3
S2140851B092BB00BF49640800002310B5044603608C
S2140851C04360836081814366C28103614361836172
S2140851D01946082200F15C00FFF747F9044805491C
S2140851E0054A064BE46120626162A262E36210BD72
S2140851F0316208005762080093620800B762080028
S21408520070B568254D430E4605F10C0100F066FCA6
S214085210044640B100F10C00002184E84200A0607A
S2140852202A46FFF722F9204670BD024B1868FFF79A
S214085230BDBF00BFD46B080038B5836B0446EBB916
S2140852400F4A0125C0F8E032C263856304F53B7156
S21408525003201A46C4F8E402C4F8E8126068042179
S214085260FFF7AAFFA06809212A46FFF7A5FFE0680E
S21408527012210222BDE83840FFF79EBF38BD00BFA6
S214085280AD510800F8B51D4B07461E68B06B10B93F
S2140852903046FFF7D1FF06F53876B46871680139ED
S2140852A004D4B4F90C5085B16834F8E732680AB10A
S2140852B03668F2E738460421FFF7A2FF3060002878
S2140852C0F6D10C243C60044615E04FF6FF73012027
S2140852D0A081E38165662560A560656025616561D6
S2140852E0A56104F15C0029460822FFF7BEF825638D
S2140852F065636564A5642046F8BD00BFD46B0800E6
S2140853007047704770477047024B0349186800F0AB
S214085310E2BA00BF10000720A5510800024B034957
S214085320186800F0D8BA00BF10000720A951080076
S21408533093892DE9F341144603F40052804610B2CF
S2140853400E4630B9676E43F4005147F40053A18106
S214085350636600F029FB012806D12EB1FF2E03D87C
S2140853608DF8046007460FE03246404601A904F16E
S2140853705C0300F0AFFF421C074605D1A28942F045
S2140853804000A081384631E00025BD422AD0A168F9
S21408539001AB4A1E002AA2601ADAA06982420CDB18
S2140853A021685A5D0A70236819780A2903D00133E0
S2140853B00022236013E0404601E0595D404622463D
S2140853C0FFF782FDB0F1FF31484250EB010206E0DC
S2140853D02068595D01702268531C236000E01AB9E2
S2140853E00135D2E7304601E04FF0FF30BDE8FC81DA
S2140853F0F8B5084C074620680E4618B1856B0DB9F7
S214085400FFF71AFF206839463246BDE8F840FFF72E
S2140854108FBF00BF10000720F8B5234D0E46044680
S21408542000F086FDAB685F6827F0030707F6EF70A5
S214085430811B21F47F6222F00F06A6F58056B6F58A
S214085440805F04DA204600F074FD0020F8BD0021D5
S214085450204600F0DDFEAB68D9198842F2D17142C9
S214085460204600F0D5FE013010D10021204600F07D
S214085470CFFEAB68C21A0F2AE4DD0C4942F00102DF
S21408548009685A60401A0A490860DBE7084BA868AA
S2140854901A68BF1B47F001074760961B20461E6028
S2140854A000F047FD0120F8BDBC040720C40807200B
S2140854B0408C0720F8B506460D46002900F0A68061
S2140854C000F036FD55F804CC514FA5F108032CF032
S2140854D001029C18B96860688C4220F003000CF042
S2140854E001011CD1821839B955F8081C5B1A98684E
S2140854F05218D968C1608860454842F00101596071
S2140855008360444B19688A4204D3434A304611687C
S214085510FFF782FF3046BDE8F84000F00ABD60603D
S21408552059B955F8085C08375B1B52199D68BD4287
S21408553005D0DF68EF60BD6002E0002100E00121D1
S21408554025186D6815F0010F0FD1121849B9A06813
S214085550324DA84205D1EB60AB60D8609860012157
S21408556003E0E068A468E060846042F001005860E8
S2140855709A500029CED1B2F5007F0CD2D2089010EE
S214085580012404FA00F4224948682043486001EBE5
S214085590C200816835E0540A042C02D894093834CD
S2140855A016E0142C01D85B3412E0542C02D8140BE5
S2140855B06E340DE0B4F5AA7F02D8D40B773407E032
S2140855C040F25455AC4202D8940C7C3400E07E2459
S2140855D00F4D05EBC400816881420CD10122A4104E
S2140855E002FA04F4686844EA00026A60084608E0BA
S2140855F08968814204D04C6824F00304A242F7D399
S214085600C868D86099608360CB6083E7F8BD00BF40
S214085610BC040720C80807203C8C0720C4040720C1
S21408562093682DE9F74F06460C4691460BB90020BD
S2140856304FE1888900F008010AB20AB123695BB90C
S21408564030462146FFF79AFC30B1A189092241F07D
S2140856504000A08132603AE1B4F80CA0D9F8008086
S2140856600AF0020C0FFA8CF515B34FF0000A5746ED
S21408567037B9D8F800A0D8F8047008F10808F7E792
S214085680B7F5806F34BF3B464FF480633046E16918
S2140856905246656AA847002840F31581D9F80810CD
S2140856A082443F1A081AC9F808000028E0D1BEE765
S2140856B01AF0010A04D0AB4601952F46AA46C7E061
S2140856C0554635B9D8F800A0D8F8045008F10808A7
S2140856D0F7E7A289D4F808B002F4007003B2002BEA
S2140856E052D05D4540D312F4906F3BD063694FF0BB
S2140856F0030B0BFB03F32169276802207F1A93FB31
S214085700F0FC7B1C581902F48062844528BF60466A
S21408571013B2019030467BB1019900F0DFF9834659
S21408572098B121693A46FEF797FEA18921F4906060
S21408573040F08002A2810BE0019A00F0FBFB834652
S21408574030B930462169FFF7B5FE0C233360BAE05E
S21408575001990BEB0703CF1BC4F810B023606161F7
S214085760AB46A7605D4500D2AB465A465146206810
S21408577000F0C4FBA0682368CBEB000203EB0B0128
S214085780A2602160AB462AE02068216988420FD9CA
S2140857905D450DD951465A4600F0B0FB22682146B1
S2140857A002EB0B0020603046FFF754FCB8B18AE0E5
S2140857B063699D4208D3676A3046E1695246B8472E
S2140857C0B0F1000B0BDC7EE051462A4600F096FB53
S2140857D0A2682368501B5919AB46A0602160D9F807
S2140857E00800DA44CBEB0002CBEB0505C9F8082025
S2140857F0002A7FF466AF1AE70198002832D020689E
S2140858002169D34534BF5B4653468842A568D4F819
S21408581014E037D97544AB4234DD39462A4600F0E1
S2140858206DFB20682146431923603046FFF712FCBB
S214085830002848D1BBEB050B3DD0D9F808207F19C6
S214085840C5EB0A0A551BC9F80850002D3FF4EFAE01
S214085850BAF1000FD0D1002198E88004019108F130
S2140858600808F5E738460A21524600F039FB20B109
S21408587000F10101C7EB010B01E00AF1010B01225F
S2140858800192BCE7734508DB656A3046E1693A462B
S2140858907346A847051ECDDC15E01A463946009320
S2140858A000F02CFB009B2568A068E918C21AA260C5
S2140858B021601D46BEE730462146FFF7CBFB10B9F0
S2140858C0CDF804B0B9E7A28942F04003A3814FF0AF
