:0200000280007C
:10000000A02A0720C91A0800C51A0800C51A080046
:10001000C51A0800C51A0800C51A0800000000002B
:100020000000000000000000000000009113080024
:10003000C51A080000000000C913080005140800D4
:10004000C51A0800C51A0800C51A0800C51A080014
:10005000C51A0800C51A0800C51A0800C51A080004
:10006000C51A0800C51A080000000000351908006C
:10007000491908005D190800711908000000000006
:1000800000000000C51A0800C51A0800C51A0800BB
:10009000C51A0800C51A0800C51A0800C51A0800C4
:1000A000C51A080000000000C51A0800C51A08009B
:1000B000C51A0800C51A0800C51A0800C51A0800A4
:1000C000C51A0800C51A0800C51A0800C51A080094
:1000D000C51A0800C51A0800C51A0800C51A080084
:1000E000C51A0800C51A0800C51A0800C51A080074
:1000F000C51A080008B50548054B1B1A062B00D881
:1001000008BD044B002BFBD09847F9E734470800A3
:10011000374708000000000008B50748074B1B1AC6
:100120009B1003EBD373591000D108BD044A002A79
:10013000FBD09047F9E700BF344708003447080078
:100140000000000010B5064C237843B9FFF7D2FF3A
:10015000044B13B10448AFF300800123237010BD9A
:10016000C8080720000000003447080008B5084B05
:100170001BB108480849AFF300800848036813B171
:10018000074B03B19847BDE80840FFF7C5BF00BF64
:100190000000000034470800CC080720344708005E
:1001A00000000000F8B5194C402525606561C4F8D1
:1001B000A0504FF4800323606361C4F8A030252071
:1001C000134B9847134E30461349144A0823144FD3
:1001D000B847304600214FF440120123114FB84771
:1001E00030460021104B9847304603210F4FB84747
:1001F00030460421B847656665656562C4F880507D
:10020000236F23F040032367F8BD00BF000E0E40AC
:100210006D1A080000000C40007A030A40420F00EB
:1002200071060800B5060800A5060800DD060800EE
:10023000704700BF704700BF10B582B0054B5A68C9
:100240001923009310200021034B044CA04702B057
:1002500010BD00BF00000C40684508009910080060
:1002600010B582B0054B9A691D23009308204FF00A
:10027000FF31034B034CA04702B010BD00000C40FF
:10028000784508009910080010B582B0054B9A68AF
:100290002223009340204FF0FF31034B034CA04733
:1002A00002B010BD000E0E408C45080099100800E9
:1002B00010B582B0054B9A69272300934020002196
:1002C000034B044CA04702B010BD00BF000E0E400F
:1002D000A04508009910080010B582B0054B9A6E31
:1002E0002C23009340200021034B044CA04702B074
:1002F00010BD00BF000E0E40B04508009910080068
:10030000F0B583B004460D461F4B984207D11F46F7
:100310001E4E38462946B0470028FAD119E01C4B3A
:10032000984209D11F461B4E384601A9B047002804
:10033000FAD1019B2B7019E0174B984209D11E4648
:10034000144C304601A9A0470028FAD1019B2B701C
:1003500018E0124B9C4209D11E460E4C304601A9B2
:10036000A0470028FAD1019B2B700BE00C4B9C425C
:1003700008D11E46074C304601A9A0470028FAD1F3
:10038000019B2B7003B0F0BD00080E40350708003C
:10039000008009406107080000C0094000000A40D1
:1003A00000400A4070B50C46214B984207D11E46CA
:1003B000204D30462146A8470028FAD12BE01E4B9D
:1003C000984207D11E461D4D30462146A8470028B9
:1003D000FAD122E01A4B984207D11E46174D3046FB
:1003E0002146A8470028FAD119E0164B984207D1B8
:1003F0001E46124D30462146A8470028FAD110E08B
:10040000114B98420FD11E460C4D30462146A8474D
:100410000028FAD109E0012070BD012070BD012043
:1004200070BD012070BD002070BD012070BD00BFF7
:1004300000080E4021070800008009404907080015
:1004400000C0094000000A4000400A402DE9F04F7A
:1004500085B008203E4DA8473E4C3F4B1C603F4AAC
:100460003F4B1A603F4A404B1A60404B00934FF499
:10047000E13301934FF4006302930820A84720461C
:1004800069463B4B98473B4D2B68986800213A4C96
:10049000A0472B6858680021A047384B4FF4807262
:1004A0005A665A655A62C3F880201A6F22F4807225
:1004B0001A672B6898680021A047314B9847314B49
:1004C0009847314B98473148314B9847314832492A
:1004D0001422324CA047324832491422A0473248F5
:1004E00032491422A047324832491422A0473248E8
:1004F00032491422A047324B984700252C462E46FD
:10050000DFF8CCB0DFF8CCA0DFF8CC900CE02D4FBA
:10051000D7F85C8038462C4B98473B6EB8F1000FFB
:1005200002D046441C440135092DF0DD8AFB06311A
:10053000F6175846C6EBA101C8478AFB0431E417F9
:100540002248C4EBA101C847002425462646EBE714
:100550006D1A080000080E401C0A0720A5030800B9
:10056000180A072001030800140A072000BD01052E
:10057000E906080008000720531E0800000E0E4080
:1005800045160800E1150800A5010800CC45080043
:100590006911080039020800DC4508001111080043
:1005A00061020800EC4508008902080004460800C2
:1005B000B10208001C460800D902080030460800B5
:1005C0008511080000000C40D50608004C460800C4
:1005D0004446080067666666F11D08002DE9F04193
:1005E0000C46904660B9002A0EDD8F18094E0A4D60
:1005F000306821462B6898470134BC42F8D106E0A8
:100600004FF0FF30BDE8F0810020BDE8F0814046AA
:10061000BDE8F0811C0A0720140A07202DE9F041EB
:100620000E461546013802280FD892B10024DFF893
:100630003C800D4FD8F80000315D3B68984700289A
:100640000ADB0134A542F5D10AE04FF0FF30BDE8E6
:10065000F0810020BDE8F0814FF0FF30BDE8F0816F
:100660002046BDE8F08100BF180A07201C0A0720B9
:1006700030B4012404600024446040F20225C0F834
:100680002051C0F80441C0F8144145682B43520082
:10069000B1FBF2F14D1E2D02ADB22B43436020465B
:1006A00030BC7047436823F010034360436819432C
:1006B0004160704710B444682243090601F0706439
:1006C00022431B0703F040531A4342605DF8044B7A
:1006D000704700BF02230360704700BF012303FA85
:1006E00001F10161704700BF10B4AC2303600A68D8
:1006F0004B68B2FBF3F31B095C1E4FF6FE7294428B
:100700000AD803628B68436040F20223C0F82031AC
:1007100050230360002000E001205DF8044B704787
:10072000436913F0020F02D0C1610020704701201D
:10073000704700BF436913F0010F03D083690B704A
:100740000020704701207047436913F0020F04D066
:10075000C1F30801C161002070470120704700BF4C
:10076000436913F0010F05D08369C3F308030B60DD
:1007700000207047012070472DE9F0410546B0F197
:10078000004F32D15F4B186882689368013B9360D9
:10079000002B1DDA826891689369994212DB136815
:1007A0002D221A70574B18688268136819780A2925
:1007B00002D0013313604FE00A21534B98474FF0AA
:1007C000004549E02D21504B98474FF0004543E04C
:1007D00083681B682D221A704A4B1B689B681A6835
:1007E00001321A604FF0004536E0002834DA454BFC
:1007F000186882689368013B9360002B19DA82685D
:1008000091689369994210DB13682D221A703D4B51
:1008100018688268136819780A2902D001331360B6
:1008200011E00A21384B98470DE02D21364B9847AF
:1008300009E083681B682D221A70324B1B689B6885
:100840001A6801321A606D4206E004EB84035B0013
:100850009C4206DA1C4600E00124B5FBF4F3092BA8
:10086000F3D8284E294FDFF8A0803068826893685B
:10087000013B9360002B29DA826891689369994261
:1008800017DB1168B5FBF4F3A7FB0302D20802EBF8
:100890008202A3EB420330330B7030688268136826
:1008A00019780A2902D00133136021E00A21C047D8
:1008B0001EE0B5FBF4F3A7FB03E1C90801EB8101DE
:1008C000A3EB41013031C9B2C04711E08368196818
:1008D000B5FBF4F3A7FB0302D20802EB8202A3EB01
:1008E000420330330B7033689B681A6801321A6018
:1008F000074B83FB0423E417C4EBA304002CB4DCF4
:10090000BDE8F0810800072085280800CDCCCCCCBC
:10091000676666662DE9F84306460C465E4B186826
:1009200082689368013B9360002B19DA82689168B2
:100930009369994210DB136830221A70564B18687D
:100940008268136819780A2902D00133136011E014
:100950000A21524B98470DE03021504B984709E04F
:1009600083681B6830221A704B4B1B689B681A689F
:1009700001321A60484B186882689368013B9360A3
:10098000002B1BDA826891689369994210DB136827
:1009900078221A70404B18688268136819780A29FF
:1009A00002D00133136006E00A213C4B984702E075
:1009B00078213A4B984764B9BDE8F88383681B688F
:1009C00078221A70344B1B689B681A6801321A60CF
:1009D000F1E7314DDFF8C4904FF00A08013CE4B272
:1009E000A30026FA03F303F00F03092B28D8286885
:1009F00081688A68013A8A60002A17DA82689168F9
:100A00009769B9420EDB1268303313702868826828
:100A1000136819780A2902D00133136038E041467F
:100A2000C84735E003F13001C84731E082681268F9
:100A3000303313702B689B681A6801321A6027E004
:100A4000286881688A68013A8A60002A17DA826811
:100A500091689769B9420EDB1268373313702868C2
:100A60008268136819780A2902D0013313600FE0F5
:100A70004146C8470CE003F13701C84708E08268E7
:100A80001268373313702B689B681A6801321A603A
:100A9000002CA3D1BDE8F8830800072085280800B2
:100AA000F8B5002800F00A810378002B00F00681D9
:100AB000441C834D834E844FA3F12002D2B25E2AA0
:100AC0002AD8286882689368013B9360002B18DA63
:100AD00082689168936999420FDB136814F8012CBE
:100AE0001A7028688268136819780A2902D00133BD
:100AF0001360DEE00A21B847DBE014F8011CB847B8
:100B0000D7E083681B6814F8012C1A702B689B6867
:100B10001A6801321A60CCE00D2B4ED12868826829
:100B20009368013B9360002B16DA826891689369A1
:100B300099420EDB13685C221A7028688268136879
:100B400019780A2902D0013313600EE00A21B84750
:100B50000BE05C21B84708E083681B685C221A70D0
:100B60002B689B681A6801321A602868826893684B
:100B7000013B9360002B16DA826891689369994271
:100B80000EDB136872221A7028688268136819785D
:100B90000A2902D0013313608BE00A21B84788E0AC
:100BA0007221B84785E083681B6872221A702B682F
:100BB0009B681A6801321A607BE00A2B4ED12868C4
:100BC00082689368013B9360002B16DA8268916813
:100BD000936999420EDB13685C221A702868826858
:100BE000136819780A2902D0013313600EE00A2134
:100BF000B8470BE05C21B84708E083681B685C22BB
:100C00001A702B689B681A6801321A60286882681B
:100C10009368013B9360002B16DA826891689369B0
:100C200099420EDB13686E221A7028688268136876
:100C300019780A2902D0013313603AE00A21B84733
:100C400037E06E21B84734E083681B686E221A7063
:100C50002B689B681A6801321A602AE0286882684B
:100C60009368013B9360002B16DA82689168936960
:100C700099420EDB13685C221A7028688268136838
:100C800019780A2902D0013313600EE00A21B8470F
:100C90000BE05C21B84708E083681B685C221A708F
:100CA0002B689B681A6801321A6014F8010C022143
:100CB000B04714F8013B002B7FF4FEAEF8BD00BF37
:100CC00008000720150908008528080038B50D46DA
:100CD000464B9847464B18688468A268013AA26060
:100CE000002A19DA8268936891698B4210DB1368D5
:100CF0003A221A703E4B18688268136819780A29DC
:100D000002D00133136011E00A213A4B98470DE0FD
:100D10003A21384B984709E083681B683A221A70D9
:100D2000334B1B689B681A6801321A602846324BA5
:100D300098472F4B186882689368013B9360002B9B
:100D400019DA826891689369994210DB13683A2234
:100D50001A70274B18688268136819780A2902D01C
:100D60000133136011E00A21224B98470DE03A212C
:100D7000204B984709E083681B683A221A701C4B85
:100D80001B689B681A6801321A601C4B5868174B25
:100D90009847174B186882689368013B9360002B53
:100DA00019DA826891689369994210DB13683A22D4
:100DB0001A700F4B18688268136819780A2902D0D4
:100DC0000133136038BD0A210A4B984738BD3A21D8
:100DD000084B984738BD83681B683A221A70044B49
:100DE0001B689B681A6801321A6038BDA10A0800A6
:100DF000080007208528080079070800200A072036
:100E000008B50146194B1868194B984719481A4BF1
:100E100098471A4B186882689368013B9360002BCF
:100E200019DA826891689369994210DB13683A2253
:100E30001A70124B18688268136819780A2902D050
:100E40000133136008BD0A210D4B984708BD3A21B4
:100E50000B4B984708BD83681B683A221A70074BF2
:100E60001B689B681A6801321A6008BD200A0720B7
:100E7000CD0C080064460800A10A080008000720FD
:100E80008528080038B5054620B10348034CA04723
:100E90002846A04738BD00BF58460800A10A0800F0
:100EA0002DE9F0470746884620254FF00044434E81
:100EB0004FF05809DFF808A13C4252D014EA080F5D
:100EC00027D0306882689368013B9360002B16DA64
:100ED00082689168936999420EDB136831221A7017
:100EE00030688268136819780A2902D001331360C8
:100EF0005EE00A21D0475BE03121D04758E08368AB
:100F00001B6831221A7033689B681A6801321A60B4
:100F10004EE0306882689368013B9360002B16DADC
:100F200082689168936999420EDB136830221A70C7
:100F300030688268136819780A2902D00133136077
:100F400036E00A21D04733E03021D04730E08368D3
:100F50001B6830221A7033689B681A6801321A6065
:100F600026E0306882689368013B9360002B16DAB4
:100F700082689168936999420EDB136883F8009048
:100F800030688268136819780A2902D00133136027
:100F90000EE00A21D0470BE04946D04708E08368BD
:100FA0001B6883F8009033689B681A6801321A60E6
:100FB0006408013D80D1BDE8F08700BF080007202C
:100FC0008528080008B50248024B984708BD00BFB5
:100FD00064460800A10A080008B50248024B984779
:100FE00008BD00BF54460800A10A080008B5244BFC
:100FF000DB6923B1224B5A6901325A610FE0204B61
:101000009B6943B91E4B186899681E4B98471E4848
:101010001E4B984703E01A4B1A6901321A61184BAC
:1010200000229A61DA611A4B186882689368013B62
:101030009360002B19DA826891689369994210DBFA
:1010400013680A221A70124B18688268136819789C
:101050000A2902D00133136008BD0A210D4B9847BD
:1010600008BD0A210B4B984708BD83681B680A22FC
:101070001A70074B1B689B681A6801321A6008BD1A
:10108000200A0720CD0C0800B0460800A10A08007D
:1010900008000720852808002DE9F84305460F467B
:1010A00016469846124CA469FCB9114AD269E2B9B5
:1010B00081EA0603034218D008980E4B98470E4861
:1010C000DFF84890C847284639460C4CA0470C48E2
:1010D000C84728463146A04740460A4B984704482F
:1010E000012181612030084B9847BDE8F88300BF9B
:1010F000200A0720010E08006C460800A10E080017
:101100005C460800850E0800711E0800A10A080050
:1011100000B583B001900E4841608260C36801331E
:10112000C36020300B4B984718B90B4B9847019B75
:1011300098470A48074B984720B9054BDB690BB91C
:10114000074B9847074B984703B05DF804FB00BF77
:10115000200A0720651E080031020800400A072007
:1011600035020800ED0F0800054B186000225A6098
:101170009A60DA601A615A619A61DA61704700BF59
:10118000200A072070B5664B186882689368013B97
:101190009360002B19DA826891689369994210DB99
:1011A00013680A221A705E4B1868826813681978EF
:1011B0000A2902D00133136011E00A21594B9847E4
:1011C0000DE00A21574B984709E083681B680A2203
:1011D0001A70534B1B689B681A6801321A60524898
:1011E000524B98474E4B186882689368013B936056
:1011F000002B19DA826891689369994210DB1368B1
:101200000A221A70464B18688268136819780A29EE
:1012100002D00133136011E00A21424B98470DE0E0
:101220000A21404B984709E083681B680A221A701C
:101230003B4B1B689B681A6801321A603C4EF06891
:101240003C4DA8473C48394CA0473069A8473B482B
:10125000A0477069A8473A48A047314B1868826890
:101260009368013B9360002B19DA82689168936957
:10127000994210DB13680A221A70294B1868826899
:10128000136819780A2902D00133136011E00A218A
:10129000244B98470DE00A21224B984709E08368C8
:1012A0001B680A221A701E4B1B689B681A68013261
:1012B0001A601F4B1B6913B9224B984701E0224B60
:1012C0009847174B186882689368013B9360002B1E
:1012D00019DA826891689369994210DB13680A22CF
:1012E0001A700F4B18688268136819780A2902D09F
:1012F0000133136011E00A210A4B98470DE00A21DF
:10130000084B984709E083681B680A221A70044B4F
:101310001B689B681A6801321A60054B186970BD1A
:10132000080007208528080078460800A10A080060
:10133000200A072079070800A84608009046080000
:101340009C460800D90F0800C50F080043685A687A
:101350004A6042688A605A689160596041600861D9
:101360000368013303607047436882689A6083684A
:1013700042685A6003695A68824204BF82685A60B0
:10138000002202611A68013A1A601868704700BFAB
:10139000064B19680868B0E8F00F80F309884FF031
:1013A000000080F311884EF00D0E70475809072099
:1013B000EFF311804FF0A00181F3118870470020F6
:1013C00080F31188704700BFEFF309800C4B1A6857
:1013D00020E9F00F10602DE908404FF0A00080F3E5
:1013E000118800F0B5F84FF0000080F31188BDE8D7
:1013F000084019680868B0E8F00F80F30988704762
:101400005809072008B54FF08052054B1A60054B6C
:101410009847054B98470020044B984708BD00BFEC
:1014200004ED00E0B113080031140800C1130800F6
:101430002DE9F0413A4B1B68002B6BD1394B1A68F0
:1014400001321A601B6803BB374B1B681B681BB15A
:10145000364B984700BFFDE7334B1968344A106894
:1014600018601160334A1168013111601B681B68F4
:1014700023B94FF0FF32304B1A6006E02A4B1B684D
:10148000DB68DB685A682C4B1A60264B1A682A4BBB
:101490001B689A4242D3244B1B681B684BB1224BFA
:1014A0001B68DB68DC6863681E4A1268934213D9C4
:1014B0000EE04FF0FF32204B1A60BDE8F0811A4B6E
:1014C0001B68DB68DC686368164A1268934207D9B8
:1014D000194A1360BDE8F081184E194FDFF86C808F
:1014E000251D2846B047A36A13B104F11800B04780
:1014F000E36A3A68934288BF3B6003EB830008EBE2
:10150000800029460F4B9847074B1B681B68002B30
:10151000D5D1CEE70C4B1A6801321A60BDE8F081D4
:101520005C09072060090720E8080720B1130800BC
:1015300064090720540907200000072069130800E8
:10154000EC0807204D130800E4080720F0080720E6
:1015500008B51D4B1B685BB91C4B1B6803EB830371
:101560009B001B4AD358CBB9184B1B6853B905E0F5
:101570000122184B1A6008BD1A682AB9164B984701
:1015800000BFFDE7114B12491A68013A1A601A6848
:1015900002EB820251F82220002AEDD00B4B1B688F
:1015A00003EB83030A4A02EB83035A6852685A60CA
:1015B00003F108018A4204BF52685A605B68DA6826
:1015C000064B1A6008BD00BF5C090720EC08072025
:1015D000F008072068090720B11308005809072000
:1015E00010B50E480E4B984700203E210D4B9847F2
:1015F0000D4CA0470028FCD00C4B98470C4A0D4BD3
:101600009A620D4CA0470028FCD010200B4B984745
:101610000B4B98470148024B984710BD00BD010590
:10162000951C0800E91908003D1A08004D1A080029
:10163000013F0D2000060E405D1A080085190800C4
:10164000791B080010B54FF40042174B5A600B206D
:10165000164CA0470C20A0470D20A0470E20A04705
:101660003B204FF06051124CA04755204FF0605185
:10167000A04756204FF06051A04768200D49A04771
:101680005C200D49A0470D484FF440714FF00062B7
:101690000B4B98472B204FF00061A0472A204FF0BA
:1016A0000061A04710BD00BF501A0E406D1A08001F
:1016B000691708007900002801000028000E0E407C
:1016C0003D1808004264B1F1805F16D004D8C1B162
:1016D000B1F1006F0AD013E0B1F1405F11D0B1F168
:1016E000605F0ED0B1F1205F0AD17047036F016FC8
:1016F0000B4023EA0203036702E0036F134303670F
:1017000042607047416412F0010F14BF41660166E8
:1017100012F00A0F14BF0162416212F0020F02D0F0
:10172000C0F8801004E012F0080F18BFC0F8841051
:1017300041610160704700BF10B44164019C0CB16D
:10174000416600E001660BB1016500E041650AB148
:10175000016300E04163016101605DF8044B704783
:10176000C06C7047806C704770B582B00D464409FC
:1017700004F5001404F20774660201F0F044B4F1B9
:10178000205F30D006D8B4F1006F0AD0B4F1805F8A
:1017900018D049E0B4F1405F30D0B4F1605F2DD093
:1017A00042E000F01F000124844030464FF0006109
:1017B00022461F4B984715F0010F14BF746634661C
:1017C000012032E000F01F000124844030464FF039
:1017D00080512246164B984715F0010F14BF7466CE
:1017E0003466012021E000F01F010124304604FA94
:1017F00001F12A460F4B9847204616E000F01F01E2
:10180000012405F0605205EA04030093304604FA0F
:1018100001F1B2F1605F14BF00220122C5F3800321
:10182000054DA847204600E0002002B070BD00BF73
:10183000C51608000517080039170800F0B583B071
:1018400007460E46154602F0F044B4F1205F26D05C
:1018500006D8B4F1006F0AD0B4F1805F13D034E041
:10186000B4F1405F1FD0B4F1605F1CD02DE04FF0A9
:1018700000613246164B984715F0010F14BF7E6683
:101880003E66012022E04FF080513246104B9847CF
:1018900015F0010F14BF7E663E66012016E00D4B69
:1018A0009847012012E005F0605205F00103009313
:1018B00038463146B2F1605F14BF00220122C5F301
:1018C0008003054CA047012000E0002003B0F0BDDC
:1018D000C516080005170800391708002DE9F04162
:1018E00004460E46104B9847054620460F4B984736
:1018F000054017D00E4F07F10C046C3754F80C3C20
:10190000B3420AD154F8081C294206D02368304655
:10191000984754F8083C25EA0305BC4202D010342D
:10192000002DEBD1BDE8F0816117080065170800B4
:101930006C09072008B502480B21024B984708BDE7
:10194000000E0E40DD18080008B502480C21024BBD
:10195000984708BD00100E40DD18080008B5024881
:101960000D21024B984708BD00120E40DD180800FB
:1019700008B502480E21024B984708BD00140E40DE
:10198000DD180800174B1A6B22F070021043186321
:101990009B6E13F0080F09D14FF40063114901E069
:1019A000013B19D08A6E12F0080FF9D00D4B1A6B5B
:1019B00022F0030242F002021A63986E10F008004F
:1019C0000CD14FF40063074901E0013B08D08A6E57
:1019D00012F0080FF9D070470120704700207047BF
:1019E0000120704700060E4038B111490B6A114AB8
:1019F0001A40114B13430B6270470D4A136A23F4CC
:101A00005C1323F0030343F45C1343F00103090266
:101A100089B20B431362936E13F0010FFBD0044A9B
:101A2000136A43F09B7343F480331362704700BF23
:101A300000060E40FCFFC8FE02003701024B986E04
:101A400000F48030704700BF00060E404FF0005297
:101A5000014B9A62704700BF00060E40024B986E21
:101A600000F00200704700BF00060E402C2820D86E
:101A70001F280DD8124B9A69012383401A409342C4
:101A800019D0012303FA00F00D4B186100207047B4
:101A90000B4BD3F808212038012383401A4093428E
:101AA0000BD0012303FA00F0054BC3F8000100201E
:101AB000704701207047002070470020704700BF2A
:101AC00000060E40FEE700BF10B51E4B1E4A9A42AC
:101AD00003D01E4B1B4A9A4204D31D4B1D4A9A4207
:101AE0000FD31AE01C4B1D4CE41A24F003040434F9
:101AF0000023144814495A581A500433A342FAD107
:101B0000EBE7174B1749C91A21F003011A1D1144BD
:101B1000002243F8042F8B42FBD1134A22F060438A
:101B200023F07F0311498B6002F16042B2F5801F00
:101B300003D28A6842F000528A600D4B98470D4BE1
:101B40009847FEE70000072034470800C808072030
:101B5000A00A0720C808072004000720CB08072098
:101B6000C40807209B0A07200000080000ED00E0E1
:101B7000A51D08004D0408003E4B1B6B03F003033A
:101B8000032B5FD8DFE803F0020E2B2B3A4B5B6987
:101B900013F0800F14BF4FF400424FF4FA42374B5A
:101BA0001A604FE0334B1B6A13F0807F03D0344A36
:101BB000324B1A6046E0334A304B1A602D4B1B6A99
:101BC00003F07003102B02D0202B04D03AE02E4AF1
:101BD0002A4B1A6036E02A4A284B1A6032E0254B1D
:101BE0001B6A13F0807F03D0254A244B1A6012E051
:101BF000244A224B1A601F4B1B6A03F07003102B00
:101C000002D0202B04D006E01F4A1C4B1A6002E0D1
:101C10001B4A1A4B1A60174B1B6B03F00303022B72
:101C20000DD1144B986A996A144BC0F30A401A6894
:101C300000FB0222C9B2B2FBF1F21A6002E0134AC1
:101C40000E4B1A600B4B1B6B03F07003702B07D10C
:101C50000A4B1A680E49A1FB020252081A6070472B
:101C6000044B196B054BC1F302111A68CA401A6084
:101C7000704700BF00060E40101A0E4004000720F7
:101C8000001BB70000093D0000127A00001C4E0E38
:101C9000ABAAAAAA1B4B984206D800231A4A136083
:101CA00002F5007213607047184B984207D84FF442
:101CB0008073154A136002F5007213607047144B6D
:101CC000984207D84FF400730F4A136002F5007270
:101CD000136070470F4B984207D84FF440730A4A7D
:101CE000136002F50072136070470B4B984294BF6B
:101CF0004FF480634FF4A063034A136002F500724F
:101D000013607047BFEA2101000A0E407FF0FA021B
:101D1000FF8FD003FFB3C4047F4A5D05094B1B68E6
:101D200013B9094A074B1A60064B1B681A18074972
:101D3000914204DB1046034A1060184670474FF08A
:101D4000FF307047DC090720A02A0720FC7F08200D
:101D50004FF0FF30704700BF4FF400534B6000203E
:101D6000704700BF012070470020704701460020E7
:101D70000246034600F032BE38B5084D084C641BDD
:101D8000A41005EB840524B155F8043D013C9847A7
:101D9000F9E7BDE8384002F0C1BC00BF28470800A1
:101DA0002C47080070B50E4B0E4D0024ED1AAD10F7
:101DB0001E46AC4204D056F8242090470134F8E780
:101DC00002F0A2FC084D094B0024ED1AAD101E468E
:101DD000AC4204D056F8242090470134F8E770BD97
:101DE00014470800144708001C470800144708005F
:101DF0000FB407B5064904AB086853F8042B816893
:101E0000019300F0ECF803B05DF804EB04B0704708
:101E1000080007200EB403B503AB53F8042B816808
:101E2000019300F0DCF802B05DF804EB03B07047FA
:101E300010B50023934203D0CC5CC4540133F9E7BE
:101E400010BD02440346934202D003F8011BFAE797
:101E5000704700290CBF022200224FF4806300F07B
:101E60000FB80000EC46A0E8F05F4FF000007047AC
:101E7000B0E8F05FE546080008BF0120704700BFEA
:101E80002DE9F0411D46364B04461F680E4690462C
:101E900027B1BB6B13B9384600F0CAFEB8F1020F88
:101EA00059D8002D57DB3846214600F078FE002334
:101EB0006360A361A3891B0603D53846216901F03D
:101EC0003BF8A389B8F1020F23F08303A38112D05A
:101ED00036BB002D08BF4FF48065284601F010FB8B
:101EE0000646C8B94FF4806001F00AFB064688B97F
:101EF0004FF0FF3000E00020A38943F00203A381EC
:101F00000023A36004F14303236023610123636181
:101F1000BDE8F0814FF48065A38943F08003A3817D
:101F2000B8F1010F05D1A38943F00103A3816B42EE
:101F3000A3610C4BFB63A389266003F0080080B209
:101F40002661656148B113F0030F18BF0025A56035
:101F50000020BDE8F0814FF0FF30BDE8F08100BF08
:101F600008000720ED2B0800034613F8012B002A78
:101F7000FBD1181A0138704793682DE9F047814664
:101F80000F4614461BB953601846BDE8F0874B6EE8
:101F90009D041DD51568A3680835BBB155F8043CF0
:101FA00055F808AC4FEA93080026464509DA48463A
:101FB0005AF826103A4600F005FF431C0AD00136B5
:101FC000F3E7A368A3EB8803A360E4E7184601E006
:101FD00001F06AF80023A3606360BDE8F0872DE993
:101FE000F04FADB0884602921C461E46834618B19B
:101FF000836B0BB900F01CFEB8F80C30980409D4C0
:1020000043F40053A8F80C30D8F8643023F400539C
:10201000C8F86430B8F80C30190709D5D8F8103072
:1020200033B1B8F80C3003F01A030A2B14D108E0CE
:102030005846414600F078FC0028F2D04FF0FF30BF
:10204000D9E3B8F90E30002B06DB58464146029A18
:10205000234600F0E1FBCEE300231CAA0F9211936C
:10206000109394460A930593029B1C4613F8012B88
:102070001AB90298251A03D11DE0252AF5D1F8E7EF
:10208000119B02992B441193109B8CE82200013381
:10209000072B109302DC0CF1080C09E0584641466E
:1020A0000FAAFFF769FF002840F09F830DF1700C25
:1020B000059A2A4405922378002B00F08F83002292
:1020C00001348DF837204FF0FF3A04921746651C13
:1020D00023780295582B64D02DDC2E2B76D012DC81
:1020E0002A2B66D008DC202B5FD0232B40F0008207
:1020F00047F00107029CEAE72B2B01D11A46F9E7CA
:102100002D2B60D0F4E1392B07DC312B7FDA302B1B
:1021100040F0EE8147F08007ECE74F2B00F0E080C5
:10212000552B00F02081442B40F0E2818DF83720C0
:1021300047F0100794E06E2B00F0B6800DDC682BA2
:1021400076D005DC632B00F08380642B26D0CFE1B2
:10215000692B23D06C2B6ED0CAE1712B75D013DCA8
:102160006F2B00F0BF80702B40F0C2813023A0485D
:102170008DF8383078233468002547F002078DF851
:10218000393004360A902EE1752B00F0EE80782B62
:1021900000F00381732B40F0AB81BFE08DF8372056
:1021A0005EE08DF83720934CFAE0002A08BF202229
:1021B000A0E7331D3668002E049601DB1E4699E722
:1021C000754204951E4647F0040793E7029C237866
:1021D000611C2A2B02D04FF0000A0AE0D6F800A0BA
:1021E000331DBAF1000F1E46029183DA4FF0FF3A19
:1021F00080E7A3F13000092805D80A2303FB0A0A67
:1022000011F8013BF5E74AEAEA7A029162E7002514
:102210000495049C303B0A2101FB04340299049488
:1022200011F8013BA3F130000928EED80291F0E744
:1022300047F040075EE7029D2B786C2B02D10135F9
:10224000029502E047F0100754E747F0200751E7F6
:10225000336800258DF848308DF83750043651E149
:10226000BA0607D5073626F0070303F10806D3E9B7
:1022700000450DE017F0100F06F1040301D034689B
:1022800004E0346817F0400F18BF24B2E5171E466B
:10229000002C75F1000080F2AF802D23644265EBC5
:1022A00045058DF83730A7E017F0200F8DF837205F
:1022B00006F1040107D0059C3068E51722462B463D
:1022C000C0E900230AE0FB0605D47F0603D5336886
:1022D000059C1C8002E03368059D1D600E46C3E628
:1022E00047F0100717F0200308D0073626F0070341
:1022F00003F10806D3E90045002375E017F010014B
:1023000006F1040206D117F0400303D034880025FB
:102310001646F1E734680025164665E0D6F80090C9
:1023200000239A4506F104068DF83730484611DB44
:1023300019465246CDF804C001F0FAFADDF804C09F
:10234000002800F0E480C9EB00005045B8BF824689
:102350000025DDE0CDF804C0FFF706FE002582462B
:10236000DDF804C0D4E047F01007BD0607D50736F6
:1023700026F0070303F10806D3E900450BE017F048
:10238000100F06F1040303D17C0601D5348800E068
:10239000346800251E46012326E0154C8DF83720B1
:1023A000B8060A9407D5073626F0070202F1080698
:1023B000D2E900450BE017F0100F06F1040203D13B
:1023C000790601D5348800E0346800251646FA07FE
:1023D00009D554EA050006D030228DF838208DF852
:1023E000393047F00207022300228DF8372004E03D
:1023F000EF460800DE4608000123BAF1000FA8BF2F
:1024000027F0800754EA050102D1BAF1000F5ED02F
:10241000012B1FD0022B0DF16F0345D0E00840EADD
:102420004571E80804F00702069107903032DDE9B3
:10243000064554EA050199461A7003F1FF33EDD1C0
:10244000F80749464ED5302A4CD09946302301F83A
:10245000013C47E0002D08BF0A2C05D230348DF82E
:102460006F400DF16F093DE00DF16F0203922046C0
:1024700029460A220023CDF804C001F095FD039BF4
:10248000303203F8012920462946DDF80C900A2253
:102490000393002301F088FD04460D4654EA05002D
:1024A000DDF804C0E3D11DE00A9904F00F028A5C54
:1024B000994603F80129220942EA05702909089082
:1024C0000991DDE9084554EA0502EDD10AE03BB97E
:1024D000F90705D50DF1B009302309F8413D01E0B8
:1024E0000DF1700955460DF1700AC9EB0A0A0FE0AB
:1024F0008DF83720002B00F0718100258DF84830D1
:102500008DF837504FF0010A0DF1480900E00546FB
:102510009DF83730AA45ACBF54462C4603B1013470
:1025200017F00203039318BF023417F084030B93D0
:102530003BD10498031B002B37DDA64A102BCCF8A7
:1025400000201BDD1022CCF80420119A10321192C9
:10255000109A0132072A109202DC0CF1080C0BE0F1
:10256000584641460FAA0193FFF706FD019B00283C
:1025700040F03B810DF1700C103BDEE7119ACCF876
:10258000043013441193109B0133072B109302DC8A
:102590000CF1080C09E0584641460FAAFFF7ECFC85
:1025A000002840F022810DF1700C9DF83730DBB12E
:1025B0000DF13703CCF800300123CCF80430119B27
:1025C00001331193109B0133072B109302DC0CF1A4
:1025D000080C09E0584641460FAAFFF7CDFC002839
:1025E00040F003810DF1700C039BD3B10EABCCF81E
:1025F00000300223CCF80430119B02331193109B5E
:102600000133072B109302DC0CF1080C09E058464B
:1026100041460FAAFFF7B0FC002840F0E6800DF11C
:10262000700C0B9B802B3FD1049B1B1B002B039337
:102630003ADD039B102B684BCCF800301BDD1023D8
:10264000CCF80430119B10331193109B0133072BEE
:10265000109302DC0CF1080C09E0584641460FAA21
:10266000FFF78AFC002840F0C0800DF1700C039B3E
:10267000103B0393DDE7039B0398CCF80430119BD8
:1026800003441193109B0133072B109302DC0CF1D0
:10269000080C09E0584641460FAAFFF76DFC0028D8
:1026A00040F0A3800DF1700CCAEB0505002D34DD60
:1026B000494B102DCCF8003019DD1023CCF8043034
:1026C000119B10331193109B0133072B109302DCE5
:1026D0000CF1080C09E0584641460FAAFFF74CFCE4
:1026E000002840F082800DF1700C103DE0E7119B56
:1026F000CCF804501D44109B11950133072B109307
:1027000002DC0CF1080C08E0584641460FAAFFF71E
:1027100033FC002869D10DF1700C119B8CE8000688
:1027200053441193109B0133072B109302DC0CF1DF
:10273000080307E0584641460FAAFFF71DFC002892
:1027400053D11CAB7A070AD4059D0498119B84428F
:10275000ACBF2D192D180595002B35D02EE004990E
:102760000D1B002DF0DD1B4A102D1A6015DD102207
:102770005A60119A10321192109A0132072A10925F
:1027800001DC083307E0584641460FAAFFF7F4FB87
:1027900000282AD11CAB103DE5E75D60119B1D446C
:1027A000109B11950133072B1093CDDD5846414600
:1027B0000FAAFFF7E1FB0028C6D016E058464146B5
:1027C0000FAAFFF7D9FB80B9002310930DF1700C0D
:1027D0004AE400BFBE460800CE460800119B23B164
:1027E000584641460FAAFFF7C7FBB8F80C305B0606
:1027F0003FF524AC05982DB0BDE8F08F30B51346F9
:10280000044A05460C46106829462246BDE8304079
:10281000FFF7E5BB0800072070B50C468989ADF5C8
:102820008D6D21F00201ADF80C10616E0646199114
:10283000E189ADF80E10E1690791616A09911AA961
:10284000009104914FF4806102910591002106915D
:102850006946FFF7C4FB051E07DB3046694600F0FA
:102860009EF9002818BF4FF0FF35BDF80C305B060D
:1028700003D5A38943F04003A38128460DF58D6D50
:1028800070BD00BF70B50D461446064618B1836B87
:102890000BB900F0CDF9A369A360A38919070DD581
:1028A00023695BB1A389EDB29A0410D443F40053B9
:1028B000A381636E23F40053636608E0304621462B
:1028C00000F032F80028EDD04FF0FF3070BD2369E2
:1028D0002068C01A6369984205DB3046214600F043
:1028E0005EF90028F0D1A3680130013BA3602368A2
:1028F0005A1C22601D706369984204D0A389DB07CB
:1029000007D50A2D05D13046214600F048F90028A8
:10291000DAD1284670BD0A460249034608681946BE
:10292000FFF7B0BF0800072038B52B4B05461868E5
:102930000C4618B1836B0BB900F07AF9A28993B2F7
:10294000180720D4D90605D4092342F040022B6091
:10295000A2813BE0580712D5216B41B104F140033D
:10296000994202D0284600F0E7FA00232363A389A6
:1029700023F02403A3810023636023692360A389D8
:1029800043F00803A38123694BB9A38903F420739F
:10299000B3F5007F03D02846214600F04DFDA38902
:1029A00013F0010205D00022A26062695242A261C6
:1029B00003E0990758BF6269A26022694AB903F02F
:1029C000800080B230B143F04003A3814FF0FF306C
:1029D00038BD002038BD00BF080007202DE9F843AE
:1029E0009846224B06461C680F46D4F8480191468B
:1029F00018B904F5A670C4F8480143681F2B16DD0A
:102A00001B4B1BB94FF0FF30BDE8F8834FF4C87083
:102A100000F076FD0028F5D0D4F848110025456077
:102A20000160C4F84801C0F88851C0F88C5144686E
:102A3000A6B10122A24000EB8405C5F88890D0F829
:102A40008811022E41EA0201C0F88811C5F80881F8
:102A500004D1D0F88C311A43C0F88C21631C0234A5
:102A6000436040F824700020BDE8F883B8460800B1
:102A700001350800024B13B10248FFF777B97047E0
:102A800000000000791D08008A892DE9F04193B209
:102A9000054618070C465ED44B6842F40062002BD2
:102AA0008A8102DCCB6B002B18DDA66AB6B102F47A
:102AB0008052002392B22F682B600AB1226D10E081
:102AC000E16928460123B047411C024609D12B6821
:102AD0003BB11D2B01D0162B4AD12F600020BDE841
:102AE000F081A3895B0705D56368D21A236B0BB10C
:102AF000E36BD21AA66A2846E1690023B047461C58
:102B0000A28905D12B681BB11D2B01D0162B1DD11D
:102B1000002322F4006292B263602369D104A2818F
:102B2000236004D5421C01D12B6803B92065216BB9
:102B30002F600029D2D004F14003994202D02846E8
:102B400000F0FAF900202063BDE8F08142F0400275
:102B5000A281BDE8F0810E69002EBFD09B070A68F4
:102B60000CBF4B690023C6EB02080E608B6012E0BD
:102B7000A3894FF0FF3043F04003A381BDE8F0810B
:102B8000676A2846E16932464346B8470028EFDDC8
:102B90000644C0EB0808B8F1000FF1DC9EE738B539
:102BA0000C46054618B1836B0BB900F041F8B4F937
:102BB0000C0028B128462146BDE83840FFF764BF25
:102BC00038BD014620B9044B0449186800F0D4BB55
:102BD000034B1868FFF7E3BFB84608009F2B0800B7
:102BE000080007200020704700207047014900F0CE
:102BF000A7BB00BF0D3F080070B54B1E68255D43A5
:102C00000E4605F1740100F08BFC044640B1002132
:102C100080E842000C30A06005F16802FFF711F96E
:102C2000204670BD014B1868FFF7E0BFB8460800AA
:102C30002DE9F84F846B0646002C62D1324B456873
:102C4000C3630323C0F8E43200F53B73C0F8E832F5
:102C5000DFF8BCA00423DFF8BC90DFF8BC802B4F6A
:102C6000C0F8E0422146AB812C606C60AC606C66C1
:102C7000EC812C616C61AC6105F15C000822FFF70E
:102C8000E0F8ED61C5F820A0C5F82490C5F82880CB
:102C9000EF62B56809234FF0010BAB812C606C60CB
:102CA000AC606C66A5F80EB02C616C61AC6105F18E
:102CB0005C0021460822FFF7C4F8ED61C5F820A0AA
:102CC000C5F82490C5F82880EF62F5681223AB811F
:102CD00002232C606C60AC606C66EB812C616C61D3
:102CE000AC6105F15C0021460822FFF7AAF8ED610E
:102CF000C5F820A0C5F82490C5F82880EF62C6F872
:102D000038B0BDE8F88F00BFED2B08007F3D08000C
:102D1000FD3C0800233D08005B3D0800F8B51C4B56
:102D200007461E68B36B13B93046FFF781FF06F5FF
:102D30003876B4687368013B04D4B4F90C5075B1AB
:102D40006834F8E733682BB938460421FFF754FF9D
:102D5000306008B13668ECE70C233B60F8BD4FF6F5
:102D6000FF73E3810123A38165662560A56065602B
:102D700025616561A56104F15C0029460822FFF721
:102D800060F8256365636564A5642046F8BD00BFEF
:102D9000B84608007047704770477047024B0349B8
:102DA000186800F0CDBA00BF08000720E52B080026
:102DB000024B0349186800F0C3BA00BF080007209F
:102DC000E92B080093892DE9F3410E4699048046CA
:102DD000144606D443F400539381536E43F40053D6
:102DE000536600F00BFB012806D1731EFE2B03D89F
:102DF0008DF8046007460EE03246404601A904F112
:102E00005C0300F0CBFF421C074604D1A38943F0CA
:102E10004003A3812BE00025BD4224D0A26801AB72
:102E2000013A002AA26016DAA1698A4208DB5B5DDA
:102E300022681370236819780A2910D1404601E0EE
:102E4000595D40462246FFF71DFDB0F1FF33584261
:102E5000584130B109E05B5D22681370236801338B
:102E600023600135D8E7304601E04FF0FF3002B073
:102E7000BDE8F081084B70B51C6806460D4624B1CC
:102E8000A36B13B92046FFF7D3FE204631462A46EE
:102E9000BDE87040FFF796BF08000720F8B5234D46
:102EA0000E46044600F06DFDAB685F6827F003072F
:102EB000BE1B06F6EF7626F47F6626F00F06A6F513
:102EC0008056B6F5805F04DA204600F05BFD0020F6
:102ED000F8BD2046002100F001FFAB683B4498425A
:102EE000F2D12046714200F0F9FE013010D12046A7
:102EF000002100F0F3FEAB68C21A0F2AE4DD0C4992
:102F000042F0010209685A60401A0A490860DBE78A
:102F1000AB68BF1B47F001075F60064B20461A688D
:102F2000961B1E6000F02EFD0120F8BDB4040720A2
:102F3000BC080720E4090720F8B506460D4600291D
:102F400000F0A98000F01DFD55F804CC524CA5F10D
:102F500008032CF001029818A1684768884227F0FE
:102F600003070CF001011BD13A4439B955F8081C8C
:102F70005B1A98680A44D968C160886042F0010110
:102F80005960A360454B1B689A4204D3444B3046BA
:102F90001968FFF783FF3046BDE8F84000F0F2BC47
:102FA000476079B955F8085C04F1080C5B1B2A44AA
:102FB0009D68654508D0D3F80CC0C5F80CC0CCF8A6
:102FC000085002E0002100E00121C5196D68ED07FD
:102FD0000ED43A44856841B9324FBD4205D1636190
:102FE00023610121DD609D6002E0C068E8608560CA
:102FF00042F0010058609A500029CCD1B2F5007F10
:103000000ED2D208911001208840616801436160AE
:1030100004EBC204A268DC609A60A360D360BAE7E4
:10302000510A042902D89109383115E0142901D830
:103030005B3111E0542902D8110B6E310CE0B1F56F
:10304000AA7F02D8D10B773106E040F2545081427A
:103050009ABF910C7C317E2104EBC104A5680E4817
:10306000A54201D029460BE00122891002FA01F1A4
:1030700042680A434260294608E08968A14204D0B8
:10308000486820F003008242F7D3CD68DD60996084
:10309000AB60CB607FE7F8BDB4040720C008072011
:1030A000E0090720BC04072093682DE9F74F80460C
:1030B0000C4691460BB900203CE18B8918070ED5D0
:1030C0000B6963B1B4F80CA0D9F800600AF0020CE7
:1030D0001FFA8CF333B34FF0000A57461BE040460B
:1030E0002146FFF721FC0028ECD021E1934B40461C
:1030F0009F4238BF3B46E1695246656AA8470028AF
:1031000040F31281D9F8083082443F1A181AC9F8DE
:1031100008000028CFD0002FE8D1D6F800A07768AB
:103120000836F8E71AF0010A04D09B4601931F46BF
:103130009A46BFE0554625B9D6F800A0756808360E
:10314000F9E7A289A768910552D5BD4242D312F48E
:10315000906F3DD02169236802205B1A0193636957
:1031600003EB430393FBF0FB019B581C284483456E
:1031700038BF8346530540460FD5594600F0D0F975
:103180000746B8B1019A2169FEF752FEA28922F4DE
:10319000906242F08002A28110E05A4600F0F4FBF7
:1031A000074658B940462169FFF7C6FEA38923F0B8
:1031B0008003A3810C23C8F80030B5E0019B276190
:1031C0001F44C3EB0B032760C4F814B02F46A36061
:1031D000BD4200D22F463A462068514600F0B6FB69
:1031E000A368DB1BA36023681F4427602F462AE0E7
:1031F00020682369984202D863699D4213D2BD4278
:1032000038BF2F463A46514600F0A0FBA36822681B
:10321000DB1B3A44A3602260ABB940462146FFF76E
:10322000BEFC80B180E06FF0004E754538BFAE4601
:103230009EFBF3FE676A4046E169524603FB0EF3CC
:10324000B847071E70DDD9F80830BA44ED1BDF1B04
:10325000C9F80870002F7FF46EAF2CE7019D002D98
:1032600031D020682269D34534BF5B465346904233
:10327000A568D4F814E036D97544AB4233DD39463D
:103280002A4600F063FB236840462B442360214616
:10329000FFF785FC002847D1BBEB050B3CD0D9F8E4
:1032A00008302F44C5EB0A0A5D1BC9F80850002DF1
:1032B0003FF401AFBAF1000FD0D1002596E88004A9
:1032C00001950836F6E738460A21524600F030FBF1
:1032D00020B100F1010CC7EB0C0B01E00AF1010B6E
:1032E00001250195BDE7734508DB656A4046E16944
:1032F0003A467346A847051ECEDC15E01A46394605
:10330000009300F023FB009BA2681D46D21AA26026
:1033100022681A442260BFE740462146FFF73FFC7F
:1033200010B9CDF804B0BAE7A38943F04003A381F4
:103330004FF0FF3003B0BDE8F08F00BF00FCFF7F0F
:103340002DE9F041884600F5387400268CB1A56857
:103350006768013F0BD4AB89012B06D9B5F90E3054
:10336000013302D02846C04706436835F1E7246898
:10337000ECE73046BDE8F0812DE9F8438046894608
:1033800000F53874002694B1A5686768013F0CD435
:10339000AB89012B07D9B5F90E30013303D0404674
:1033A0002946C84706436835F0E72468EBE730460E
:1033B000BDE8F88310B514460AB90B4810BD104695
:1033C0000A4900F0E0FC0028F7D02046064900F04A
:1033D000DAFC0028F1D02046054900F0D4FC002892
:1033E000014818BF002010BDBC4608000047080077
:1033F000074708000048704738040720014B186A47
:10340000704700BF38040720004870475C0407205D
:1034100000207047004870477C0407200A46034993
:10342000034608681946FFF7C5BF00BF080007201C
:10343000004870477C040720F0B58B8991B09D0748
:1034400006460C463AD4B1F90E1000290BDAA389CE
:10345000002713F0800F43F400630CBF4FF4806526
:103460004025A3811FE001AA00F058FD0028EEDBF3
:10347000029B03F47043B3F500514F424F41B3F543
:10348000004FA3890AD1A26A1B498A4206D143F49C
:1034900080634FF48065A381E56404E043F4006336
:1034A000A3814FF480653046294600F039F860B9B1
:1034B000A3899A051DD443F00203A38104F14303B9
:1034C000236023610123636113E00C4BF363A38941
:1034D000206043F08003A381206165614FB13046D5
:1034E000B4F90E1000F02CFD18B1A38943F00103CC
:1034F000A38111B0F0BD00BF5B3D0800ED2B0800BB
:10350000024B0146186800F00BB800BF0800072006
:10351000024B01461868FFF70FBD00BF08000720E7
:103520002DE9F74F01F10B04162C074603D934F0AF
:10353000070401D502E010248C4202D20C233B6028
:10354000DEE1384600F01DFAB4F5FC7FA34D14D23D
:10355000E20805EBC203DE689E4206D106F10803CD
:1035600076699E4208BF023243D07368F268B16840
:1035700023F00303CA6091605DE0620A1AD0042A56
:1035800002D8A209383218E0142A01D85B3214E0BC
:10359000542A02D8220B6E320FE0B2F5AA7F02D86D
:1035A000E20B773209E040F254539A4204D8A20C5D
:1035B0007C3202E03F2200E07E2205EBC203DE689F
:1035C0009E4215D0716821F00301081B0F2801DD10
:1035D000013A0DE0002809DBF368B268D3609A6015
:1035E00073185A6842F001025A6094E1F668E7E7FE
:1035F00001327A492E6901F10800864286466DD073
:10360000736823F00303C4EB030CBCF10F0F0DDD53
:1036100033194CF0010244F0010474604B610B61FA
:10362000D86098605A6043F80CC074E1BCF1000F98
:103630004861086101DB3344D3E7B3F5007F11D261
:10364000DB0898104FF0010C0CFA00FC48684CEABB
:103650000000486001EBC3018B68F160B3608E60CD
:10366000DE603BE0580A042802D89809383015E09B
:10367000142801D85B3011E0542802D8180B6E30A2
:103680000CE0B0F5AA7F02D8D80B773006E040F204
:10369000545188429ABF980C7C307E2005EBC00CB8
:1036A000DCF80810DFF8348161450DD1012380106A
:1036B00003FA00F0D8F804300343C8F804300B468E
:1036C00008E08968614504D0486820F0030083421F
:1036D000F7D3CB68F360B1609E60CE600121931098
:1036E00001FA03F369688B425DD80B4206D122F0E0
:1036F00003025B000B4202F10402FAD005EBC200A8
:1037000080469446D8F80C6046452DD0716821F06B
:103710000309C4EB09010F2913DD331944F0010437
:10372000F268746056F8080FC260906041F00102C0
:103730006B612B61C3F80CE0C3F808E05A60595084
:103740000CE000290EDB06EB09014B6843F0010396
:103750004B60F36856F8082FD3609A60384600F043
:1037600011F9DCE0F668CFE70CF1010C1CF0030F57
:1037700008F10808C6D1910704D16A6822EA030259
:103780006A6005E0A0F108010068013A8842F2D0C1
:1037900069685B008B4206D82BB162460B42ADD103
:1037A00004325B00FAE7D5F80890D9F8043023F02A
:1037B000030BA34504D3C4EB0B030F2B00F3A28030
:1037C000074909EB0B030A68884604EB020AD5F89F
:1037D0000824013206D10AF1100A0BE0B4040720D4
:1037E000E00907200AF5805A0AF10F0A2AF47F6AD5
:1037F0002AF00F0A38465146019300F06FFA421C36
:103800000646019B6FD0984201D2A9456BD1D8F8EA
:1038100004209E425244C8F8042008D1C6F30B018C
:1038200029B9AB68DA444AF001025A604DE0D5F894
:103830000814013103D13C4BC3F8086403E0F31AC8
:103840001A44C8F8042016F007031CBFC3F108038C
:10385000F618B24403F58053CAF30B0ACAEB030A05
:103860005146384600F03AFA431C04BF30464FF048
:10387000000AD8F80430801B5044534440F0010043
:10388000A945AE60C8F8043070601ED0BBF10F0FC0
:1038900002D80123736026E0D9F80430ABF10C0B99
:1038A0002BF0070B03F001034BEA0303C9F80430C4
:1038B000052209EB0B03BBF10F0F5A609A6004D984
:1038C000384609F10801FFF737FBD8F80430D8F87B
:1038D0002C20934284BF154AD362D8F830209342FB
:1038E00084BF124A1363AB685A6822F00302A242F3
:1038F000C4EB020301D30F2B04DC384600F042F87E
:1039000000260CE0AE6844F0010243F001033444A9
:103910007260AC606360384600F034F808363046B8
:1039200003B0BDE8F08F00BFB4040720E009072012
:1039300010B5C9B202449042034605D01C7801304C
:103940008C42F8D1184610BD002010BD814270B5E0
:1039500001D300230EE08C18A042FAD2851813463A
:1039600013F1FF3305D351426618F65C2944CE5457
:10397000F6E770BD934203D0CC5CC4540133F9E741
:1039800070BD7047704700002DE9F74F81460C4627
:1039900029B9114603B0BDE8F04FFFF7C1BD019250
:1039A000FFF7EFFF019A54F8045C02F10B07162FA2
:1039B000A4F1080825F0030603D937F0070701D55D
:1039C00002E01027974204D20C23C9F800300020EF
:1039D00080E1BE4280F25681A34908EB0603D1F88C
:1039E00008E08B467345586805D020F00101194462
:1039F0004968C90725D420F00300734500EB060190
:103A000017D107F1100C61451DDBC91B08EB070539
:103A100041F00101CBF80850696054F8043C484675
:103A200003F001031F4344F8047CFFF7ABFF20467B
:103A300050E1B94207DBDA689B680E46DA609360B2
:103A400020E100200346E90700F1CB8054F8085C30
:103A5000C5EB0805696821F0030101EB060A002B9C
:103A600000F08A8073454DD10AEB000307F1100185
:103A70008B42C0F28180A846EA6858F8081FCA60E5
:103A80009160321F242A26D8132A1CD921681B2AA8
:103A9000A9606168E96003D805F11002083413E0F9
:103AA000A168242A2961E168696103D005F118023F
:103AB000103409E022691834AA6154F8041C05F195
:103AC0002002E96100E042462168116061685160AE
:103AD000A168916005E0404621460193FFF736FF5B
:103AE000019BDB1BEA1943F00103CBF8082053606C
:103AF0006B68484603F001031F436F60FFF742FF06
:103B00004046E7E00AEB000BBB4535DBDA689B6813
:103B10002846DA60936050F8082FEB68D3609A600B
:103B2000321F242A23D8132A1AD923681B2AAB60F0
:103B30006368EB6003D805F11000083410E0A36857
:103B4000242A2B61E3686B6103D005F1180010345F
:103B500006E0236905F12000AB6163691834EB616D
:103B60002368036063684360A368836002E02146C2
:103B7000FFF7ECFE5E462EE0BA4532DB284650F8F1
:103B8000082FEB68D3609A60321F242A25D8132AA5
:103B90001AD923681B2AAB606368EB6003D805F170
:103BA0001000083410E0A368242A2B61E3686B61DD
:103BB00003D005F11800103406E0236905F1200058
:103BC000AB6163691834EB61236803606368436029
:103BD000A36883605646A84654E02146FFF7B6FE28
:103BE000F8E748461146FFF79BFC0546002844D0FD
:103BF00054F8043CA0F1080223F0010343449A4224
:103C000005D150F8043C23F003031E443AE0321F70
:103C1000242A2BD8132A1ED923681B2A0360636821
:103C2000436004D800F1080304F1080215E0A3681A
:103C3000242A8360E368C36004D000F1100304F118
:103C400010020AE0236904F118020361616900F1BE
:103C50001803416101E0034622461168196051686A
:103C6000596092689A6004E0B40407202146FFF787
:103C70006DFE48462146FFF75FF94846FFF782FE92
:103C8000284627E0F31B0F2BD8F8042013D902F0A5
:103C9000010208EB0701174343F00102C8F8047062
:103CA0000B444A605A68484642F001025A600831A3
:103CB000FFF742F909E002F001023243C8F804209C
:103CC0004644736843F0010373604846FFF75AFEA9
:103CD00008F1080003B0BDE8F08F00BF38B5064C0E
:103CE0000023054608462360FEF718F8431C02D15E
:103CF000236803B12B6038BD9C0A072010B50C4621
:103D0000B1F90E1000F03EF9002803DB236D0344E7
:103D1000236510BDA38923F48053A38110BD002027
:103D200070472DE9F0411D468B890746DB050C469F
:103D3000164605D5B1F90E100022022300F010F945
:103D4000A389384623F48053A381B4F90E10324678
:103D50002B46BDE8F04100F079B810B50C46B1F93A
:103D60000E1000F0FDF8431CA38903D123F4805307
:103D7000A38110BD43F48053A381206510BDB1F928
:103D80000E1000F075B810F8012B11F8013B012A54
:103D900028BF9A42F7D0D01A704700002DE9F041B1
:103DA0001D46104B86B0044690460E461F6839B932
:103DB000FFF720FB0095034603A92046324606E0A4
:103DC000FFF718FB00950346314620464246B847A8
:103DD000431C03D100232B608A23236006B0BDE877
:103DE000F08100BFC408072030B51346044A0546D9
:103DF0000C46106829462246BDE83040FFF7CEBF8A
:103E00000800072049B1FF2A04D98A2303604FF034
:103E1000FF3070470A7001207047084670472DE94F
:103E2000F3419846084B05461C680F461646FFF7B7
:103E3000E1FACDF800800346394628463246A047CD
:103E400002B0BDE8F08100BFC408072038B5074CB8
:103E5000054600202060084611461A46FCF7DEFBA6
:103E6000431C02D1236803B12B6038BD9C0A072094
:103E700038B5064C0023054608462360FDF768FF69
:103E8000431C02D1236803B12B6038BD9C0A072074
:103E900070B505460C4609B9002070BD18B1836B9A
:103EA0000BB9FEF7C5FEB4F90C30002BF4D0284650
:103EB0002146FEF774FEE36A064633B12846E169FF
:103EC00098470028B8BF4FF0FF36A3891B0603D5DB
:103ED00028462169FFF730F8216B41B104F1400316
:103EE000994202D02846FFF727F800232363616C2C
:103EF00021B12846FFF720F800236364FEF74AFF4C
:103F00000023A381FEF747FF304670BD024B0146F8
:103F10001868FFF7BDBF00BF0800072038B5074C81
:103F200000230546084611462360FDF715FF431C94
:103F300002D1236803B12B6038BD00BF9C0A072063
:103F400038B5064C0023054608462360FDF70AFFF6
:103F5000431C02D1236803B12B6038BD9C0A0720A3
:103F600038B5074C054600202060084611461A4621
:103F7000FDF7FAFE431C02D1236803B12B6038BD64
:103F80009C0A072038B5074C0546002020600846EB
:103F900011461A46FCF722FB431C02D1236803B1E9
:103FA0002B6038BD9C0A07204BB942B9002908BFD5
:103FB000002802D04FF0FF31084600F03BB882B035
:103FC000EC462DE9005000F01DF8DDF804E002B0E9
:103FD0000CBC70472DE9704F089E14461D46804664
:103FE000894600F029F804FB01F3A4FB00AB00FBB9
:103FF00005329344B8EB0A0869EB0B09C6E900895E
:10400000BDE8708F2DE9704F089E14461D4680460E
:10401000894600F061F900FB05F5A0FB04AB04FB49
:104020000154A344B8EB0A0869EB0B09C6E90089FF
:10403000BDE8708F704700BF00292DE9F00FC0F276
:10404000A1800024002BC0F29880154606460F463A
:10405000002B3FD18A4258D9B2FA82F34BB1C3F157
:10406000200201FA03F720FA02F29D4000FA03F65B
:104070001743290CB7FBF1F201FB1277A8B200FB42
:1040800002F34FEA164C4CEA0747BB4209D97F19A5
:1040900002F1FF3C80F00581BB4240F20281023A0E
:1040A0002F44FF1AB7FBF1F301FB137100FB03F080
:1040B000B6B246EA0141884208D9491903F1FF37EF
:1040C00080F0F180884240F2EE80023B43EA0242F7
:1040D000002303E08B420AD900231A4610461946F2
:1040E00014B1404261EB4101BDE8F00F7047B3FAF3
:1040F00083F8B8F1000F40F088808B4202D38242EF
:1041000000F2E28000230122E8E712B90123B3FBA9
:10411000F2F5B5FA85F2002A3AD17F1B280C1FFA76
:1041200085FC0123B7FBF0F100FB11770CFB01F2DA
:104130004FEA164848EA0747BA4207D97F1901F102
:10414000FF3802D2BA4200F2C4804146BF1AB7FB20
:10415000F0F200FB12700CFB02FCB6B246EA004023
:10416000844507D9401902F1FF3702D2844500F295
:10417000AE803A4642EA0142B0E7E443524263EB82
:10418000430362E7404261EB41014FF0FF3459E7DE
:104190009540C2F1200927FA09F126FA09F997405A
:1041A000280CB1FBF0F800FB18111FFA85FC0CFB82
:1041B00008F349EA07094FEA194747EA01418B42E8
:1041C00006FA02F608D9491908F1FF327AD28B4271
:1041D00078D9A8F102082944C91AB1FBF0F300FB11
:1041E00013170CFB03F21FFA89F949EA0747BA4291
:1041F00007D97F1903F1FF3160D2BA425ED9023B81
:104200002F44BF1A43EA08438CE7C8F1200225FA7D
:1042100002F103FA08FC27FA02F320FA02F207FA85
:1042200008F741EA0C0C4FEA1C49B3FBF9F109FB12
:1042300011331FFA8CFA0AFB01FB17433A0C42EACE
:1042400003439B4505FA08F008D913EB0C0301F171
:10425000FF3235D29B4533D902396344CBEB03039C
:10426000B3FBF9F209FB12330AFB02FABFB247EAC9
:104270000347BA4508D917EB0C0702F1FF331BD2ED
:10428000BA4519D9023A674442EA0145A5FB000143
:10429000CAEB07078F424FF000030AD305D02A4626
:1042A0001CE76246FDE63B4610E706FA08F6864242
:1042B000F5D26A1E002311E71A46E5E70B46A0E790
:1042C0001146CBE7904687E74346424606E7023A67
:1042D00050E702392F4439E72DE9F00F144605461F
:1042E0000E46002B43D18A4253D9B2FA82F757B116
:1042F000C7F1200620FA06F601FA07F302FA07F4DE
:1043000000FA07F51E43210CB6FBF1F201FB126621
:10431000A0B200FB02F32F0C47EA0646B34209D9CC
:10432000361902F1FF3780F0FD80B34240F2FA8087
:10433000023A2644F61AB6FBF1F301FB136100FBC7
:1043400003F0ADB245EA0141884208D9091903F1E9
:10435000FF3680F0E980884240F2E680023B43EA83
:104360000242002310461946BDE8F00F70478B4209
:104370004CD8B3FA83F6002E4FD18B4202D382423F
:1043800000F2DD80BDE8F00F00230122104619463F
:10439000704712B90124B4FBF2F4B4FA84F2002A93
:1043A00040F08280091B260CA7B20123B1FBF6F076
:1043B00006FB101107FB00F24FEA154C4CEA0141D5
:1043C0008A4207D9091900F1FF3C02D28A4200F261
:1043D000C8806046891AB1FBF6F206FB121107FB92
:1043E00002F7ADB245EA0145AF4208D92C1902F1F6
:1043F000FF3180F09B80A74240F29880023A42EA67
:10440000004210461946BDE8F00F704700231A46D7
:1044100010461946BDE8F00F7047C6F1200522FA94
:1044200005F703FA06F421FA05F301FA06FB20FA70
:1044300005F53C434FEA1448B3FBF8FC08FB1C337A
:104440001FFA84F909FB0CFA45EA0B0B4FEA1B45EE
:1044500045EA03439A4502FA06F204D91B190CF106
:10446000FF356FD3AC46CAEB0303B3FBF8F508FB8B
:10447000153309FB05F91FFA8BFB4BEA0347B945D6
:1044800004D93F1905F1FF3362D31D4645EA0C4CB0
:10449000ACFB0223C9EB07079F424FF000054AD34C
:1044A00046D062462B465DE79440C2F1200921FACE
:1044B00009FC914020FA09F9260CBCFBF6F806FB32
:1044C00018CCA7B207FB08F349EA01094FEA1941E2
:1044D00041EA0C4C634500FA02F509D91CEB040CC7
:1044E00008F1FF323BD2634539D9A8F10208A44450
:1044F000C3EB0C0CBCFBF6F306FB13C107FB03F28A
:104500001FFA89F949EA01418A4207D9091903F1D9
:10451000FF3022D28A4220D9023B2144891A43EA41
:10452000084343E73A4605E7334618E70A4666E795
:10453000B0409042B5D20CF1FF32002312E733466F
:1045400032460FE79A458DD9ACF1020C23448AE735
:10455000B9459AD9023D274498E70346DEE79046DD
:10456000C6E70238214435E74144432069732031CE
:1045700030626974000000004368616E6E656C20F3
:10458000332064697361626C6564000050696E2059
:10459000332069732064697361626C656400000094
:1045A00050696E2033206973206F757470757400C4
:1045B00050696E2033206D6F6465206973206E6FC3
:1045C000742070756C6C75700000000074657374F5
:1045D0002F746573745F6164632E63007465737414
:1045E0005F6164635F313262697400007465737483
:1045F0005F6368616E6E656C5F335F656E61626C90
:1046000065640000746573745F6164635F70696EF4
:104610005F656E61626C65640000000074657374B0
:104620005F6164635F70696E5F696E7075740000CE
:10463000746573745F6164635F70696E5F70756CDD
:104640006C75700023332025640A0D002334202567
:10465000640A0D004F4B00002E20000020576173AC
:10466000200000004641494C0000000020457870C1
:1046700065637465642000002D2D2D2D2D2D2D2DAD
:104680002D2D2D2D2D2D2D2D2D2D2D2D2D2D2D0087
:10469000204661696C757265732000002049676E61
:1046A0006F726564200000002054657374732000ED
:1046B0005041535300000000100007204300202009
:1046C00020202020202020202020202020203030CA
:1046D00030303030303030303030303030303031D9
:1046E0003233343536373839414243444546003059
:1046F0003132333435363738396162636465660088
:10470000504F534958002E00F8B500BFF8BC08BC04
:104710009E467047752A08006D010800F8B500BF75
:0C472000F8BC08BC9E467047450108002C
:08472C000CF9FF7F0100000001
:10473400FFFFFFFF00093D001000072000000000FC
:1047440000000000FC02072064030720CC030720BC
:104754000000000000000000000000000000000055
:104764000000000000000000000000000000000045
:1047740000000000BC46080000000000000000002B
:104784000000000000000000000000000000000025
:104794000000000000000000000000000000000015
:1047A4000000000000000000000000000000000005
:1047B40000000000000000000000000000000000F5
:1047C40000000000000000000000000000000000E5
:1047D40000000000000000000000000000000000D5
:1047E40000000000000000000100000000000000C4
:1047F4000E33CDAB34126DE6ECDE05000B00000089
:1048040000000000000000000000000000000000A4
:104814000000000000000000000000000000000094
:104824000000000000000000000000000000000084
:104834000000000000000000000000000000000074
:104B640000000000000000004153434949000000D8
:104B74000000000000000000000000000000000031
:104B84000000000000000000010000004153434900
:104B940049000000000000000000000000000000C8
:104BA40000000000000000000000000006470800AC
:104BB4000747080007470800074708000747080099
:104BC4000747080007470800074708000747080089
:104BD40007470800FFFFFFFFFFFFFFFFFFFFFFFF87
:104BE400FFFF00000000000000000000B4040720E4
:104BF400B4040720BC040720BC040720C404072015
:104C0400C4040720CC040720CC040720D4040720C4
:104C1400D4040720DC040720DC040720E404072074
:104C2400E4040720EC040720EC040720F404072024
:104C3400F4040720FC040720FC04072004050720D3
:104C4400040507200C0507200C0507201405072080
:104C5400140507201C0507201C0507202405072030
:104C6400240507202C0507202C05072034050720E0
:104C7400340507203C0507203C0507204405072090
:104C8400440507204C0507204C0507205405072040
:104C9400540507205C0507205C05072064050720F0
:104CA400640507206C0507206C05072074050720A0
:104CB400740507207C0507207C0507208405072050
:104CC400840507208C0507208C0507209405072000
:104CD400940507209C0507209C050720A4050720B0
:104CE400A4050720AC050720AC050720B405072060
:104CF400B4050720BC050720BC050720C405072010
:104D0400C4050720CC050720CC050720D4050720BF
:104D1400D4050720DC050720DC050720E40507206F
:104D2400E4050720EC050720EC050720F40507201F
:104D3400F4050720FC050720FC05072004060720CE
:104D4400040607200C0607200C060720140607207B
:104D5400140607201C0607201C060720240607202B
:104D6400240607202C0607202C06072034060720DB
:104D7400340607203C0607203C060720440607208B
:104D8400440607204C0607204C060720540607203B
:104D9400540607205C0607205C06072064060720EB
:104DA400640607206C0607206C060720740607209B
:104DB400740607207C0607207C060720840607204B
:104DC400840607208C0607208C06072094060720FB
:104DD400940607209C0607209C060720A4060720AB
:104DE400A4060720AC060720AC060720B40607205B
:104DF400B4060720BC060720BC060720C40607200B
:104E0400C4060720CC060720CC060720D4060720BA
:104E1400D4060720DC060720DC060720E40607206A
:104E2400E4060720EC060720EC060720F40607201A
:104E3400F4060720FC060720FC06072004070720C9
:104E4400040707200C0707200C0707201407072076
:104E5400140707201C0707201C0707202407072026
:104E6400240707202C0707202C07072034070720D6
:104E7400340707203C0707203C0707204407072086
:104E8400440707204C0707204C0707205407072036
:104E9400540707205C0707205C07072064070720E6
:104EA400640707206C0707206C0707207407072096
:104EB400740707207C0707207C0707208407072046
:104EC400840707208C0707208C07072094070720F6
:104ED400940707209C0707209C070720A4070720A6
:104EE400A4070720AC070720AC070720B407072056
:104EF400B4070720BC070720BC070720C407072006
:104F0400C4070720CC070720CC070720D4070720B5
:104F1400D4070720DC070720DC070720E407072065
:104F2400E4070720EC070720EC070720F407072015
:104F3400F4070720FC070720FC07072004080720C4
:104F4400040807200C0807200C0807201408072071
:104F5400140807201C0807201C0807202408072021
:104F6400240807202C0807202C08072034080720D1
:104F7400340807203C0807203C0807204408072081
:104F8400440807204C0807204C0807205408072031
:104F9400540807205C0807205C08072064080720E1
:104FA400640807206C0807206C0807207408072091
:104FB400740807207C0807207C0807208408072041
:104FC400840807208C0807208C08072094080720F1
:104FD400940807209C0807209C080720A4080720A1
:104FE400A4080720AC080720AC080720FFFFFFFF38
:084FF40000000200053E080068
:0400000380001AC996
:00000001FF
